{"contracts/PropertyContractNFT.sol":{"PropertyContractNFT":{"abi":[{"inputs":[],"stateMutability":"nonpayable","type":"constructor"},{"anonymous":false,"inputs":[{"indexed":true,"internalType":"address","name":"owner","type":"address"},{"indexed":true,"internalType":"address","name":"approved","type":"address"},{"indexed":true,"internalType":"uint256","name":"tokenId","type":"uint256"}],"name":"Approval","type":"event"},{"anonymous":false,"inputs":[{"indexed":true,"internalType":"address","name":"owner","type":"address"},{"indexed":true,"internalType":"address","name":"operator","type":"address"},{"indexed":false,"internalType":"bool","name":"approved","type":"bool"}],"name":"ApprovalForAll","type":"event"},{"anonymous":false,"inputs":[{"indexed":false,"internalType":"uint256","name":"_fromTokenId","type":"uint256"},{"indexed":false,"internalType":"uint256","name":"_toTokenId","type":"uint256"}],"name":"BatchMetadataUpdate","type":"event"},{"anonymous":false,"inputs":[{"indexed":false,"internalType":"uint256","name":"_tokenId","type":"uint256"}],"name":"MetadataUpdate","type":"event"},{"anonymous":false,"inputs":[{"indexed":true,"internalType":"address","name":"previousOwner","type":"address"},{"indexed":true,"internalType":"address","name":"newOwner","type":"address"}],"name":"OwnershipTransferred","type":"event"},{"anonymous":false,"inputs":[{"indexed":false,"internalType":"address","name":"account","type":"address"}],"name":"Paused","type":"event"},{"anonymous":false,"inputs":[{"indexed":true,"internalType":"address","name":"from","type":"address"},{"indexed":true,"internalType":"address","name":"to","type":"address"},{"indexed":true,"internalType":"uint256","name":"tokenId","type":"uint256"}],"name":"Transfer","type":"event"},{"anonymous":false,"inputs":[{"indexed":false,"internalType":"address","name":"account","type":"address"}],"name":"Unpaused","type":"event"},{"inputs":[{"internalType":"uint256","name":"","type":"uint256"}],"name":"PFTMap","outputs":[{"internalType":"uint256","name":"tokenId","type":"uint256"},{"internalType":"address","name":"pftAddress","type":"address"}],"stateMutability":"view","type":"function"},{"inputs":[{"internalType":"address","name":"to","type":"address"},{"internalType":"uint256","name":"tokenId","type":"uint256"}],"name":"approve","outputs":[],"stateMutability":"nonpayable","type":"function"},{"inputs":[{"internalType":"address","name":"owner","type":"address"}],"name":"balanceOf","outputs":[{"internalType":"uint256","name":"","type":"uint256"}],"stateMutability":"view","type":"function"},{"inputs":[{"internalType":"uint256","name":"tokenId","type":"uint256"}],"name":"getApproved","outputs":[{"internalType":"address","name":"","type":"address"}],"stateMutability":"view","type":"function"},{"inputs":[],"name":"getNumberOfNFTs","outputs":[{"internalType":"uint256","name":"","type":"uint256"}],"stateMutability":"view","type":"function"},{"inputs":[{"internalType":"address","name":"owner","type":"address"},{"internalType":"address","name":"operator","type":"address"}],"name":"isApprovedForAll","outputs":[{"internalType":"bool","name":"","type":"bool"}],"stateMutability":"view","type":"function"},{"inputs":[{"internalType":"address","name":"_to","type":"address"},{"internalType":"string","name":"_tokenURI","type":"string"},{"internalType":"uint256","name":"_totalPropertyFractionTokens","type":"uint256"}],"name":"mint","outputs":[],"stateMutability":"nonpayable","type":"function"},{"inputs":[],"name":"name","outputs":[{"internalType":"string","name":"","type":"string"}],"stateMutability":"view","type":"function"},{"inputs":[],"name":"owner","outputs":[{"internalType":"address","name":"","type":"address"}],"stateMutability":"view","type":"function"},{"inputs":[{"internalType":"uint256","name":"tokenId","type":"uint256"}],"name":"ownerOf","outputs":[{"internalType":"address","name":"","type":"address"}],"stateMutability":"view","type":"function"},{"inputs":[],"name":"pause","outputs":[],"stateMutability":"nonpayable","type":"function"},{"inputs":[],"name":"paused","outputs":[{"internalType":"bool","name":"","type":"bool"}],"stateMutability":"view","type":"function"},{"inputs":[],"name":"renounceOwnership","outputs":[],"stateMutability":"nonpayable","type":"function"},{"inputs":[{"internalType":"address","name":"from","type":"address"},{"internalType":"address","name":"to","type":"address"},{"internalType":"uint256","name":"tokenId","type":"uint256"}],"name":"safeTransferFrom","outputs":[],"stateMutability":"nonpayable","type":"function"},{"inputs":[{"internalType":"address","name":"from","type":"address"},{"internalType":"address","name":"to","type":"address"},{"internalType":"uint256","name":"tokenId","type":"uint256"},{"internalType":"bytes","name":"data","type":"bytes"}],"name":"safeTransferFrom","outputs":[],"stateMutability":"nonpayable","type":"function"},{"inputs":[{"internalType":"address","name":"operator","type":"address"},{"internalType":"bool","name":"approved","type":"bool"}],"name":"setApprovalForAll","outputs":[],"stateMutability":"nonpayable","type":"function"},{"inputs":[{"internalType":"bytes4","name":"interfaceId","type":"bytes4"}],"name":"supportsInterface","outputs":[{"internalType":"bool","name":"","type":"bool"}],"stateMutability":"view","type":"function"},{"inputs":[],"name":"symbol","outputs":[{"internalType":"string","name":"","type":"string"}],"stateMutability":"view","type":"function"},{"inputs":[{"internalType":"uint256","name":"tokenId","type":"uint256"}],"name":"tokenURI","outputs":[{"internalType":"string","name":"","type":"string"}],"stateMutability":"view","type":"function"},{"inputs":[{"internalType":"address","name":"_to","type":"address"},{"internalType":"uint256","name":"_tokenId","type":"uint256"},{"internalType":"uint256","name":"_amount","type":"uint256"}],"name":"transferERC20","outputs":[],"stateMutability":"nonpayable","type":"function"},{"inputs":[{"internalType":"address","name":"from","type":"address"},{"internalType":"address","name":"to","type":"address"},{"internalType":"uint256","name":"tokenId","type":"uint256"}],"name":"transferFrom","outputs":[],"stateMutability":"nonpayable","type":"function"},{"inputs":[{"internalType":"address","name":"newOwner","type":"address"}],"name":"transferOwnership","outputs":[],"stateMutability":"nonpayable","type":"function"},{"inputs":[],"name":"unpause","outputs":[],"stateMutability":"nonpayable","type":"function"}],"evm":{"bytecode":{"linkReferences":{},"object":"60806040523480156200001157600080fd5b506040518060400160405280601381526020017f50726f7065727479436f6e74726163744e4654000000000000000000000000008152506040518060400160405280600581526020017f50434e4654000000000000000000000000000000000000000000000000000000815250816000908051906020019062000096929190620001c1565b508060019080519060200190620000af929190620001c1565b5050506000600760006101000a81548160ff021916908315150217905550620000ed620000e1620000f360201b60201c565b620000fb60201b60201c565b620002d6565b600033905090565b6000600760019054906101000a900473ffffffffffffffffffffffffffffffffffffffff16905081600760016101000a81548173ffffffffffffffffffffffffffffffffffffffff021916908373ffffffffffffffffffffffffffffffffffffffff1602179055508173ffffffffffffffffffffffffffffffffffffffff168173ffffffffffffffffffffffffffffffffffffffff167f8be0079c531659141344cd1fd0a4f28419497f9722a3daafe3b4186f6b6457e060405160405180910390a35050565b828054620001cf90620002a0565b90600052602060002090601f016020900481019282620001f357600085556200023f565b82601f106200020e57805160ff19168380011785556200023f565b828001600101855582156200023f579182015b828111156200023e57825182559160200191906001019062000221565b5b5090506200024e919062000252565b5090565b5b808211156200026d57600081600090555060010162000253565b5090565b7f4e487b7100000000000000000000000000000000000000000000000000000000600052602260045260246000fd5b60006002820490506001821680620002b957607f821691505b60208210811415620002d057620002cf62000271565b5b50919050565b6158c880620002e66000396000f3fe60806040523480156200001157600080fd5b50600436106200016c5760003560e01c8063715018a611620000d5578063b756fb691162000087578063b756fb6914620003ce578063b88d4fde14620003ee578063ba7aef43146200040e578063c87b56dd146200042e578063e985e9c51462000464578063f2fde38b146200049a576200016c565b8063715018a6146200033057806380060ad2146200033c5780638456cb59146200035e5780638da5cb5b146200036a57806395d89b41146200038c578063a22cb46514620003ae576200016c565b806323b872dd116200012f57806323b872dd14620002565780633f4ba83a146200027657806342842e0e14620002825780635c975abb14620002a25780636352211e14620002c457806370a0823114620002fa576200016c565b806301ffc9a7146200017157806306fdde0314620001a7578063081812fc14620001c9578063095ea7b314620001ff5780631a38d733146200021f575b600080fd5b6200018f6004803603810190620001899190620023d9565b620004ba565b6040516200019e919062002428565b60405180910390f35b620001b1620004ce565b604051620001c09190620024e9565b60405180910390f35b620001e76004803603810190620001e1919062002548565b62000568565b604051620001f69190620025bf565b60405180910390f35b6200021d60048036038101906200021791906200260d565b620005b0565b005b6200023d600480360381019062000237919062002548565b620006d9565b6040516200024d92919062002665565b60405180910390f35b6200027460048036038101906200026e919062002692565b6200071d565b005b6200028062000786565b005b620002a060048036038101906200029a919062002692565b6200079c565b005b620002ac620007be565b604051620002bb919062002428565b60405180910390f35b620002e26004803603810190620002dc919062002548565b620007d5565b604051620002f19190620025bf565b60405180910390f35b620003186004803603810190620003129190620026ee565b62000861565b60405162000327919062002720565b60405180910390f35b6200033a6200091c565b005b6200034662000934565b60405162000355919062002720565b60405180910390f35b6200036862000947565b005b620003746200095d565b604051620003839190620025bf565b60405180910390f35b6200039662000987565b604051620003a59190620024e9565b60405180910390f35b620003cc6004803603810190620003c691906200276e565b62000a21565b005b620003ec6004803603810190620003e69190620027b5565b62000a3b565b005b6200040c600480360381019062000406919062002962565b62000af5565b005b6200042c600480360381019062000426919062002aa7565b62000b60565b005b6200044c600480360381019062000446919062002548565b62000c97565b6040516200045b9190620024e9565b60405180910390f35b6200048260048036038101906200047c919062002b22565b62000cab565b60405162000491919062002428565b60405180910390f35b620004b86004803603810190620004b29190620026ee565b62000d3f565b005b6000620004c78262000dca565b9050919050565b606060008054620004df9062002b98565b80601f01602080910402602001604051908101604052809291908181526020018280546200050d9062002b98565b80156200055e5780601f1062000532576101008083540402835291602001916200055e565b820191906000526020600020905b8154815290600101906020018083116200054057829003601f168201915b5050505050905090565b6000620005758262000e2e565b6004600083815260200190815260200160002060009054906101000a900473ffffffffffffffffffffffffffffffffffffffff169050919050565b6000620005bd82620007d5565b90508073ffffffffffffffffffffffffffffffffffffffff168373ffffffffffffffffffffffffffffffffffffffff16141562000631576040517f08c379a0000000000000000000000000000000000000000000000000000000008152600401620006289062002c44565b60405180910390fd5b8073ffffffffffffffffffffffffffffffffffffffff166200065262000e7e565b73ffffffffffffffffffffffffffffffffffffffff16148062000686575062000685816200067f62000e7e565b62000cab565b5b620006c8576040517f08c379a0000000000000000000000000000000000000000000000000000000008152600401620006bf9062002cdc565b60405180910390fd5b620006d4838362000e86565b505050565b60096020528060005260406000206000915090508060000154908060010160009054906101000a900473ffffffffffffffffffffffffffffffffffffffff16905082565b620007326200072b62000e7e565b8262000f41565b62000774576040517f08c379a00000000000000000000000000000000000000000000000000000000081526004016200076b9062002d74565b60405180910390fd5b6200078183838362000fde565b505050565b62000790620012e9565b6200079a6200136e565b565b620007b98383836040518060200160405280600081525062000af5565b505050565b6000600760009054906101000a900460ff16905090565b600080620007e383620013d7565b9050600073ffffffffffffffffffffffffffffffffffffffff168173ffffffffffffffffffffffffffffffffffffffff16141562000858576040517f08c379a00000000000000000000000000000000000000000000000000000000081526004016200084f9062002de6565b60405180910390fd5b80915050919050565b60008073ffffffffffffffffffffffffffffffffffffffff168273ffffffffffffffffffffffffffffffffffffffff161415620008d5576040517f08c379a0000000000000000000000000000000000000000000000000000000008152600401620008cc9062002e7e565b60405180910390fd5b600360008373ffffffffffffffffffffffffffffffffffffffff1673ffffffffffffffffffffffffffffffffffffffff168152602001908152602001600020549050919050565b62000926620012e9565b62000932600062001414565b565b6000620009426008620014da565b905090565b62000951620012e9565b6200095b620014e8565b565b6000600760019054906101000a900473ffffffffffffffffffffffffffffffffffffffff16905090565b606060018054620009989062002b98565b80601f0160208091040260200160405190810160405280929190818152602001828054620009c69062002b98565b801562000a175780601f10620009eb5761010080835404028352916020019162000a17565b820191906000526020600020905b815481529060010190602001808311620009f957829003601f168201915b5050505050905090565b62000a3762000a2f62000e7e565b838362001551565b5050565b60006009600084815260200190815260200160002060010160009054906101000a900473ffffffffffffffffffffffffffffffffffffffff16905060008190508073ffffffffffffffffffffffffffffffffffffffff16638c2b1bd73387866040518463ffffffff1660e01b815260040162000aba9392919062002ea0565b600060405180830381600087803b15801562000ad557600080fd5b505af115801562000aea573d6000803e3d6000fd5b505050505050505050565b62000b0a62000b0362000e7e565b8362000f41565b62000b4c576040517f08c379a000000000000000000000000000000000000000000000000000000000815260040162000b439062002d74565b60405180910390fd5b62000b5a84848484620016c3565b50505050565b62000b6a620012e9565b62000b818362000b7b6008620014da565b62001726565b62000b9862000b916008620014da565b8362001746565b6000813360405162000baa90620022aa565b62000bb792919062002665565b604051809103906000f08015801562000bd4573d6000803e3d6000fd5b5090506000604051806040016040528062000bf06008620014da565b81526020018373ffffffffffffffffffffffffffffffffffffffff168152509050806009600062000c226008620014da565b81526020019081526020016000206000820151816000015560208201518160010160006101000a81548173ffffffffffffffffffffffffffffffffffffffff021916908373ffffffffffffffffffffffffffffffffffffffff16021790555090505062000c906008620017fa565b5050505050565b606062000ca48262001810565b9050919050565b6000600560008473ffffffffffffffffffffffffffffffffffffffff1673ffffffffffffffffffffffffffffffffffffffff16815260200190815260200160002060008373ffffffffffffffffffffffffffffffffffffffff1673ffffffffffffffffffffffffffffffffffffffff16815260200190815260200160002060009054906101000a900460ff16905092915050565b62000d49620012e9565b600073ffffffffffffffffffffffffffffffffffffffff168173ffffffffffffffffffffffffffffffffffffffff16141562000dbc576040517f08c379a000000000000000000000000000000000000000000000000000000000815260040162000db39062002f53565b60405180910390fd5b62000dc78162001414565b50565b6000634906490660e01b7bffffffffffffffffffffffffffffffffffffffffffffffffffffffff1916827bffffffffffffffffffffffffffffffffffffffffffffffffffffffff1916148062000e27575062000e268262001937565b5b9050919050565b62000e398162001a1d565b62000e7b576040517f08c379a000000000000000000000000000000000000000000000000000000000815260040162000e729062002de6565b60405180910390fd5b50565b600033905090565b816004600083815260200190815260200160002060006101000a81548173ffffffffffffffffffffffffffffffffffffffff021916908373ffffffffffffffffffffffffffffffffffffffff160217905550808273ffffffffffffffffffffffffffffffffffffffff1662000efb83620007d5565b73ffffffffffffffffffffffffffffffffffffffff167f8c5be1e5ebec7d5bd14f71427d1e84f3dd0314c0f7b2291e5b200ac8c7c3b92560405160405180910390a45050565b60008062000f4f83620007d5565b90508073ffffffffffffffffffffffffffffffffffffffff168473ffffffffffffffffffffffffffffffffffffffff16148062000f94575062000f93818562000cab565b5b8062000fd557508373ffffffffffffffffffffffffffffffffffffffff1662000fbd8462000568565b73ffffffffffffffffffffffffffffffffffffffff16145b91505092915050565b8273ffffffffffffffffffffffffffffffffffffffff166200100082620007d5565b73ffffffffffffffffffffffffffffffffffffffff161462001059576040517f08c379a0000000000000000000000000000000000000000000000000000000008152600401620010509062002feb565b60405180910390fd5b600073ffffffffffffffffffffffffffffffffffffffff168273ffffffffffffffffffffffffffffffffffffffff161415620010cc576040517f08c379a0000000000000000000000000000000000000000000000000000000008152600401620010c39062003083565b60405180910390fd5b620010db838383600162001a60565b8273ffffffffffffffffffffffffffffffffffffffff16620010fd82620007d5565b73ffffffffffffffffffffffffffffffffffffffff161462001156576040517f08c379a00000000000000000000000000000000000000000000000000000000081526004016200114d9062002feb565b60405180910390fd5b6004600082815260200190815260200160002060006101000a81549073ffffffffffffffffffffffffffffffffffffffff02191690556001600360008573ffffffffffffffffffffffffffffffffffffffff1673ffffffffffffffffffffffffffffffffffffffff168152602001908152602001600020600082825403925050819055506001600360008473ffffffffffffffffffffffffffffffffffffffff1673ffffffffffffffffffffffffffffffffffffffff16815260200190815260200160002060008282540192505081905550816002600083815260200190815260200160002060006101000a81548173ffffffffffffffffffffffffffffffffffffffff021916908373ffffffffffffffffffffffffffffffffffffffff160217905550808273ffffffffffffffffffffffffffffffffffffffff168473ffffffffffffffffffffffffffffffffffffffff167fddf252ad1be2c89b69c2b068fc378daa952ba7f163c4a11628f55a4df523b3ef60405160405180910390a4620012e4838383600162001a66565b505050565b620012f362000e7e565b73ffffffffffffffffffffffffffffffffffffffff16620013136200095d565b73ffffffffffffffffffffffffffffffffffffffff16146200136c576040517f08c379a00000000000000000000000000000000000000000000000000000000081526004016200136390620030f5565b60405180910390fd5b565b6200137862001a6c565b6000600760006101000a81548160ff0219169083151502179055507f5db9ee0a495bf2e6ff9c91a7834c1ba4fdd244a5e8aa4e537bd38aeae4b073aa620013be62000e7e565b604051620013cd9190620025bf565b60405180910390a1565b60006002600083815260200190815260200160002060009054906101000a900473ffffffffffffffffffffffffffffffffffffffff169050919050565b6000600760019054906101000a900473ffffffffffffffffffffffffffffffffffffffff16905081600760016101000a81548173ffffffffffffffffffffffffffffffffffffffff021916908373ffffffffffffffffffffffffffffffffffffffff1602179055508173ffffffffffffffffffffffffffffffffffffffff168173ffffffffffffffffffffffffffffffffffffffff167f8be0079c531659141344cd1fd0a4f28419497f9722a3daafe3b4186f6b6457e060405160405180910390a35050565b600081600001549050919050565b620014f262001aba565b6001600760006101000a81548160ff0219169083151502179055507f62e78cea01bee320cd4e420270b5ea74000d11b0c9f74754ebdbfc544b05a2586200153862000e7e565b604051620015479190620025bf565b60405180910390a1565b8173ffffffffffffffffffffffffffffffffffffffff168373ffffffffffffffffffffffffffffffffffffffff161415620015c3576040517f08c379a0000000000000000000000000000000000000000000000000000000008152600401620015ba9062003167565b60405180910390fd5b80600560008573ffffffffffffffffffffffffffffffffffffffff1673ffffffffffffffffffffffffffffffffffffffff16815260200190815260200160002060008473ffffffffffffffffffffffffffffffffffffffff1673ffffffffffffffffffffffffffffffffffffffff16815260200190815260200160002060006101000a81548160ff0219169083151502179055508173ffffffffffffffffffffffffffffffffffffffff168373ffffffffffffffffffffffffffffffffffffffff167f17307eab39ab6107e8899845ad3d59bd9653f200f220920489ca2b5937696c3183604051620016b6919062002428565b60405180910390a3505050565b620016d084848462000fde565b620016de8484848462001b09565b62001720576040517f08c379a00000000000000000000000000000000000000000000000000000000081526004016200171790620031ff565b60405180910390fd5b50505050565b6200174282826040518060200160405280600081525062001cb2565b5050565b620017518262001a1d565b62001793576040517f08c379a00000000000000000000000000000000000000000000000000000000081526004016200178a9062003297565b60405180910390fd5b80600660008481526020019081526020016000209080519060200190620017bc929190620022b8565b507ff8e1a15aba9398e019f0b49df1a4fde98ee17ae345cb5f6b5e2c27f5033e8ce782604051620017ee919062002720565b60405180910390a15050565b6001816000016000828254019250508190555050565b60606200181d8262000e2e565b60006006600084815260200190815260200160002080546200183f9062002b98565b80601f01602080910402602001604051908101604052809291908181526020018280546200186d9062002b98565b8015620018be5780601f106200189257610100808354040283529160200191620018be565b820191906000526020600020905b815481529060010190602001808311620018a057829003601f168201915b505050505090506000620018d162001d14565b9050600081511415620018e957819250505062001932565b6000825111156200192257808260405160200162001909929190620032fb565b6040516020818303038152906040529250505062001932565b6200192d8462001d2b565b925050505b919050565b60007f80ac58cd000000000000000000000000000000000000000000000000000000007bffffffffffffffffffffffffffffffffffffffffffffffffffffffff1916827bffffffffffffffffffffffffffffffffffffffffffffffffffffffff1916148062001a0357507f5b5e139f000000000000000000000000000000000000000000000000000000007bffffffffffffffffffffffffffffffffffffffffffffffffffffffff1916827bffffffffffffffffffffffffffffffffffffffffffffffffffffffff1916145b8062001a16575062001a158262001d9d565b5b9050919050565b60008073ffffffffffffffffffffffffffffffffffffffff1662001a4183620013d7565b73ffffffffffffffffffffffffffffffffffffffff1614159050919050565b50505050565b50505050565b62001a76620007be565b62001ab8576040517f08c379a000000000000000000000000000000000000000000000000000000000815260040162001aaf9062003373565b60405180910390fd5b565b62001ac4620007be565b1562001b07576040517f08c379a000000000000000000000000000000000000000000000000000000000815260040162001afe90620033e5565b60405180910390fd5b565b600062001b2c8473ffffffffffffffffffffffffffffffffffffffff1662001e07565b1562001ca5578373ffffffffffffffffffffffffffffffffffffffff1663150b7a0262001b5862000e7e565b8786866040518563ffffffff1660e01b815260040162001b7c949392919062003464565b602060405180830381600087803b15801562001b9757600080fd5b505af192505050801562001bcb57506040513d601f19601f8201168201806040525081019062001bc89190620034cf565b60015b62001c54573d806000811462001bfe576040519150601f19603f3d011682016040523d82523d6000602084013e62001c03565b606091505b5060008151141562001c4c576040517f08c379a000000000000000000000000000000000000000000000000000000000815260040162001c4390620031ff565b60405180910390fd5b805181602001fd5b63150b7a0260e01b7bffffffffffffffffffffffffffffffffffffffffffffffffffffffff1916817bffffffffffffffffffffffffffffffffffffffffffffffffffffffff19161491505062001caa565b600190505b949350505050565b62001cbe838362001e2a565b62001ccd600084848462001b09565b62001d0f576040517f08c379a000000000000000000000000000000000000000000000000000000000815260040162001d0690620031ff565b60405180910390fd5b505050565b606060405180602001604052806000815250905090565b606062001d388262000e2e565b600062001d4462001d14565b9050600081511162001d66576040518060200160405280600081525062001d95565b8062001d728462002059565b60405160200162001d85929190620032fb565b6040516020818303038152906040525b915050919050565b60007f01ffc9a7000000000000000000000000000000000000000000000000000000007bffffffffffffffffffffffffffffffffffffffffffffffffffffffff1916827bffffffffffffffffffffffffffffffffffffffffffffffffffffffff1916149050919050565b6000808273ffffffffffffffffffffffffffffffffffffffff163b119050919050565b600073ffffffffffffffffffffffffffffffffffffffff168273ffffffffffffffffffffffffffffffffffffffff16141562001e9d576040517f08c379a000000000000000000000000000000000000000000000000000000000815260040162001e949062003551565b60405180910390fd5b62001ea88162001a1d565b1562001eeb576040517f08c379a000000000000000000000000000000000000000000000000000000000815260040162001ee290620035c3565b60405180910390fd5b62001efb60008383600162001a60565b62001f068162001a1d565b1562001f49576040517f08c379a000000000000000000000000000000000000000000000000000000000815260040162001f4090620035c3565b60405180910390fd5b6001600360008473ffffffffffffffffffffffffffffffffffffffff1673ffffffffffffffffffffffffffffffffffffffff16815260200190815260200160002060008282540192505081905550816002600083815260200190815260200160002060006101000a81548173ffffffffffffffffffffffffffffffffffffffff021916908373ffffffffffffffffffffffffffffffffffffffff160217905550808273ffffffffffffffffffffffffffffffffffffffff16600073ffffffffffffffffffffffffffffffffffffffff167fddf252ad1be2c89b69c2b068fc378daa952ba7f163c4a11628f55a4df523b3ef60405160405180910390a46200205560008383600162001a66565b5050565b6060600060016200206a846200213e565b01905060008167ffffffffffffffff8111156200208c576200208b6200281b565b5b6040519080825280601f01601f191660200182016040528015620020bf5781602001600182028036833780820191505090505b509050600082602001820190505b60011562002133578080600190039150507f3031323334353637383961626364656600000000000000000000000000000000600a86061a8153600a85816200211a5762002119620035e5565b5b04945060008514156200212d5762002133565b620020cd565b819350505050919050565b600080600090507a184f03e93ff9f4daa797ed6e38ed64bf6a1f0100000000000000008310620021a0577a184f03e93ff9f4daa797ed6e38ed64bf6a1f0100000000000000008381620021965762002195620035e5565b5b0492506040810190505b6d04ee2d6d415b85acef81000000008310620021e1576d04ee2d6d415b85acef81000000008381620021d757620021d6620035e5565b5b0492506020810190505b662386f26fc1000083106200221457662386f26fc1000083816200220a5762002209620035e5565b5b0492506010810190505b6305f5e100831062002241576305f5e1008381620022375762002236620035e5565b5b0492506008810190505b61271083106200226a57612710838162002260576200225f620035e5565b5b0492506004810190505b60648310620022915760648381620022875762002286620035e5565b5b0492506002810190505b600a8310620022a1576001810190505b80915050919050565b61227e806200361583390190565b828054620022c69062002b98565b90600052602060002090601f016020900481019282620022ea576000855562002336565b82601f106200230557805160ff191683800117855562002336565b8280016001018555821562002336579182015b828111156200233557825182559160200191906001019062002318565b5b50905062002345919062002349565b5090565b5b80821115620023645760008160009055506001016200234a565b5090565b6000604051905090565b600080fd5b600080fd5b60007fffffffff0000000000000000000000000000000000000000000000000000000082169050919050565b620023b3816200237c565b8114620023bf57600080fd5b50565b600081359050620023d381620023a8565b92915050565b600060208284031215620023f257620023f162002372565b5b60006200240284828501620023c2565b91505092915050565b60008115159050919050565b62002422816200240b565b82525050565b60006020820190506200243f600083018462002417565b92915050565b600081519050919050565b600082825260208201905092915050565b60005b838110156200248157808201518184015260208101905062002464565b8381111562002491576000848401525b50505050565b6000601f19601f8301169050919050565b6000620024b58262002445565b620024c1818562002450565b9350620024d381856020860162002461565b620024de8162002497565b840191505092915050565b60006020820190508181036000830152620025058184620024a8565b905092915050565b6000819050919050565b62002522816200250d565b81146200252e57600080fd5b50565b600081359050620025428162002517565b92915050565b60006020828403121562002561576200256062002372565b5b6000620025718482850162002531565b91505092915050565b600073ffffffffffffffffffffffffffffffffffffffff82169050919050565b6000620025a7826200257a565b9050919050565b620025b9816200259a565b82525050565b6000602082019050620025d66000830184620025ae565b92915050565b620025e7816200259a565b8114620025f357600080fd5b50565b6000813590506200260781620025dc565b92915050565b6000806040838503121562002627576200262662002372565b5b60006200263785828601620025f6565b92505060206200264a8582860162002531565b9150509250929050565b6200265f816200250d565b82525050565b60006040820190506200267c600083018562002654565b6200268b6020830184620025ae565b9392505050565b600080600060608486031215620026ae57620026ad62002372565b5b6000620026be86828701620025f6565b9350506020620026d186828701620025f6565b9250506040620026e48682870162002531565b9150509250925092565b60006020828403121562002707576200270662002372565b5b60006200271784828501620025f6565b91505092915050565b600060208201905062002737600083018462002654565b92915050565b62002748816200240b565b81146200275457600080fd5b50565b60008135905062002768816200273d565b92915050565b6000806040838503121562002788576200278762002372565b5b60006200279885828601620025f6565b9250506020620027ab8582860162002757565b9150509250929050565b600080600060608486031215620027d157620027d062002372565b5b6000620027e186828701620025f6565b9350506020620027f48682870162002531565b9250506040620028078682870162002531565b9150509250925092565b600080fd5b600080fd5b7f4e487b7100000000000000000000000000000000000000000000000000000000600052604160045260246000fd5b620028558262002497565b810181811067ffffffffffffffff821117156200287757620028766200281b565b5b80604052505050565b60006200288c62002368565b90506200289a82826200284a565b919050565b600067ffffffffffffffff821115620028bd57620028bc6200281b565b5b620028c88262002497565b9050602081019050919050565b82818337600083830152505050565b6000620028fb620028f5846200289f565b62002880565b9050828152602081018484840111156200291a576200291962002816565b5b62002927848285620028d5565b509392505050565b600082601f83011262002947576200294662002811565b5b813562002959848260208601620028e4565b91505092915050565b600080600080608085870312156200297f576200297e62002372565b5b60006200298f87828801620025f6565b9450506020620029a287828801620025f6565b9350506040620029b58782880162002531565b925050606085013567ffffffffffffffff811115620029d957620029d862002377565b5b620029e7878288016200292f565b91505092959194509250565b600067ffffffffffffffff82111562002a115762002a106200281b565b5b62002a1c8262002497565b9050602081019050919050565b600062002a4062002a3a84620029f3565b62002880565b90508281526020810184848401111562002a5f5762002a5e62002816565b5b62002a6c848285620028d5565b509392505050565b600082601f83011262002a8c5762002a8b62002811565b5b813562002a9e84826020860162002a29565b91505092915050565b60008060006060848603121562002ac35762002ac262002372565b5b600062002ad386828701620025f6565b935050602084013567ffffffffffffffff81111562002af75762002af662002377565b5b62002b058682870162002a74565b925050604062002b188682870162002531565b9150509250925092565b6000806040838503121562002b3c5762002b3b62002372565b5b600062002b4c85828601620025f6565b925050602062002b5f85828601620025f6565b9150509250929050565b7f4e487b7100000000000000000000000000000000000000000000000000000000600052602260045260246000fd5b6000600282049050600182168062002bb157607f821691505b6020821081141562002bc85762002bc762002b69565b5b50919050565b7f4552433732313a20617070726f76616c20746f2063757272656e74206f776e6560008201527f7200000000000000000000000000000000000000000000000000000000000000602082015250565b600062002c2c60218362002450565b915062002c398262002bce565b604082019050919050565b6000602082019050818103600083015262002c5f8162002c1d565b9050919050565b7f4552433732313a20617070726f76652063616c6c6572206973206e6f7420746f60008201527f6b656e206f776e6572206f7220617070726f76656420666f7220616c6c000000602082015250565b600062002cc4603d8362002450565b915062002cd18262002c66565b604082019050919050565b6000602082019050818103600083015262002cf78162002cb5565b9050919050565b7f4552433732313a2063616c6c6572206973206e6f7420746f6b656e206f776e6560008201527f72206f7220617070726f76656400000000000000000000000000000000000000602082015250565b600062002d5c602d8362002450565b915062002d698262002cfe565b604082019050919050565b6000602082019050818103600083015262002d8f8162002d4d565b9050919050565b7f4552433732313a20696e76616c696420746f6b656e2049440000000000000000600082015250565b600062002dce60188362002450565b915062002ddb8262002d96565b602082019050919050565b6000602082019050818103600083015262002e018162002dbf565b9050919050565b7f4552433732313a2061646472657373207a65726f206973206e6f74206120766160008201527f6c6964206f776e65720000000000000000000000000000000000000000000000602082015250565b600062002e6660298362002450565b915062002e738262002e08565b604082019050919050565b6000602082019050818103600083015262002e998162002e57565b9050919050565b600060608201905062002eb76000830186620025ae565b62002ec66020830185620025ae565b62002ed5604083018462002654565b949350505050565b7f4f776e61626c653a206e6577206f776e657220697320746865207a65726f206160008201527f6464726573730000000000000000000000000000000000000000000000000000602082015250565b600062002f3b60268362002450565b915062002f488262002edd565b604082019050919050565b6000602082019050818103600083015262002f6e8162002f2c565b9050919050565b7f4552433732313a207472616e736665722066726f6d20696e636f72726563742060008201527f6f776e6572000000000000000000000000000000000000000000000000000000602082015250565b600062002fd360258362002450565b915062002fe08262002f75565b604082019050919050565b60006020820190508181036000830152620030068162002fc4565b9050919050565b7f4552433732313a207472616e7366657220746f20746865207a65726f2061646460008201527f7265737300000000000000000000000000000000000000000000000000000000602082015250565b60006200306b60248362002450565b915062003078826200300d565b604082019050919050565b600060208201905081810360008301526200309e816200305c565b9050919050565b7f4f776e61626c653a2063616c6c6572206973206e6f7420746865206f776e6572600082015250565b6000620030dd60208362002450565b9150620030ea82620030a5565b602082019050919050565b600060208201905081810360008301526200311081620030ce565b9050919050565b7f4552433732313a20617070726f766520746f2063616c6c657200000000000000600082015250565b60006200314f60198362002450565b91506200315c8262003117565b602082019050919050565b60006020820190508181036000830152620031828162003140565b9050919050565b7f4552433732313a207472616e7366657220746f206e6f6e20455243373231526560008201527f63656976657220696d706c656d656e7465720000000000000000000000000000602082015250565b6000620031e760328362002450565b9150620031f48262003189565b604082019050919050565b600060208201905081810360008301526200321a81620031d8565b9050919050565b7f45524337323155524953746f726167653a2055524920736574206f66206e6f6e60008201527f6578697374656e7420746f6b656e000000000000000000000000000000000000602082015250565b60006200327f602e8362002450565b91506200328c8262003221565b604082019050919050565b60006020820190508181036000830152620032b28162003270565b9050919050565b600081905092915050565b6000620032d18262002445565b620032dd8185620032b9565b9350620032ef81856020860162002461565b80840191505092915050565b6000620033098285620032c4565b9150620033178284620032c4565b91508190509392505050565b7f5061757361626c653a206e6f7420706175736564000000000000000000000000600082015250565b60006200335b60148362002450565b9150620033688262003323565b602082019050919050565b600060208201905081810360008301526200338e816200334c565b9050919050565b7f5061757361626c653a2070617573656400000000000000000000000000000000600082015250565b6000620033cd60108362002450565b9150620033da8262003395565b602082019050919050565b600060208201905081810360008301526200340081620033be565b9050919050565b600081519050919050565b600082825260208201905092915050565b6000620034308262003407565b6200343c818562003412565b93506200344e81856020860162002461565b620034598162002497565b840191505092915050565b60006080820190506200347b6000830187620025ae565b6200348a6020830186620025ae565b62003499604083018562002654565b8181036060830152620034ad818462003423565b905095945050505050565b600081519050620034c981620023a8565b92915050565b600060208284031215620034e857620034e762002372565b5b6000620034f884828501620034b8565b91505092915050565b7f4552433732313a206d696e7420746f20746865207a65726f2061646472657373600082015250565b60006200353960208362002450565b9150620035468262003501565b602082019050919050565b600060208201905081810360008301526200356c816200352a565b9050919050565b7f4552433732313a20746f6b656e20616c7265616479206d696e74656400000000600082015250565b6000620035ab601c8362002450565b9150620035b88262003573565b602082019050919050565b60006020820190508181036000830152620035de816200359c565b9050919050565b7f4e487b7100000000000000000000000000000000000000000000000000000000600052601260045260246000fdfe60806040523480156200001157600080fd5b506040516200227e3803806200227e83398181016040528101906200003791906200049b565b6040518060400160405280601581526020017f50726f70657274794672616374696f6e546f6b656e00000000000000000000008152506040518060400160405280600381526020017f50465400000000000000000000000000000000000000000000000000000000008152508160039080519060200190620000bb92919062000346565b508060049080519060200190620000d492919062000346565b5050506200011681620000ec620001c560201b60201c565b60ff16600a620000fd919062000665565b846200010a9190620006b6565b620001ce60201b60201c565b81600560008373ffffffffffffffffffffffffffffffffffffffff1673ffffffffffffffffffffffffffffffffffffffff168152602001908152602001600020819055506006819080600181540180825580915050600190039060005260206000200160009091909190916101000a81548173ffffffffffffffffffffffffffffffffffffffff021916908373ffffffffffffffffffffffffffffffffffffffff16021790555050506200088a565b60006012905090565b600073ffffffffffffffffffffffffffffffffffffffff168273ffffffffffffffffffffffffffffffffffffffff16141562000241576040517f08c379a0000000000000000000000000000000000000000000000000000000008152600401620002389062000778565b60405180910390fd5b62000255600083836200033c60201b60201c565b80600260008282546200026991906200079a565b92505081905550806000808473ffffffffffffffffffffffffffffffffffffffff1673ffffffffffffffffffffffffffffffffffffffff168152602001908152602001600020600082825401925050819055508173ffffffffffffffffffffffffffffffffffffffff16600073ffffffffffffffffffffffffffffffffffffffff167fddf252ad1be2c89b69c2b068fc378daa952ba7f163c4a11628f55a4df523b3ef836040516200031c919062000808565b60405180910390a362000338600083836200034160201b60201c565b5050565b505050565b505050565b828054620003549062000854565b90600052602060002090601f016020900481019282620003785760008555620003c4565b82601f106200039357805160ff1916838001178555620003c4565b82800160010185558215620003c4579182015b82811115620003c3578251825591602001919060010190620003a6565b5b509050620003d39190620003d7565b5090565b5b80821115620003f2576000816000905550600101620003d8565b5090565b600080fd5b6000819050919050565b6200041081620003fb565b81146200041c57600080fd5b50565b600081519050620004308162000405565b92915050565b600073ffffffffffffffffffffffffffffffffffffffff82169050919050565b6000620004638262000436565b9050919050565b620004758162000456565b81146200048157600080fd5b50565b60008151905062000495816200046a565b92915050565b60008060408385031215620004b557620004b4620003f6565b5b6000620004c5858286016200041f565b9250506020620004d88582860162000484565b9150509250929050565b7f4e487b7100000000000000000000000000000000000000000000000000000000600052601160045260246000fd5b60008160011c9050919050565b6000808291508390505b60018511156200057057808604811115620005485762000547620004e2565b5b6001851615620005585780820291505b8081029050620005688562000511565b945062000528565b94509492505050565b6000826200058b57600190506200065e565b816200059b57600090506200065e565b8160018114620005b45760028114620005bf57620005f5565b60019150506200065e565b60ff841115620005d457620005d3620004e2565b5b8360020a915084821115620005ee57620005ed620004e2565b5b506200065e565b5060208310610133831016604e8410600b84101617156200062f5782820a905083811115620006295762000628620004e2565b5b6200065e565b6200063e84848460016200051e565b92509050818404811115620006585762000657620004e2565b5b81810290505b9392505050565b60006200067282620003fb565b91506200067f83620003fb565b9250620006ae7fffffffffffffffffffffffffffffffffffffffffffffffffffffffffffffffff848462000579565b905092915050565b6000620006c382620003fb565b9150620006d083620003fb565b9250817fffffffffffffffffffffffffffffffffffffffffffffffffffffffffffffffff04831182151516156200070c576200070b620004e2565b5b828202905092915050565b600082825260208201905092915050565b7f45524332303a206d696e7420746f20746865207a65726f206164647265737300600082015250565b600062000760601f8362000717565b91506200076d8262000728565b602082019050919050565b60006020820190508181036000830152620007938162000751565b9050919050565b6000620007a782620003fb565b9150620007b483620003fb565b9250827fffffffffffffffffffffffffffffffffffffffffffffffffffffffffffffffff03821115620007ec57620007eb620004e2565b5b828201905092915050565b6200080281620003fb565b82525050565b60006020820190506200081f6000830184620007f7565b92915050565b7f4e487b7100000000000000000000000000000000000000000000000000000000600052602260045260246000fd5b600060028204905060018216806200086d57607f821691505b6020821081141562000884576200088362000825565b5b50919050565b6119e4806200089a6000396000f3fe608060405234801561001057600080fd5b50600436106101005760003560e01c80638c2b1bd711610097578063a9059cbb11610066578063a9059cbb146102e9578063c451674114610319578063c734416514610337578063dd62ed3e1461035557610100565b80638c2b1bd71461024f57806395d89b411461026b5780639ee946a514610289578063a457c2d7146102b957610100565b806323b872dd116100d357806323b872dd146101a1578063313ce567146101d157806339509351146101ef57806370a082311461021f57610100565b806306fdde0314610105578063095ea7b3146101235780630f8c9e281461015357806318160ddd14610183575b600080fd5b61010d610385565b60405161011a9190610eef565b60405180910390f35b61013d60048036038101906101389190610faa565b610417565b60405161014a9190611005565b60405180910390f35b61016d60048036038101906101689190611020565b61043a565b60405161017a919061105c565b60405180910390f35b61018b610479565b6040516101989190611086565b60405180910390f35b6101bb60048036038101906101b691906110a1565b610483565b6040516101c89190611005565b60405180910390f35b6101d96104b2565b6040516101e69190611110565b60405180910390f35b61020960048036038101906102049190610faa565b6104bb565b6040516102169190611005565b60405180910390f35b6102396004803603810190610234919061112b565b6104f2565b6040516102469190611086565b60405180910390f35b610269600480360381019061026491906110a1565b61053a565b005b61027361070f565b6040516102809190610eef565b60405180910390f35b6102a3600480360381019061029e919061112b565b6107a1565b6040516102b09190611086565b60405180910390f35b6102d360048036038101906102ce9190610faa565b6107b9565b6040516102e09190611005565b60405180910390f35b61030360048036038101906102fe9190610faa565b610830565b6040516103109190611005565b60405180910390f35b610321610853565b60405161032e9190611216565b60405180910390f35b61033f6108e1565b60405161034c9190611086565b60405180910390f35b61036f600480360381019061036a9190611238565b6108ee565b60405161037c9190611086565b60405180910390f35b606060038054610394906112a7565b80601f01602080910402602001604051908101604052809291908181526020018280546103c0906112a7565b801561040d5780601f106103e25761010080835404028352916020019161040d565b820191906000526020600020905b8154815290600101906020018083116103f057829003601f168201915b5050505050905090565b600080610422610975565b905061042f81858561097d565b600191505092915050565b6006818154811061044a57600080fd5b906000526020600020016000915054906101000a900473ffffffffffffffffffffffffffffffffffffffff1681565b6000600254905090565b60008061048e610975565b905061049b858285610b48565b6104a6858585610bd4565b60019150509392505050565b60006012905090565b6000806104c6610975565b90506104e78185856104d885896108ee565b6104e29190611308565b61097d565b600191505092915050565b60008060008373ffffffffffffffffffffffffffffffffffffffff1673ffffffffffffffffffffffffffffffffffffffff168152602001908152602001600020549050919050565b6000610545846104f2565b1415610586576040517f08c379a000000000000000000000000000000000000000000000000000000000815260040161057d906113aa565b60405180910390fd5b6000600560008473ffffffffffffffffffffffffffffffffffffffff1673ffffffffffffffffffffffffffffffffffffffff168152602001908152602001600020541415610632576006829080600181540180825580915050600190039060005260206000200160009091909190916101000a81548173ffffffffffffffffffffffffffffffffffffffff021916908373ffffffffffffffffffffffffffffffffffffffff1602179055505b61065e838361063f6104b2565b60ff16600a61064e91906114fd565b846106599190611548565b610bd4565b80600560008573ffffffffffffffffffffffffffffffffffffffff1673ffffffffffffffffffffffffffffffffffffffff16815260200190815260200160002060008282546106ad91906115a2565b9250508190555080600560008473ffffffffffffffffffffffffffffffffffffffff1673ffffffffffffffffffffffffffffffffffffffff16815260200190815260200160002060008282546107039190611308565b92505081905550505050565b60606004805461071e906112a7565b80601f016020809104026020016040519081016040528092919081815260200182805461074a906112a7565b80156107975780601f1061076c57610100808354040283529160200191610797565b820191906000526020600020905b81548152906001019060200180831161077a57829003601f168201915b5050505050905090565b60056020528060005260406000206000915090505481565b6000806107c4610975565b905060006107d282866108ee565b905083811015610817576040517f08c379a000000000000000000000000000000000000000000000000000000000815260040161080e90611648565b60405180910390fd5b610824828686840361097d565b60019250505092915050565b60008061083b610975565b9050610848818585610bd4565b600191505092915050565b606060068054806020026020016040519081016040528092919081815260200182805480156108d757602002820191906000526020600020905b8160009054906101000a900473ffffffffffffffffffffffffffffffffffffffff1673ffffffffffffffffffffffffffffffffffffffff168152602001906001019080831161088d575b5050505050905090565b6000600680549050905090565b6000600160008473ffffffffffffffffffffffffffffffffffffffff1673ffffffffffffffffffffffffffffffffffffffff16815260200190815260200160002060008373ffffffffffffffffffffffffffffffffffffffff1673ffffffffffffffffffffffffffffffffffffffff16815260200190815260200160002054905092915050565b600033905090565b600073ffffffffffffffffffffffffffffffffffffffff168373ffffffffffffffffffffffffffffffffffffffff1614156109ed576040517f08c379a00000000000000000000000000000000000000000000000000000000081526004016109e4906116da565b60405180910390fd5b600073ffffffffffffffffffffffffffffffffffffffff168273ffffffffffffffffffffffffffffffffffffffff161415610a5d576040517f08c379a0000000000000000000000000000000000000000000000000000000008152600401610a549061176c565b60405180910390fd5b80600160008573ffffffffffffffffffffffffffffffffffffffff1673ffffffffffffffffffffffffffffffffffffffff16815260200190815260200160002060008473ffffffffffffffffffffffffffffffffffffffff1673ffffffffffffffffffffffffffffffffffffffff168152602001908152602001600020819055508173ffffffffffffffffffffffffffffffffffffffff168373ffffffffffffffffffffffffffffffffffffffff167f8c5be1e5ebec7d5bd14f71427d1e84f3dd0314c0f7b2291e5b200ac8c7c3b92583604051610b3b9190611086565b60405180910390a3505050565b6000610b5484846108ee565b90507fffffffffffffffffffffffffffffffffffffffffffffffffffffffffffffffff8114610bce5781811015610bc0576040517f08c379a0000000000000000000000000000000000000000000000000000000008152600401610bb7906117d8565b60405180910390fd5b610bcd848484840361097d565b5b50505050565b600073ffffffffffffffffffffffffffffffffffffffff168373ffffffffffffffffffffffffffffffffffffffff161415610c44576040517f08c379a0000000000000000000000000000000000000000000000000000000008152600401610c3b9061186a565b60405180910390fd5b600073ffffffffffffffffffffffffffffffffffffffff168273ffffffffffffffffffffffffffffffffffffffff161415610cb4576040517f08c379a0000000000000000000000000000000000000000000000000000000008152600401610cab906118fc565b60405180910390fd5b610cbf838383610e4c565b60008060008573ffffffffffffffffffffffffffffffffffffffff1673ffffffffffffffffffffffffffffffffffffffff16815260200190815260200160002054905081811015610d45576040517f08c379a0000000000000000000000000000000000000000000000000000000008152600401610d3c9061198e565b60405180910390fd5b8181036000808673ffffffffffffffffffffffffffffffffffffffff1673ffffffffffffffffffffffffffffffffffffffff16815260200190815260200160002081905550816000808573ffffffffffffffffffffffffffffffffffffffff1673ffffffffffffffffffffffffffffffffffffffff168152602001908152602001600020600082825401925050819055508273ffffffffffffffffffffffffffffffffffffffff168473ffffffffffffffffffffffffffffffffffffffff167fddf252ad1be2c89b69c2b068fc378daa952ba7f163c4a11628f55a4df523b3ef84604051610e339190611086565b60405180910390a3610e46848484610e51565b50505050565b505050565b505050565b600081519050919050565b600082825260208201905092915050565b60005b83811015610e90578082015181840152602081019050610e75565b83811115610e9f576000848401525b50505050565b6000601f19601f8301169050919050565b6000610ec182610e56565b610ecb8185610e61565b9350610edb818560208601610e72565b610ee481610ea5565b840191505092915050565b60006020820190508181036000830152610f098184610eb6565b905092915050565b600080fd5b600073ffffffffffffffffffffffffffffffffffffffff82169050919050565b6000610f4182610f16565b9050919050565b610f5181610f36565b8114610f5c57600080fd5b50565b600081359050610f6e81610f48565b92915050565b6000819050919050565b610f8781610f74565b8114610f9257600080fd5b50565b600081359050610fa481610f7e565b92915050565b60008060408385031215610fc157610fc0610f11565b5b6000610fcf85828601610f5f565b9250506020610fe085828601610f95565b9150509250929050565b60008115159050919050565b610fff81610fea565b82525050565b600060208201905061101a6000830184610ff6565b92915050565b60006020828403121561103657611035610f11565b5b600061104484828501610f95565b91505092915050565b61105681610f36565b82525050565b6000602082019050611071600083018461104d565b92915050565b61108081610f74565b82525050565b600060208201905061109b6000830184611077565b92915050565b6000806000606084860312156110ba576110b9610f11565b5b60006110c886828701610f5f565b93505060206110d986828701610f5f565b92505060406110ea86828701610f95565b9150509250925092565b600060ff82169050919050565b61110a816110f4565b82525050565b60006020820190506111256000830184611101565b92915050565b60006020828403121561114157611140610f11565b5b600061114f84828501610f5f565b91505092915050565b600081519050919050565b600082825260208201905092915050565b6000819050602082019050919050565b61118d81610f36565b82525050565b600061119f8383611184565b60208301905092915050565b6000602082019050919050565b60006111c382611158565b6111cd8185611163565b93506111d883611174565b8060005b838110156112095781516111f08882611193565b97506111fb836111ab565b9250506001810190506111dc565b5085935050505092915050565b6000602082019050818103600083015261123081846111b8565b905092915050565b6000806040838503121561124f5761124e610f11565b5b600061125d85828601610f5f565b925050602061126e85828601610f5f565b9150509250929050565b7f4e487b7100000000000000000000000000000000000000000000000000000000600052602260045260246000fd5b600060028204905060018216806112bf57607f821691505b602082108114156112d3576112d2611278565b5b50919050565b7f4e487b7100000000000000000000000000000000000000000000000000000000600052601160045260246000fd5b600061131382610f74565b915061131e83610f74565b9250827fffffffffffffffffffffffffffffffffffffffffffffffffffffffffffffffff03821115611353576113526112d9565b5b828201905092915050565b7f496e73756666696369656e742062616c616e6365210000000000000000000000600082015250565b6000611394601583610e61565b915061139f8261135e565b602082019050919050565b600060208201905081810360008301526113c381611387565b9050919050565b60008160011c9050919050565b6000808291508390505b6001851115611421578086048111156113fd576113fc6112d9565b5b600185161561140c5780820291505b808102905061141a856113ca565b94506113e1565b94509492505050565b60008261143a57600190506114f6565b8161144857600090506114f6565b816001811461145e576002811461146857611497565b60019150506114f6565b60ff84111561147a576114796112d9565b5b8360020a915084821115611491576114906112d9565b5b506114f6565b5060208310610133831016604e8410600b84101617156114cc5782820a9050838111156114c7576114c66112d9565b5b6114f6565b6114d984848460016113d7565b925090508184048111156114f0576114ef6112d9565b5b81810290505b9392505050565b600061150882610f74565b915061151383610f74565b92506115407fffffffffffffffffffffffffffffffffffffffffffffffffffffffffffffffff848461142a565b905092915050565b600061155382610f74565b915061155e83610f74565b9250817fffffffffffffffffffffffffffffffffffffffffffffffffffffffffffffffff0483118215151615611597576115966112d9565b5b828202905092915050565b60006115ad82610f74565b91506115b883610f74565b9250828210156115cb576115ca6112d9565b5b828203905092915050565b7f45524332303a2064656372656173656420616c6c6f77616e63652062656c6f7760008201527f207a65726f000000000000000000000000000000000000000000000000000000602082015250565b6000611632602583610e61565b915061163d826115d6565b604082019050919050565b6000602082019050818103600083015261166181611625565b9050919050565b7f45524332303a20617070726f76652066726f6d20746865207a65726f2061646460008201527f7265737300000000000000000000000000000000000000000000000000000000602082015250565b60006116c4602483610e61565b91506116cf82611668565b604082019050919050565b600060208201905081810360008301526116f3816116b7565b9050919050565b7f45524332303a20617070726f766520746f20746865207a65726f20616464726560008201527f7373000000000000000000000000000000000000000000000000000000000000602082015250565b6000611756602283610e61565b9150611761826116fa565b604082019050919050565b6000602082019050818103600083015261178581611749565b9050919050565b7f45524332303a20696e73756666696369656e7420616c6c6f77616e6365000000600082015250565b60006117c2601d83610e61565b91506117cd8261178c565b602082019050919050565b600060208201905081810360008301526117f1816117b5565b9050919050565b7f45524332303a207472616e736665722066726f6d20746865207a65726f20616460008201527f6472657373000000000000000000000000000000000000000000000000000000602082015250565b6000611854602583610e61565b915061185f826117f8565b604082019050919050565b6000602082019050818103600083015261188381611847565b9050919050565b7f45524332303a207472616e7366657220746f20746865207a65726f206164647260008201527f6573730000000000000000000000000000000000000000000000000000000000602082015250565b60006118e6602383610e61565b91506118f18261188a565b604082019050919050565b60006020820190508181036000830152611915816118d9565b9050919050565b7f45524332303a207472616e7366657220616d6f756e742065786365656473206260008201527f616c616e63650000000000000000000000000000000000000000000000000000602082015250565b6000611978602683610e61565b91506119838261191c565b604082019050919050565b600060208201905081810360008301526119a78161196b565b905091905056fea264697066735822122080d428cc0feefabafda877bb8311d7b738bac4f037d70b97a64969c99aeb6aa864736f6c63430008090033a2646970667358221220fd17cc76179ffc3daf8ab0af8f5e9be4a7590b4bd9b564c07b4faf1929c750c764736f6c63430008090033","opcodes":"PUSH1 0x80 PUSH1 0x40 MSTORE CALLVALUE DUP1 ISZERO PUSH3 0x11 JUMPI PUSH1 0x0 DUP1 REVERT JUMPDEST POP PUSH1 0x40 MLOAD DUP1 PUSH1 0x40 ADD PUSH1 0x40 MSTORE DUP1 PUSH1 0x13 DUP2 MSTORE PUSH1 0x20 ADD PUSH32 0x50726F7065727479436F6E74726163744E465400000000000000000000000000 DUP2 MSTORE POP PUSH1 0x40 MLOAD DUP1 PUSH1 0x40 ADD PUSH1 0x40 MSTORE DUP1 PUSH1 0x5 DUP2 MSTORE PUSH1 0x20 ADD PUSH32 0x50434E4654000000000000000000000000000000000000000000000000000000 DUP2 MSTORE POP DUP2 PUSH1 0x0 SWAP1 DUP1 MLOAD SWAP1 PUSH1 0x20 ADD SWAP1 PUSH3 0x96 SWAP3 SWAP2 SWAP1 PUSH3 0x1C1 JUMP JUMPDEST POP DUP1 PUSH1 0x1 SWAP1 DUP1 MLOAD SWAP1 PUSH1 0x20 ADD SWAP1 PUSH3 0xAF SWAP3 SWAP2 SWAP1 PUSH3 0x1C1 JUMP JUMPDEST POP POP POP PUSH1 0x0 PUSH1 0x7 PUSH1 0x0 PUSH2 0x100 EXP DUP2 SLOAD DUP2 PUSH1 0xFF MUL NOT AND SWAP1 DUP4 ISZERO ISZERO MUL OR SWAP1 SSTORE POP PUSH3 0xED PUSH3 0xE1 PUSH3 0xF3 PUSH1 0x20 SHL PUSH1 0x20 SHR JUMP JUMPDEST PUSH3 0xFB PUSH1 0x20 SHL PUSH1 0x20 SHR JUMP JUMPDEST PUSH3 0x2D6 JUMP JUMPDEST PUSH1 0x0 CALLER SWAP1 POP SWAP1 JUMP JUMPDEST PUSH1 0x0 PUSH1 0x7 PUSH1 0x1 SWAP1 SLOAD SWAP1 PUSH2 0x100 EXP SWAP1 DIV PUSH20 0xFFFFFFFFFFFFFFFFFFFFFFFFFFFFFFFFFFFFFFFF AND SWAP1 POP DUP2 PUSH1 0x7 PUSH1 0x1 PUSH2 0x100 EXP DUP2 SLOAD DUP2 PUSH20 0xFFFFFFFFFFFFFFFFFFFFFFFFFFFFFFFFFFFFFFFF MUL NOT AND SWAP1 DUP4 PUSH20 0xFFFFFFFFFFFFFFFFFFFFFFFFFFFFFFFFFFFFFFFF AND MUL OR SWAP1 SSTORE POP DUP2 PUSH20 0xFFFFFFFFFFFFFFFFFFFFFFFFFFFFFFFFFFFFFFFF AND DUP2 PUSH20 0xFFFFFFFFFFFFFFFFFFFFFFFFFFFFFFFFFFFFFFFF AND PUSH32 0x8BE0079C531659141344CD1FD0A4F28419497F9722A3DAAFE3B4186F6B6457E0 PUSH1 0x40 MLOAD PUSH1 0x40 MLOAD DUP1 SWAP2 SUB SWAP1 LOG3 POP POP JUMP JUMPDEST DUP3 DUP1 SLOAD PUSH3 0x1CF SWAP1 PUSH3 0x2A0 JUMP JUMPDEST SWAP1 PUSH1 0x0 MSTORE PUSH1 0x20 PUSH1 0x0 KECCAK256 SWAP1 PUSH1 0x1F ADD PUSH1 0x20 SWAP1 DIV DUP2 ADD SWAP3 DUP3 PUSH3 0x1F3 JUMPI PUSH1 0x0 DUP6 SSTORE PUSH3 0x23F JUMP JUMPDEST DUP3 PUSH1 0x1F LT PUSH3 0x20E JUMPI DUP1 MLOAD PUSH1 0xFF NOT AND DUP4 DUP1 ADD OR DUP6 SSTORE PUSH3 0x23F JUMP JUMPDEST DUP3 DUP1 ADD PUSH1 0x1 ADD DUP6 SSTORE DUP3 ISZERO PUSH3 0x23F JUMPI SWAP2 DUP3 ADD JUMPDEST DUP3 DUP2 GT ISZERO PUSH3 0x23E JUMPI DUP3 MLOAD DUP3 SSTORE SWAP2 PUSH1 0x20 ADD SWAP2 SWAP1 PUSH1 0x1 ADD SWAP1 PUSH3 0x221 JUMP JUMPDEST JUMPDEST POP SWAP1 POP PUSH3 0x24E SWAP2 SWAP1 PUSH3 0x252 JUMP JUMPDEST POP SWAP1 JUMP JUMPDEST JUMPDEST DUP1 DUP3 GT ISZERO PUSH3 0x26D JUMPI PUSH1 0x0 DUP2 PUSH1 0x0 SWAP1 SSTORE POP PUSH1 0x1 ADD PUSH3 0x253 JUMP JUMPDEST POP SWAP1 JUMP JUMPDEST PUSH32 0x4E487B7100000000000000000000000000000000000000000000000000000000 PUSH1 0x0 MSTORE PUSH1 0x22 PUSH1 0x4 MSTORE PUSH1 0x24 PUSH1 0x0 REVERT JUMPDEST PUSH1 0x0 PUSH1 0x2 DUP3 DIV SWAP1 POP PUSH1 0x1 DUP3 AND DUP1 PUSH3 0x2B9 JUMPI PUSH1 0x7F DUP3 AND SWAP2 POP JUMPDEST PUSH1 0x20 DUP3 LT DUP2 EQ ISZERO PUSH3 0x2D0 JUMPI PUSH3 0x2CF PUSH3 0x271 JUMP JUMPDEST JUMPDEST POP SWAP2 SWAP1 POP JUMP JUMPDEST PUSH2 0x58C8 DUP1 PUSH3 0x2E6 PUSH1 0x0 CODECOPY PUSH1 0x0 RETURN INVALID PUSH1 0x80 PUSH1 0x40 MSTORE CALLVALUE DUP1 ISZERO PUSH3 0x11 JUMPI PUSH1 0x0 DUP1 REVERT JUMPDEST POP PUSH1 0x4 CALLDATASIZE LT PUSH3 0x16C JUMPI PUSH1 0x0 CALLDATALOAD PUSH1 0xE0 SHR DUP1 PUSH4 0x715018A6 GT PUSH3 0xD5 JUMPI DUP1 PUSH4 0xB756FB69 GT PUSH3 0x87 JUMPI DUP1 PUSH4 0xB756FB69 EQ PUSH3 0x3CE JUMPI DUP1 PUSH4 0xB88D4FDE EQ PUSH3 0x3EE JUMPI DUP1 PUSH4 0xBA7AEF43 EQ PUSH3 0x40E JUMPI DUP1 PUSH4 0xC87B56DD EQ PUSH3 0x42E JUMPI DUP1 PUSH4 0xE985E9C5 EQ PUSH3 0x464 JUMPI DUP1 PUSH4 0xF2FDE38B EQ PUSH3 0x49A JUMPI PUSH3 0x16C JUMP JUMPDEST DUP1 PUSH4 0x715018A6 EQ PUSH3 0x330 JUMPI DUP1 PUSH4 0x80060AD2 EQ PUSH3 0x33C JUMPI DUP1 PUSH4 0x8456CB59 EQ PUSH3 0x35E JUMPI DUP1 PUSH4 0x8DA5CB5B EQ PUSH3 0x36A JUMPI DUP1 PUSH4 0x95D89B41 EQ PUSH3 0x38C JUMPI DUP1 PUSH4 0xA22CB465 EQ PUSH3 0x3AE JUMPI PUSH3 0x16C JUMP JUMPDEST DUP1 PUSH4 0x23B872DD GT PUSH3 0x12F JUMPI DUP1 PUSH4 0x23B872DD EQ PUSH3 0x256 JUMPI DUP1 PUSH4 0x3F4BA83A EQ PUSH3 0x276 JUMPI DUP1 PUSH4 0x42842E0E EQ PUSH3 0x282 JUMPI DUP1 PUSH4 0x5C975ABB EQ PUSH3 0x2A2 JUMPI DUP1 PUSH4 0x6352211E EQ PUSH3 0x2C4 JUMPI DUP1 PUSH4 0x70A08231 EQ PUSH3 0x2FA JUMPI PUSH3 0x16C JUMP JUMPDEST DUP1 PUSH4 0x1FFC9A7 EQ PUSH3 0x171 JUMPI DUP1 PUSH4 0x6FDDE03 EQ PUSH3 0x1A7 JUMPI DUP1 PUSH4 0x81812FC EQ PUSH3 0x1C9 JUMPI DUP1 PUSH4 0x95EA7B3 EQ PUSH3 0x1FF JUMPI DUP1 PUSH4 0x1A38D733 EQ PUSH3 0x21F JUMPI JUMPDEST PUSH1 0x0 DUP1 REVERT JUMPDEST PUSH3 0x18F PUSH1 0x4 DUP1 CALLDATASIZE SUB DUP2 ADD SWAP1 PUSH3 0x189 SWAP2 SWAP1 PUSH3 0x23D9 JUMP JUMPDEST PUSH3 0x4BA JUMP JUMPDEST PUSH1 0x40 MLOAD PUSH3 0x19E SWAP2 SWAP1 PUSH3 0x2428 JUMP JUMPDEST PUSH1 0x40 MLOAD DUP1 SWAP2 SUB SWAP1 RETURN JUMPDEST PUSH3 0x1B1 PUSH3 0x4CE JUMP JUMPDEST PUSH1 0x40 MLOAD PUSH3 0x1C0 SWAP2 SWAP1 PUSH3 0x24E9 JUMP JUMPDEST PUSH1 0x40 MLOAD DUP1 SWAP2 SUB SWAP1 RETURN JUMPDEST PUSH3 0x1E7 PUSH1 0x4 DUP1 CALLDATASIZE SUB DUP2 ADD SWAP1 PUSH3 0x1E1 SWAP2 SWAP1 PUSH3 0x2548 JUMP JUMPDEST PUSH3 0x568 JUMP JUMPDEST PUSH1 0x40 MLOAD PUSH3 0x1F6 SWAP2 SWAP1 PUSH3 0x25BF JUMP JUMPDEST PUSH1 0x40 MLOAD DUP1 SWAP2 SUB SWAP1 RETURN JUMPDEST PUSH3 0x21D PUSH1 0x4 DUP1 CALLDATASIZE SUB DUP2 ADD SWAP1 PUSH3 0x217 SWAP2 SWAP1 PUSH3 0x260D JUMP JUMPDEST PUSH3 0x5B0 JUMP JUMPDEST STOP JUMPDEST PUSH3 0x23D PUSH1 0x4 DUP1 CALLDATASIZE SUB DUP2 ADD SWAP1 PUSH3 0x237 SWAP2 SWAP1 PUSH3 0x2548 JUMP JUMPDEST PUSH3 0x6D9 JUMP JUMPDEST PUSH1 0x40 MLOAD PUSH3 0x24D SWAP3 SWAP2 SWAP1 PUSH3 0x2665 JUMP JUMPDEST PUSH1 0x40 MLOAD DUP1 SWAP2 SUB SWAP1 RETURN JUMPDEST PUSH3 0x274 PUSH1 0x4 DUP1 CALLDATASIZE SUB DUP2 ADD SWAP1 PUSH3 0x26E SWAP2 SWAP1 PUSH3 0x2692 JUMP JUMPDEST PUSH3 0x71D JUMP JUMPDEST STOP JUMPDEST PUSH3 0x280 PUSH3 0x786 JUMP JUMPDEST STOP JUMPDEST PUSH3 0x2A0 PUSH1 0x4 DUP1 CALLDATASIZE SUB DUP2 ADD SWAP1 PUSH3 0x29A SWAP2 SWAP1 PUSH3 0x2692 JUMP JUMPDEST PUSH3 0x79C JUMP JUMPDEST STOP JUMPDEST PUSH3 0x2AC PUSH3 0x7BE JUMP JUMPDEST PUSH1 0x40 MLOAD PUSH3 0x2BB SWAP2 SWAP1 PUSH3 0x2428 JUMP JUMPDEST PUSH1 0x40 MLOAD DUP1 SWAP2 SUB SWAP1 RETURN JUMPDEST PUSH3 0x2E2 PUSH1 0x4 DUP1 CALLDATASIZE SUB DUP2 ADD SWAP1 PUSH3 0x2DC SWAP2 SWAP1 PUSH3 0x2548 JUMP JUMPDEST PUSH3 0x7D5 JUMP JUMPDEST PUSH1 0x40 MLOAD PUSH3 0x2F1 SWAP2 SWAP1 PUSH3 0x25BF JUMP JUMPDEST PUSH1 0x40 MLOAD DUP1 SWAP2 SUB SWAP1 RETURN JUMPDEST PUSH3 0x318 PUSH1 0x4 DUP1 CALLDATASIZE SUB DUP2 ADD SWAP1 PUSH3 0x312 SWAP2 SWAP1 PUSH3 0x26EE JUMP JUMPDEST PUSH3 0x861 JUMP JUMPDEST PUSH1 0x40 MLOAD PUSH3 0x327 SWAP2 SWAP1 PUSH3 0x2720 JUMP JUMPDEST PUSH1 0x40 MLOAD DUP1 SWAP2 SUB SWAP1 RETURN JUMPDEST PUSH3 0x33A PUSH3 0x91C JUMP JUMPDEST STOP JUMPDEST PUSH3 0x346 PUSH3 0x934 JUMP JUMPDEST PUSH1 0x40 MLOAD PUSH3 0x355 SWAP2 SWAP1 PUSH3 0x2720 JUMP JUMPDEST PUSH1 0x40 MLOAD DUP1 SWAP2 SUB SWAP1 RETURN JUMPDEST PUSH3 0x368 PUSH3 0x947 JUMP JUMPDEST STOP JUMPDEST PUSH3 0x374 PUSH3 0x95D JUMP JUMPDEST PUSH1 0x40 MLOAD PUSH3 0x383 SWAP2 SWAP1 PUSH3 0x25BF JUMP JUMPDEST PUSH1 0x40 MLOAD DUP1 SWAP2 SUB SWAP1 RETURN JUMPDEST PUSH3 0x396 PUSH3 0x987 JUMP JUMPDEST PUSH1 0x40 MLOAD PUSH3 0x3A5 SWAP2 SWAP1 PUSH3 0x24E9 JUMP JUMPDEST PUSH1 0x40 MLOAD DUP1 SWAP2 SUB SWAP1 RETURN JUMPDEST PUSH3 0x3CC PUSH1 0x4 DUP1 CALLDATASIZE SUB DUP2 ADD SWAP1 PUSH3 0x3C6 SWAP2 SWAP1 PUSH3 0x276E JUMP JUMPDEST PUSH3 0xA21 JUMP JUMPDEST STOP JUMPDEST PUSH3 0x3EC PUSH1 0x4 DUP1 CALLDATASIZE SUB DUP2 ADD SWAP1 PUSH3 0x3E6 SWAP2 SWAP1 PUSH3 0x27B5 JUMP JUMPDEST PUSH3 0xA3B JUMP JUMPDEST STOP JUMPDEST PUSH3 0x40C PUSH1 0x4 DUP1 CALLDATASIZE SUB DUP2 ADD SWAP1 PUSH3 0x406 SWAP2 SWAP1 PUSH3 0x2962 JUMP JUMPDEST PUSH3 0xAF5 JUMP JUMPDEST STOP JUMPDEST PUSH3 0x42C PUSH1 0x4 DUP1 CALLDATASIZE SUB DUP2 ADD SWAP1 PUSH3 0x426 SWAP2 SWAP1 PUSH3 0x2AA7 JUMP JUMPDEST PUSH3 0xB60 JUMP JUMPDEST STOP JUMPDEST PUSH3 0x44C PUSH1 0x4 DUP1 CALLDATASIZE SUB DUP2 ADD SWAP1 PUSH3 0x446 SWAP2 SWAP1 PUSH3 0x2548 JUMP JUMPDEST PUSH3 0xC97 JUMP JUMPDEST PUSH1 0x40 MLOAD PUSH3 0x45B SWAP2 SWAP1 PUSH3 0x24E9 JUMP JUMPDEST PUSH1 0x40 MLOAD DUP1 SWAP2 SUB SWAP1 RETURN JUMPDEST PUSH3 0x482 PUSH1 0x4 DUP1 CALLDATASIZE SUB DUP2 ADD SWAP1 PUSH3 0x47C SWAP2 SWAP1 PUSH3 0x2B22 JUMP JUMPDEST PUSH3 0xCAB JUMP JUMPDEST PUSH1 0x40 MLOAD PUSH3 0x491 SWAP2 SWAP1 PUSH3 0x2428 JUMP JUMPDEST PUSH1 0x40 MLOAD DUP1 SWAP2 SUB SWAP1 RETURN JUMPDEST PUSH3 0x4B8 PUSH1 0x4 DUP1 CALLDATASIZE SUB DUP2 ADD SWAP1 PUSH3 0x4B2 SWAP2 SWAP1 PUSH3 0x26EE JUMP JUMPDEST PUSH3 0xD3F JUMP JUMPDEST STOP JUMPDEST PUSH1 0x0 PUSH3 0x4C7 DUP3 PUSH3 0xDCA JUMP JUMPDEST SWAP1 POP SWAP2 SWAP1 POP JUMP JUMPDEST PUSH1 0x60 PUSH1 0x0 DUP1 SLOAD PUSH3 0x4DF SWAP1 PUSH3 0x2B98 JUMP JUMPDEST DUP1 PUSH1 0x1F ADD PUSH1 0x20 DUP1 SWAP2 DIV MUL PUSH1 0x20 ADD PUSH1 0x40 MLOAD SWAP1 DUP2 ADD PUSH1 0x40 MSTORE DUP1 SWAP3 SWAP2 SWAP1 DUP2 DUP2 MSTORE PUSH1 0x20 ADD DUP3 DUP1 SLOAD PUSH3 0x50D SWAP1 PUSH3 0x2B98 JUMP JUMPDEST DUP1 ISZERO PUSH3 0x55E JUMPI DUP1 PUSH1 0x1F LT PUSH3 0x532 JUMPI PUSH2 0x100 DUP1 DUP4 SLOAD DIV MUL DUP4 MSTORE SWAP2 PUSH1 0x20 ADD SWAP2 PUSH3 0x55E JUMP JUMPDEST DUP3 ADD SWAP2 SWAP1 PUSH1 0x0 MSTORE PUSH1 0x20 PUSH1 0x0 KECCAK256 SWAP1 JUMPDEST DUP2 SLOAD DUP2 MSTORE SWAP1 PUSH1 0x1 ADD SWAP1 PUSH1 0x20 ADD DUP1 DUP4 GT PUSH3 0x540 JUMPI DUP3 SWAP1 SUB PUSH1 0x1F AND DUP3 ADD SWAP2 JUMPDEST POP POP POP POP POP SWAP1 POP SWAP1 JUMP JUMPDEST PUSH1 0x0 PUSH3 0x575 DUP3 PUSH3 0xE2E JUMP JUMPDEST PUSH1 0x4 PUSH1 0x0 DUP4 DUP2 MSTORE PUSH1 0x20 ADD SWAP1 DUP2 MSTORE PUSH1 0x20 ADD PUSH1 0x0 KECCAK256 PUSH1 0x0 SWAP1 SLOAD SWAP1 PUSH2 0x100 EXP SWAP1 DIV PUSH20 0xFFFFFFFFFFFFFFFFFFFFFFFFFFFFFFFFFFFFFFFF AND SWAP1 POP SWAP2 SWAP1 POP JUMP JUMPDEST PUSH1 0x0 PUSH3 0x5BD DUP3 PUSH3 0x7D5 JUMP JUMPDEST SWAP1 POP DUP1 PUSH20 0xFFFFFFFFFFFFFFFFFFFFFFFFFFFFFFFFFFFFFFFF AND DUP4 PUSH20 0xFFFFFFFFFFFFFFFFFFFFFFFFFFFFFFFFFFFFFFFF AND EQ ISZERO PUSH3 0x631 JUMPI PUSH1 0x40 MLOAD PUSH32 0x8C379A000000000000000000000000000000000000000000000000000000000 DUP2 MSTORE PUSH1 0x4 ADD PUSH3 0x628 SWAP1 PUSH3 0x2C44 JUMP JUMPDEST PUSH1 0x40 MLOAD DUP1 SWAP2 SUB SWAP1 REVERT JUMPDEST DUP1 PUSH20 0xFFFFFFFFFFFFFFFFFFFFFFFFFFFFFFFFFFFFFFFF AND PUSH3 0x652 PUSH3 0xE7E JUMP JUMPDEST PUSH20 0xFFFFFFFFFFFFFFFFFFFFFFFFFFFFFFFFFFFFFFFF AND EQ DUP1 PUSH3 0x686 JUMPI POP PUSH3 0x685 DUP2 PUSH3 0x67F PUSH3 0xE7E JUMP JUMPDEST PUSH3 0xCAB JUMP JUMPDEST JUMPDEST PUSH3 0x6C8 JUMPI PUSH1 0x40 MLOAD PUSH32 0x8C379A000000000000000000000000000000000000000000000000000000000 DUP2 MSTORE PUSH1 0x4 ADD PUSH3 0x6BF SWAP1 PUSH3 0x2CDC JUMP JUMPDEST PUSH1 0x40 MLOAD DUP1 SWAP2 SUB SWAP1 REVERT JUMPDEST PUSH3 0x6D4 DUP4 DUP4 PUSH3 0xE86 JUMP JUMPDEST POP POP POP JUMP JUMPDEST PUSH1 0x9 PUSH1 0x20 MSTORE DUP1 PUSH1 0x0 MSTORE PUSH1 0x40 PUSH1 0x0 KECCAK256 PUSH1 0x0 SWAP2 POP SWAP1 POP DUP1 PUSH1 0x0 ADD SLOAD SWAP1 DUP1 PUSH1 0x1 ADD PUSH1 0x0 SWAP1 SLOAD SWAP1 PUSH2 0x100 EXP SWAP1 DIV PUSH20 0xFFFFFFFFFFFFFFFFFFFFFFFFFFFFFFFFFFFFFFFF AND SWAP1 POP DUP3 JUMP JUMPDEST PUSH3 0x732 PUSH3 0x72B PUSH3 0xE7E JUMP JUMPDEST DUP3 PUSH3 0xF41 JUMP JUMPDEST PUSH3 0x774 JUMPI PUSH1 0x40 MLOAD PUSH32 0x8C379A000000000000000000000000000000000000000000000000000000000 DUP2 MSTORE PUSH1 0x4 ADD PUSH3 0x76B SWAP1 PUSH3 0x2D74 JUMP JUMPDEST PUSH1 0x40 MLOAD DUP1 SWAP2 SUB SWAP1 REVERT JUMPDEST PUSH3 0x781 DUP4 DUP4 DUP4 PUSH3 0xFDE JUMP JUMPDEST POP POP POP JUMP JUMPDEST PUSH3 0x790 PUSH3 0x12E9 JUMP JUMPDEST PUSH3 0x79A PUSH3 0x136E JUMP JUMPDEST JUMP JUMPDEST PUSH3 0x7B9 DUP4 DUP4 DUP4 PUSH1 0x40 MLOAD DUP1 PUSH1 0x20 ADD PUSH1 0x40 MSTORE DUP1 PUSH1 0x0 DUP2 MSTORE POP PUSH3 0xAF5 JUMP JUMPDEST POP POP POP JUMP JUMPDEST PUSH1 0x0 PUSH1 0x7 PUSH1 0x0 SWAP1 SLOAD SWAP1 PUSH2 0x100 EXP SWAP1 DIV PUSH1 0xFF AND SWAP1 POP SWAP1 JUMP JUMPDEST PUSH1 0x0 DUP1 PUSH3 0x7E3 DUP4 PUSH3 0x13D7 JUMP JUMPDEST SWAP1 POP PUSH1 0x0 PUSH20 0xFFFFFFFFFFFFFFFFFFFFFFFFFFFFFFFFFFFFFFFF AND DUP2 PUSH20 0xFFFFFFFFFFFFFFFFFFFFFFFFFFFFFFFFFFFFFFFF AND EQ ISZERO PUSH3 0x858 JUMPI PUSH1 0x40 MLOAD PUSH32 0x8C379A000000000000000000000000000000000000000000000000000000000 DUP2 MSTORE PUSH1 0x4 ADD PUSH3 0x84F SWAP1 PUSH3 0x2DE6 JUMP JUMPDEST PUSH1 0x40 MLOAD DUP1 SWAP2 SUB SWAP1 REVERT JUMPDEST DUP1 SWAP2 POP POP SWAP2 SWAP1 POP JUMP JUMPDEST PUSH1 0x0 DUP1 PUSH20 0xFFFFFFFFFFFFFFFFFFFFFFFFFFFFFFFFFFFFFFFF AND DUP3 PUSH20 0xFFFFFFFFFFFFFFFFFFFFFFFFFFFFFFFFFFFFFFFF AND EQ ISZERO PUSH3 0x8D5 JUMPI PUSH1 0x40 MLOAD PUSH32 0x8C379A000000000000000000000000000000000000000000000000000000000 DUP2 MSTORE PUSH1 0x4 ADD PUSH3 0x8CC SWAP1 PUSH3 0x2E7E JUMP JUMPDEST PUSH1 0x40 MLOAD DUP1 SWAP2 SUB SWAP1 REVERT JUMPDEST PUSH1 0x3 PUSH1 0x0 DUP4 PUSH20 0xFFFFFFFFFFFFFFFFFFFFFFFFFFFFFFFFFFFFFFFF AND PUSH20 0xFFFFFFFFFFFFFFFFFFFFFFFFFFFFFFFFFFFFFFFF AND DUP2 MSTORE PUSH1 0x20 ADD SWAP1 DUP2 MSTORE PUSH1 0x20 ADD PUSH1 0x0 KECCAK256 SLOAD SWAP1 POP SWAP2 SWAP1 POP JUMP JUMPDEST PUSH3 0x926 PUSH3 0x12E9 JUMP JUMPDEST PUSH3 0x932 PUSH1 0x0 PUSH3 0x1414 JUMP JUMPDEST JUMP JUMPDEST PUSH1 0x0 PUSH3 0x942 PUSH1 0x8 PUSH3 0x14DA JUMP JUMPDEST SWAP1 POP SWAP1 JUMP JUMPDEST PUSH3 0x951 PUSH3 0x12E9 JUMP JUMPDEST PUSH3 0x95B PUSH3 0x14E8 JUMP JUMPDEST JUMP JUMPDEST PUSH1 0x0 PUSH1 0x7 PUSH1 0x1 SWAP1 SLOAD SWAP1 PUSH2 0x100 EXP SWAP1 DIV PUSH20 0xFFFFFFFFFFFFFFFFFFFFFFFFFFFFFFFFFFFFFFFF AND SWAP1 POP SWAP1 JUMP JUMPDEST PUSH1 0x60 PUSH1 0x1 DUP1 SLOAD PUSH3 0x998 SWAP1 PUSH3 0x2B98 JUMP JUMPDEST DUP1 PUSH1 0x1F ADD PUSH1 0x20 DUP1 SWAP2 DIV MUL PUSH1 0x20 ADD PUSH1 0x40 MLOAD SWAP1 DUP2 ADD PUSH1 0x40 MSTORE DUP1 SWAP3 SWAP2 SWAP1 DUP2 DUP2 MSTORE PUSH1 0x20 ADD DUP3 DUP1 SLOAD PUSH3 0x9C6 SWAP1 PUSH3 0x2B98 JUMP JUMPDEST DUP1 ISZERO PUSH3 0xA17 JUMPI DUP1 PUSH1 0x1F LT PUSH3 0x9EB JUMPI PUSH2 0x100 DUP1 DUP4 SLOAD DIV MUL DUP4 MSTORE SWAP2 PUSH1 0x20 ADD SWAP2 PUSH3 0xA17 JUMP JUMPDEST DUP3 ADD SWAP2 SWAP1 PUSH1 0x0 MSTORE PUSH1 0x20 PUSH1 0x0 KECCAK256 SWAP1 JUMPDEST DUP2 SLOAD DUP2 MSTORE SWAP1 PUSH1 0x1 ADD SWAP1 PUSH1 0x20 ADD DUP1 DUP4 GT PUSH3 0x9F9 JUMPI DUP3 SWAP1 SUB PUSH1 0x1F AND DUP3 ADD SWAP2 JUMPDEST POP POP POP POP POP SWAP1 POP SWAP1 JUMP JUMPDEST PUSH3 0xA37 PUSH3 0xA2F PUSH3 0xE7E JUMP JUMPDEST DUP4 DUP4 PUSH3 0x1551 JUMP JUMPDEST POP POP JUMP JUMPDEST PUSH1 0x0 PUSH1 0x9 PUSH1 0x0 DUP5 DUP2 MSTORE PUSH1 0x20 ADD SWAP1 DUP2 MSTORE PUSH1 0x20 ADD PUSH1 0x0 KECCAK256 PUSH1 0x1 ADD PUSH1 0x0 SWAP1 SLOAD SWAP1 PUSH2 0x100 EXP SWAP1 DIV PUSH20 0xFFFFFFFFFFFFFFFFFFFFFFFFFFFFFFFFFFFFFFFF AND SWAP1 POP PUSH1 0x0 DUP2 SWAP1 POP DUP1 PUSH20 0xFFFFFFFFFFFFFFFFFFFFFFFFFFFFFFFFFFFFFFFF AND PUSH4 0x8C2B1BD7 CALLER DUP8 DUP7 PUSH1 0x40 MLOAD DUP5 PUSH4 0xFFFFFFFF AND PUSH1 0xE0 SHL DUP2 MSTORE PUSH1 0x4 ADD PUSH3 0xABA SWAP4 SWAP3 SWAP2 SWAP1 PUSH3 0x2EA0 JUMP JUMPDEST PUSH1 0x0 PUSH1 0x40 MLOAD DUP1 DUP4 SUB DUP2 PUSH1 0x0 DUP8 DUP1 EXTCODESIZE ISZERO DUP1 ISZERO PUSH3 0xAD5 JUMPI PUSH1 0x0 DUP1 REVERT JUMPDEST POP GAS CALL ISZERO DUP1 ISZERO PUSH3 0xAEA JUMPI RETURNDATASIZE PUSH1 0x0 DUP1 RETURNDATACOPY RETURNDATASIZE PUSH1 0x0 REVERT JUMPDEST POP POP POP POP POP POP POP POP POP JUMP JUMPDEST PUSH3 0xB0A PUSH3 0xB03 PUSH3 0xE7E JUMP JUMPDEST DUP4 PUSH3 0xF41 JUMP JUMPDEST PUSH3 0xB4C JUMPI PUSH1 0x40 MLOAD PUSH32 0x8C379A000000000000000000000000000000000000000000000000000000000 DUP2 MSTORE PUSH1 0x4 ADD PUSH3 0xB43 SWAP1 PUSH3 0x2D74 JUMP JUMPDEST PUSH1 0x40 MLOAD DUP1 SWAP2 SUB SWAP1 REVERT JUMPDEST PUSH3 0xB5A DUP5 DUP5 DUP5 DUP5 PUSH3 0x16C3 JUMP JUMPDEST POP POP POP POP JUMP JUMPDEST PUSH3 0xB6A PUSH3 0x12E9 JUMP JUMPDEST PUSH3 0xB81 DUP4 PUSH3 0xB7B PUSH1 0x8 PUSH3 0x14DA JUMP JUMPDEST PUSH3 0x1726 JUMP JUMPDEST PUSH3 0xB98 PUSH3 0xB91 PUSH1 0x8 PUSH3 0x14DA JUMP JUMPDEST DUP4 PUSH3 0x1746 JUMP JUMPDEST PUSH1 0x0 DUP2 CALLER PUSH1 0x40 MLOAD PUSH3 0xBAA SWAP1 PUSH3 0x22AA JUMP JUMPDEST PUSH3 0xBB7 SWAP3 SWAP2 SWAP1 PUSH3 0x2665 JUMP JUMPDEST PUSH1 0x40 MLOAD DUP1 SWAP2 SUB SWAP1 PUSH1 0x0 CREATE DUP1 ISZERO DUP1 ISZERO PUSH3 0xBD4 JUMPI RETURNDATASIZE PUSH1 0x0 DUP1 RETURNDATACOPY RETURNDATASIZE PUSH1 0x0 REVERT JUMPDEST POP SWAP1 POP PUSH1 0x0 PUSH1 0x40 MLOAD DUP1 PUSH1 0x40 ADD PUSH1 0x40 MSTORE DUP1 PUSH3 0xBF0 PUSH1 0x8 PUSH3 0x14DA JUMP JUMPDEST DUP2 MSTORE PUSH1 0x20 ADD DUP4 PUSH20 0xFFFFFFFFFFFFFFFFFFFFFFFFFFFFFFFFFFFFFFFF AND DUP2 MSTORE POP SWAP1 POP DUP1 PUSH1 0x9 PUSH1 0x0 PUSH3 0xC22 PUSH1 0x8 PUSH3 0x14DA JUMP JUMPDEST DUP2 MSTORE PUSH1 0x20 ADD SWAP1 DUP2 MSTORE PUSH1 0x20 ADD PUSH1 0x0 KECCAK256 PUSH1 0x0 DUP3 ADD MLOAD DUP2 PUSH1 0x0 ADD SSTORE PUSH1 0x20 DUP3 ADD MLOAD DUP2 PUSH1 0x1 ADD PUSH1 0x0 PUSH2 0x100 EXP DUP2 SLOAD DUP2 PUSH20 0xFFFFFFFFFFFFFFFFFFFFFFFFFFFFFFFFFFFFFFFF MUL NOT AND SWAP1 DUP4 PUSH20 0xFFFFFFFFFFFFFFFFFFFFFFFFFFFFFFFFFFFFFFFF AND MUL OR SWAP1 SSTORE POP SWAP1 POP POP PUSH3 0xC90 PUSH1 0x8 PUSH3 0x17FA JUMP JUMPDEST POP POP POP POP POP JUMP JUMPDEST PUSH1 0x60 PUSH3 0xCA4 DUP3 PUSH3 0x1810 JUMP JUMPDEST SWAP1 POP SWAP2 SWAP1 POP JUMP JUMPDEST PUSH1 0x0 PUSH1 0x5 PUSH1 0x0 DUP5 PUSH20 0xFFFFFFFFFFFFFFFFFFFFFFFFFFFFFFFFFFFFFFFF AND PUSH20 0xFFFFFFFFFFFFFFFFFFFFFFFFFFFFFFFFFFFFFFFF AND DUP2 MSTORE PUSH1 0x20 ADD SWAP1 DUP2 MSTORE PUSH1 0x20 ADD PUSH1 0x0 KECCAK256 PUSH1 0x0 DUP4 PUSH20 0xFFFFFFFFFFFFFFFFFFFFFFFFFFFFFFFFFFFFFFFF AND PUSH20 0xFFFFFFFFFFFFFFFFFFFFFFFFFFFFFFFFFFFFFFFF AND DUP2 MSTORE PUSH1 0x20 ADD SWAP1 DUP2 MSTORE PUSH1 0x20 ADD PUSH1 0x0 KECCAK256 PUSH1 0x0 SWAP1 SLOAD SWAP1 PUSH2 0x100 EXP SWAP1 DIV PUSH1 0xFF AND SWAP1 POP SWAP3 SWAP2 POP POP JUMP JUMPDEST PUSH3 0xD49 PUSH3 0x12E9 JUMP JUMPDEST PUSH1 0x0 PUSH20 0xFFFFFFFFFFFFFFFFFFFFFFFFFFFFFFFFFFFFFFFF AND DUP2 PUSH20 0xFFFFFFFFFFFFFFFFFFFFFFFFFFFFFFFFFFFFFFFF AND EQ ISZERO PUSH3 0xDBC JUMPI PUSH1 0x40 MLOAD PUSH32 0x8C379A000000000000000000000000000000000000000000000000000000000 DUP2 MSTORE PUSH1 0x4 ADD PUSH3 0xDB3 SWAP1 PUSH3 0x2F53 JUMP JUMPDEST PUSH1 0x40 MLOAD DUP1 SWAP2 SUB SWAP1 REVERT JUMPDEST PUSH3 0xDC7 DUP2 PUSH3 0x1414 JUMP JUMPDEST POP JUMP JUMPDEST PUSH1 0x0 PUSH4 0x49064906 PUSH1 0xE0 SHL PUSH28 0xFFFFFFFFFFFFFFFFFFFFFFFFFFFFFFFFFFFFFFFFFFFFFFFFFFFFFFFF NOT AND DUP3 PUSH28 0xFFFFFFFFFFFFFFFFFFFFFFFFFFFFFFFFFFFFFFFFFFFFFFFFFFFFFFFF NOT AND EQ DUP1 PUSH3 0xE27 JUMPI POP PUSH3 0xE26 DUP3 PUSH3 0x1937 JUMP JUMPDEST JUMPDEST SWAP1 POP SWAP2 SWAP1 POP JUMP JUMPDEST PUSH3 0xE39 DUP2 PUSH3 0x1A1D JUMP JUMPDEST PUSH3 0xE7B JUMPI PUSH1 0x40 MLOAD PUSH32 0x8C379A000000000000000000000000000000000000000000000000000000000 DUP2 MSTORE PUSH1 0x4 ADD PUSH3 0xE72 SWAP1 PUSH3 0x2DE6 JUMP JUMPDEST PUSH1 0x40 MLOAD DUP1 SWAP2 SUB SWAP1 REVERT JUMPDEST POP JUMP JUMPDEST PUSH1 0x0 CALLER SWAP1 POP SWAP1 JUMP JUMPDEST DUP2 PUSH1 0x4 PUSH1 0x0 DUP4 DUP2 MSTORE PUSH1 0x20 ADD SWAP1 DUP2 MSTORE PUSH1 0x20 ADD PUSH1 0x0 KECCAK256 PUSH1 0x0 PUSH2 0x100 EXP DUP2 SLOAD DUP2 PUSH20 0xFFFFFFFFFFFFFFFFFFFFFFFFFFFFFFFFFFFFFFFF MUL NOT AND SWAP1 DUP4 PUSH20 0xFFFFFFFFFFFFFFFFFFFFFFFFFFFFFFFFFFFFFFFF AND MUL OR SWAP1 SSTORE POP DUP1 DUP3 PUSH20 0xFFFFFFFFFFFFFFFFFFFFFFFFFFFFFFFFFFFFFFFF AND PUSH3 0xEFB DUP4 PUSH3 0x7D5 JUMP JUMPDEST PUSH20 0xFFFFFFFFFFFFFFFFFFFFFFFFFFFFFFFFFFFFFFFF AND PUSH32 0x8C5BE1E5EBEC7D5BD14F71427D1E84F3DD0314C0F7B2291E5B200AC8C7C3B925 PUSH1 0x40 MLOAD PUSH1 0x40 MLOAD DUP1 SWAP2 SUB SWAP1 LOG4 POP POP JUMP JUMPDEST PUSH1 0x0 DUP1 PUSH3 0xF4F DUP4 PUSH3 0x7D5 JUMP JUMPDEST SWAP1 POP DUP1 PUSH20 0xFFFFFFFFFFFFFFFFFFFFFFFFFFFFFFFFFFFFFFFF AND DUP5 PUSH20 0xFFFFFFFFFFFFFFFFFFFFFFFFFFFFFFFFFFFFFFFF AND EQ DUP1 PUSH3 0xF94 JUMPI POP PUSH3 0xF93 DUP2 DUP6 PUSH3 0xCAB JUMP JUMPDEST JUMPDEST DUP1 PUSH3 0xFD5 JUMPI POP DUP4 PUSH20 0xFFFFFFFFFFFFFFFFFFFFFFFFFFFFFFFFFFFFFFFF AND PUSH3 0xFBD DUP5 PUSH3 0x568 JUMP JUMPDEST PUSH20 0xFFFFFFFFFFFFFFFFFFFFFFFFFFFFFFFFFFFFFFFF AND EQ JUMPDEST SWAP2 POP POP SWAP3 SWAP2 POP POP JUMP JUMPDEST DUP3 PUSH20 0xFFFFFFFFFFFFFFFFFFFFFFFFFFFFFFFFFFFFFFFF AND PUSH3 0x1000 DUP3 PUSH3 0x7D5 JUMP JUMPDEST PUSH20 0xFFFFFFFFFFFFFFFFFFFFFFFFFFFFFFFFFFFFFFFF AND EQ PUSH3 0x1059 JUMPI PUSH1 0x40 MLOAD PUSH32 0x8C379A000000000000000000000000000000000000000000000000000000000 DUP2 MSTORE PUSH1 0x4 ADD PUSH3 0x1050 SWAP1 PUSH3 0x2FEB JUMP JUMPDEST PUSH1 0x40 MLOAD DUP1 SWAP2 SUB SWAP1 REVERT JUMPDEST PUSH1 0x0 PUSH20 0xFFFFFFFFFFFFFFFFFFFFFFFFFFFFFFFFFFFFFFFF AND DUP3 PUSH20 0xFFFFFFFFFFFFFFFFFFFFFFFFFFFFFFFFFFFFFFFF AND EQ ISZERO PUSH3 0x10CC JUMPI PUSH1 0x40 MLOAD PUSH32 0x8C379A000000000000000000000000000000000000000000000000000000000 DUP2 MSTORE PUSH1 0x4 ADD PUSH3 0x10C3 SWAP1 PUSH3 0x3083 JUMP JUMPDEST PUSH1 0x40 MLOAD DUP1 SWAP2 SUB SWAP1 REVERT JUMPDEST PUSH3 0x10DB DUP4 DUP4 DUP4 PUSH1 0x1 PUSH3 0x1A60 JUMP JUMPDEST DUP3 PUSH20 0xFFFFFFFFFFFFFFFFFFFFFFFFFFFFFFFFFFFFFFFF AND PUSH3 0x10FD DUP3 PUSH3 0x7D5 JUMP JUMPDEST PUSH20 0xFFFFFFFFFFFFFFFFFFFFFFFFFFFFFFFFFFFFFFFF AND EQ PUSH3 0x1156 JUMPI PUSH1 0x40 MLOAD PUSH32 0x8C379A000000000000000000000000000000000000000000000000000000000 DUP2 MSTORE PUSH1 0x4 ADD PUSH3 0x114D SWAP1 PUSH3 0x2FEB JUMP JUMPDEST PUSH1 0x40 MLOAD DUP1 SWAP2 SUB SWAP1 REVERT JUMPDEST PUSH1 0x4 PUSH1 0x0 DUP3 DUP2 MSTORE PUSH1 0x20 ADD SWAP1 DUP2 MSTORE PUSH1 0x20 ADD PUSH1 0x0 KECCAK256 PUSH1 0x0 PUSH2 0x100 EXP DUP2 SLOAD SWAP1 PUSH20 0xFFFFFFFFFFFFFFFFFFFFFFFFFFFFFFFFFFFFFFFF MUL NOT AND SWAP1 SSTORE PUSH1 0x1 PUSH1 0x3 PUSH1 0x0 DUP6 PUSH20 0xFFFFFFFFFFFFFFFFFFFFFFFFFFFFFFFFFFFFFFFF AND PUSH20 0xFFFFFFFFFFFFFFFFFFFFFFFFFFFFFFFFFFFFFFFF AND DUP2 MSTORE PUSH1 0x20 ADD SWAP1 DUP2 MSTORE PUSH1 0x20 ADD PUSH1 0x0 KECCAK256 PUSH1 0x0 DUP3 DUP3 SLOAD SUB SWAP3 POP POP DUP2 SWAP1 SSTORE POP PUSH1 0x1 PUSH1 0x3 PUSH1 0x0 DUP5 PUSH20 0xFFFFFFFFFFFFFFFFFFFFFFFFFFFFFFFFFFFFFFFF AND PUSH20 0xFFFFFFFFFFFFFFFFFFFFFFFFFFFFFFFFFFFFFFFF AND DUP2 MSTORE PUSH1 0x20 ADD SWAP1 DUP2 MSTORE PUSH1 0x20 ADD PUSH1 0x0 KECCAK256 PUSH1 0x0 DUP3 DUP3 SLOAD ADD SWAP3 POP POP DUP2 SWAP1 SSTORE POP DUP2 PUSH1 0x2 PUSH1 0x0 DUP4 DUP2 MSTORE PUSH1 0x20 ADD SWAP1 DUP2 MSTORE PUSH1 0x20 ADD PUSH1 0x0 KECCAK256 PUSH1 0x0 PUSH2 0x100 EXP DUP2 SLOAD DUP2 PUSH20 0xFFFFFFFFFFFFFFFFFFFFFFFFFFFFFFFFFFFFFFFF MUL NOT AND SWAP1 DUP4 PUSH20 0xFFFFFFFFFFFFFFFFFFFFFFFFFFFFFFFFFFFFFFFF AND MUL OR SWAP1 SSTORE POP DUP1 DUP3 PUSH20 0xFFFFFFFFFFFFFFFFFFFFFFFFFFFFFFFFFFFFFFFF AND DUP5 PUSH20 0xFFFFFFFFFFFFFFFFFFFFFFFFFFFFFFFFFFFFFFFF AND PUSH32 0xDDF252AD1BE2C89B69C2B068FC378DAA952BA7F163C4A11628F55A4DF523B3EF PUSH1 0x40 MLOAD PUSH1 0x40 MLOAD DUP1 SWAP2 SUB SWAP1 LOG4 PUSH3 0x12E4 DUP4 DUP4 DUP4 PUSH1 0x1 PUSH3 0x1A66 JUMP JUMPDEST POP POP POP JUMP JUMPDEST PUSH3 0x12F3 PUSH3 0xE7E JUMP JUMPDEST PUSH20 0xFFFFFFFFFFFFFFFFFFFFFFFFFFFFFFFFFFFFFFFF AND PUSH3 0x1313 PUSH3 0x95D JUMP JUMPDEST PUSH20 0xFFFFFFFFFFFFFFFFFFFFFFFFFFFFFFFFFFFFFFFF AND EQ PUSH3 0x136C JUMPI PUSH1 0x40 MLOAD PUSH32 0x8C379A000000000000000000000000000000000000000000000000000000000 DUP2 MSTORE PUSH1 0x4 ADD PUSH3 0x1363 SWAP1 PUSH3 0x30F5 JUMP JUMPDEST PUSH1 0x40 MLOAD DUP1 SWAP2 SUB SWAP1 REVERT JUMPDEST JUMP JUMPDEST PUSH3 0x1378 PUSH3 0x1A6C JUMP JUMPDEST PUSH1 0x0 PUSH1 0x7 PUSH1 0x0 PUSH2 0x100 EXP DUP2 SLOAD DUP2 PUSH1 0xFF MUL NOT AND SWAP1 DUP4 ISZERO ISZERO MUL OR SWAP1 SSTORE POP PUSH32 0x5DB9EE0A495BF2E6FF9C91A7834C1BA4FDD244A5E8AA4E537BD38AEAE4B073AA PUSH3 0x13BE PUSH3 0xE7E JUMP JUMPDEST PUSH1 0x40 MLOAD PUSH3 0x13CD SWAP2 SWAP1 PUSH3 0x25BF JUMP JUMPDEST PUSH1 0x40 MLOAD DUP1 SWAP2 SUB SWAP1 LOG1 JUMP JUMPDEST PUSH1 0x0 PUSH1 0x2 PUSH1 0x0 DUP4 DUP2 MSTORE PUSH1 0x20 ADD SWAP1 DUP2 MSTORE PUSH1 0x20 ADD PUSH1 0x0 KECCAK256 PUSH1 0x0 SWAP1 SLOAD SWAP1 PUSH2 0x100 EXP SWAP1 DIV PUSH20 0xFFFFFFFFFFFFFFFFFFFFFFFFFFFFFFFFFFFFFFFF AND SWAP1 POP SWAP2 SWAP1 POP JUMP JUMPDEST PUSH1 0x0 PUSH1 0x7 PUSH1 0x1 SWAP1 SLOAD SWAP1 PUSH2 0x100 EXP SWAP1 DIV PUSH20 0xFFFFFFFFFFFFFFFFFFFFFFFFFFFFFFFFFFFFFFFF AND SWAP1 POP DUP2 PUSH1 0x7 PUSH1 0x1 PUSH2 0x100 EXP DUP2 SLOAD DUP2 PUSH20 0xFFFFFFFFFFFFFFFFFFFFFFFFFFFFFFFFFFFFFFFF MUL NOT AND SWAP1 DUP4 PUSH20 0xFFFFFFFFFFFFFFFFFFFFFFFFFFFFFFFFFFFFFFFF AND MUL OR SWAP1 SSTORE POP DUP2 PUSH20 0xFFFFFFFFFFFFFFFFFFFFFFFFFFFFFFFFFFFFFFFF AND DUP2 PUSH20 0xFFFFFFFFFFFFFFFFFFFFFFFFFFFFFFFFFFFFFFFF AND PUSH32 0x8BE0079C531659141344CD1FD0A4F28419497F9722A3DAAFE3B4186F6B6457E0 PUSH1 0x40 MLOAD PUSH1 0x40 MLOAD DUP1 SWAP2 SUB SWAP1 LOG3 POP POP JUMP JUMPDEST PUSH1 0x0 DUP2 PUSH1 0x0 ADD SLOAD SWAP1 POP SWAP2 SWAP1 POP JUMP JUMPDEST PUSH3 0x14F2 PUSH3 0x1ABA JUMP JUMPDEST PUSH1 0x1 PUSH1 0x7 PUSH1 0x0 PUSH2 0x100 EXP DUP2 SLOAD DUP2 PUSH1 0xFF MUL NOT AND SWAP1 DUP4 ISZERO ISZERO MUL OR SWAP1 SSTORE POP PUSH32 0x62E78CEA01BEE320CD4E420270B5EA74000D11B0C9F74754EBDBFC544B05A258 PUSH3 0x1538 PUSH3 0xE7E JUMP JUMPDEST PUSH1 0x40 MLOAD PUSH3 0x1547 SWAP2 SWAP1 PUSH3 0x25BF JUMP JUMPDEST PUSH1 0x40 MLOAD DUP1 SWAP2 SUB SWAP1 LOG1 JUMP JUMPDEST DUP2 PUSH20 0xFFFFFFFFFFFFFFFFFFFFFFFFFFFFFFFFFFFFFFFF AND DUP4 PUSH20 0xFFFFFFFFFFFFFFFFFFFFFFFFFFFFFFFFFFFFFFFF AND EQ ISZERO PUSH3 0x15C3 JUMPI PUSH1 0x40 MLOAD PUSH32 0x8C379A000000000000000000000000000000000000000000000000000000000 DUP2 MSTORE PUSH1 0x4 ADD PUSH3 0x15BA SWAP1 PUSH3 0x3167 JUMP JUMPDEST PUSH1 0x40 MLOAD DUP1 SWAP2 SUB SWAP1 REVERT JUMPDEST DUP1 PUSH1 0x5 PUSH1 0x0 DUP6 PUSH20 0xFFFFFFFFFFFFFFFFFFFFFFFFFFFFFFFFFFFFFFFF AND PUSH20 0xFFFFFFFFFFFFFFFFFFFFFFFFFFFFFFFFFFFFFFFF AND DUP2 MSTORE PUSH1 0x20 ADD SWAP1 DUP2 MSTORE PUSH1 0x20 ADD PUSH1 0x0 KECCAK256 PUSH1 0x0 DUP5 PUSH20 0xFFFFFFFFFFFFFFFFFFFFFFFFFFFFFFFFFFFFFFFF AND PUSH20 0xFFFFFFFFFFFFFFFFFFFFFFFFFFFFFFFFFFFFFFFF AND DUP2 MSTORE PUSH1 0x20 ADD SWAP1 DUP2 MSTORE PUSH1 0x20 ADD PUSH1 0x0 KECCAK256 PUSH1 0x0 PUSH2 0x100 EXP DUP2 SLOAD DUP2 PUSH1 0xFF MUL NOT AND SWAP1 DUP4 ISZERO ISZERO MUL OR SWAP1 SSTORE POP DUP2 PUSH20 0xFFFFFFFFFFFFFFFFFFFFFFFFFFFFFFFFFFFFFFFF AND DUP4 PUSH20 0xFFFFFFFFFFFFFFFFFFFFFFFFFFFFFFFFFFFFFFFF AND PUSH32 0x17307EAB39AB6107E8899845AD3D59BD9653F200F220920489CA2B5937696C31 DUP4 PUSH1 0x40 MLOAD PUSH3 0x16B6 SWAP2 SWAP1 PUSH3 0x2428 JUMP JUMPDEST PUSH1 0x40 MLOAD DUP1 SWAP2 SUB SWAP1 LOG3 POP POP POP JUMP JUMPDEST PUSH3 0x16D0 DUP5 DUP5 DUP5 PUSH3 0xFDE JUMP JUMPDEST PUSH3 0x16DE DUP5 DUP5 DUP5 DUP5 PUSH3 0x1B09 JUMP JUMPDEST PUSH3 0x1720 JUMPI PUSH1 0x40 MLOAD PUSH32 0x8C379A000000000000000000000000000000000000000000000000000000000 DUP2 MSTORE PUSH1 0x4 ADD PUSH3 0x1717 SWAP1 PUSH3 0x31FF JUMP JUMPDEST PUSH1 0x40 MLOAD DUP1 SWAP2 SUB SWAP1 REVERT JUMPDEST POP POP POP POP JUMP JUMPDEST PUSH3 0x1742 DUP3 DUP3 PUSH1 0x40 MLOAD DUP1 PUSH1 0x20 ADD PUSH1 0x40 MSTORE DUP1 PUSH1 0x0 DUP2 MSTORE POP PUSH3 0x1CB2 JUMP JUMPDEST POP POP JUMP JUMPDEST PUSH3 0x1751 DUP3 PUSH3 0x1A1D JUMP JUMPDEST PUSH3 0x1793 JUMPI PUSH1 0x40 MLOAD PUSH32 0x8C379A000000000000000000000000000000000000000000000000000000000 DUP2 MSTORE PUSH1 0x4 ADD PUSH3 0x178A SWAP1 PUSH3 0x3297 JUMP JUMPDEST PUSH1 0x40 MLOAD DUP1 SWAP2 SUB SWAP1 REVERT JUMPDEST DUP1 PUSH1 0x6 PUSH1 0x0 DUP5 DUP2 MSTORE PUSH1 0x20 ADD SWAP1 DUP2 MSTORE PUSH1 0x20 ADD PUSH1 0x0 KECCAK256 SWAP1 DUP1 MLOAD SWAP1 PUSH1 0x20 ADD SWAP1 PUSH3 0x17BC SWAP3 SWAP2 SWAP1 PUSH3 0x22B8 JUMP JUMPDEST POP PUSH32 0xF8E1A15ABA9398E019F0B49DF1A4FDE98EE17AE345CB5F6B5E2C27F5033E8CE7 DUP3 PUSH1 0x40 MLOAD PUSH3 0x17EE SWAP2 SWAP1 PUSH3 0x2720 JUMP JUMPDEST PUSH1 0x40 MLOAD DUP1 SWAP2 SUB SWAP1 LOG1 POP POP JUMP JUMPDEST PUSH1 0x1 DUP2 PUSH1 0x0 ADD PUSH1 0x0 DUP3 DUP3 SLOAD ADD SWAP3 POP POP DUP2 SWAP1 SSTORE POP POP JUMP JUMPDEST PUSH1 0x60 PUSH3 0x181D DUP3 PUSH3 0xE2E JUMP JUMPDEST PUSH1 0x0 PUSH1 0x6 PUSH1 0x0 DUP5 DUP2 MSTORE PUSH1 0x20 ADD SWAP1 DUP2 MSTORE PUSH1 0x20 ADD PUSH1 0x0 KECCAK256 DUP1 SLOAD PUSH3 0x183F SWAP1 PUSH3 0x2B98 JUMP JUMPDEST DUP1 PUSH1 0x1F ADD PUSH1 0x20 DUP1 SWAP2 DIV MUL PUSH1 0x20 ADD PUSH1 0x40 MLOAD SWAP1 DUP2 ADD PUSH1 0x40 MSTORE DUP1 SWAP3 SWAP2 SWAP1 DUP2 DUP2 MSTORE PUSH1 0x20 ADD DUP3 DUP1 SLOAD PUSH3 0x186D SWAP1 PUSH3 0x2B98 JUMP JUMPDEST DUP1 ISZERO PUSH3 0x18BE JUMPI DUP1 PUSH1 0x1F LT PUSH3 0x1892 JUMPI PUSH2 0x100 DUP1 DUP4 SLOAD DIV MUL DUP4 MSTORE SWAP2 PUSH1 0x20 ADD SWAP2 PUSH3 0x18BE JUMP JUMPDEST DUP3 ADD SWAP2 SWAP1 PUSH1 0x0 MSTORE PUSH1 0x20 PUSH1 0x0 KECCAK256 SWAP1 JUMPDEST DUP2 SLOAD DUP2 MSTORE SWAP1 PUSH1 0x1 ADD SWAP1 PUSH1 0x20 ADD DUP1 DUP4 GT PUSH3 0x18A0 JUMPI DUP3 SWAP1 SUB PUSH1 0x1F AND DUP3 ADD SWAP2 JUMPDEST POP POP POP POP POP SWAP1 POP PUSH1 0x0 PUSH3 0x18D1 PUSH3 0x1D14 JUMP JUMPDEST SWAP1 POP PUSH1 0x0 DUP2 MLOAD EQ ISZERO PUSH3 0x18E9 JUMPI DUP2 SWAP3 POP POP POP PUSH3 0x1932 JUMP JUMPDEST PUSH1 0x0 DUP3 MLOAD GT ISZERO PUSH3 0x1922 JUMPI DUP1 DUP3 PUSH1 0x40 MLOAD PUSH1 0x20 ADD PUSH3 0x1909 SWAP3 SWAP2 SWAP1 PUSH3 0x32FB JUMP JUMPDEST PUSH1 0x40 MLOAD PUSH1 0x20 DUP2 DUP4 SUB SUB DUP2 MSTORE SWAP1 PUSH1 0x40 MSTORE SWAP3 POP POP POP PUSH3 0x1932 JUMP JUMPDEST PUSH3 0x192D DUP5 PUSH3 0x1D2B JUMP JUMPDEST SWAP3 POP POP POP JUMPDEST SWAP2 SWAP1 POP JUMP JUMPDEST PUSH1 0x0 PUSH32 0x80AC58CD00000000000000000000000000000000000000000000000000000000 PUSH28 0xFFFFFFFFFFFFFFFFFFFFFFFFFFFFFFFFFFFFFFFFFFFFFFFFFFFFFFFF NOT AND DUP3 PUSH28 0xFFFFFFFFFFFFFFFFFFFFFFFFFFFFFFFFFFFFFFFFFFFFFFFFFFFFFFFF NOT AND EQ DUP1 PUSH3 0x1A03 JUMPI POP PUSH32 0x5B5E139F00000000000000000000000000000000000000000000000000000000 PUSH28 0xFFFFFFFFFFFFFFFFFFFFFFFFFFFFFFFFFFFFFFFFFFFFFFFFFFFFFFFF NOT AND DUP3 PUSH28 0xFFFFFFFFFFFFFFFFFFFFFFFFFFFFFFFFFFFFFFFFFFFFFFFFFFFFFFFF NOT AND EQ JUMPDEST DUP1 PUSH3 0x1A16 JUMPI POP PUSH3 0x1A15 DUP3 PUSH3 0x1D9D JUMP JUMPDEST JUMPDEST SWAP1 POP SWAP2 SWAP1 POP JUMP JUMPDEST PUSH1 0x0 DUP1 PUSH20 0xFFFFFFFFFFFFFFFFFFFFFFFFFFFFFFFFFFFFFFFF AND PUSH3 0x1A41 DUP4 PUSH3 0x13D7 JUMP JUMPDEST PUSH20 0xFFFFFFFFFFFFFFFFFFFFFFFFFFFFFFFFFFFFFFFF AND EQ ISZERO SWAP1 POP SWAP2 SWAP1 POP JUMP JUMPDEST POP POP POP POP JUMP JUMPDEST POP POP POP POP JUMP JUMPDEST PUSH3 0x1A76 PUSH3 0x7BE JUMP JUMPDEST PUSH3 0x1AB8 JUMPI PUSH1 0x40 MLOAD PUSH32 0x8C379A000000000000000000000000000000000000000000000000000000000 DUP2 MSTORE PUSH1 0x4 ADD PUSH3 0x1AAF SWAP1 PUSH3 0x3373 JUMP JUMPDEST PUSH1 0x40 MLOAD DUP1 SWAP2 SUB SWAP1 REVERT JUMPDEST JUMP JUMPDEST PUSH3 0x1AC4 PUSH3 0x7BE JUMP JUMPDEST ISZERO PUSH3 0x1B07 JUMPI PUSH1 0x40 MLOAD PUSH32 0x8C379A000000000000000000000000000000000000000000000000000000000 DUP2 MSTORE PUSH1 0x4 ADD PUSH3 0x1AFE SWAP1 PUSH3 0x33E5 JUMP JUMPDEST PUSH1 0x40 MLOAD DUP1 SWAP2 SUB SWAP1 REVERT JUMPDEST JUMP JUMPDEST PUSH1 0x0 PUSH3 0x1B2C DUP5 PUSH20 0xFFFFFFFFFFFFFFFFFFFFFFFFFFFFFFFFFFFFFFFF AND PUSH3 0x1E07 JUMP JUMPDEST ISZERO PUSH3 0x1CA5 JUMPI DUP4 PUSH20 0xFFFFFFFFFFFFFFFFFFFFFFFFFFFFFFFFFFFFFFFF AND PUSH4 0x150B7A02 PUSH3 0x1B58 PUSH3 0xE7E JUMP JUMPDEST DUP8 DUP7 DUP7 PUSH1 0x40 MLOAD DUP6 PUSH4 0xFFFFFFFF AND PUSH1 0xE0 SHL DUP2 MSTORE PUSH1 0x4 ADD PUSH3 0x1B7C SWAP5 SWAP4 SWAP3 SWAP2 SWAP1 PUSH3 0x3464 JUMP JUMPDEST PUSH1 0x20 PUSH1 0x40 MLOAD DUP1 DUP4 SUB DUP2 PUSH1 0x0 DUP8 DUP1 EXTCODESIZE ISZERO DUP1 ISZERO PUSH3 0x1B97 JUMPI PUSH1 0x0 DUP1 REVERT JUMPDEST POP GAS CALL SWAP3 POP POP POP DUP1 ISZERO PUSH3 0x1BCB JUMPI POP PUSH1 0x40 MLOAD RETURNDATASIZE PUSH1 0x1F NOT PUSH1 0x1F DUP3 ADD AND DUP3 ADD DUP1 PUSH1 0x40 MSTORE POP DUP2 ADD SWAP1 PUSH3 0x1BC8 SWAP2 SWAP1 PUSH3 0x34CF JUMP JUMPDEST PUSH1 0x1 JUMPDEST PUSH3 0x1C54 JUMPI RETURNDATASIZE DUP1 PUSH1 0x0 DUP2 EQ PUSH3 0x1BFE JUMPI PUSH1 0x40 MLOAD SWAP2 POP PUSH1 0x1F NOT PUSH1 0x3F RETURNDATASIZE ADD AND DUP3 ADD PUSH1 0x40 MSTORE RETURNDATASIZE DUP3 MSTORE RETURNDATASIZE PUSH1 0x0 PUSH1 0x20 DUP5 ADD RETURNDATACOPY PUSH3 0x1C03 JUMP JUMPDEST PUSH1 0x60 SWAP2 POP JUMPDEST POP PUSH1 0x0 DUP2 MLOAD EQ ISZERO PUSH3 0x1C4C JUMPI PUSH1 0x40 MLOAD PUSH32 0x8C379A000000000000000000000000000000000000000000000000000000000 DUP2 MSTORE PUSH1 0x4 ADD PUSH3 0x1C43 SWAP1 PUSH3 0x31FF JUMP JUMPDEST PUSH1 0x40 MLOAD DUP1 SWAP2 SUB SWAP1 REVERT JUMPDEST DUP1 MLOAD DUP2 PUSH1 0x20 ADD REVERT JUMPDEST PUSH4 0x150B7A02 PUSH1 0xE0 SHL PUSH28 0xFFFFFFFFFFFFFFFFFFFFFFFFFFFFFFFFFFFFFFFFFFFFFFFFFFFFFFFF NOT AND DUP2 PUSH28 0xFFFFFFFFFFFFFFFFFFFFFFFFFFFFFFFFFFFFFFFFFFFFFFFFFFFFFFFF NOT AND EQ SWAP2 POP POP PUSH3 0x1CAA JUMP JUMPDEST PUSH1 0x1 SWAP1 POP JUMPDEST SWAP5 SWAP4 POP POP POP POP JUMP JUMPDEST PUSH3 0x1CBE DUP4 DUP4 PUSH3 0x1E2A JUMP JUMPDEST PUSH3 0x1CCD PUSH1 0x0 DUP5 DUP5 DUP5 PUSH3 0x1B09 JUMP JUMPDEST PUSH3 0x1D0F JUMPI PUSH1 0x40 MLOAD PUSH32 0x8C379A000000000000000000000000000000000000000000000000000000000 DUP2 MSTORE PUSH1 0x4 ADD PUSH3 0x1D06 SWAP1 PUSH3 0x31FF JUMP JUMPDEST PUSH1 0x40 MLOAD DUP1 SWAP2 SUB SWAP1 REVERT JUMPDEST POP POP POP JUMP JUMPDEST PUSH1 0x60 PUSH1 0x40 MLOAD DUP1 PUSH1 0x20 ADD PUSH1 0x40 MSTORE DUP1 PUSH1 0x0 DUP2 MSTORE POP SWAP1 POP SWAP1 JUMP JUMPDEST PUSH1 0x60 PUSH3 0x1D38 DUP3 PUSH3 0xE2E JUMP JUMPDEST PUSH1 0x0 PUSH3 0x1D44 PUSH3 0x1D14 JUMP JUMPDEST SWAP1 POP PUSH1 0x0 DUP2 MLOAD GT PUSH3 0x1D66 JUMPI PUSH1 0x40 MLOAD DUP1 PUSH1 0x20 ADD PUSH1 0x40 MSTORE DUP1 PUSH1 0x0 DUP2 MSTORE POP PUSH3 0x1D95 JUMP JUMPDEST DUP1 PUSH3 0x1D72 DUP5 PUSH3 0x2059 JUMP JUMPDEST PUSH1 0x40 MLOAD PUSH1 0x20 ADD PUSH3 0x1D85 SWAP3 SWAP2 SWAP1 PUSH3 0x32FB JUMP JUMPDEST PUSH1 0x40 MLOAD PUSH1 0x20 DUP2 DUP4 SUB SUB DUP2 MSTORE SWAP1 PUSH1 0x40 MSTORE JUMPDEST SWAP2 POP POP SWAP2 SWAP1 POP JUMP JUMPDEST PUSH1 0x0 PUSH32 0x1FFC9A700000000000000000000000000000000000000000000000000000000 PUSH28 0xFFFFFFFFFFFFFFFFFFFFFFFFFFFFFFFFFFFFFFFFFFFFFFFFFFFFFFFF NOT AND DUP3 PUSH28 0xFFFFFFFFFFFFFFFFFFFFFFFFFFFFFFFFFFFFFFFFFFFFFFFFFFFFFFFF NOT AND EQ SWAP1 POP SWAP2 SWAP1 POP JUMP JUMPDEST PUSH1 0x0 DUP1 DUP3 PUSH20 0xFFFFFFFFFFFFFFFFFFFFFFFFFFFFFFFFFFFFFFFF AND EXTCODESIZE GT SWAP1 POP SWAP2 SWAP1 POP JUMP JUMPDEST PUSH1 0x0 PUSH20 0xFFFFFFFFFFFFFFFFFFFFFFFFFFFFFFFFFFFFFFFF AND DUP3 PUSH20 0xFFFFFFFFFFFFFFFFFFFFFFFFFFFFFFFFFFFFFFFF AND EQ ISZERO PUSH3 0x1E9D JUMPI PUSH1 0x40 MLOAD PUSH32 0x8C379A000000000000000000000000000000000000000000000000000000000 DUP2 MSTORE PUSH1 0x4 ADD PUSH3 0x1E94 SWAP1 PUSH3 0x3551 JUMP JUMPDEST PUSH1 0x40 MLOAD DUP1 SWAP2 SUB SWAP1 REVERT JUMPDEST PUSH3 0x1EA8 DUP2 PUSH3 0x1A1D JUMP JUMPDEST ISZERO PUSH3 0x1EEB JUMPI PUSH1 0x40 MLOAD PUSH32 0x8C379A000000000000000000000000000000000000000000000000000000000 DUP2 MSTORE PUSH1 0x4 ADD PUSH3 0x1EE2 SWAP1 PUSH3 0x35C3 JUMP JUMPDEST PUSH1 0x40 MLOAD DUP1 SWAP2 SUB SWAP1 REVERT JUMPDEST PUSH3 0x1EFB PUSH1 0x0 DUP4 DUP4 PUSH1 0x1 PUSH3 0x1A60 JUMP JUMPDEST PUSH3 0x1F06 DUP2 PUSH3 0x1A1D JUMP JUMPDEST ISZERO PUSH3 0x1F49 JUMPI PUSH1 0x40 MLOAD PUSH32 0x8C379A000000000000000000000000000000000000000000000000000000000 DUP2 MSTORE PUSH1 0x4 ADD PUSH3 0x1F40 SWAP1 PUSH3 0x35C3 JUMP JUMPDEST PUSH1 0x40 MLOAD DUP1 SWAP2 SUB SWAP1 REVERT JUMPDEST PUSH1 0x1 PUSH1 0x3 PUSH1 0x0 DUP5 PUSH20 0xFFFFFFFFFFFFFFFFFFFFFFFFFFFFFFFFFFFFFFFF AND PUSH20 0xFFFFFFFFFFFFFFFFFFFFFFFFFFFFFFFFFFFFFFFF AND DUP2 MSTORE PUSH1 0x20 ADD SWAP1 DUP2 MSTORE PUSH1 0x20 ADD PUSH1 0x0 KECCAK256 PUSH1 0x0 DUP3 DUP3 SLOAD ADD SWAP3 POP POP DUP2 SWAP1 SSTORE POP DUP2 PUSH1 0x2 PUSH1 0x0 DUP4 DUP2 MSTORE PUSH1 0x20 ADD SWAP1 DUP2 MSTORE PUSH1 0x20 ADD PUSH1 0x0 KECCAK256 PUSH1 0x0 PUSH2 0x100 EXP DUP2 SLOAD DUP2 PUSH20 0xFFFFFFFFFFFFFFFFFFFFFFFFFFFFFFFFFFFFFFFF MUL NOT AND SWAP1 DUP4 PUSH20 0xFFFFFFFFFFFFFFFFFFFFFFFFFFFFFFFFFFFFFFFF AND MUL OR SWAP1 SSTORE POP DUP1 DUP3 PUSH20 0xFFFFFFFFFFFFFFFFFFFFFFFFFFFFFFFFFFFFFFFF AND PUSH1 0x0 PUSH20 0xFFFFFFFFFFFFFFFFFFFFFFFFFFFFFFFFFFFFFFFF AND PUSH32 0xDDF252AD1BE2C89B69C2B068FC378DAA952BA7F163C4A11628F55A4DF523B3EF PUSH1 0x40 MLOAD PUSH1 0x40 MLOAD DUP1 SWAP2 SUB SWAP1 LOG4 PUSH3 0x2055 PUSH1 0x0 DUP4 DUP4 PUSH1 0x1 PUSH3 0x1A66 JUMP JUMPDEST POP POP JUMP JUMPDEST PUSH1 0x60 PUSH1 0x0 PUSH1 0x1 PUSH3 0x206A DUP5 PUSH3 0x213E JUMP JUMPDEST ADD SWAP1 POP PUSH1 0x0 DUP2 PUSH8 0xFFFFFFFFFFFFFFFF DUP2 GT ISZERO PUSH3 0x208C JUMPI PUSH3 0x208B PUSH3 0x281B JUMP JUMPDEST JUMPDEST PUSH1 0x40 MLOAD SWAP1 DUP1 DUP3 MSTORE DUP1 PUSH1 0x1F ADD PUSH1 0x1F NOT AND PUSH1 0x20 ADD DUP3 ADD PUSH1 0x40 MSTORE DUP1 ISZERO PUSH3 0x20BF JUMPI DUP2 PUSH1 0x20 ADD PUSH1 0x1 DUP3 MUL DUP1 CALLDATASIZE DUP4 CALLDATACOPY DUP1 DUP3 ADD SWAP2 POP POP SWAP1 POP JUMPDEST POP SWAP1 POP PUSH1 0x0 DUP3 PUSH1 0x20 ADD DUP3 ADD SWAP1 POP JUMPDEST PUSH1 0x1 ISZERO PUSH3 0x2133 JUMPI DUP1 DUP1 PUSH1 0x1 SWAP1 SUB SWAP2 POP POP PUSH32 0x3031323334353637383961626364656600000000000000000000000000000000 PUSH1 0xA DUP7 MOD BYTE DUP2 MSTORE8 PUSH1 0xA DUP6 DUP2 PUSH3 0x211A JUMPI PUSH3 0x2119 PUSH3 0x35E5 JUMP JUMPDEST JUMPDEST DIV SWAP5 POP PUSH1 0x0 DUP6 EQ ISZERO PUSH3 0x212D JUMPI PUSH3 0x2133 JUMP JUMPDEST PUSH3 0x20CD JUMP JUMPDEST DUP2 SWAP4 POP POP POP POP SWAP2 SWAP1 POP JUMP JUMPDEST PUSH1 0x0 DUP1 PUSH1 0x0 SWAP1 POP PUSH27 0x184F03E93FF9F4DAA797ED6E38ED64BF6A1F010000000000000000 DUP4 LT PUSH3 0x21A0 JUMPI PUSH27 0x184F03E93FF9F4DAA797ED6E38ED64BF6A1F010000000000000000 DUP4 DUP2 PUSH3 0x2196 JUMPI PUSH3 0x2195 PUSH3 0x35E5 JUMP JUMPDEST JUMPDEST DIV SWAP3 POP PUSH1 0x40 DUP2 ADD SWAP1 POP JUMPDEST PUSH14 0x4EE2D6D415B85ACEF8100000000 DUP4 LT PUSH3 0x21E1 JUMPI PUSH14 0x4EE2D6D415B85ACEF8100000000 DUP4 DUP2 PUSH3 0x21D7 JUMPI PUSH3 0x21D6 PUSH3 0x35E5 JUMP JUMPDEST JUMPDEST DIV SWAP3 POP PUSH1 0x20 DUP2 ADD SWAP1 POP JUMPDEST PUSH7 0x2386F26FC10000 DUP4 LT PUSH3 0x2214 JUMPI PUSH7 0x2386F26FC10000 DUP4 DUP2 PUSH3 0x220A JUMPI PUSH3 0x2209 PUSH3 0x35E5 JUMP JUMPDEST JUMPDEST DIV SWAP3 POP PUSH1 0x10 DUP2 ADD SWAP1 POP JUMPDEST PUSH4 0x5F5E100 DUP4 LT PUSH3 0x2241 JUMPI PUSH4 0x5F5E100 DUP4 DUP2 PUSH3 0x2237 JUMPI PUSH3 0x2236 PUSH3 0x35E5 JUMP JUMPDEST JUMPDEST DIV SWAP3 POP PUSH1 0x8 DUP2 ADD SWAP1 POP JUMPDEST PUSH2 0x2710 DUP4 LT PUSH3 0x226A JUMPI PUSH2 0x2710 DUP4 DUP2 PUSH3 0x2260 JUMPI PUSH3 0x225F PUSH3 0x35E5 JUMP JUMPDEST JUMPDEST DIV SWAP3 POP PUSH1 0x4 DUP2 ADD SWAP1 POP JUMPDEST PUSH1 0x64 DUP4 LT PUSH3 0x2291 JUMPI PUSH1 0x64 DUP4 DUP2 PUSH3 0x2287 JUMPI PUSH3 0x2286 PUSH3 0x35E5 JUMP JUMPDEST JUMPDEST DIV SWAP3 POP PUSH1 0x2 DUP2 ADD SWAP1 POP JUMPDEST PUSH1 0xA DUP4 LT PUSH3 0x22A1 JUMPI PUSH1 0x1 DUP2 ADD SWAP1 POP JUMPDEST DUP1 SWAP2 POP POP SWAP2 SWAP1 POP JUMP JUMPDEST PUSH2 0x227E DUP1 PUSH3 0x3615 DUP4 CODECOPY ADD SWAP1 JUMP JUMPDEST DUP3 DUP1 SLOAD PUSH3 0x22C6 SWAP1 PUSH3 0x2B98 JUMP JUMPDEST SWAP1 PUSH1 0x0 MSTORE PUSH1 0x20 PUSH1 0x0 KECCAK256 SWAP1 PUSH1 0x1F ADD PUSH1 0x20 SWAP1 DIV DUP2 ADD SWAP3 DUP3 PUSH3 0x22EA JUMPI PUSH1 0x0 DUP6 SSTORE PUSH3 0x2336 JUMP JUMPDEST DUP3 PUSH1 0x1F LT PUSH3 0x2305 JUMPI DUP1 MLOAD PUSH1 0xFF NOT AND DUP4 DUP1 ADD OR DUP6 SSTORE PUSH3 0x2336 JUMP JUMPDEST DUP3 DUP1 ADD PUSH1 0x1 ADD DUP6 SSTORE DUP3 ISZERO PUSH3 0x2336 JUMPI SWAP2 DUP3 ADD JUMPDEST DUP3 DUP2 GT ISZERO PUSH3 0x2335 JUMPI DUP3 MLOAD DUP3 SSTORE SWAP2 PUSH1 0x20 ADD SWAP2 SWAP1 PUSH1 0x1 ADD SWAP1 PUSH3 0x2318 JUMP JUMPDEST JUMPDEST POP SWAP1 POP PUSH3 0x2345 SWAP2 SWAP1 PUSH3 0x2349 JUMP JUMPDEST POP SWAP1 JUMP JUMPDEST JUMPDEST DUP1 DUP3 GT ISZERO PUSH3 0x2364 JUMPI PUSH1 0x0 DUP2 PUSH1 0x0 SWAP1 SSTORE POP PUSH1 0x1 ADD PUSH3 0x234A JUMP JUMPDEST POP SWAP1 JUMP JUMPDEST PUSH1 0x0 PUSH1 0x40 MLOAD SWAP1 POP SWAP1 JUMP JUMPDEST PUSH1 0x0 DUP1 REVERT JUMPDEST PUSH1 0x0 DUP1 REVERT JUMPDEST PUSH1 0x0 PUSH32 0xFFFFFFFF00000000000000000000000000000000000000000000000000000000 DUP3 AND SWAP1 POP SWAP2 SWAP1 POP JUMP JUMPDEST PUSH3 0x23B3 DUP2 PUSH3 0x237C JUMP JUMPDEST DUP2 EQ PUSH3 0x23BF JUMPI PUSH1 0x0 DUP1 REVERT JUMPDEST POP JUMP JUMPDEST PUSH1 0x0 DUP2 CALLDATALOAD SWAP1 POP PUSH3 0x23D3 DUP2 PUSH3 0x23A8 JUMP JUMPDEST SWAP3 SWAP2 POP POP JUMP JUMPDEST PUSH1 0x0 PUSH1 0x20 DUP3 DUP5 SUB SLT ISZERO PUSH3 0x23F2 JUMPI PUSH3 0x23F1 PUSH3 0x2372 JUMP JUMPDEST JUMPDEST PUSH1 0x0 PUSH3 0x2402 DUP5 DUP3 DUP6 ADD PUSH3 0x23C2 JUMP JUMPDEST SWAP2 POP POP SWAP3 SWAP2 POP POP JUMP JUMPDEST PUSH1 0x0 DUP2 ISZERO ISZERO SWAP1 POP SWAP2 SWAP1 POP JUMP JUMPDEST PUSH3 0x2422 DUP2 PUSH3 0x240B JUMP JUMPDEST DUP3 MSTORE POP POP JUMP JUMPDEST PUSH1 0x0 PUSH1 0x20 DUP3 ADD SWAP1 POP PUSH3 0x243F PUSH1 0x0 DUP4 ADD DUP5 PUSH3 0x2417 JUMP JUMPDEST SWAP3 SWAP2 POP POP JUMP JUMPDEST PUSH1 0x0 DUP2 MLOAD SWAP1 POP SWAP2 SWAP1 POP JUMP JUMPDEST PUSH1 0x0 DUP3 DUP3 MSTORE PUSH1 0x20 DUP3 ADD SWAP1 POP SWAP3 SWAP2 POP POP JUMP JUMPDEST PUSH1 0x0 JUMPDEST DUP4 DUP2 LT ISZERO PUSH3 0x2481 JUMPI DUP1 DUP3 ADD MLOAD DUP2 DUP5 ADD MSTORE PUSH1 0x20 DUP2 ADD SWAP1 POP PUSH3 0x2464 JUMP JUMPDEST DUP4 DUP2 GT ISZERO PUSH3 0x2491 JUMPI PUSH1 0x0 DUP5 DUP5 ADD MSTORE JUMPDEST POP POP POP POP JUMP JUMPDEST PUSH1 0x0 PUSH1 0x1F NOT PUSH1 0x1F DUP4 ADD AND SWAP1 POP SWAP2 SWAP1 POP JUMP JUMPDEST PUSH1 0x0 PUSH3 0x24B5 DUP3 PUSH3 0x2445 JUMP JUMPDEST PUSH3 0x24C1 DUP2 DUP6 PUSH3 0x2450 JUMP JUMPDEST SWAP4 POP PUSH3 0x24D3 DUP2 DUP6 PUSH1 0x20 DUP7 ADD PUSH3 0x2461 JUMP JUMPDEST PUSH3 0x24DE DUP2 PUSH3 0x2497 JUMP JUMPDEST DUP5 ADD SWAP2 POP POP SWAP3 SWAP2 POP POP JUMP JUMPDEST PUSH1 0x0 PUSH1 0x20 DUP3 ADD SWAP1 POP DUP2 DUP2 SUB PUSH1 0x0 DUP4 ADD MSTORE PUSH3 0x2505 DUP2 DUP5 PUSH3 0x24A8 JUMP JUMPDEST SWAP1 POP SWAP3 SWAP2 POP POP JUMP JUMPDEST PUSH1 0x0 DUP2 SWAP1 POP SWAP2 SWAP1 POP JUMP JUMPDEST PUSH3 0x2522 DUP2 PUSH3 0x250D JUMP JUMPDEST DUP2 EQ PUSH3 0x252E JUMPI PUSH1 0x0 DUP1 REVERT JUMPDEST POP JUMP JUMPDEST PUSH1 0x0 DUP2 CALLDATALOAD SWAP1 POP PUSH3 0x2542 DUP2 PUSH3 0x2517 JUMP JUMPDEST SWAP3 SWAP2 POP POP JUMP JUMPDEST PUSH1 0x0 PUSH1 0x20 DUP3 DUP5 SUB SLT ISZERO PUSH3 0x2561 JUMPI PUSH3 0x2560 PUSH3 0x2372 JUMP JUMPDEST JUMPDEST PUSH1 0x0 PUSH3 0x2571 DUP5 DUP3 DUP6 ADD PUSH3 0x2531 JUMP JUMPDEST SWAP2 POP POP SWAP3 SWAP2 POP POP JUMP JUMPDEST PUSH1 0x0 PUSH20 0xFFFFFFFFFFFFFFFFFFFFFFFFFFFFFFFFFFFFFFFF DUP3 AND SWAP1 POP SWAP2 SWAP1 POP JUMP JUMPDEST PUSH1 0x0 PUSH3 0x25A7 DUP3 PUSH3 0x257A JUMP JUMPDEST SWAP1 POP SWAP2 SWAP1 POP JUMP JUMPDEST PUSH3 0x25B9 DUP2 PUSH3 0x259A JUMP JUMPDEST DUP3 MSTORE POP POP JUMP JUMPDEST PUSH1 0x0 PUSH1 0x20 DUP3 ADD SWAP1 POP PUSH3 0x25D6 PUSH1 0x0 DUP4 ADD DUP5 PUSH3 0x25AE JUMP JUMPDEST SWAP3 SWAP2 POP POP JUMP JUMPDEST PUSH3 0x25E7 DUP2 PUSH3 0x259A JUMP JUMPDEST DUP2 EQ PUSH3 0x25F3 JUMPI PUSH1 0x0 DUP1 REVERT JUMPDEST POP JUMP JUMPDEST PUSH1 0x0 DUP2 CALLDATALOAD SWAP1 POP PUSH3 0x2607 DUP2 PUSH3 0x25DC JUMP JUMPDEST SWAP3 SWAP2 POP POP JUMP JUMPDEST PUSH1 0x0 DUP1 PUSH1 0x40 DUP4 DUP6 SUB SLT ISZERO PUSH3 0x2627 JUMPI PUSH3 0x2626 PUSH3 0x2372 JUMP JUMPDEST JUMPDEST PUSH1 0x0 PUSH3 0x2637 DUP6 DUP3 DUP7 ADD PUSH3 0x25F6 JUMP JUMPDEST SWAP3 POP POP PUSH1 0x20 PUSH3 0x264A DUP6 DUP3 DUP7 ADD PUSH3 0x2531 JUMP JUMPDEST SWAP2 POP POP SWAP3 POP SWAP3 SWAP1 POP JUMP JUMPDEST PUSH3 0x265F DUP2 PUSH3 0x250D JUMP JUMPDEST DUP3 MSTORE POP POP JUMP JUMPDEST PUSH1 0x0 PUSH1 0x40 DUP3 ADD SWAP1 POP PUSH3 0x267C PUSH1 0x0 DUP4 ADD DUP6 PUSH3 0x2654 JUMP JUMPDEST PUSH3 0x268B PUSH1 0x20 DUP4 ADD DUP5 PUSH3 0x25AE JUMP JUMPDEST SWAP4 SWAP3 POP POP POP JUMP JUMPDEST PUSH1 0x0 DUP1 PUSH1 0x0 PUSH1 0x60 DUP5 DUP7 SUB SLT ISZERO PUSH3 0x26AE JUMPI PUSH3 0x26AD PUSH3 0x2372 JUMP JUMPDEST JUMPDEST PUSH1 0x0 PUSH3 0x26BE DUP7 DUP3 DUP8 ADD PUSH3 0x25F6 JUMP JUMPDEST SWAP4 POP POP PUSH1 0x20 PUSH3 0x26D1 DUP7 DUP3 DUP8 ADD PUSH3 0x25F6 JUMP JUMPDEST SWAP3 POP POP PUSH1 0x40 PUSH3 0x26E4 DUP7 DUP3 DUP8 ADD PUSH3 0x2531 JUMP JUMPDEST SWAP2 POP POP SWAP3 POP SWAP3 POP SWAP3 JUMP JUMPDEST PUSH1 0x0 PUSH1 0x20 DUP3 DUP5 SUB SLT ISZERO PUSH3 0x2707 JUMPI PUSH3 0x2706 PUSH3 0x2372 JUMP JUMPDEST JUMPDEST PUSH1 0x0 PUSH3 0x2717 DUP5 DUP3 DUP6 ADD PUSH3 0x25F6 JUMP JUMPDEST SWAP2 POP POP SWAP3 SWAP2 POP POP JUMP JUMPDEST PUSH1 0x0 PUSH1 0x20 DUP3 ADD SWAP1 POP PUSH3 0x2737 PUSH1 0x0 DUP4 ADD DUP5 PUSH3 0x2654 JUMP JUMPDEST SWAP3 SWAP2 POP POP JUMP JUMPDEST PUSH3 0x2748 DUP2 PUSH3 0x240B JUMP JUMPDEST DUP2 EQ PUSH3 0x2754 JUMPI PUSH1 0x0 DUP1 REVERT JUMPDEST POP JUMP JUMPDEST PUSH1 0x0 DUP2 CALLDATALOAD SWAP1 POP PUSH3 0x2768 DUP2 PUSH3 0x273D JUMP JUMPDEST SWAP3 SWAP2 POP POP JUMP JUMPDEST PUSH1 0x0 DUP1 PUSH1 0x40 DUP4 DUP6 SUB SLT ISZERO PUSH3 0x2788 JUMPI PUSH3 0x2787 PUSH3 0x2372 JUMP JUMPDEST JUMPDEST PUSH1 0x0 PUSH3 0x2798 DUP6 DUP3 DUP7 ADD PUSH3 0x25F6 JUMP JUMPDEST SWAP3 POP POP PUSH1 0x20 PUSH3 0x27AB DUP6 DUP3 DUP7 ADD PUSH3 0x2757 JUMP JUMPDEST SWAP2 POP POP SWAP3 POP SWAP3 SWAP1 POP JUMP JUMPDEST PUSH1 0x0 DUP1 PUSH1 0x0 PUSH1 0x60 DUP5 DUP7 SUB SLT ISZERO PUSH3 0x27D1 JUMPI PUSH3 0x27D0 PUSH3 0x2372 JUMP JUMPDEST JUMPDEST PUSH1 0x0 PUSH3 0x27E1 DUP7 DUP3 DUP8 ADD PUSH3 0x25F6 JUMP JUMPDEST SWAP4 POP POP PUSH1 0x20 PUSH3 0x27F4 DUP7 DUP3 DUP8 ADD PUSH3 0x2531 JUMP JUMPDEST SWAP3 POP POP PUSH1 0x40 PUSH3 0x2807 DUP7 DUP3 DUP8 ADD PUSH3 0x2531 JUMP JUMPDEST SWAP2 POP POP SWAP3 POP SWAP3 POP SWAP3 JUMP JUMPDEST PUSH1 0x0 DUP1 REVERT JUMPDEST PUSH1 0x0 DUP1 REVERT JUMPDEST PUSH32 0x4E487B7100000000000000000000000000000000000000000000000000000000 PUSH1 0x0 MSTORE PUSH1 0x41 PUSH1 0x4 MSTORE PUSH1 0x24 PUSH1 0x0 REVERT JUMPDEST PUSH3 0x2855 DUP3 PUSH3 0x2497 JUMP JUMPDEST DUP2 ADD DUP2 DUP2 LT PUSH8 0xFFFFFFFFFFFFFFFF DUP3 GT OR ISZERO PUSH3 0x2877 JUMPI PUSH3 0x2876 PUSH3 0x281B JUMP JUMPDEST JUMPDEST DUP1 PUSH1 0x40 MSTORE POP POP POP JUMP JUMPDEST PUSH1 0x0 PUSH3 0x288C PUSH3 0x2368 JUMP JUMPDEST SWAP1 POP PUSH3 0x289A DUP3 DUP3 PUSH3 0x284A JUMP JUMPDEST SWAP2 SWAP1 POP JUMP JUMPDEST PUSH1 0x0 PUSH8 0xFFFFFFFFFFFFFFFF DUP3 GT ISZERO PUSH3 0x28BD JUMPI PUSH3 0x28BC PUSH3 0x281B JUMP JUMPDEST JUMPDEST PUSH3 0x28C8 DUP3 PUSH3 0x2497 JUMP JUMPDEST SWAP1 POP PUSH1 0x20 DUP2 ADD SWAP1 POP SWAP2 SWAP1 POP JUMP JUMPDEST DUP3 DUP2 DUP4 CALLDATACOPY PUSH1 0x0 DUP4 DUP4 ADD MSTORE POP POP POP JUMP JUMPDEST PUSH1 0x0 PUSH3 0x28FB PUSH3 0x28F5 DUP5 PUSH3 0x289F JUMP JUMPDEST PUSH3 0x2880 JUMP JUMPDEST SWAP1 POP DUP3 DUP2 MSTORE PUSH1 0x20 DUP2 ADD DUP5 DUP5 DUP5 ADD GT ISZERO PUSH3 0x291A JUMPI PUSH3 0x2919 PUSH3 0x2816 JUMP JUMPDEST JUMPDEST PUSH3 0x2927 DUP5 DUP3 DUP6 PUSH3 0x28D5 JUMP JUMPDEST POP SWAP4 SWAP3 POP POP POP JUMP JUMPDEST PUSH1 0x0 DUP3 PUSH1 0x1F DUP4 ADD SLT PUSH3 0x2947 JUMPI PUSH3 0x2946 PUSH3 0x2811 JUMP JUMPDEST JUMPDEST DUP2 CALLDATALOAD PUSH3 0x2959 DUP5 DUP3 PUSH1 0x20 DUP7 ADD PUSH3 0x28E4 JUMP JUMPDEST SWAP2 POP POP SWAP3 SWAP2 POP POP JUMP JUMPDEST PUSH1 0x0 DUP1 PUSH1 0x0 DUP1 PUSH1 0x80 DUP6 DUP8 SUB SLT ISZERO PUSH3 0x297F JUMPI PUSH3 0x297E PUSH3 0x2372 JUMP JUMPDEST JUMPDEST PUSH1 0x0 PUSH3 0x298F DUP8 DUP3 DUP9 ADD PUSH3 0x25F6 JUMP JUMPDEST SWAP5 POP POP PUSH1 0x20 PUSH3 0x29A2 DUP8 DUP3 DUP9 ADD PUSH3 0x25F6 JUMP JUMPDEST SWAP4 POP POP PUSH1 0x40 PUSH3 0x29B5 DUP8 DUP3 DUP9 ADD PUSH3 0x2531 JUMP JUMPDEST SWAP3 POP POP PUSH1 0x60 DUP6 ADD CALLDATALOAD PUSH8 0xFFFFFFFFFFFFFFFF DUP2 GT ISZERO PUSH3 0x29D9 JUMPI PUSH3 0x29D8 PUSH3 0x2377 JUMP JUMPDEST JUMPDEST PUSH3 0x29E7 DUP8 DUP3 DUP9 ADD PUSH3 0x292F JUMP JUMPDEST SWAP2 POP POP SWAP3 SWAP6 SWAP2 SWAP5 POP SWAP3 POP JUMP JUMPDEST PUSH1 0x0 PUSH8 0xFFFFFFFFFFFFFFFF DUP3 GT ISZERO PUSH3 0x2A11 JUMPI PUSH3 0x2A10 PUSH3 0x281B JUMP JUMPDEST JUMPDEST PUSH3 0x2A1C DUP3 PUSH3 0x2497 JUMP JUMPDEST SWAP1 POP PUSH1 0x20 DUP2 ADD SWAP1 POP SWAP2 SWAP1 POP JUMP JUMPDEST PUSH1 0x0 PUSH3 0x2A40 PUSH3 0x2A3A DUP5 PUSH3 0x29F3 JUMP JUMPDEST PUSH3 0x2880 JUMP JUMPDEST SWAP1 POP DUP3 DUP2 MSTORE PUSH1 0x20 DUP2 ADD DUP5 DUP5 DUP5 ADD GT ISZERO PUSH3 0x2A5F JUMPI PUSH3 0x2A5E PUSH3 0x2816 JUMP JUMPDEST JUMPDEST PUSH3 0x2A6C DUP5 DUP3 DUP6 PUSH3 0x28D5 JUMP JUMPDEST POP SWAP4 SWAP3 POP POP POP JUMP JUMPDEST PUSH1 0x0 DUP3 PUSH1 0x1F DUP4 ADD SLT PUSH3 0x2A8C JUMPI PUSH3 0x2A8B PUSH3 0x2811 JUMP JUMPDEST JUMPDEST DUP2 CALLDATALOAD PUSH3 0x2A9E DUP5 DUP3 PUSH1 0x20 DUP7 ADD PUSH3 0x2A29 JUMP JUMPDEST SWAP2 POP POP SWAP3 SWAP2 POP POP JUMP JUMPDEST PUSH1 0x0 DUP1 PUSH1 0x0 PUSH1 0x60 DUP5 DUP7 SUB SLT ISZERO PUSH3 0x2AC3 JUMPI PUSH3 0x2AC2 PUSH3 0x2372 JUMP JUMPDEST JUMPDEST PUSH1 0x0 PUSH3 0x2AD3 DUP7 DUP3 DUP8 ADD PUSH3 0x25F6 JUMP JUMPDEST SWAP4 POP POP PUSH1 0x20 DUP5 ADD CALLDATALOAD PUSH8 0xFFFFFFFFFFFFFFFF DUP2 GT ISZERO PUSH3 0x2AF7 JUMPI PUSH3 0x2AF6 PUSH3 0x2377 JUMP JUMPDEST JUMPDEST PUSH3 0x2B05 DUP7 DUP3 DUP8 ADD PUSH3 0x2A74 JUMP JUMPDEST SWAP3 POP POP PUSH1 0x40 PUSH3 0x2B18 DUP7 DUP3 DUP8 ADD PUSH3 0x2531 JUMP JUMPDEST SWAP2 POP POP SWAP3 POP SWAP3 POP SWAP3 JUMP JUMPDEST PUSH1 0x0 DUP1 PUSH1 0x40 DUP4 DUP6 SUB SLT ISZERO PUSH3 0x2B3C JUMPI PUSH3 0x2B3B PUSH3 0x2372 JUMP JUMPDEST JUMPDEST PUSH1 0x0 PUSH3 0x2B4C DUP6 DUP3 DUP7 ADD PUSH3 0x25F6 JUMP JUMPDEST SWAP3 POP POP PUSH1 0x20 PUSH3 0x2B5F DUP6 DUP3 DUP7 ADD PUSH3 0x25F6 JUMP JUMPDEST SWAP2 POP POP SWAP3 POP SWAP3 SWAP1 POP JUMP JUMPDEST PUSH32 0x4E487B7100000000000000000000000000000000000000000000000000000000 PUSH1 0x0 MSTORE PUSH1 0x22 PUSH1 0x4 MSTORE PUSH1 0x24 PUSH1 0x0 REVERT JUMPDEST PUSH1 0x0 PUSH1 0x2 DUP3 DIV SWAP1 POP PUSH1 0x1 DUP3 AND DUP1 PUSH3 0x2BB1 JUMPI PUSH1 0x7F DUP3 AND SWAP2 POP JUMPDEST PUSH1 0x20 DUP3 LT DUP2 EQ ISZERO PUSH3 0x2BC8 JUMPI PUSH3 0x2BC7 PUSH3 0x2B69 JUMP JUMPDEST JUMPDEST POP SWAP2 SWAP1 POP JUMP JUMPDEST PUSH32 0x4552433732313A20617070726F76616C20746F2063757272656E74206F776E65 PUSH1 0x0 DUP3 ADD MSTORE PUSH32 0x7200000000000000000000000000000000000000000000000000000000000000 PUSH1 0x20 DUP3 ADD MSTORE POP JUMP JUMPDEST PUSH1 0x0 PUSH3 0x2C2C PUSH1 0x21 DUP4 PUSH3 0x2450 JUMP JUMPDEST SWAP2 POP PUSH3 0x2C39 DUP3 PUSH3 0x2BCE JUMP JUMPDEST PUSH1 0x40 DUP3 ADD SWAP1 POP SWAP2 SWAP1 POP JUMP JUMPDEST PUSH1 0x0 PUSH1 0x20 DUP3 ADD SWAP1 POP DUP2 DUP2 SUB PUSH1 0x0 DUP4 ADD MSTORE PUSH3 0x2C5F DUP2 PUSH3 0x2C1D JUMP JUMPDEST SWAP1 POP SWAP2 SWAP1 POP JUMP JUMPDEST PUSH32 0x4552433732313A20617070726F76652063616C6C6572206973206E6F7420746F PUSH1 0x0 DUP3 ADD MSTORE PUSH32 0x6B656E206F776E6572206F7220617070726F76656420666F7220616C6C000000 PUSH1 0x20 DUP3 ADD MSTORE POP JUMP JUMPDEST PUSH1 0x0 PUSH3 0x2CC4 PUSH1 0x3D DUP4 PUSH3 0x2450 JUMP JUMPDEST SWAP2 POP PUSH3 0x2CD1 DUP3 PUSH3 0x2C66 JUMP JUMPDEST PUSH1 0x40 DUP3 ADD SWAP1 POP SWAP2 SWAP1 POP JUMP JUMPDEST PUSH1 0x0 PUSH1 0x20 DUP3 ADD SWAP1 POP DUP2 DUP2 SUB PUSH1 0x0 DUP4 ADD MSTORE PUSH3 0x2CF7 DUP2 PUSH3 0x2CB5 JUMP JUMPDEST SWAP1 POP SWAP2 SWAP1 POP JUMP JUMPDEST PUSH32 0x4552433732313A2063616C6C6572206973206E6F7420746F6B656E206F776E65 PUSH1 0x0 DUP3 ADD MSTORE PUSH32 0x72206F7220617070726F76656400000000000000000000000000000000000000 PUSH1 0x20 DUP3 ADD MSTORE POP JUMP JUMPDEST PUSH1 0x0 PUSH3 0x2D5C PUSH1 0x2D DUP4 PUSH3 0x2450 JUMP JUMPDEST SWAP2 POP PUSH3 0x2D69 DUP3 PUSH3 0x2CFE JUMP JUMPDEST PUSH1 0x40 DUP3 ADD SWAP1 POP SWAP2 SWAP1 POP JUMP JUMPDEST PUSH1 0x0 PUSH1 0x20 DUP3 ADD SWAP1 POP DUP2 DUP2 SUB PUSH1 0x0 DUP4 ADD MSTORE PUSH3 0x2D8F DUP2 PUSH3 0x2D4D JUMP JUMPDEST SWAP1 POP SWAP2 SWAP1 POP JUMP JUMPDEST PUSH32 0x4552433732313A20696E76616C696420746F6B656E2049440000000000000000 PUSH1 0x0 DUP3 ADD MSTORE POP JUMP JUMPDEST PUSH1 0x0 PUSH3 0x2DCE PUSH1 0x18 DUP4 PUSH3 0x2450 JUMP JUMPDEST SWAP2 POP PUSH3 0x2DDB DUP3 PUSH3 0x2D96 JUMP JUMPDEST PUSH1 0x20 DUP3 ADD SWAP1 POP SWAP2 SWAP1 POP JUMP JUMPDEST PUSH1 0x0 PUSH1 0x20 DUP3 ADD SWAP1 POP DUP2 DUP2 SUB PUSH1 0x0 DUP4 ADD MSTORE PUSH3 0x2E01 DUP2 PUSH3 0x2DBF JUMP JUMPDEST SWAP1 POP SWAP2 SWAP1 POP JUMP JUMPDEST PUSH32 0x4552433732313A2061646472657373207A65726F206973206E6F742061207661 PUSH1 0x0 DUP3 ADD MSTORE PUSH32 0x6C6964206F776E65720000000000000000000000000000000000000000000000 PUSH1 0x20 DUP3 ADD MSTORE POP JUMP JUMPDEST PUSH1 0x0 PUSH3 0x2E66 PUSH1 0x29 DUP4 PUSH3 0x2450 JUMP JUMPDEST SWAP2 POP PUSH3 0x2E73 DUP3 PUSH3 0x2E08 JUMP JUMPDEST PUSH1 0x40 DUP3 ADD SWAP1 POP SWAP2 SWAP1 POP JUMP JUMPDEST PUSH1 0x0 PUSH1 0x20 DUP3 ADD SWAP1 POP DUP2 DUP2 SUB PUSH1 0x0 DUP4 ADD MSTORE PUSH3 0x2E99 DUP2 PUSH3 0x2E57 JUMP JUMPDEST SWAP1 POP SWAP2 SWAP1 POP JUMP JUMPDEST PUSH1 0x0 PUSH1 0x60 DUP3 ADD SWAP1 POP PUSH3 0x2EB7 PUSH1 0x0 DUP4 ADD DUP7 PUSH3 0x25AE JUMP JUMPDEST PUSH3 0x2EC6 PUSH1 0x20 DUP4 ADD DUP6 PUSH3 0x25AE JUMP JUMPDEST PUSH3 0x2ED5 PUSH1 0x40 DUP4 ADD DUP5 PUSH3 0x2654 JUMP JUMPDEST SWAP5 SWAP4 POP POP POP POP JUMP JUMPDEST PUSH32 0x4F776E61626C653A206E6577206F776E657220697320746865207A65726F2061 PUSH1 0x0 DUP3 ADD MSTORE PUSH32 0x6464726573730000000000000000000000000000000000000000000000000000 PUSH1 0x20 DUP3 ADD MSTORE POP JUMP JUMPDEST PUSH1 0x0 PUSH3 0x2F3B PUSH1 0x26 DUP4 PUSH3 0x2450 JUMP JUMPDEST SWAP2 POP PUSH3 0x2F48 DUP3 PUSH3 0x2EDD JUMP JUMPDEST PUSH1 0x40 DUP3 ADD SWAP1 POP SWAP2 SWAP1 POP JUMP JUMPDEST PUSH1 0x0 PUSH1 0x20 DUP3 ADD SWAP1 POP DUP2 DUP2 SUB PUSH1 0x0 DUP4 ADD MSTORE PUSH3 0x2F6E DUP2 PUSH3 0x2F2C JUMP JUMPDEST SWAP1 POP SWAP2 SWAP1 POP JUMP JUMPDEST PUSH32 0x4552433732313A207472616E736665722066726F6D20696E636F727265637420 PUSH1 0x0 DUP3 ADD MSTORE PUSH32 0x6F776E6572000000000000000000000000000000000000000000000000000000 PUSH1 0x20 DUP3 ADD MSTORE POP JUMP JUMPDEST PUSH1 0x0 PUSH3 0x2FD3 PUSH1 0x25 DUP4 PUSH3 0x2450 JUMP JUMPDEST SWAP2 POP PUSH3 0x2FE0 DUP3 PUSH3 0x2F75 JUMP JUMPDEST PUSH1 0x40 DUP3 ADD SWAP1 POP SWAP2 SWAP1 POP JUMP JUMPDEST PUSH1 0x0 PUSH1 0x20 DUP3 ADD SWAP1 POP DUP2 DUP2 SUB PUSH1 0x0 DUP4 ADD MSTORE PUSH3 0x3006 DUP2 PUSH3 0x2FC4 JUMP JUMPDEST SWAP1 POP SWAP2 SWAP1 POP JUMP JUMPDEST PUSH32 0x4552433732313A207472616E7366657220746F20746865207A65726F20616464 PUSH1 0x0 DUP3 ADD MSTORE PUSH32 0x7265737300000000000000000000000000000000000000000000000000000000 PUSH1 0x20 DUP3 ADD MSTORE POP JUMP JUMPDEST PUSH1 0x0 PUSH3 0x306B PUSH1 0x24 DUP4 PUSH3 0x2450 JUMP JUMPDEST SWAP2 POP PUSH3 0x3078 DUP3 PUSH3 0x300D JUMP JUMPDEST PUSH1 0x40 DUP3 ADD SWAP1 POP SWAP2 SWAP1 POP JUMP JUMPDEST PUSH1 0x0 PUSH1 0x20 DUP3 ADD SWAP1 POP DUP2 DUP2 SUB PUSH1 0x0 DUP4 ADD MSTORE PUSH3 0x309E DUP2 PUSH3 0x305C JUMP JUMPDEST SWAP1 POP SWAP2 SWAP1 POP JUMP JUMPDEST PUSH32 0x4F776E61626C653A2063616C6C6572206973206E6F7420746865206F776E6572 PUSH1 0x0 DUP3 ADD MSTORE POP JUMP JUMPDEST PUSH1 0x0 PUSH3 0x30DD PUSH1 0x20 DUP4 PUSH3 0x2450 JUMP JUMPDEST SWAP2 POP PUSH3 0x30EA DUP3 PUSH3 0x30A5 JUMP JUMPDEST PUSH1 0x20 DUP3 ADD SWAP1 POP SWAP2 SWAP1 POP JUMP JUMPDEST PUSH1 0x0 PUSH1 0x20 DUP3 ADD SWAP1 POP DUP2 DUP2 SUB PUSH1 0x0 DUP4 ADD MSTORE PUSH3 0x3110 DUP2 PUSH3 0x30CE JUMP JUMPDEST SWAP1 POP SWAP2 SWAP1 POP JUMP JUMPDEST PUSH32 0x4552433732313A20617070726F766520746F2063616C6C657200000000000000 PUSH1 0x0 DUP3 ADD MSTORE POP JUMP JUMPDEST PUSH1 0x0 PUSH3 0x314F PUSH1 0x19 DUP4 PUSH3 0x2450 JUMP JUMPDEST SWAP2 POP PUSH3 0x315C DUP3 PUSH3 0x3117 JUMP JUMPDEST PUSH1 0x20 DUP3 ADD SWAP1 POP SWAP2 SWAP1 POP JUMP JUMPDEST PUSH1 0x0 PUSH1 0x20 DUP3 ADD SWAP1 POP DUP2 DUP2 SUB PUSH1 0x0 DUP4 ADD MSTORE PUSH3 0x3182 DUP2 PUSH3 0x3140 JUMP JUMPDEST SWAP1 POP SWAP2 SWAP1 POP JUMP JUMPDEST PUSH32 0x4552433732313A207472616E7366657220746F206E6F6E204552433732315265 PUSH1 0x0 DUP3 ADD MSTORE PUSH32 0x63656976657220696D706C656D656E7465720000000000000000000000000000 PUSH1 0x20 DUP3 ADD MSTORE POP JUMP JUMPDEST PUSH1 0x0 PUSH3 0x31E7 PUSH1 0x32 DUP4 PUSH3 0x2450 JUMP JUMPDEST SWAP2 POP PUSH3 0x31F4 DUP3 PUSH3 0x3189 JUMP JUMPDEST PUSH1 0x40 DUP3 ADD SWAP1 POP SWAP2 SWAP1 POP JUMP JUMPDEST PUSH1 0x0 PUSH1 0x20 DUP3 ADD SWAP1 POP DUP2 DUP2 SUB PUSH1 0x0 DUP4 ADD MSTORE PUSH3 0x321A DUP2 PUSH3 0x31D8 JUMP JUMPDEST SWAP1 POP SWAP2 SWAP1 POP JUMP JUMPDEST PUSH32 0x45524337323155524953746F726167653A2055524920736574206F66206E6F6E PUSH1 0x0 DUP3 ADD MSTORE PUSH32 0x6578697374656E7420746F6B656E000000000000000000000000000000000000 PUSH1 0x20 DUP3 ADD MSTORE POP JUMP JUMPDEST PUSH1 0x0 PUSH3 0x327F PUSH1 0x2E DUP4 PUSH3 0x2450 JUMP JUMPDEST SWAP2 POP PUSH3 0x328C DUP3 PUSH3 0x3221 JUMP JUMPDEST PUSH1 0x40 DUP3 ADD SWAP1 POP SWAP2 SWAP1 POP JUMP JUMPDEST PUSH1 0x0 PUSH1 0x20 DUP3 ADD SWAP1 POP DUP2 DUP2 SUB PUSH1 0x0 DUP4 ADD MSTORE PUSH3 0x32B2 DUP2 PUSH3 0x3270 JUMP JUMPDEST SWAP1 POP SWAP2 SWAP1 POP JUMP JUMPDEST PUSH1 0x0 DUP2 SWAP1 POP SWAP3 SWAP2 POP POP JUMP JUMPDEST PUSH1 0x0 PUSH3 0x32D1 DUP3 PUSH3 0x2445 JUMP JUMPDEST PUSH3 0x32DD DUP2 DUP6 PUSH3 0x32B9 JUMP JUMPDEST SWAP4 POP PUSH3 0x32EF DUP2 DUP6 PUSH1 0x20 DUP7 ADD PUSH3 0x2461 JUMP JUMPDEST DUP1 DUP5 ADD SWAP2 POP POP SWAP3 SWAP2 POP POP JUMP JUMPDEST PUSH1 0x0 PUSH3 0x3309 DUP3 DUP6 PUSH3 0x32C4 JUMP JUMPDEST SWAP2 POP PUSH3 0x3317 DUP3 DUP5 PUSH3 0x32C4 JUMP JUMPDEST SWAP2 POP DUP2 SWAP1 POP SWAP4 SWAP3 POP POP POP JUMP JUMPDEST PUSH32 0x5061757361626C653A206E6F7420706175736564000000000000000000000000 PUSH1 0x0 DUP3 ADD MSTORE POP JUMP JUMPDEST PUSH1 0x0 PUSH3 0x335B PUSH1 0x14 DUP4 PUSH3 0x2450 JUMP JUMPDEST SWAP2 POP PUSH3 0x3368 DUP3 PUSH3 0x3323 JUMP JUMPDEST PUSH1 0x20 DUP3 ADD SWAP1 POP SWAP2 SWAP1 POP JUMP JUMPDEST PUSH1 0x0 PUSH1 0x20 DUP3 ADD SWAP1 POP DUP2 DUP2 SUB PUSH1 0x0 DUP4 ADD MSTORE PUSH3 0x338E DUP2 PUSH3 0x334C JUMP JUMPDEST SWAP1 POP SWAP2 SWAP1 POP JUMP JUMPDEST PUSH32 0x5061757361626C653A2070617573656400000000000000000000000000000000 PUSH1 0x0 DUP3 ADD MSTORE POP JUMP JUMPDEST PUSH1 0x0 PUSH3 0x33CD PUSH1 0x10 DUP4 PUSH3 0x2450 JUMP JUMPDEST SWAP2 POP PUSH3 0x33DA DUP3 PUSH3 0x3395 JUMP JUMPDEST PUSH1 0x20 DUP3 ADD SWAP1 POP SWAP2 SWAP1 POP JUMP JUMPDEST PUSH1 0x0 PUSH1 0x20 DUP3 ADD SWAP1 POP DUP2 DUP2 SUB PUSH1 0x0 DUP4 ADD MSTORE PUSH3 0x3400 DUP2 PUSH3 0x33BE JUMP JUMPDEST SWAP1 POP SWAP2 SWAP1 POP JUMP JUMPDEST PUSH1 0x0 DUP2 MLOAD SWAP1 POP SWAP2 SWAP1 POP JUMP JUMPDEST PUSH1 0x0 DUP3 DUP3 MSTORE PUSH1 0x20 DUP3 ADD SWAP1 POP SWAP3 SWAP2 POP POP JUMP JUMPDEST PUSH1 0x0 PUSH3 0x3430 DUP3 PUSH3 0x3407 JUMP JUMPDEST PUSH3 0x343C DUP2 DUP6 PUSH3 0x3412 JUMP JUMPDEST SWAP4 POP PUSH3 0x344E DUP2 DUP6 PUSH1 0x20 DUP7 ADD PUSH3 0x2461 JUMP JUMPDEST PUSH3 0x3459 DUP2 PUSH3 0x2497 JUMP JUMPDEST DUP5 ADD SWAP2 POP POP SWAP3 SWAP2 POP POP JUMP JUMPDEST PUSH1 0x0 PUSH1 0x80 DUP3 ADD SWAP1 POP PUSH3 0x347B PUSH1 0x0 DUP4 ADD DUP8 PUSH3 0x25AE JUMP JUMPDEST PUSH3 0x348A PUSH1 0x20 DUP4 ADD DUP7 PUSH3 0x25AE JUMP JUMPDEST PUSH3 0x3499 PUSH1 0x40 DUP4 ADD DUP6 PUSH3 0x2654 JUMP JUMPDEST DUP2 DUP2 SUB PUSH1 0x60 DUP4 ADD MSTORE PUSH3 0x34AD DUP2 DUP5 PUSH3 0x3423 JUMP JUMPDEST SWAP1 POP SWAP6 SWAP5 POP POP POP POP POP JUMP JUMPDEST PUSH1 0x0 DUP2 MLOAD SWAP1 POP PUSH3 0x34C9 DUP2 PUSH3 0x23A8 JUMP JUMPDEST SWAP3 SWAP2 POP POP JUMP JUMPDEST PUSH1 0x0 PUSH1 0x20 DUP3 DUP5 SUB SLT ISZERO PUSH3 0x34E8 JUMPI PUSH3 0x34E7 PUSH3 0x2372 JUMP JUMPDEST JUMPDEST PUSH1 0x0 PUSH3 0x34F8 DUP5 DUP3 DUP6 ADD PUSH3 0x34B8 JUMP JUMPDEST SWAP2 POP POP SWAP3 SWAP2 POP POP JUMP JUMPDEST PUSH32 0x4552433732313A206D696E7420746F20746865207A65726F2061646472657373 PUSH1 0x0 DUP3 ADD MSTORE POP JUMP JUMPDEST PUSH1 0x0 PUSH3 0x3539 PUSH1 0x20 DUP4 PUSH3 0x2450 JUMP JUMPDEST SWAP2 POP PUSH3 0x3546 DUP3 PUSH3 0x3501 JUMP JUMPDEST PUSH1 0x20 DUP3 ADD SWAP1 POP SWAP2 SWAP1 POP JUMP JUMPDEST PUSH1 0x0 PUSH1 0x20 DUP3 ADD SWAP1 POP DUP2 DUP2 SUB PUSH1 0x0 DUP4 ADD MSTORE PUSH3 0x356C DUP2 PUSH3 0x352A JUMP JUMPDEST SWAP1 POP SWAP2 SWAP1 POP JUMP JUMPDEST PUSH32 0x4552433732313A20746F6B656E20616C7265616479206D696E74656400000000 PUSH1 0x0 DUP3 ADD MSTORE POP JUMP JUMPDEST PUSH1 0x0 PUSH3 0x35AB PUSH1 0x1C DUP4 PUSH3 0x2450 JUMP JUMPDEST SWAP2 POP PUSH3 0x35B8 DUP3 PUSH3 0x3573 JUMP JUMPDEST PUSH1 0x20 DUP3 ADD SWAP1 POP SWAP2 SWAP1 POP JUMP JUMPDEST PUSH1 0x0 PUSH1 0x20 DUP3 ADD SWAP1 POP DUP2 DUP2 SUB PUSH1 0x0 DUP4 ADD MSTORE PUSH3 0x35DE DUP2 PUSH3 0x359C JUMP JUMPDEST SWAP1 POP SWAP2 SWAP1 POP JUMP JUMPDEST PUSH32 0x4E487B7100000000000000000000000000000000000000000000000000000000 PUSH1 0x0 MSTORE PUSH1 0x12 PUSH1 0x4 MSTORE PUSH1 0x24 PUSH1 0x0 REVERT INVALID PUSH1 0x80 PUSH1 0x40 MSTORE CALLVALUE DUP1 ISZERO PUSH3 0x11 JUMPI PUSH1 0x0 DUP1 REVERT JUMPDEST POP PUSH1 0x40 MLOAD PUSH3 0x227E CODESIZE SUB DUP1 PUSH3 0x227E DUP4 CODECOPY DUP2 DUP2 ADD PUSH1 0x40 MSTORE DUP2 ADD SWAP1 PUSH3 0x37 SWAP2 SWAP1 PUSH3 0x49B JUMP JUMPDEST PUSH1 0x40 MLOAD DUP1 PUSH1 0x40 ADD PUSH1 0x40 MSTORE DUP1 PUSH1 0x15 DUP2 MSTORE PUSH1 0x20 ADD PUSH32 0x50726F70657274794672616374696F6E546F6B656E0000000000000000000000 DUP2 MSTORE POP PUSH1 0x40 MLOAD DUP1 PUSH1 0x40 ADD PUSH1 0x40 MSTORE DUP1 PUSH1 0x3 DUP2 MSTORE PUSH1 0x20 ADD PUSH32 0x5046540000000000000000000000000000000000000000000000000000000000 DUP2 MSTORE POP DUP2 PUSH1 0x3 SWAP1 DUP1 MLOAD SWAP1 PUSH1 0x20 ADD SWAP1 PUSH3 0xBB SWAP3 SWAP2 SWAP1 PUSH3 0x346 JUMP JUMPDEST POP DUP1 PUSH1 0x4 SWAP1 DUP1 MLOAD SWAP1 PUSH1 0x20 ADD SWAP1 PUSH3 0xD4 SWAP3 SWAP2 SWAP1 PUSH3 0x346 JUMP JUMPDEST POP POP POP PUSH3 0x116 DUP2 PUSH3 0xEC PUSH3 0x1C5 PUSH1 0x20 SHL PUSH1 0x20 SHR JUMP JUMPDEST PUSH1 0xFF AND PUSH1 0xA PUSH3 0xFD SWAP2 SWAP1 PUSH3 0x665 JUMP JUMPDEST DUP5 PUSH3 0x10A SWAP2 SWAP1 PUSH3 0x6B6 JUMP JUMPDEST PUSH3 0x1CE PUSH1 0x20 SHL PUSH1 0x20 SHR JUMP JUMPDEST DUP2 PUSH1 0x5 PUSH1 0x0 DUP4 PUSH20 0xFFFFFFFFFFFFFFFFFFFFFFFFFFFFFFFFFFFFFFFF AND PUSH20 0xFFFFFFFFFFFFFFFFFFFFFFFFFFFFFFFFFFFFFFFF AND DUP2 MSTORE PUSH1 0x20 ADD SWAP1 DUP2 MSTORE PUSH1 0x20 ADD PUSH1 0x0 KECCAK256 DUP2 SWAP1 SSTORE POP PUSH1 0x6 DUP2 SWAP1 DUP1 PUSH1 0x1 DUP2 SLOAD ADD DUP1 DUP3 SSTORE DUP1 SWAP2 POP POP PUSH1 0x1 SWAP1 SUB SWAP1 PUSH1 0x0 MSTORE PUSH1 0x20 PUSH1 0x0 KECCAK256 ADD PUSH1 0x0 SWAP1 SWAP2 SWAP1 SWAP2 SWAP1 SWAP2 PUSH2 0x100 EXP DUP2 SLOAD DUP2 PUSH20 0xFFFFFFFFFFFFFFFFFFFFFFFFFFFFFFFFFFFFFFFF MUL NOT AND SWAP1 DUP4 PUSH20 0xFFFFFFFFFFFFFFFFFFFFFFFFFFFFFFFFFFFFFFFF AND MUL OR SWAP1 SSTORE POP POP POP PUSH3 0x88A JUMP JUMPDEST PUSH1 0x0 PUSH1 0x12 SWAP1 POP SWAP1 JUMP JUMPDEST PUSH1 0x0 PUSH20 0xFFFFFFFFFFFFFFFFFFFFFFFFFFFFFFFFFFFFFFFF AND DUP3 PUSH20 0xFFFFFFFFFFFFFFFFFFFFFFFFFFFFFFFFFFFFFFFF AND EQ ISZERO PUSH3 0x241 JUMPI PUSH1 0x40 MLOAD PUSH32 0x8C379A000000000000000000000000000000000000000000000000000000000 DUP2 MSTORE PUSH1 0x4 ADD PUSH3 0x238 SWAP1 PUSH3 0x778 JUMP JUMPDEST PUSH1 0x40 MLOAD DUP1 SWAP2 SUB SWAP1 REVERT JUMPDEST PUSH3 0x255 PUSH1 0x0 DUP4 DUP4 PUSH3 0x33C PUSH1 0x20 SHL PUSH1 0x20 SHR JUMP JUMPDEST DUP1 PUSH1 0x2 PUSH1 0x0 DUP3 DUP3 SLOAD PUSH3 0x269 SWAP2 SWAP1 PUSH3 0x79A JUMP JUMPDEST SWAP3 POP POP DUP2 SWAP1 SSTORE POP DUP1 PUSH1 0x0 DUP1 DUP5 PUSH20 0xFFFFFFFFFFFFFFFFFFFFFFFFFFFFFFFFFFFFFFFF AND PUSH20 0xFFFFFFFFFFFFFFFFFFFFFFFFFFFFFFFFFFFFFFFF AND DUP2 MSTORE PUSH1 0x20 ADD SWAP1 DUP2 MSTORE PUSH1 0x20 ADD PUSH1 0x0 KECCAK256 PUSH1 0x0 DUP3 DUP3 SLOAD ADD SWAP3 POP POP DUP2 SWAP1 SSTORE POP DUP2 PUSH20 0xFFFFFFFFFFFFFFFFFFFFFFFFFFFFFFFFFFFFFFFF AND PUSH1 0x0 PUSH20 0xFFFFFFFFFFFFFFFFFFFFFFFFFFFFFFFFFFFFFFFF AND PUSH32 0xDDF252AD1BE2C89B69C2B068FC378DAA952BA7F163C4A11628F55A4DF523B3EF DUP4 PUSH1 0x40 MLOAD PUSH3 0x31C SWAP2 SWAP1 PUSH3 0x808 JUMP JUMPDEST PUSH1 0x40 MLOAD DUP1 SWAP2 SUB SWAP1 LOG3 PUSH3 0x338 PUSH1 0x0 DUP4 DUP4 PUSH3 0x341 PUSH1 0x20 SHL PUSH1 0x20 SHR JUMP JUMPDEST POP POP JUMP JUMPDEST POP POP POP JUMP JUMPDEST POP POP POP JUMP JUMPDEST DUP3 DUP1 SLOAD PUSH3 0x354 SWAP1 PUSH3 0x854 JUMP JUMPDEST SWAP1 PUSH1 0x0 MSTORE PUSH1 0x20 PUSH1 0x0 KECCAK256 SWAP1 PUSH1 0x1F ADD PUSH1 0x20 SWAP1 DIV DUP2 ADD SWAP3 DUP3 PUSH3 0x378 JUMPI PUSH1 0x0 DUP6 SSTORE PUSH3 0x3C4 JUMP JUMPDEST DUP3 PUSH1 0x1F LT PUSH3 0x393 JUMPI DUP1 MLOAD PUSH1 0xFF NOT AND DUP4 DUP1 ADD OR DUP6 SSTORE PUSH3 0x3C4 JUMP JUMPDEST DUP3 DUP1 ADD PUSH1 0x1 ADD DUP6 SSTORE DUP3 ISZERO PUSH3 0x3C4 JUMPI SWAP2 DUP3 ADD JUMPDEST DUP3 DUP2 GT ISZERO PUSH3 0x3C3 JUMPI DUP3 MLOAD DUP3 SSTORE SWAP2 PUSH1 0x20 ADD SWAP2 SWAP1 PUSH1 0x1 ADD SWAP1 PUSH3 0x3A6 JUMP JUMPDEST JUMPDEST POP SWAP1 POP PUSH3 0x3D3 SWAP2 SWAP1 PUSH3 0x3D7 JUMP JUMPDEST POP SWAP1 JUMP JUMPDEST JUMPDEST DUP1 DUP3 GT ISZERO PUSH3 0x3F2 JUMPI PUSH1 0x0 DUP2 PUSH1 0x0 SWAP1 SSTORE POP PUSH1 0x1 ADD PUSH3 0x3D8 JUMP JUMPDEST POP SWAP1 JUMP JUMPDEST PUSH1 0x0 DUP1 REVERT JUMPDEST PUSH1 0x0 DUP2 SWAP1 POP SWAP2 SWAP1 POP JUMP JUMPDEST PUSH3 0x410 DUP2 PUSH3 0x3FB JUMP JUMPDEST DUP2 EQ PUSH3 0x41C JUMPI PUSH1 0x0 DUP1 REVERT JUMPDEST POP JUMP JUMPDEST PUSH1 0x0 DUP2 MLOAD SWAP1 POP PUSH3 0x430 DUP2 PUSH3 0x405 JUMP JUMPDEST SWAP3 SWAP2 POP POP JUMP JUMPDEST PUSH1 0x0 PUSH20 0xFFFFFFFFFFFFFFFFFFFFFFFFFFFFFFFFFFFFFFFF DUP3 AND SWAP1 POP SWAP2 SWAP1 POP JUMP JUMPDEST PUSH1 0x0 PUSH3 0x463 DUP3 PUSH3 0x436 JUMP JUMPDEST SWAP1 POP SWAP2 SWAP1 POP JUMP JUMPDEST PUSH3 0x475 DUP2 PUSH3 0x456 JUMP JUMPDEST DUP2 EQ PUSH3 0x481 JUMPI PUSH1 0x0 DUP1 REVERT JUMPDEST POP JUMP JUMPDEST PUSH1 0x0 DUP2 MLOAD SWAP1 POP PUSH3 0x495 DUP2 PUSH3 0x46A JUMP JUMPDEST SWAP3 SWAP2 POP POP JUMP JUMPDEST PUSH1 0x0 DUP1 PUSH1 0x40 DUP4 DUP6 SUB SLT ISZERO PUSH3 0x4B5 JUMPI PUSH3 0x4B4 PUSH3 0x3F6 JUMP JUMPDEST JUMPDEST PUSH1 0x0 PUSH3 0x4C5 DUP6 DUP3 DUP7 ADD PUSH3 0x41F JUMP JUMPDEST SWAP3 POP POP PUSH1 0x20 PUSH3 0x4D8 DUP6 DUP3 DUP7 ADD PUSH3 0x484 JUMP JUMPDEST SWAP2 POP POP SWAP3 POP SWAP3 SWAP1 POP JUMP JUMPDEST PUSH32 0x4E487B7100000000000000000000000000000000000000000000000000000000 PUSH1 0x0 MSTORE PUSH1 0x11 PUSH1 0x4 MSTORE PUSH1 0x24 PUSH1 0x0 REVERT JUMPDEST PUSH1 0x0 DUP2 PUSH1 0x1 SHR SWAP1 POP SWAP2 SWAP1 POP JUMP JUMPDEST PUSH1 0x0 DUP1 DUP3 SWAP2 POP DUP4 SWAP1 POP JUMPDEST PUSH1 0x1 DUP6 GT ISZERO PUSH3 0x570 JUMPI DUP1 DUP7 DIV DUP2 GT ISZERO PUSH3 0x548 JUMPI PUSH3 0x547 PUSH3 0x4E2 JUMP JUMPDEST JUMPDEST PUSH1 0x1 DUP6 AND ISZERO PUSH3 0x558 JUMPI DUP1 DUP3 MUL SWAP2 POP JUMPDEST DUP1 DUP2 MUL SWAP1 POP PUSH3 0x568 DUP6 PUSH3 0x511 JUMP JUMPDEST SWAP5 POP PUSH3 0x528 JUMP JUMPDEST SWAP5 POP SWAP5 SWAP3 POP POP POP JUMP JUMPDEST PUSH1 0x0 DUP3 PUSH3 0x58B JUMPI PUSH1 0x1 SWAP1 POP PUSH3 0x65E JUMP JUMPDEST DUP2 PUSH3 0x59B JUMPI PUSH1 0x0 SWAP1 POP PUSH3 0x65E JUMP JUMPDEST DUP2 PUSH1 0x1 DUP2 EQ PUSH3 0x5B4 JUMPI PUSH1 0x2 DUP2 EQ PUSH3 0x5BF JUMPI PUSH3 0x5F5 JUMP JUMPDEST PUSH1 0x1 SWAP2 POP POP PUSH3 0x65E JUMP JUMPDEST PUSH1 0xFF DUP5 GT ISZERO PUSH3 0x5D4 JUMPI PUSH3 0x5D3 PUSH3 0x4E2 JUMP JUMPDEST JUMPDEST DUP4 PUSH1 0x2 EXP SWAP2 POP DUP5 DUP3 GT ISZERO PUSH3 0x5EE JUMPI PUSH3 0x5ED PUSH3 0x4E2 JUMP JUMPDEST JUMPDEST POP PUSH3 0x65E JUMP JUMPDEST POP PUSH1 0x20 DUP4 LT PUSH2 0x133 DUP4 LT AND PUSH1 0x4E DUP5 LT PUSH1 0xB DUP5 LT AND OR ISZERO PUSH3 0x62F JUMPI DUP3 DUP3 EXP SWAP1 POP DUP4 DUP2 GT ISZERO PUSH3 0x629 JUMPI PUSH3 0x628 PUSH3 0x4E2 JUMP JUMPDEST JUMPDEST PUSH3 0x65E JUMP JUMPDEST PUSH3 0x63E DUP5 DUP5 DUP5 PUSH1 0x1 PUSH3 0x51E JUMP JUMPDEST SWAP3 POP SWAP1 POP DUP2 DUP5 DIV DUP2 GT ISZERO PUSH3 0x658 JUMPI PUSH3 0x657 PUSH3 0x4E2 JUMP JUMPDEST JUMPDEST DUP2 DUP2 MUL SWAP1 POP JUMPDEST SWAP4 SWAP3 POP POP POP JUMP JUMPDEST PUSH1 0x0 PUSH3 0x672 DUP3 PUSH3 0x3FB JUMP JUMPDEST SWAP2 POP PUSH3 0x67F DUP4 PUSH3 0x3FB JUMP JUMPDEST SWAP3 POP PUSH3 0x6AE PUSH32 0xFFFFFFFFFFFFFFFFFFFFFFFFFFFFFFFFFFFFFFFFFFFFFFFFFFFFFFFFFFFFFFFF DUP5 DUP5 PUSH3 0x579 JUMP JUMPDEST SWAP1 POP SWAP3 SWAP2 POP POP JUMP JUMPDEST PUSH1 0x0 PUSH3 0x6C3 DUP3 PUSH3 0x3FB JUMP JUMPDEST SWAP2 POP PUSH3 0x6D0 DUP4 PUSH3 0x3FB JUMP JUMPDEST SWAP3 POP DUP2 PUSH32 0xFFFFFFFFFFFFFFFFFFFFFFFFFFFFFFFFFFFFFFFFFFFFFFFFFFFFFFFFFFFFFFFF DIV DUP4 GT DUP3 ISZERO ISZERO AND ISZERO PUSH3 0x70C JUMPI PUSH3 0x70B PUSH3 0x4E2 JUMP JUMPDEST JUMPDEST DUP3 DUP3 MUL SWAP1 POP SWAP3 SWAP2 POP POP JUMP JUMPDEST PUSH1 0x0 DUP3 DUP3 MSTORE PUSH1 0x20 DUP3 ADD SWAP1 POP SWAP3 SWAP2 POP POP JUMP JUMPDEST PUSH32 0x45524332303A206D696E7420746F20746865207A65726F206164647265737300 PUSH1 0x0 DUP3 ADD MSTORE POP JUMP JUMPDEST PUSH1 0x0 PUSH3 0x760 PUSH1 0x1F DUP4 PUSH3 0x717 JUMP JUMPDEST SWAP2 POP PUSH3 0x76D DUP3 PUSH3 0x728 JUMP JUMPDEST PUSH1 0x20 DUP3 ADD SWAP1 POP SWAP2 SWAP1 POP JUMP JUMPDEST PUSH1 0x0 PUSH1 0x20 DUP3 ADD SWAP1 POP DUP2 DUP2 SUB PUSH1 0x0 DUP4 ADD MSTORE PUSH3 0x793 DUP2 PUSH3 0x751 JUMP JUMPDEST SWAP1 POP SWAP2 SWAP1 POP JUMP JUMPDEST PUSH1 0x0 PUSH3 0x7A7 DUP3 PUSH3 0x3FB JUMP JUMPDEST SWAP2 POP PUSH3 0x7B4 DUP4 PUSH3 0x3FB JUMP JUMPDEST SWAP3 POP DUP3 PUSH32 0xFFFFFFFFFFFFFFFFFFFFFFFFFFFFFFFFFFFFFFFFFFFFFFFFFFFFFFFFFFFFFFFF SUB DUP3 GT ISZERO PUSH3 0x7EC JUMPI PUSH3 0x7EB PUSH3 0x4E2 JUMP JUMPDEST JUMPDEST DUP3 DUP3 ADD SWAP1 POP SWAP3 SWAP2 POP POP JUMP JUMPDEST PUSH3 0x802 DUP2 PUSH3 0x3FB JUMP JUMPDEST DUP3 MSTORE POP POP JUMP JUMPDEST PUSH1 0x0 PUSH1 0x20 DUP3 ADD SWAP1 POP PUSH3 0x81F PUSH1 0x0 DUP4 ADD DUP5 PUSH3 0x7F7 JUMP JUMPDEST SWAP3 SWAP2 POP POP JUMP JUMPDEST PUSH32 0x4E487B7100000000000000000000000000000000000000000000000000000000 PUSH1 0x0 MSTORE PUSH1 0x22 PUSH1 0x4 MSTORE PUSH1 0x24 PUSH1 0x0 REVERT JUMPDEST PUSH1 0x0 PUSH1 0x2 DUP3 DIV SWAP1 POP PUSH1 0x1 DUP3 AND DUP1 PUSH3 0x86D JUMPI PUSH1 0x7F DUP3 AND SWAP2 POP JUMPDEST PUSH1 0x20 DUP3 LT DUP2 EQ ISZERO PUSH3 0x884 JUMPI PUSH3 0x883 PUSH3 0x825 JUMP JUMPDEST JUMPDEST POP SWAP2 SWAP1 POP JUMP JUMPDEST PUSH2 0x19E4 DUP1 PUSH3 0x89A PUSH1 0x0 CODECOPY PUSH1 0x0 RETURN INVALID PUSH1 0x80 PUSH1 0x40 MSTORE CALLVALUE DUP1 ISZERO PUSH2 0x10 JUMPI PUSH1 0x0 DUP1 REVERT JUMPDEST POP PUSH1 0x4 CALLDATASIZE LT PUSH2 0x100 JUMPI PUSH1 0x0 CALLDATALOAD PUSH1 0xE0 SHR DUP1 PUSH4 0x8C2B1BD7 GT PUSH2 0x97 JUMPI DUP1 PUSH4 0xA9059CBB GT PUSH2 0x66 JUMPI DUP1 PUSH4 0xA9059CBB EQ PUSH2 0x2E9 JUMPI DUP1 PUSH4 0xC4516741 EQ PUSH2 0x319 JUMPI DUP1 PUSH4 0xC7344165 EQ PUSH2 0x337 JUMPI DUP1 PUSH4 0xDD62ED3E EQ PUSH2 0x355 JUMPI PUSH2 0x100 JUMP JUMPDEST DUP1 PUSH4 0x8C2B1BD7 EQ PUSH2 0x24F JUMPI DUP1 PUSH4 0x95D89B41 EQ PUSH2 0x26B JUMPI DUP1 PUSH4 0x9EE946A5 EQ PUSH2 0x289 JUMPI DUP1 PUSH4 0xA457C2D7 EQ PUSH2 0x2B9 JUMPI PUSH2 0x100 JUMP JUMPDEST DUP1 PUSH4 0x23B872DD GT PUSH2 0xD3 JUMPI DUP1 PUSH4 0x23B872DD EQ PUSH2 0x1A1 JUMPI DUP1 PUSH4 0x313CE567 EQ PUSH2 0x1D1 JUMPI DUP1 PUSH4 0x39509351 EQ PUSH2 0x1EF JUMPI DUP1 PUSH4 0x70A08231 EQ PUSH2 0x21F JUMPI PUSH2 0x100 JUMP JUMPDEST DUP1 PUSH4 0x6FDDE03 EQ PUSH2 0x105 JUMPI DUP1 PUSH4 0x95EA7B3 EQ PUSH2 0x123 JUMPI DUP1 PUSH4 0xF8C9E28 EQ PUSH2 0x153 JUMPI DUP1 PUSH4 0x18160DDD EQ PUSH2 0x183 JUMPI JUMPDEST PUSH1 0x0 DUP1 REVERT JUMPDEST PUSH2 0x10D PUSH2 0x385 JUMP JUMPDEST PUSH1 0x40 MLOAD PUSH2 0x11A SWAP2 SWAP1 PUSH2 0xEEF JUMP JUMPDEST PUSH1 0x40 MLOAD DUP1 SWAP2 SUB SWAP1 RETURN JUMPDEST PUSH2 0x13D PUSH1 0x4 DUP1 CALLDATASIZE SUB DUP2 ADD SWAP1 PUSH2 0x138 SWAP2 SWAP1 PUSH2 0xFAA JUMP JUMPDEST PUSH2 0x417 JUMP JUMPDEST PUSH1 0x40 MLOAD PUSH2 0x14A SWAP2 SWAP1 PUSH2 0x1005 JUMP JUMPDEST PUSH1 0x40 MLOAD DUP1 SWAP2 SUB SWAP1 RETURN JUMPDEST PUSH2 0x16D PUSH1 0x4 DUP1 CALLDATASIZE SUB DUP2 ADD SWAP1 PUSH2 0x168 SWAP2 SWAP1 PUSH2 0x1020 JUMP JUMPDEST PUSH2 0x43A JUMP JUMPDEST PUSH1 0x40 MLOAD PUSH2 0x17A SWAP2 SWAP1 PUSH2 0x105C JUMP JUMPDEST PUSH1 0x40 MLOAD DUP1 SWAP2 SUB SWAP1 RETURN JUMPDEST PUSH2 0x18B PUSH2 0x479 JUMP JUMPDEST PUSH1 0x40 MLOAD PUSH2 0x198 SWAP2 SWAP1 PUSH2 0x1086 JUMP JUMPDEST PUSH1 0x40 MLOAD DUP1 SWAP2 SUB SWAP1 RETURN JUMPDEST PUSH2 0x1BB PUSH1 0x4 DUP1 CALLDATASIZE SUB DUP2 ADD SWAP1 PUSH2 0x1B6 SWAP2 SWAP1 PUSH2 0x10A1 JUMP JUMPDEST PUSH2 0x483 JUMP JUMPDEST PUSH1 0x40 MLOAD PUSH2 0x1C8 SWAP2 SWAP1 PUSH2 0x1005 JUMP JUMPDEST PUSH1 0x40 MLOAD DUP1 SWAP2 SUB SWAP1 RETURN JUMPDEST PUSH2 0x1D9 PUSH2 0x4B2 JUMP JUMPDEST PUSH1 0x40 MLOAD PUSH2 0x1E6 SWAP2 SWAP1 PUSH2 0x1110 JUMP JUMPDEST PUSH1 0x40 MLOAD DUP1 SWAP2 SUB SWAP1 RETURN JUMPDEST PUSH2 0x209 PUSH1 0x4 DUP1 CALLDATASIZE SUB DUP2 ADD SWAP1 PUSH2 0x204 SWAP2 SWAP1 PUSH2 0xFAA JUMP JUMPDEST PUSH2 0x4BB JUMP JUMPDEST PUSH1 0x40 MLOAD PUSH2 0x216 SWAP2 SWAP1 PUSH2 0x1005 JUMP JUMPDEST PUSH1 0x40 MLOAD DUP1 SWAP2 SUB SWAP1 RETURN JUMPDEST PUSH2 0x239 PUSH1 0x4 DUP1 CALLDATASIZE SUB DUP2 ADD SWAP1 PUSH2 0x234 SWAP2 SWAP1 PUSH2 0x112B JUMP JUMPDEST PUSH2 0x4F2 JUMP JUMPDEST PUSH1 0x40 MLOAD PUSH2 0x246 SWAP2 SWAP1 PUSH2 0x1086 JUMP JUMPDEST PUSH1 0x40 MLOAD DUP1 SWAP2 SUB SWAP1 RETURN JUMPDEST PUSH2 0x269 PUSH1 0x4 DUP1 CALLDATASIZE SUB DUP2 ADD SWAP1 PUSH2 0x264 SWAP2 SWAP1 PUSH2 0x10A1 JUMP JUMPDEST PUSH2 0x53A JUMP JUMPDEST STOP JUMPDEST PUSH2 0x273 PUSH2 0x70F JUMP JUMPDEST PUSH1 0x40 MLOAD PUSH2 0x280 SWAP2 SWAP1 PUSH2 0xEEF JUMP JUMPDEST PUSH1 0x40 MLOAD DUP1 SWAP2 SUB SWAP1 RETURN JUMPDEST PUSH2 0x2A3 PUSH1 0x4 DUP1 CALLDATASIZE SUB DUP2 ADD SWAP1 PUSH2 0x29E SWAP2 SWAP1 PUSH2 0x112B JUMP JUMPDEST PUSH2 0x7A1 JUMP JUMPDEST PUSH1 0x40 MLOAD PUSH2 0x2B0 SWAP2 SWAP1 PUSH2 0x1086 JUMP JUMPDEST PUSH1 0x40 MLOAD DUP1 SWAP2 SUB SWAP1 RETURN JUMPDEST PUSH2 0x2D3 PUSH1 0x4 DUP1 CALLDATASIZE SUB DUP2 ADD SWAP1 PUSH2 0x2CE SWAP2 SWAP1 PUSH2 0xFAA JUMP JUMPDEST PUSH2 0x7B9 JUMP JUMPDEST PUSH1 0x40 MLOAD PUSH2 0x2E0 SWAP2 SWAP1 PUSH2 0x1005 JUMP JUMPDEST PUSH1 0x40 MLOAD DUP1 SWAP2 SUB SWAP1 RETURN JUMPDEST PUSH2 0x303 PUSH1 0x4 DUP1 CALLDATASIZE SUB DUP2 ADD SWAP1 PUSH2 0x2FE SWAP2 SWAP1 PUSH2 0xFAA JUMP JUMPDEST PUSH2 0x830 JUMP JUMPDEST PUSH1 0x40 MLOAD PUSH2 0x310 SWAP2 SWAP1 PUSH2 0x1005 JUMP JUMPDEST PUSH1 0x40 MLOAD DUP1 SWAP2 SUB SWAP1 RETURN JUMPDEST PUSH2 0x321 PUSH2 0x853 JUMP JUMPDEST PUSH1 0x40 MLOAD PUSH2 0x32E SWAP2 SWAP1 PUSH2 0x1216 JUMP JUMPDEST PUSH1 0x40 MLOAD DUP1 SWAP2 SUB SWAP1 RETURN JUMPDEST PUSH2 0x33F PUSH2 0x8E1 JUMP JUMPDEST PUSH1 0x40 MLOAD PUSH2 0x34C SWAP2 SWAP1 PUSH2 0x1086 JUMP JUMPDEST PUSH1 0x40 MLOAD DUP1 SWAP2 SUB SWAP1 RETURN JUMPDEST PUSH2 0x36F PUSH1 0x4 DUP1 CALLDATASIZE SUB DUP2 ADD SWAP1 PUSH2 0x36A SWAP2 SWAP1 PUSH2 0x1238 JUMP JUMPDEST PUSH2 0x8EE JUMP JUMPDEST PUSH1 0x40 MLOAD PUSH2 0x37C SWAP2 SWAP1 PUSH2 0x1086 JUMP JUMPDEST PUSH1 0x40 MLOAD DUP1 SWAP2 SUB SWAP1 RETURN JUMPDEST PUSH1 0x60 PUSH1 0x3 DUP1 SLOAD PUSH2 0x394 SWAP1 PUSH2 0x12A7 JUMP JUMPDEST DUP1 PUSH1 0x1F ADD PUSH1 0x20 DUP1 SWAP2 DIV MUL PUSH1 0x20 ADD PUSH1 0x40 MLOAD SWAP1 DUP2 ADD PUSH1 0x40 MSTORE DUP1 SWAP3 SWAP2 SWAP1 DUP2 DUP2 MSTORE PUSH1 0x20 ADD DUP3 DUP1 SLOAD PUSH2 0x3C0 SWAP1 PUSH2 0x12A7 JUMP JUMPDEST DUP1 ISZERO PUSH2 0x40D JUMPI DUP1 PUSH1 0x1F LT PUSH2 0x3E2 JUMPI PUSH2 0x100 DUP1 DUP4 SLOAD DIV MUL DUP4 MSTORE SWAP2 PUSH1 0x20 ADD SWAP2 PUSH2 0x40D JUMP JUMPDEST DUP3 ADD SWAP2 SWAP1 PUSH1 0x0 MSTORE PUSH1 0x20 PUSH1 0x0 KECCAK256 SWAP1 JUMPDEST DUP2 SLOAD DUP2 MSTORE SWAP1 PUSH1 0x1 ADD SWAP1 PUSH1 0x20 ADD DUP1 DUP4 GT PUSH2 0x3F0 JUMPI DUP3 SWAP1 SUB PUSH1 0x1F AND DUP3 ADD SWAP2 JUMPDEST POP POP POP POP POP SWAP1 POP SWAP1 JUMP JUMPDEST PUSH1 0x0 DUP1 PUSH2 0x422 PUSH2 0x975 JUMP JUMPDEST SWAP1 POP PUSH2 0x42F DUP2 DUP6 DUP6 PUSH2 0x97D JUMP JUMPDEST PUSH1 0x1 SWAP2 POP POP SWAP3 SWAP2 POP POP JUMP JUMPDEST PUSH1 0x6 DUP2 DUP2 SLOAD DUP2 LT PUSH2 0x44A JUMPI PUSH1 0x0 DUP1 REVERT JUMPDEST SWAP1 PUSH1 0x0 MSTORE PUSH1 0x20 PUSH1 0x0 KECCAK256 ADD PUSH1 0x0 SWAP2 POP SLOAD SWAP1 PUSH2 0x100 EXP SWAP1 DIV PUSH20 0xFFFFFFFFFFFFFFFFFFFFFFFFFFFFFFFFFFFFFFFF AND DUP2 JUMP JUMPDEST PUSH1 0x0 PUSH1 0x2 SLOAD SWAP1 POP SWAP1 JUMP JUMPDEST PUSH1 0x0 DUP1 PUSH2 0x48E PUSH2 0x975 JUMP JUMPDEST SWAP1 POP PUSH2 0x49B DUP6 DUP3 DUP6 PUSH2 0xB48 JUMP JUMPDEST PUSH2 0x4A6 DUP6 DUP6 DUP6 PUSH2 0xBD4 JUMP JUMPDEST PUSH1 0x1 SWAP2 POP POP SWAP4 SWAP3 POP POP POP JUMP JUMPDEST PUSH1 0x0 PUSH1 0x12 SWAP1 POP SWAP1 JUMP JUMPDEST PUSH1 0x0 DUP1 PUSH2 0x4C6 PUSH2 0x975 JUMP JUMPDEST SWAP1 POP PUSH2 0x4E7 DUP2 DUP6 DUP6 PUSH2 0x4D8 DUP6 DUP10 PUSH2 0x8EE JUMP JUMPDEST PUSH2 0x4E2 SWAP2 SWAP1 PUSH2 0x1308 JUMP JUMPDEST PUSH2 0x97D JUMP JUMPDEST PUSH1 0x1 SWAP2 POP POP SWAP3 SWAP2 POP POP JUMP JUMPDEST PUSH1 0x0 DUP1 PUSH1 0x0 DUP4 PUSH20 0xFFFFFFFFFFFFFFFFFFFFFFFFFFFFFFFFFFFFFFFF AND PUSH20 0xFFFFFFFFFFFFFFFFFFFFFFFFFFFFFFFFFFFFFFFF AND DUP2 MSTORE PUSH1 0x20 ADD SWAP1 DUP2 MSTORE PUSH1 0x20 ADD PUSH1 0x0 KECCAK256 SLOAD SWAP1 POP SWAP2 SWAP1 POP JUMP JUMPDEST PUSH1 0x0 PUSH2 0x545 DUP5 PUSH2 0x4F2 JUMP JUMPDEST EQ ISZERO PUSH2 0x586 JUMPI PUSH1 0x40 MLOAD PUSH32 0x8C379A000000000000000000000000000000000000000000000000000000000 DUP2 MSTORE PUSH1 0x4 ADD PUSH2 0x57D SWAP1 PUSH2 0x13AA JUMP JUMPDEST PUSH1 0x40 MLOAD DUP1 SWAP2 SUB SWAP1 REVERT JUMPDEST PUSH1 0x0 PUSH1 0x5 PUSH1 0x0 DUP5 PUSH20 0xFFFFFFFFFFFFFFFFFFFFFFFFFFFFFFFFFFFFFFFF AND PUSH20 0xFFFFFFFFFFFFFFFFFFFFFFFFFFFFFFFFFFFFFFFF AND DUP2 MSTORE PUSH1 0x20 ADD SWAP1 DUP2 MSTORE PUSH1 0x20 ADD PUSH1 0x0 KECCAK256 SLOAD EQ ISZERO PUSH2 0x632 JUMPI PUSH1 0x6 DUP3 SWAP1 DUP1 PUSH1 0x1 DUP2 SLOAD ADD DUP1 DUP3 SSTORE DUP1 SWAP2 POP POP PUSH1 0x1 SWAP1 SUB SWAP1 PUSH1 0x0 MSTORE PUSH1 0x20 PUSH1 0x0 KECCAK256 ADD PUSH1 0x0 SWAP1 SWAP2 SWAP1 SWAP2 SWAP1 SWAP2 PUSH2 0x100 EXP DUP2 SLOAD DUP2 PUSH20 0xFFFFFFFFFFFFFFFFFFFFFFFFFFFFFFFFFFFFFFFF MUL NOT AND SWAP1 DUP4 PUSH20 0xFFFFFFFFFFFFFFFFFFFFFFFFFFFFFFFFFFFFFFFF AND MUL OR SWAP1 SSTORE POP JUMPDEST PUSH2 0x65E DUP4 DUP4 PUSH2 0x63F PUSH2 0x4B2 JUMP JUMPDEST PUSH1 0xFF AND PUSH1 0xA PUSH2 0x64E SWAP2 SWAP1 PUSH2 0x14FD JUMP JUMPDEST DUP5 PUSH2 0x659 SWAP2 SWAP1 PUSH2 0x1548 JUMP JUMPDEST PUSH2 0xBD4 JUMP JUMPDEST DUP1 PUSH1 0x5 PUSH1 0x0 DUP6 PUSH20 0xFFFFFFFFFFFFFFFFFFFFFFFFFFFFFFFFFFFFFFFF AND PUSH20 0xFFFFFFFFFFFFFFFFFFFFFFFFFFFFFFFFFFFFFFFF AND DUP2 MSTORE PUSH1 0x20 ADD SWAP1 DUP2 MSTORE PUSH1 0x20 ADD PUSH1 0x0 KECCAK256 PUSH1 0x0 DUP3 DUP3 SLOAD PUSH2 0x6AD SWAP2 SWAP1 PUSH2 0x15A2 JUMP JUMPDEST SWAP3 POP POP DUP2 SWAP1 SSTORE POP DUP1 PUSH1 0x5 PUSH1 0x0 DUP5 PUSH20 0xFFFFFFFFFFFFFFFFFFFFFFFFFFFFFFFFFFFFFFFF AND PUSH20 0xFFFFFFFFFFFFFFFFFFFFFFFFFFFFFFFFFFFFFFFF AND DUP2 MSTORE PUSH1 0x20 ADD SWAP1 DUP2 MSTORE PUSH1 0x20 ADD PUSH1 0x0 KECCAK256 PUSH1 0x0 DUP3 DUP3 SLOAD PUSH2 0x703 SWAP2 SWAP1 PUSH2 0x1308 JUMP JUMPDEST SWAP3 POP POP DUP2 SWAP1 SSTORE POP POP POP POP JUMP JUMPDEST PUSH1 0x60 PUSH1 0x4 DUP1 SLOAD PUSH2 0x71E SWAP1 PUSH2 0x12A7 JUMP JUMPDEST DUP1 PUSH1 0x1F ADD PUSH1 0x20 DUP1 SWAP2 DIV MUL PUSH1 0x20 ADD PUSH1 0x40 MLOAD SWAP1 DUP2 ADD PUSH1 0x40 MSTORE DUP1 SWAP3 SWAP2 SWAP1 DUP2 DUP2 MSTORE PUSH1 0x20 ADD DUP3 DUP1 SLOAD PUSH2 0x74A SWAP1 PUSH2 0x12A7 JUMP JUMPDEST DUP1 ISZERO PUSH2 0x797 JUMPI DUP1 PUSH1 0x1F LT PUSH2 0x76C JUMPI PUSH2 0x100 DUP1 DUP4 SLOAD DIV MUL DUP4 MSTORE SWAP2 PUSH1 0x20 ADD SWAP2 PUSH2 0x797 JUMP JUMPDEST DUP3 ADD SWAP2 SWAP1 PUSH1 0x0 MSTORE PUSH1 0x20 PUSH1 0x0 KECCAK256 SWAP1 JUMPDEST DUP2 SLOAD DUP2 MSTORE SWAP1 PUSH1 0x1 ADD SWAP1 PUSH1 0x20 ADD DUP1 DUP4 GT PUSH2 0x77A JUMPI DUP3 SWAP1 SUB PUSH1 0x1F AND DUP3 ADD SWAP2 JUMPDEST POP POP POP POP POP SWAP1 POP SWAP1 JUMP JUMPDEST PUSH1 0x5 PUSH1 0x20 MSTORE DUP1 PUSH1 0x0 MSTORE PUSH1 0x40 PUSH1 0x0 KECCAK256 PUSH1 0x0 SWAP2 POP SWAP1 POP SLOAD DUP2 JUMP JUMPDEST PUSH1 0x0 DUP1 PUSH2 0x7C4 PUSH2 0x975 JUMP JUMPDEST SWAP1 POP PUSH1 0x0 PUSH2 0x7D2 DUP3 DUP7 PUSH2 0x8EE JUMP JUMPDEST SWAP1 POP DUP4 DUP2 LT ISZERO PUSH2 0x817 JUMPI PUSH1 0x40 MLOAD PUSH32 0x8C379A000000000000000000000000000000000000000000000000000000000 DUP2 MSTORE PUSH1 0x4 ADD PUSH2 0x80E SWAP1 PUSH2 0x1648 JUMP JUMPDEST PUSH1 0x40 MLOAD DUP1 SWAP2 SUB SWAP1 REVERT JUMPDEST PUSH2 0x824 DUP3 DUP7 DUP7 DUP5 SUB PUSH2 0x97D JUMP JUMPDEST PUSH1 0x1 SWAP3 POP POP POP SWAP3 SWAP2 POP POP JUMP JUMPDEST PUSH1 0x0 DUP1 PUSH2 0x83B PUSH2 0x975 JUMP JUMPDEST SWAP1 POP PUSH2 0x848 DUP2 DUP6 DUP6 PUSH2 0xBD4 JUMP JUMPDEST PUSH1 0x1 SWAP2 POP POP SWAP3 SWAP2 POP POP JUMP JUMPDEST PUSH1 0x60 PUSH1 0x6 DUP1 SLOAD DUP1 PUSH1 0x20 MUL PUSH1 0x20 ADD PUSH1 0x40 MLOAD SWAP1 DUP2 ADD PUSH1 0x40 MSTORE DUP1 SWAP3 SWAP2 SWAP1 DUP2 DUP2 MSTORE PUSH1 0x20 ADD DUP3 DUP1 SLOAD DUP1 ISZERO PUSH2 0x8D7 JUMPI PUSH1 0x20 MUL DUP3 ADD SWAP2 SWAP1 PUSH1 0x0 MSTORE PUSH1 0x20 PUSH1 0x0 KECCAK256 SWAP1 JUMPDEST DUP2 PUSH1 0x0 SWAP1 SLOAD SWAP1 PUSH2 0x100 EXP SWAP1 DIV PUSH20 0xFFFFFFFFFFFFFFFFFFFFFFFFFFFFFFFFFFFFFFFF AND PUSH20 0xFFFFFFFFFFFFFFFFFFFFFFFFFFFFFFFFFFFFFFFF AND DUP2 MSTORE PUSH1 0x20 ADD SWAP1 PUSH1 0x1 ADD SWAP1 DUP1 DUP4 GT PUSH2 0x88D JUMPI JUMPDEST POP POP POP POP POP SWAP1 POP SWAP1 JUMP JUMPDEST PUSH1 0x0 PUSH1 0x6 DUP1 SLOAD SWAP1 POP SWAP1 POP SWAP1 JUMP JUMPDEST PUSH1 0x0 PUSH1 0x1 PUSH1 0x0 DUP5 PUSH20 0xFFFFFFFFFFFFFFFFFFFFFFFFFFFFFFFFFFFFFFFF AND PUSH20 0xFFFFFFFFFFFFFFFFFFFFFFFFFFFFFFFFFFFFFFFF AND DUP2 MSTORE PUSH1 0x20 ADD SWAP1 DUP2 MSTORE PUSH1 0x20 ADD PUSH1 0x0 KECCAK256 PUSH1 0x0 DUP4 PUSH20 0xFFFFFFFFFFFFFFFFFFFFFFFFFFFFFFFFFFFFFFFF AND PUSH20 0xFFFFFFFFFFFFFFFFFFFFFFFFFFFFFFFFFFFFFFFF AND DUP2 MSTORE PUSH1 0x20 ADD SWAP1 DUP2 MSTORE PUSH1 0x20 ADD PUSH1 0x0 KECCAK256 SLOAD SWAP1 POP SWAP3 SWAP2 POP POP JUMP JUMPDEST PUSH1 0x0 CALLER SWAP1 POP SWAP1 JUMP JUMPDEST PUSH1 0x0 PUSH20 0xFFFFFFFFFFFFFFFFFFFFFFFFFFFFFFFFFFFFFFFF AND DUP4 PUSH20 0xFFFFFFFFFFFFFFFFFFFFFFFFFFFFFFFFFFFFFFFF AND EQ ISZERO PUSH2 0x9ED JUMPI PUSH1 0x40 MLOAD PUSH32 0x8C379A000000000000000000000000000000000000000000000000000000000 DUP2 MSTORE PUSH1 0x4 ADD PUSH2 0x9E4 SWAP1 PUSH2 0x16DA JUMP JUMPDEST PUSH1 0x40 MLOAD DUP1 SWAP2 SUB SWAP1 REVERT JUMPDEST PUSH1 0x0 PUSH20 0xFFFFFFFFFFFFFFFFFFFFFFFFFFFFFFFFFFFFFFFF AND DUP3 PUSH20 0xFFFFFFFFFFFFFFFFFFFFFFFFFFFFFFFFFFFFFFFF AND EQ ISZERO PUSH2 0xA5D JUMPI PUSH1 0x40 MLOAD PUSH32 0x8C379A000000000000000000000000000000000000000000000000000000000 DUP2 MSTORE PUSH1 0x4 ADD PUSH2 0xA54 SWAP1 PUSH2 0x176C JUMP JUMPDEST PUSH1 0x40 MLOAD DUP1 SWAP2 SUB SWAP1 REVERT JUMPDEST DUP1 PUSH1 0x1 PUSH1 0x0 DUP6 PUSH20 0xFFFFFFFFFFFFFFFFFFFFFFFFFFFFFFFFFFFFFFFF AND PUSH20 0xFFFFFFFFFFFFFFFFFFFFFFFFFFFFFFFFFFFFFFFF AND DUP2 MSTORE PUSH1 0x20 ADD SWAP1 DUP2 MSTORE PUSH1 0x20 ADD PUSH1 0x0 KECCAK256 PUSH1 0x0 DUP5 PUSH20 0xFFFFFFFFFFFFFFFFFFFFFFFFFFFFFFFFFFFFFFFF AND PUSH20 0xFFFFFFFFFFFFFFFFFFFFFFFFFFFFFFFFFFFFFFFF AND DUP2 MSTORE PUSH1 0x20 ADD SWAP1 DUP2 MSTORE PUSH1 0x20 ADD PUSH1 0x0 KECCAK256 DUP2 SWAP1 SSTORE POP DUP2 PUSH20 0xFFFFFFFFFFFFFFFFFFFFFFFFFFFFFFFFFFFFFFFF AND DUP4 PUSH20 0xFFFFFFFFFFFFFFFFFFFFFFFFFFFFFFFFFFFFFFFF AND PUSH32 0x8C5BE1E5EBEC7D5BD14F71427D1E84F3DD0314C0F7B2291E5B200AC8C7C3B925 DUP4 PUSH1 0x40 MLOAD PUSH2 0xB3B SWAP2 SWAP1 PUSH2 0x1086 JUMP JUMPDEST PUSH1 0x40 MLOAD DUP1 SWAP2 SUB SWAP1 LOG3 POP POP POP JUMP JUMPDEST PUSH1 0x0 PUSH2 0xB54 DUP5 DUP5 PUSH2 0x8EE JUMP JUMPDEST SWAP1 POP PUSH32 0xFFFFFFFFFFFFFFFFFFFFFFFFFFFFFFFFFFFFFFFFFFFFFFFFFFFFFFFFFFFFFFFF DUP2 EQ PUSH2 0xBCE JUMPI DUP2 DUP2 LT ISZERO PUSH2 0xBC0 JUMPI PUSH1 0x40 MLOAD PUSH32 0x8C379A000000000000000000000000000000000000000000000000000000000 DUP2 MSTORE PUSH1 0x4 ADD PUSH2 0xBB7 SWAP1 PUSH2 0x17D8 JUMP JUMPDEST PUSH1 0x40 MLOAD DUP1 SWAP2 SUB SWAP1 REVERT JUMPDEST PUSH2 0xBCD DUP5 DUP5 DUP5 DUP5 SUB PUSH2 0x97D JUMP JUMPDEST JUMPDEST POP POP POP POP JUMP JUMPDEST PUSH1 0x0 PUSH20 0xFFFFFFFFFFFFFFFFFFFFFFFFFFFFFFFFFFFFFFFF AND DUP4 PUSH20 0xFFFFFFFFFFFFFFFFFFFFFFFFFFFFFFFFFFFFFFFF AND EQ ISZERO PUSH2 0xC44 JUMPI PUSH1 0x40 MLOAD PUSH32 0x8C379A000000000000000000000000000000000000000000000000000000000 DUP2 MSTORE PUSH1 0x4 ADD PUSH2 0xC3B SWAP1 PUSH2 0x186A JUMP JUMPDEST PUSH1 0x40 MLOAD DUP1 SWAP2 SUB SWAP1 REVERT JUMPDEST PUSH1 0x0 PUSH20 0xFFFFFFFFFFFFFFFFFFFFFFFFFFFFFFFFFFFFFFFF AND DUP3 PUSH20 0xFFFFFFFFFFFFFFFFFFFFFFFFFFFFFFFFFFFFFFFF AND EQ ISZERO PUSH2 0xCB4 JUMPI PUSH1 0x40 MLOAD PUSH32 0x8C379A000000000000000000000000000000000000000000000000000000000 DUP2 MSTORE PUSH1 0x4 ADD PUSH2 0xCAB SWAP1 PUSH2 0x18FC JUMP JUMPDEST PUSH1 0x40 MLOAD DUP1 SWAP2 SUB SWAP1 REVERT JUMPDEST PUSH2 0xCBF DUP4 DUP4 DUP4 PUSH2 0xE4C JUMP JUMPDEST PUSH1 0x0 DUP1 PUSH1 0x0 DUP6 PUSH20 0xFFFFFFFFFFFFFFFFFFFFFFFFFFFFFFFFFFFFFFFF AND PUSH20 0xFFFFFFFFFFFFFFFFFFFFFFFFFFFFFFFFFFFFFFFF AND DUP2 MSTORE PUSH1 0x20 ADD SWAP1 DUP2 MSTORE PUSH1 0x20 ADD PUSH1 0x0 KECCAK256 SLOAD SWAP1 POP DUP2 DUP2 LT ISZERO PUSH2 0xD45 JUMPI PUSH1 0x40 MLOAD PUSH32 0x8C379A000000000000000000000000000000000000000000000000000000000 DUP2 MSTORE PUSH1 0x4 ADD PUSH2 0xD3C SWAP1 PUSH2 0x198E JUMP JUMPDEST PUSH1 0x40 MLOAD DUP1 SWAP2 SUB SWAP1 REVERT JUMPDEST DUP2 DUP2 SUB PUSH1 0x0 DUP1 DUP7 PUSH20 0xFFFFFFFFFFFFFFFFFFFFFFFFFFFFFFFFFFFFFFFF AND PUSH20 0xFFFFFFFFFFFFFFFFFFFFFFFFFFFFFFFFFFFFFFFF AND DUP2 MSTORE PUSH1 0x20 ADD SWAP1 DUP2 MSTORE PUSH1 0x20 ADD PUSH1 0x0 KECCAK256 DUP2 SWAP1 SSTORE POP DUP2 PUSH1 0x0 DUP1 DUP6 PUSH20 0xFFFFFFFFFFFFFFFFFFFFFFFFFFFFFFFFFFFFFFFF AND PUSH20 0xFFFFFFFFFFFFFFFFFFFFFFFFFFFFFFFFFFFFFFFF AND DUP2 MSTORE PUSH1 0x20 ADD SWAP1 DUP2 MSTORE PUSH1 0x20 ADD PUSH1 0x0 KECCAK256 PUSH1 0x0 DUP3 DUP3 SLOAD ADD SWAP3 POP POP DUP2 SWAP1 SSTORE POP DUP3 PUSH20 0xFFFFFFFFFFFFFFFFFFFFFFFFFFFFFFFFFFFFFFFF AND DUP5 PUSH20 0xFFFFFFFFFFFFFFFFFFFFFFFFFFFFFFFFFFFFFFFF AND PUSH32 0xDDF252AD1BE2C89B69C2B068FC378DAA952BA7F163C4A11628F55A4DF523B3EF DUP5 PUSH1 0x40 MLOAD PUSH2 0xE33 SWAP2 SWAP1 PUSH2 0x1086 JUMP JUMPDEST PUSH1 0x40 MLOAD DUP1 SWAP2 SUB SWAP1 LOG3 PUSH2 0xE46 DUP5 DUP5 DUP5 PUSH2 0xE51 JUMP JUMPDEST POP POP POP POP JUMP JUMPDEST POP POP POP JUMP JUMPDEST POP POP POP JUMP JUMPDEST PUSH1 0x0 DUP2 MLOAD SWAP1 POP SWAP2 SWAP1 POP JUMP JUMPDEST PUSH1 0x0 DUP3 DUP3 MSTORE PUSH1 0x20 DUP3 ADD SWAP1 POP SWAP3 SWAP2 POP POP JUMP JUMPDEST PUSH1 0x0 JUMPDEST DUP4 DUP2 LT ISZERO PUSH2 0xE90 JUMPI DUP1 DUP3 ADD MLOAD DUP2 DUP5 ADD MSTORE PUSH1 0x20 DUP2 ADD SWAP1 POP PUSH2 0xE75 JUMP JUMPDEST DUP4 DUP2 GT ISZERO PUSH2 0xE9F JUMPI PUSH1 0x0 DUP5 DUP5 ADD MSTORE JUMPDEST POP POP POP POP JUMP JUMPDEST PUSH1 0x0 PUSH1 0x1F NOT PUSH1 0x1F DUP4 ADD AND SWAP1 POP SWAP2 SWAP1 POP JUMP JUMPDEST PUSH1 0x0 PUSH2 0xEC1 DUP3 PUSH2 0xE56 JUMP JUMPDEST PUSH2 0xECB DUP2 DUP6 PUSH2 0xE61 JUMP JUMPDEST SWAP4 POP PUSH2 0xEDB DUP2 DUP6 PUSH1 0x20 DUP7 ADD PUSH2 0xE72 JUMP JUMPDEST PUSH2 0xEE4 DUP2 PUSH2 0xEA5 JUMP JUMPDEST DUP5 ADD SWAP2 POP POP SWAP3 SWAP2 POP POP JUMP JUMPDEST PUSH1 0x0 PUSH1 0x20 DUP3 ADD SWAP1 POP DUP2 DUP2 SUB PUSH1 0x0 DUP4 ADD MSTORE PUSH2 0xF09 DUP2 DUP5 PUSH2 0xEB6 JUMP JUMPDEST SWAP1 POP SWAP3 SWAP2 POP POP JUMP JUMPDEST PUSH1 0x0 DUP1 REVERT JUMPDEST PUSH1 0x0 PUSH20 0xFFFFFFFFFFFFFFFFFFFFFFFFFFFFFFFFFFFFFFFF DUP3 AND SWAP1 POP SWAP2 SWAP1 POP JUMP JUMPDEST PUSH1 0x0 PUSH2 0xF41 DUP3 PUSH2 0xF16 JUMP JUMPDEST SWAP1 POP SWAP2 SWAP1 POP JUMP JUMPDEST PUSH2 0xF51 DUP2 PUSH2 0xF36 JUMP JUMPDEST DUP2 EQ PUSH2 0xF5C JUMPI PUSH1 0x0 DUP1 REVERT JUMPDEST POP JUMP JUMPDEST PUSH1 0x0 DUP2 CALLDATALOAD SWAP1 POP PUSH2 0xF6E DUP2 PUSH2 0xF48 JUMP JUMPDEST SWAP3 SWAP2 POP POP JUMP JUMPDEST PUSH1 0x0 DUP2 SWAP1 POP SWAP2 SWAP1 POP JUMP JUMPDEST PUSH2 0xF87 DUP2 PUSH2 0xF74 JUMP JUMPDEST DUP2 EQ PUSH2 0xF92 JUMPI PUSH1 0x0 DUP1 REVERT JUMPDEST POP JUMP JUMPDEST PUSH1 0x0 DUP2 CALLDATALOAD SWAP1 POP PUSH2 0xFA4 DUP2 PUSH2 0xF7E JUMP JUMPDEST SWAP3 SWAP2 POP POP JUMP JUMPDEST PUSH1 0x0 DUP1 PUSH1 0x40 DUP4 DUP6 SUB SLT ISZERO PUSH2 0xFC1 JUMPI PUSH2 0xFC0 PUSH2 0xF11 JUMP JUMPDEST JUMPDEST PUSH1 0x0 PUSH2 0xFCF DUP6 DUP3 DUP7 ADD PUSH2 0xF5F JUMP JUMPDEST SWAP3 POP POP PUSH1 0x20 PUSH2 0xFE0 DUP6 DUP3 DUP7 ADD PUSH2 0xF95 JUMP JUMPDEST SWAP2 POP POP SWAP3 POP SWAP3 SWAP1 POP JUMP JUMPDEST PUSH1 0x0 DUP2 ISZERO ISZERO SWAP1 POP SWAP2 SWAP1 POP JUMP JUMPDEST PUSH2 0xFFF DUP2 PUSH2 0xFEA JUMP JUMPDEST DUP3 MSTORE POP POP JUMP JUMPDEST PUSH1 0x0 PUSH1 0x20 DUP3 ADD SWAP1 POP PUSH2 0x101A PUSH1 0x0 DUP4 ADD DUP5 PUSH2 0xFF6 JUMP JUMPDEST SWAP3 SWAP2 POP POP JUMP JUMPDEST PUSH1 0x0 PUSH1 0x20 DUP3 DUP5 SUB SLT ISZERO PUSH2 0x1036 JUMPI PUSH2 0x1035 PUSH2 0xF11 JUMP JUMPDEST JUMPDEST PUSH1 0x0 PUSH2 0x1044 DUP5 DUP3 DUP6 ADD PUSH2 0xF95 JUMP JUMPDEST SWAP2 POP POP SWAP3 SWAP2 POP POP JUMP JUMPDEST PUSH2 0x1056 DUP2 PUSH2 0xF36 JUMP JUMPDEST DUP3 MSTORE POP POP JUMP JUMPDEST PUSH1 0x0 PUSH1 0x20 DUP3 ADD SWAP1 POP PUSH2 0x1071 PUSH1 0x0 DUP4 ADD DUP5 PUSH2 0x104D JUMP JUMPDEST SWAP3 SWAP2 POP POP JUMP JUMPDEST PUSH2 0x1080 DUP2 PUSH2 0xF74 JUMP JUMPDEST DUP3 MSTORE POP POP JUMP JUMPDEST PUSH1 0x0 PUSH1 0x20 DUP3 ADD SWAP1 POP PUSH2 0x109B PUSH1 0x0 DUP4 ADD DUP5 PUSH2 0x1077 JUMP JUMPDEST SWAP3 SWAP2 POP POP JUMP JUMPDEST PUSH1 0x0 DUP1 PUSH1 0x0 PUSH1 0x60 DUP5 DUP7 SUB SLT ISZERO PUSH2 0x10BA JUMPI PUSH2 0x10B9 PUSH2 0xF11 JUMP JUMPDEST JUMPDEST PUSH1 0x0 PUSH2 0x10C8 DUP7 DUP3 DUP8 ADD PUSH2 0xF5F JUMP JUMPDEST SWAP4 POP POP PUSH1 0x20 PUSH2 0x10D9 DUP7 DUP3 DUP8 ADD PUSH2 0xF5F JUMP JUMPDEST SWAP3 POP POP PUSH1 0x40 PUSH2 0x10EA DUP7 DUP3 DUP8 ADD PUSH2 0xF95 JUMP JUMPDEST SWAP2 POP POP SWAP3 POP SWAP3 POP SWAP3 JUMP JUMPDEST PUSH1 0x0 PUSH1 0xFF DUP3 AND SWAP1 POP SWAP2 SWAP1 POP JUMP JUMPDEST PUSH2 0x110A DUP2 PUSH2 0x10F4 JUMP JUMPDEST DUP3 MSTORE POP POP JUMP JUMPDEST PUSH1 0x0 PUSH1 0x20 DUP3 ADD SWAP1 POP PUSH2 0x1125 PUSH1 0x0 DUP4 ADD DUP5 PUSH2 0x1101 JUMP JUMPDEST SWAP3 SWAP2 POP POP JUMP JUMPDEST PUSH1 0x0 PUSH1 0x20 DUP3 DUP5 SUB SLT ISZERO PUSH2 0x1141 JUMPI PUSH2 0x1140 PUSH2 0xF11 JUMP JUMPDEST JUMPDEST PUSH1 0x0 PUSH2 0x114F DUP5 DUP3 DUP6 ADD PUSH2 0xF5F JUMP JUMPDEST SWAP2 POP POP SWAP3 SWAP2 POP POP JUMP JUMPDEST PUSH1 0x0 DUP2 MLOAD SWAP1 POP SWAP2 SWAP1 POP JUMP JUMPDEST PUSH1 0x0 DUP3 DUP3 MSTORE PUSH1 0x20 DUP3 ADD SWAP1 POP SWAP3 SWAP2 POP POP JUMP JUMPDEST PUSH1 0x0 DUP2 SWAP1 POP PUSH1 0x20 DUP3 ADD SWAP1 POP SWAP2 SWAP1 POP JUMP JUMPDEST PUSH2 0x118D DUP2 PUSH2 0xF36 JUMP JUMPDEST DUP3 MSTORE POP POP JUMP JUMPDEST PUSH1 0x0 PUSH2 0x119F DUP4 DUP4 PUSH2 0x1184 JUMP JUMPDEST PUSH1 0x20 DUP4 ADD SWAP1 POP SWAP3 SWAP2 POP POP JUMP JUMPDEST PUSH1 0x0 PUSH1 0x20 DUP3 ADD SWAP1 POP SWAP2 SWAP1 POP JUMP JUMPDEST PUSH1 0x0 PUSH2 0x11C3 DUP3 PUSH2 0x1158 JUMP JUMPDEST PUSH2 0x11CD DUP2 DUP6 PUSH2 0x1163 JUMP JUMPDEST SWAP4 POP PUSH2 0x11D8 DUP4 PUSH2 0x1174 JUMP JUMPDEST DUP1 PUSH1 0x0 JUMPDEST DUP4 DUP2 LT ISZERO PUSH2 0x1209 JUMPI DUP2 MLOAD PUSH2 0x11F0 DUP9 DUP3 PUSH2 0x1193 JUMP JUMPDEST SWAP8 POP PUSH2 0x11FB DUP4 PUSH2 0x11AB JUMP JUMPDEST SWAP3 POP POP PUSH1 0x1 DUP2 ADD SWAP1 POP PUSH2 0x11DC JUMP JUMPDEST POP DUP6 SWAP4 POP POP POP POP SWAP3 SWAP2 POP POP JUMP JUMPDEST PUSH1 0x0 PUSH1 0x20 DUP3 ADD SWAP1 POP DUP2 DUP2 SUB PUSH1 0x0 DUP4 ADD MSTORE PUSH2 0x1230 DUP2 DUP5 PUSH2 0x11B8 JUMP JUMPDEST SWAP1 POP SWAP3 SWAP2 POP POP JUMP JUMPDEST PUSH1 0x0 DUP1 PUSH1 0x40 DUP4 DUP6 SUB SLT ISZERO PUSH2 0x124F JUMPI PUSH2 0x124E PUSH2 0xF11 JUMP JUMPDEST JUMPDEST PUSH1 0x0 PUSH2 0x125D DUP6 DUP3 DUP7 ADD PUSH2 0xF5F JUMP JUMPDEST SWAP3 POP POP PUSH1 0x20 PUSH2 0x126E DUP6 DUP3 DUP7 ADD PUSH2 0xF5F JUMP JUMPDEST SWAP2 POP POP SWAP3 POP SWAP3 SWAP1 POP JUMP JUMPDEST PUSH32 0x4E487B7100000000000000000000000000000000000000000000000000000000 PUSH1 0x0 MSTORE PUSH1 0x22 PUSH1 0x4 MSTORE PUSH1 0x24 PUSH1 0x0 REVERT JUMPDEST PUSH1 0x0 PUSH1 0x2 DUP3 DIV SWAP1 POP PUSH1 0x1 DUP3 AND DUP1 PUSH2 0x12BF JUMPI PUSH1 0x7F DUP3 AND SWAP2 POP JUMPDEST PUSH1 0x20 DUP3 LT DUP2 EQ ISZERO PUSH2 0x12D3 JUMPI PUSH2 0x12D2 PUSH2 0x1278 JUMP JUMPDEST JUMPDEST POP SWAP2 SWAP1 POP JUMP JUMPDEST PUSH32 0x4E487B7100000000000000000000000000000000000000000000000000000000 PUSH1 0x0 MSTORE PUSH1 0x11 PUSH1 0x4 MSTORE PUSH1 0x24 PUSH1 0x0 REVERT JUMPDEST PUSH1 0x0 PUSH2 0x1313 DUP3 PUSH2 0xF74 JUMP JUMPDEST SWAP2 POP PUSH2 0x131E DUP4 PUSH2 0xF74 JUMP JUMPDEST SWAP3 POP DUP3 PUSH32 0xFFFFFFFFFFFFFFFFFFFFFFFFFFFFFFFFFFFFFFFFFFFFFFFFFFFFFFFFFFFFFFFF SUB DUP3 GT ISZERO PUSH2 0x1353 JUMPI PUSH2 0x1352 PUSH2 0x12D9 JUMP JUMPDEST JUMPDEST DUP3 DUP3 ADD SWAP1 POP SWAP3 SWAP2 POP POP JUMP JUMPDEST PUSH32 0x496E73756666696369656E742062616C616E6365210000000000000000000000 PUSH1 0x0 DUP3 ADD MSTORE POP JUMP JUMPDEST PUSH1 0x0 PUSH2 0x1394 PUSH1 0x15 DUP4 PUSH2 0xE61 JUMP JUMPDEST SWAP2 POP PUSH2 0x139F DUP3 PUSH2 0x135E JUMP JUMPDEST PUSH1 0x20 DUP3 ADD SWAP1 POP SWAP2 SWAP1 POP JUMP JUMPDEST PUSH1 0x0 PUSH1 0x20 DUP3 ADD SWAP1 POP DUP2 DUP2 SUB PUSH1 0x0 DUP4 ADD MSTORE PUSH2 0x13C3 DUP2 PUSH2 0x1387 JUMP JUMPDEST SWAP1 POP SWAP2 SWAP1 POP JUMP JUMPDEST PUSH1 0x0 DUP2 PUSH1 0x1 SHR SWAP1 POP SWAP2 SWAP1 POP JUMP JUMPDEST PUSH1 0x0 DUP1 DUP3 SWAP2 POP DUP4 SWAP1 POP JUMPDEST PUSH1 0x1 DUP6 GT ISZERO PUSH2 0x1421 JUMPI DUP1 DUP7 DIV DUP2 GT ISZERO PUSH2 0x13FD JUMPI PUSH2 0x13FC PUSH2 0x12D9 JUMP JUMPDEST JUMPDEST PUSH1 0x1 DUP6 AND ISZERO PUSH2 0x140C JUMPI DUP1 DUP3 MUL SWAP2 POP JUMPDEST DUP1 DUP2 MUL SWAP1 POP PUSH2 0x141A DUP6 PUSH2 0x13CA JUMP JUMPDEST SWAP5 POP PUSH2 0x13E1 JUMP JUMPDEST SWAP5 POP SWAP5 SWAP3 POP POP POP JUMP JUMPDEST PUSH1 0x0 DUP3 PUSH2 0x143A JUMPI PUSH1 0x1 SWAP1 POP PUSH2 0x14F6 JUMP JUMPDEST DUP2 PUSH2 0x1448 JUMPI PUSH1 0x0 SWAP1 POP PUSH2 0x14F6 JUMP JUMPDEST DUP2 PUSH1 0x1 DUP2 EQ PUSH2 0x145E JUMPI PUSH1 0x2 DUP2 EQ PUSH2 0x1468 JUMPI PUSH2 0x1497 JUMP JUMPDEST PUSH1 0x1 SWAP2 POP POP PUSH2 0x14F6 JUMP JUMPDEST PUSH1 0xFF DUP5 GT ISZERO PUSH2 0x147A JUMPI PUSH2 0x1479 PUSH2 0x12D9 JUMP JUMPDEST JUMPDEST DUP4 PUSH1 0x2 EXP SWAP2 POP DUP5 DUP3 GT ISZERO PUSH2 0x1491 JUMPI PUSH2 0x1490 PUSH2 0x12D9 JUMP JUMPDEST JUMPDEST POP PUSH2 0x14F6 JUMP JUMPDEST POP PUSH1 0x20 DUP4 LT PUSH2 0x133 DUP4 LT AND PUSH1 0x4E DUP5 LT PUSH1 0xB DUP5 LT AND OR ISZERO PUSH2 0x14CC JUMPI DUP3 DUP3 EXP SWAP1 POP DUP4 DUP2 GT ISZERO PUSH2 0x14C7 JUMPI PUSH2 0x14C6 PUSH2 0x12D9 JUMP JUMPDEST JUMPDEST PUSH2 0x14F6 JUMP JUMPDEST PUSH2 0x14D9 DUP5 DUP5 DUP5 PUSH1 0x1 PUSH2 0x13D7 JUMP JUMPDEST SWAP3 POP SWAP1 POP DUP2 DUP5 DIV DUP2 GT ISZERO PUSH2 0x14F0 JUMPI PUSH2 0x14EF PUSH2 0x12D9 JUMP JUMPDEST JUMPDEST DUP2 DUP2 MUL SWAP1 POP JUMPDEST SWAP4 SWAP3 POP POP POP JUMP JUMPDEST PUSH1 0x0 PUSH2 0x1508 DUP3 PUSH2 0xF74 JUMP JUMPDEST SWAP2 POP PUSH2 0x1513 DUP4 PUSH2 0xF74 JUMP JUMPDEST SWAP3 POP PUSH2 0x1540 PUSH32 0xFFFFFFFFFFFFFFFFFFFFFFFFFFFFFFFFFFFFFFFFFFFFFFFFFFFFFFFFFFFFFFFF DUP5 DUP5 PUSH2 0x142A JUMP JUMPDEST SWAP1 POP SWAP3 SWAP2 POP POP JUMP JUMPDEST PUSH1 0x0 PUSH2 0x1553 DUP3 PUSH2 0xF74 JUMP JUMPDEST SWAP2 POP PUSH2 0x155E DUP4 PUSH2 0xF74 JUMP JUMPDEST SWAP3 POP DUP2 PUSH32 0xFFFFFFFFFFFFFFFFFFFFFFFFFFFFFFFFFFFFFFFFFFFFFFFFFFFFFFFFFFFFFFFF DIV DUP4 GT DUP3 ISZERO ISZERO AND ISZERO PUSH2 0x1597 JUMPI PUSH2 0x1596 PUSH2 0x12D9 JUMP JUMPDEST JUMPDEST DUP3 DUP3 MUL SWAP1 POP SWAP3 SWAP2 POP POP JUMP JUMPDEST PUSH1 0x0 PUSH2 0x15AD DUP3 PUSH2 0xF74 JUMP JUMPDEST SWAP2 POP PUSH2 0x15B8 DUP4 PUSH2 0xF74 JUMP JUMPDEST SWAP3 POP DUP3 DUP3 LT ISZERO PUSH2 0x15CB JUMPI PUSH2 0x15CA PUSH2 0x12D9 JUMP JUMPDEST JUMPDEST DUP3 DUP3 SUB SWAP1 POP SWAP3 SWAP2 POP POP JUMP JUMPDEST PUSH32 0x45524332303A2064656372656173656420616C6C6F77616E63652062656C6F77 PUSH1 0x0 DUP3 ADD MSTORE PUSH32 0x207A65726F000000000000000000000000000000000000000000000000000000 PUSH1 0x20 DUP3 ADD MSTORE POP JUMP JUMPDEST PUSH1 0x0 PUSH2 0x1632 PUSH1 0x25 DUP4 PUSH2 0xE61 JUMP JUMPDEST SWAP2 POP PUSH2 0x163D DUP3 PUSH2 0x15D6 JUMP JUMPDEST PUSH1 0x40 DUP3 ADD SWAP1 POP SWAP2 SWAP1 POP JUMP JUMPDEST PUSH1 0x0 PUSH1 0x20 DUP3 ADD SWAP1 POP DUP2 DUP2 SUB PUSH1 0x0 DUP4 ADD MSTORE PUSH2 0x1661 DUP2 PUSH2 0x1625 JUMP JUMPDEST SWAP1 POP SWAP2 SWAP1 POP JUMP JUMPDEST PUSH32 0x45524332303A20617070726F76652066726F6D20746865207A65726F20616464 PUSH1 0x0 DUP3 ADD MSTORE PUSH32 0x7265737300000000000000000000000000000000000000000000000000000000 PUSH1 0x20 DUP3 ADD MSTORE POP JUMP JUMPDEST PUSH1 0x0 PUSH2 0x16C4 PUSH1 0x24 DUP4 PUSH2 0xE61 JUMP JUMPDEST SWAP2 POP PUSH2 0x16CF DUP3 PUSH2 0x1668 JUMP JUMPDEST PUSH1 0x40 DUP3 ADD SWAP1 POP SWAP2 SWAP1 POP JUMP JUMPDEST PUSH1 0x0 PUSH1 0x20 DUP3 ADD SWAP1 POP DUP2 DUP2 SUB PUSH1 0x0 DUP4 ADD MSTORE PUSH2 0x16F3 DUP2 PUSH2 0x16B7 JUMP JUMPDEST SWAP1 POP SWAP2 SWAP1 POP JUMP JUMPDEST PUSH32 0x45524332303A20617070726F766520746F20746865207A65726F206164647265 PUSH1 0x0 DUP3 ADD MSTORE PUSH32 0x7373000000000000000000000000000000000000000000000000000000000000 PUSH1 0x20 DUP3 ADD MSTORE POP JUMP JUMPDEST PUSH1 0x0 PUSH2 0x1756 PUSH1 0x22 DUP4 PUSH2 0xE61 JUMP JUMPDEST SWAP2 POP PUSH2 0x1761 DUP3 PUSH2 0x16FA JUMP JUMPDEST PUSH1 0x40 DUP3 ADD SWAP1 POP SWAP2 SWAP1 POP JUMP JUMPDEST PUSH1 0x0 PUSH1 0x20 DUP3 ADD SWAP1 POP DUP2 DUP2 SUB PUSH1 0x0 DUP4 ADD MSTORE PUSH2 0x1785 DUP2 PUSH2 0x1749 JUMP JUMPDEST SWAP1 POP SWAP2 SWAP1 POP JUMP JUMPDEST PUSH32 0x45524332303A20696E73756666696369656E7420616C6C6F77616E6365000000 PUSH1 0x0 DUP3 ADD MSTORE POP JUMP JUMPDEST PUSH1 0x0 PUSH2 0x17C2 PUSH1 0x1D DUP4 PUSH2 0xE61 JUMP JUMPDEST SWAP2 POP PUSH2 0x17CD DUP3 PUSH2 0x178C JUMP JUMPDEST PUSH1 0x20 DUP3 ADD SWAP1 POP SWAP2 SWAP1 POP JUMP JUMPDEST PUSH1 0x0 PUSH1 0x20 DUP3 ADD SWAP1 POP DUP2 DUP2 SUB PUSH1 0x0 DUP4 ADD MSTORE PUSH2 0x17F1 DUP2 PUSH2 0x17B5 JUMP JUMPDEST SWAP1 POP SWAP2 SWAP1 POP JUMP JUMPDEST PUSH32 0x45524332303A207472616E736665722066726F6D20746865207A65726F206164 PUSH1 0x0 DUP3 ADD MSTORE PUSH32 0x6472657373000000000000000000000000000000000000000000000000000000 PUSH1 0x20 DUP3 ADD MSTORE POP JUMP JUMPDEST PUSH1 0x0 PUSH2 0x1854 PUSH1 0x25 DUP4 PUSH2 0xE61 JUMP JUMPDEST SWAP2 POP PUSH2 0x185F DUP3 PUSH2 0x17F8 JUMP JUMPDEST PUSH1 0x40 DUP3 ADD SWAP1 POP SWAP2 SWAP1 POP JUMP JUMPDEST PUSH1 0x0 PUSH1 0x20 DUP3 ADD SWAP1 POP DUP2 DUP2 SUB PUSH1 0x0 DUP4 ADD MSTORE PUSH2 0x1883 DUP2 PUSH2 0x1847 JUMP JUMPDEST SWAP1 POP SWAP2 SWAP1 POP JUMP JUMPDEST PUSH32 0x45524332303A207472616E7366657220746F20746865207A65726F2061646472 PUSH1 0x0 DUP3 ADD MSTORE PUSH32 0x6573730000000000000000000000000000000000000000000000000000000000 PUSH1 0x20 DUP3 ADD MSTORE POP JUMP JUMPDEST PUSH1 0x0 PUSH2 0x18E6 PUSH1 0x23 DUP4 PUSH2 0xE61 JUMP JUMPDEST SWAP2 POP PUSH2 0x18F1 DUP3 PUSH2 0x188A JUMP JUMPDEST PUSH1 0x40 DUP3 ADD SWAP1 POP SWAP2 SWAP1 POP JUMP JUMPDEST PUSH1 0x0 PUSH1 0x20 DUP3 ADD SWAP1 POP DUP2 DUP2 SUB PUSH1 0x0 DUP4 ADD MSTORE PUSH2 0x1915 DUP2 PUSH2 0x18D9 JUMP JUMPDEST SWAP1 POP SWAP2 SWAP1 POP JUMP JUMPDEST PUSH32 0x45524332303A207472616E7366657220616D6F756E7420657863656564732062 PUSH1 0x0 DUP3 ADD MSTORE PUSH32 0x616C616E63650000000000000000000000000000000000000000000000000000 PUSH1 0x20 DUP3 ADD MSTORE POP JUMP JUMPDEST PUSH1 0x0 PUSH2 0x1978 PUSH1 0x26 DUP4 PUSH2 0xE61 JUMP JUMPDEST SWAP2 POP PUSH2 0x1983 DUP3 PUSH2 0x191C JUMP JUMPDEST PUSH1 0x40 DUP3 ADD SWAP1 POP SWAP2 SWAP1 POP JUMP JUMPDEST PUSH1 0x0 PUSH1 0x20 DUP3 ADD SWAP1 POP DUP2 DUP2 SUB PUSH1 0x0 DUP4 ADD MSTORE PUSH2 0x19A7 DUP2 PUSH2 0x196B JUMP JUMPDEST SWAP1 POP SWAP2 SWAP1 POP JUMP INVALID LOG2 PUSH5 0x6970667358 0x22 SLT KECCAK256 DUP1 0xD4 0x28 0xCC 0xF 0xEE STATICCALL 0xBA REVERT 0xA8 PUSH24 0xBB8311D7B738BAC4F037D70B97A64969C99AEB6AA864736F PUSH13 0x63430008090033A26469706673 PC 0x22 SLT KECCAK256 REVERT OR 0xCC PUSH23 0x179FFC3DAF8AB0AF8F5E9BE4A7590B4BD9B564C07B4FAF NOT 0x29 0xC7 POP 0xC7 PUSH5 0x736F6C6343 STOP ADDMOD MULMOD STOP CALLER "},"methodIdentifiers":{"PFTMap(uint256)":"1a38d733","approve(address,uint256)":"095ea7b3","balanceOf(address)":"70a08231","getApproved(uint256)":"081812fc","getNumberOfNFTs()":"80060ad2","isApprovedForAll(address,address)":"e985e9c5","mint(address,string,uint256)":"ba7aef43","name()":"06fdde03","owner()":"8da5cb5b","ownerOf(uint256)":"6352211e","pause()":"8456cb59","paused()":"5c975abb","renounceOwnership()":"715018a6","safeTransferFrom(address,address,uint256)":"42842e0e","safeTransferFrom(address,address,uint256,bytes)":"b88d4fde","setApprovalForAll(address,bool)":"a22cb465","supportsInterface(bytes4)":"01ffc9a7","symbol()":"95d89b41","tokenURI(uint256)":"c87b56dd","transferERC20(address,uint256,uint256)":"b756fb69","transferFrom(address,address,uint256)":"23b872dd","transferOwnership(address)":"f2fde38b","unpause()":"3f4ba83a"}}}}}