{
  "_format": "hh-sol-artifact-1",
  "contractName": "PropertyFractionToken",
  "sourceName": "contracts/PropertyFractionToken.sol",
  "abi": [
    {
      "inputs": [
        {
          "internalType": "uint256",
          "name": "_totalPropertyFractionTokens",
          "type": "uint256"
        },
        {
          "internalType": "address",
          "name": "_minter",
          "type": "address"
        }
      ],
      "stateMutability": "nonpayable",
      "type": "constructor"
    },
    {
      "anonymous": false,
      "inputs": [
        {
          "indexed": true,
          "internalType": "address",
          "name": "owner",
          "type": "address"
        },
        {
          "indexed": true,
          "internalType": "address",
          "name": "spender",
          "type": "address"
        },
        {
          "indexed": false,
          "internalType": "uint256",
          "name": "value",
          "type": "uint256"
        }
      ],
      "name": "Approval",
      "type": "event"
    },
    {
      "anonymous": false,
      "inputs": [
        {
          "indexed": true,
          "internalType": "address",
          "name": "from",
          "type": "address"
        },
        {
          "indexed": true,
          "internalType": "address",
          "name": "to",
          "type": "address"
        },
        {
          "indexed": false,
          "internalType": "uint256",
          "name": "value",
          "type": "uint256"
        }
      ],
      "name": "Transfer",
      "type": "event"
    },
    {
      "inputs": [
        {
          "internalType": "address",
          "name": "owner",
          "type": "address"
        },
        {
          "internalType": "address",
          "name": "spender",
          "type": "address"
        }
      ],
      "name": "allowance",
      "outputs": [
        {
          "internalType": "uint256",
          "name": "",
          "type": "uint256"
        }
      ],
      "stateMutability": "view",
      "type": "function"
    },
    {
      "inputs": [
        {
          "internalType": "address",
          "name": "spender",
          "type": "address"
        },
        {
          "internalType": "uint256",
          "name": "amount",
          "type": "uint256"
        }
      ],
      "name": "approve",
      "outputs": [
        {
          "internalType": "bool",
          "name": "",
          "type": "bool"
        }
      ],
      "stateMutability": "nonpayable",
      "type": "function"
    },
    {
      "inputs": [
        {
          "internalType": "address",
          "name": "account",
          "type": "address"
        }
      ],
      "name": "balanceOf",
      "outputs": [
        {
          "internalType": "uint256",
          "name": "",
          "type": "uint256"
        }
      ],
      "stateMutability": "view",
      "type": "function"
    },
    {
      "inputs": [],
      "name": "decimals",
      "outputs": [
        {
          "internalType": "uint8",
          "name": "",
          "type": "uint8"
        }
      ],
      "stateMutability": "view",
      "type": "function"
    },
    {
      "inputs": [
        {
          "internalType": "address",
          "name": "spender",
          "type": "address"
        },
        {
          "internalType": "uint256",
          "name": "subtractedValue",
          "type": "uint256"
        }
      ],
      "name": "decreaseAllowance",
      "outputs": [
        {
          "internalType": "bool",
          "name": "",
          "type": "bool"
        }
      ],
      "stateMutability": "nonpayable",
      "type": "function"
    },
    {
      "inputs": [],
      "name": "getHolderAddresses",
      "outputs": [
        {
          "internalType": "address[]",
          "name": "",
          "type": "address[]"
        }
      ],
      "stateMutability": "view",
      "type": "function"
    },
    {
      "inputs": [],
      "name": "getNumHolders",
      "outputs": [
        {
          "internalType": "uint256",
          "name": "",
          "type": "uint256"
        }
      ],
      "stateMutability": "view",
      "type": "function"
    },
    {
      "inputs": [
        {
          "internalType": "uint256",
          "name": "",
          "type": "uint256"
        }
      ],
      "name": "holderAddresses",
      "outputs": [
        {
          "internalType": "address",
          "name": "",
          "type": "address"
        }
      ],
      "stateMutability": "view",
      "type": "function"
    },
    {
      "inputs": [
        {
          "internalType": "address",
          "name": "",
          "type": "address"
        }
      ],
      "name": "holderBalances",
      "outputs": [
        {
          "internalType": "uint256",
          "name": "",
          "type": "uint256"
        }
      ],
      "stateMutability": "view",
      "type": "function"
    },
    {
      "inputs": [
        {
          "internalType": "address",
          "name": "spender",
          "type": "address"
        },
        {
          "internalType": "uint256",
          "name": "addedValue",
          "type": "uint256"
        }
      ],
      "name": "increaseAllowance",
      "outputs": [
        {
          "internalType": "bool",
          "name": "",
          "type": "bool"
        }
      ],
      "stateMutability": "nonpayable",
      "type": "function"
    },
    {
      "inputs": [],
      "name": "name",
      "outputs": [
        {
          "internalType": "string",
          "name": "",
          "type": "string"
        }
      ],
      "stateMutability": "view",
      "type": "function"
    },
    {
      "inputs": [],
      "name": "symbol",
      "outputs": [
        {
          "internalType": "string",
          "name": "",
          "type": "string"
        }
      ],
      "stateMutability": "view",
      "type": "function"
    },
    {
      "inputs": [],
      "name": "totalSupply",
      "outputs": [
        {
          "internalType": "uint256",
          "name": "",
          "type": "uint256"
        }
      ],
      "stateMutability": "view",
      "type": "function"
    },
    {
      "inputs": [
        {
          "internalType": "address",
          "name": "_from",
          "type": "address"
        },
        {
          "internalType": "address",
          "name": "_to",
          "type": "address"
        },
        {
          "internalType": "uint256",
          "name": "_amount",
          "type": "uint256"
        }
      ],
      "name": "trackTransfer",
      "outputs": [],
      "stateMutability": "nonpayable",
      "type": "function"
    },
    {
      "inputs": [
        {
          "internalType": "address",
          "name": "to",
          "type": "address"
        },
        {
          "internalType": "uint256",
          "name": "amount",
          "type": "uint256"
        }
      ],
      "name": "transfer",
      "outputs": [
        {
          "internalType": "bool",
          "name": "",
          "type": "bool"
        }
      ],
      "stateMutability": "nonpayable",
      "type": "function"
    },
    {
      "inputs": [
        {
          "internalType": "address",
          "name": "from",
          "type": "address"
        },
        {
          "internalType": "address",
          "name": "to",
          "type": "address"
        },
        {
          "internalType": "uint256",
          "name": "amount",
          "type": "uint256"
        }
      ],
      "name": "transferFrom",
      "outputs": [
        {
          "internalType": "bool",
          "name": "",
          "type": "bool"
        }
      ],
      "stateMutability": "nonpayable",
      "type": "function"
    }
  ],
  "bytecode": "0x60806040523480156200001157600080fd5b506040516200227e3803806200227e83398181016040528101906200003791906200049b565b6040518060400160405280601581526020017f50726f70657274794672616374696f6e546f6b656e00000000000000000000008152506040518060400160405280600381526020017f50465400000000000000000000000000000000000000000000000000000000008152508160039080519060200190620000bb92919062000346565b508060049080519060200190620000d492919062000346565b5050506200011681620000ec620001c560201b60201c565b60ff16600a620000fd919062000665565b846200010a9190620006b6565b620001ce60201b60201c565b81600560008373ffffffffffffffffffffffffffffffffffffffff1673ffffffffffffffffffffffffffffffffffffffff168152602001908152602001600020819055506006819080600181540180825580915050600190039060005260206000200160009091909190916101000a81548173ffffffffffffffffffffffffffffffffffffffff021916908373ffffffffffffffffffffffffffffffffffffffff16021790555050506200088a565b60006012905090565b600073ffffffffffffffffffffffffffffffffffffffff168273ffffffffffffffffffffffffffffffffffffffff16141562000241576040517f08c379a0000000000000000000000000000000000000000000000000000000008152600401620002389062000778565b60405180910390fd5b62000255600083836200033c60201b60201c565b80600260008282546200026991906200079a565b92505081905550806000808473ffffffffffffffffffffffffffffffffffffffff1673ffffffffffffffffffffffffffffffffffffffff168152602001908152602001600020600082825401925050819055508173ffffffffffffffffffffffffffffffffffffffff16600073ffffffffffffffffffffffffffffffffffffffff167fddf252ad1be2c89b69c2b068fc378daa952ba7f163c4a11628f55a4df523b3ef836040516200031c919062000808565b60405180910390a362000338600083836200034160201b60201c565b5050565b505050565b505050565b828054620003549062000854565b90600052602060002090601f016020900481019282620003785760008555620003c4565b82601f106200039357805160ff1916838001178555620003c4565b82800160010185558215620003c4579182015b82811115620003c3578251825591602001919060010190620003a6565b5b509050620003d39190620003d7565b5090565b5b80821115620003f2576000816000905550600101620003d8565b5090565b600080fd5b6000819050919050565b6200041081620003fb565b81146200041c57600080fd5b50565b600081519050620004308162000405565b92915050565b600073ffffffffffffffffffffffffffffffffffffffff82169050919050565b6000620004638262000436565b9050919050565b620004758162000456565b81146200048157600080fd5b50565b60008151905062000495816200046a565b92915050565b60008060408385031215620004b557620004b4620003f6565b5b6000620004c5858286016200041f565b9250506020620004d88582860162000484565b9150509250929050565b7f4e487b7100000000000000000000000000000000000000000000000000000000600052601160045260246000fd5b60008160011c9050919050565b6000808291508390505b60018511156200057057808604811115620005485762000547620004e2565b5b6001851615620005585780820291505b8081029050620005688562000511565b945062000528565b94509492505050565b6000826200058b57600190506200065e565b816200059b57600090506200065e565b8160018114620005b45760028114620005bf57620005f5565b60019150506200065e565b60ff841115620005d457620005d3620004e2565b5b8360020a915084821115620005ee57620005ed620004e2565b5b506200065e565b5060208310610133831016604e8410600b84101617156200062f5782820a905083811115620006295762000628620004e2565b5b6200065e565b6200063e84848460016200051e565b92509050818404811115620006585762000657620004e2565b5b81810290505b9392505050565b60006200067282620003fb565b91506200067f83620003fb565b9250620006ae7fffffffffffffffffffffffffffffffffffffffffffffffffffffffffffffffff848462000579565b905092915050565b6000620006c382620003fb565b9150620006d083620003fb565b9250817fffffffffffffffffffffffffffffffffffffffffffffffffffffffffffffffff04831182151516156200070c576200070b620004e2565b5b828202905092915050565b600082825260208201905092915050565b7f45524332303a206d696e7420746f20746865207a65726f206164647265737300600082015250565b600062000760601f8362000717565b91506200076d8262000728565b602082019050919050565b60006020820190508181036000830152620007938162000751565b9050919050565b6000620007a782620003fb565b9150620007b483620003fb565b9250827fffffffffffffffffffffffffffffffffffffffffffffffffffffffffffffffff03821115620007ec57620007eb620004e2565b5b828201905092915050565b6200080281620003fb565b82525050565b60006020820190506200081f6000830184620007f7565b92915050565b7f4e487b7100000000000000000000000000000000000000000000000000000000600052602260045260246000fd5b600060028204905060018216806200086d57607f821691505b6020821081141562000884576200088362000825565b5b50919050565b6119e4806200089a6000396000f3fe608060405234801561001057600080fd5b50600436106101005760003560e01c80638c2b1bd711610097578063a9059cbb11610066578063a9059cbb146102e9578063c451674114610319578063c734416514610337578063dd62ed3e1461035557610100565b80638c2b1bd71461024f57806395d89b411461026b5780639ee946a514610289578063a457c2d7146102b957610100565b806323b872dd116100d357806323b872dd146101a1578063313ce567146101d157806339509351146101ef57806370a082311461021f57610100565b806306fdde0314610105578063095ea7b3146101235780630f8c9e281461015357806318160ddd14610183575b600080fd5b61010d610385565b60405161011a9190610eef565b60405180910390f35b61013d60048036038101906101389190610faa565b610417565b60405161014a9190611005565b60405180910390f35b61016d60048036038101906101689190611020565b61043a565b60405161017a919061105c565b60405180910390f35b61018b610479565b6040516101989190611086565b60405180910390f35b6101bb60048036038101906101b691906110a1565b610483565b6040516101c89190611005565b60405180910390f35b6101d96104b2565b6040516101e69190611110565b60405180910390f35b61020960048036038101906102049190610faa565b6104bb565b6040516102169190611005565b60405180910390f35b6102396004803603810190610234919061112b565b6104f2565b6040516102469190611086565b60405180910390f35b610269600480360381019061026491906110a1565b61053a565b005b61027361070f565b6040516102809190610eef565b60405180910390f35b6102a3600480360381019061029e919061112b565b6107a1565b6040516102b09190611086565b60405180910390f35b6102d360048036038101906102ce9190610faa565b6107b9565b6040516102e09190611005565b60405180910390f35b61030360048036038101906102fe9190610faa565b610830565b6040516103109190611005565b60405180910390f35b610321610853565b60405161032e9190611216565b60405180910390f35b61033f6108e1565b60405161034c9190611086565b60405180910390f35b61036f600480360381019061036a9190611238565b6108ee565b60405161037c9190611086565b60405180910390f35b606060038054610394906112a7565b80601f01602080910402602001604051908101604052809291908181526020018280546103c0906112a7565b801561040d5780601f106103e25761010080835404028352916020019161040d565b820191906000526020600020905b8154815290600101906020018083116103f057829003601f168201915b5050505050905090565b600080610422610975565b905061042f81858561097d565b600191505092915050565b6006818154811061044a57600080fd5b906000526020600020016000915054906101000a900473ffffffffffffffffffffffffffffffffffffffff1681565b6000600254905090565b60008061048e610975565b905061049b858285610b48565b6104a6858585610bd4565b60019150509392505050565b60006012905090565b6000806104c6610975565b90506104e78185856104d885896108ee565b6104e29190611308565b61097d565b600191505092915050565b60008060008373ffffffffffffffffffffffffffffffffffffffff1673ffffffffffffffffffffffffffffffffffffffff168152602001908152602001600020549050919050565b6000610545846104f2565b1415610586576040517f08c379a000000000000000000000000000000000000000000000000000000000815260040161057d906113aa565b60405180910390fd5b6000600560008473ffffffffffffffffffffffffffffffffffffffff1673ffffffffffffffffffffffffffffffffffffffff168152602001908152602001600020541415610632576006829080600181540180825580915050600190039060005260206000200160009091909190916101000a81548173ffffffffffffffffffffffffffffffffffffffff021916908373ffffffffffffffffffffffffffffffffffffffff1602179055505b61065e838361063f6104b2565b60ff16600a61064e91906114fd565b846106599190611548565b610bd4565b80600560008573ffffffffffffffffffffffffffffffffffffffff1673ffffffffffffffffffffffffffffffffffffffff16815260200190815260200160002060008282546106ad91906115a2565b9250508190555080600560008473ffffffffffffffffffffffffffffffffffffffff1673ffffffffffffffffffffffffffffffffffffffff16815260200190815260200160002060008282546107039190611308565b92505081905550505050565b60606004805461071e906112a7565b80601f016020809104026020016040519081016040528092919081815260200182805461074a906112a7565b80156107975780601f1061076c57610100808354040283529160200191610797565b820191906000526020600020905b81548152906001019060200180831161077a57829003601f168201915b5050505050905090565b60056020528060005260406000206000915090505481565b6000806107c4610975565b905060006107d282866108ee565b905083811015610817576040517f08c379a000000000000000000000000000000000000000000000000000000000815260040161080e90611648565b60405180910390fd5b610824828686840361097d565b60019250505092915050565b60008061083b610975565b9050610848818585610bd4565b600191505092915050565b606060068054806020026020016040519081016040528092919081815260200182805480156108d757602002820191906000526020600020905b8160009054906101000a900473ffffffffffffffffffffffffffffffffffffffff1673ffffffffffffffffffffffffffffffffffffffff168152602001906001019080831161088d575b5050505050905090565b6000600680549050905090565b6000600160008473ffffffffffffffffffffffffffffffffffffffff1673ffffffffffffffffffffffffffffffffffffffff16815260200190815260200160002060008373ffffffffffffffffffffffffffffffffffffffff1673ffffffffffffffffffffffffffffffffffffffff16815260200190815260200160002054905092915050565b600033905090565b600073ffffffffffffffffffffffffffffffffffffffff168373ffffffffffffffffffffffffffffffffffffffff1614156109ed576040517f08c379a00000000000000000000000000000000000000000000000000000000081526004016109e4906116da565b60405180910390fd5b600073ffffffffffffffffffffffffffffffffffffffff168273ffffffffffffffffffffffffffffffffffffffff161415610a5d576040517f08c379a0000000000000000000000000000000000000000000000000000000008152600401610a549061176c565b60405180910390fd5b80600160008573ffffffffffffffffffffffffffffffffffffffff1673ffffffffffffffffffffffffffffffffffffffff16815260200190815260200160002060008473ffffffffffffffffffffffffffffffffffffffff1673ffffffffffffffffffffffffffffffffffffffff168152602001908152602001600020819055508173ffffffffffffffffffffffffffffffffffffffff168373ffffffffffffffffffffffffffffffffffffffff167f8c5be1e5ebec7d5bd14f71427d1e84f3dd0314c0f7b2291e5b200ac8c7c3b92583604051610b3b9190611086565b60405180910390a3505050565b6000610b5484846108ee565b90507fffffffffffffffffffffffffffffffffffffffffffffffffffffffffffffffff8114610bce5781811015610bc0576040517f08c379a0000000000000000000000000000000000000000000000000000000008152600401610bb7906117d8565b60405180910390fd5b610bcd848484840361097d565b5b50505050565b600073ffffffffffffffffffffffffffffffffffffffff168373ffffffffffffffffffffffffffffffffffffffff161415610c44576040517f08c379a0000000000000000000000000000000000000000000000000000000008152600401610c3b9061186a565b60405180910390fd5b600073ffffffffffffffffffffffffffffffffffffffff168273ffffffffffffffffffffffffffffffffffffffff161415610cb4576040517f08c379a0000000000000000000000000000000000000000000000000000000008152600401610cab906118fc565b60405180910390fd5b610cbf838383610e4c565b60008060008573ffffffffffffffffffffffffffffffffffffffff1673ffffffffffffffffffffffffffffffffffffffff16815260200190815260200160002054905081811015610d45576040517f08c379a0000000000000000000000000000000000000000000000000000000008152600401610d3c9061198e565b60405180910390fd5b8181036000808673ffffffffffffffffffffffffffffffffffffffff1673ffffffffffffffffffffffffffffffffffffffff16815260200190815260200160002081905550816000808573ffffffffffffffffffffffffffffffffffffffff1673ffffffffffffffffffffffffffffffffffffffff168152602001908152602001600020600082825401925050819055508273ffffffffffffffffffffffffffffffffffffffff168473ffffffffffffffffffffffffffffffffffffffff167fddf252ad1be2c89b69c2b068fc378daa952ba7f163c4a11628f55a4df523b3ef84604051610e339190611086565b60405180910390a3610e46848484610e51565b50505050565b505050565b505050565b600081519050919050565b600082825260208201905092915050565b60005b83811015610e90578082015181840152602081019050610e75565b83811115610e9f576000848401525b50505050565b6000601f19601f8301169050919050565b6000610ec182610e56565b610ecb8185610e61565b9350610edb818560208601610e72565b610ee481610ea5565b840191505092915050565b60006020820190508181036000830152610f098184610eb6565b905092915050565b600080fd5b600073ffffffffffffffffffffffffffffffffffffffff82169050919050565b6000610f4182610f16565b9050919050565b610f5181610f36565b8114610f5c57600080fd5b50565b600081359050610f6e81610f48565b92915050565b6000819050919050565b610f8781610f74565b8114610f9257600080fd5b50565b600081359050610fa481610f7e565b92915050565b60008060408385031215610fc157610fc0610f11565b5b6000610fcf85828601610f5f565b9250506020610fe085828601610f95565b9150509250929050565b60008115159050919050565b610fff81610fea565b82525050565b600060208201905061101a6000830184610ff6565b92915050565b60006020828403121561103657611035610f11565b5b600061104484828501610f95565b91505092915050565b61105681610f36565b82525050565b6000602082019050611071600083018461104d565b92915050565b61108081610f74565b82525050565b600060208201905061109b6000830184611077565b92915050565b6000806000606084860312156110ba576110b9610f11565b5b60006110c886828701610f5f565b93505060206110d986828701610f5f565b92505060406110ea86828701610f95565b9150509250925092565b600060ff82169050919050565b61110a816110f4565b82525050565b60006020820190506111256000830184611101565b92915050565b60006020828403121561114157611140610f11565b5b600061114f84828501610f5f565b91505092915050565b600081519050919050565b600082825260208201905092915050565b6000819050602082019050919050565b61118d81610f36565b82525050565b600061119f8383611184565b60208301905092915050565b6000602082019050919050565b60006111c382611158565b6111cd8185611163565b93506111d883611174565b8060005b838110156112095781516111f08882611193565b97506111fb836111ab565b9250506001810190506111dc565b5085935050505092915050565b6000602082019050818103600083015261123081846111b8565b905092915050565b6000806040838503121561124f5761124e610f11565b5b600061125d85828601610f5f565b925050602061126e85828601610f5f565b9150509250929050565b7f4e487b7100000000000000000000000000000000000000000000000000000000600052602260045260246000fd5b600060028204905060018216806112bf57607f821691505b602082108114156112d3576112d2611278565b5b50919050565b7f4e487b7100000000000000000000000000000000000000000000000000000000600052601160045260246000fd5b600061131382610f74565b915061131e83610f74565b9250827fffffffffffffffffffffffffffffffffffffffffffffffffffffffffffffffff03821115611353576113526112d9565b5b828201905092915050565b7f496e73756666696369656e742062616c616e6365210000000000000000000000600082015250565b6000611394601583610e61565b915061139f8261135e565b602082019050919050565b600060208201905081810360008301526113c381611387565b9050919050565b60008160011c9050919050565b6000808291508390505b6001851115611421578086048111156113fd576113fc6112d9565b5b600185161561140c5780820291505b808102905061141a856113ca565b94506113e1565b94509492505050565b60008261143a57600190506114f6565b8161144857600090506114f6565b816001811461145e576002811461146857611497565b60019150506114f6565b60ff84111561147a576114796112d9565b5b8360020a915084821115611491576114906112d9565b5b506114f6565b5060208310610133831016604e8410600b84101617156114cc5782820a9050838111156114c7576114c66112d9565b5b6114f6565b6114d984848460016113d7565b925090508184048111156114f0576114ef6112d9565b5b81810290505b9392505050565b600061150882610f74565b915061151383610f74565b92506115407fffffffffffffffffffffffffffffffffffffffffffffffffffffffffffffffff848461142a565b905092915050565b600061155382610f74565b915061155e83610f74565b9250817fffffffffffffffffffffffffffffffffffffffffffffffffffffffffffffffff0483118215151615611597576115966112d9565b5b828202905092915050565b60006115ad82610f74565b91506115b883610f74565b9250828210156115cb576115ca6112d9565b5b828203905092915050565b7f45524332303a2064656372656173656420616c6c6f77616e63652062656c6f7760008201527f207a65726f000000000000000000000000000000000000000000000000000000602082015250565b6000611632602583610e61565b915061163d826115d6565b604082019050919050565b6000602082019050818103600083015261166181611625565b9050919050565b7f45524332303a20617070726f76652066726f6d20746865207a65726f2061646460008201527f7265737300000000000000000000000000000000000000000000000000000000602082015250565b60006116c4602483610e61565b91506116cf82611668565b604082019050919050565b600060208201905081810360008301526116f3816116b7565b9050919050565b7f45524332303a20617070726f766520746f20746865207a65726f20616464726560008201527f7373000000000000000000000000000000000000000000000000000000000000602082015250565b6000611756602283610e61565b9150611761826116fa565b604082019050919050565b6000602082019050818103600083015261178581611749565b9050919050565b7f45524332303a20696e73756666696369656e7420616c6c6f77616e6365000000600082015250565b60006117c2601d83610e61565b91506117cd8261178c565b602082019050919050565b600060208201905081810360008301526117f1816117b5565b9050919050565b7f45524332303a207472616e736665722066726f6d20746865207a65726f20616460008201527f6472657373000000000000000000000000000000000000000000000000000000602082015250565b6000611854602583610e61565b915061185f826117f8565b604082019050919050565b6000602082019050818103600083015261188381611847565b9050919050565b7f45524332303a207472616e7366657220746f20746865207a65726f206164647260008201527f6573730000000000000000000000000000000000000000000000000000000000602082015250565b60006118e6602383610e61565b91506118f18261188a565b604082019050919050565b60006020820190508181036000830152611915816118d9565b9050919050565b7f45524332303a207472616e7366657220616d6f756e742065786365656473206260008201527f616c616e63650000000000000000000000000000000000000000000000000000602082015250565b6000611978602683610e61565b91506119838261191c565b604082019050919050565b600060208201905081810360008301526119a78161196b565b905091905056fea264697066735822122080d428cc0feefabafda877bb8311d7b738bac4f037d70b97a64969c99aeb6aa864736f6c63430008090033",
  "linkReferences": {},
  "deployedLinkReferences": {}
}