{
  "_format": "hh-sol-artifact-1",
  "contractName": "PropertyFractionToken",
  "sourceName": "contracts/PropertyFractionToken.sol",
  "abi": [
    {
      "inputs": [
        {
          "internalType": "uint256",
          "name": "_totalPropertyFractionTokens",
          "type": "uint256"
        },
        {
          "internalType": "address",
          "name": "_minter",
          "type": "address"
        }
      ],
      "stateMutability": "nonpayable",
      "type": "constructor"
    },
    {
      "anonymous": false,
      "inputs": [
        {
          "indexed": true,
          "internalType": "address",
          "name": "owner",
          "type": "address"
        },
        {
          "indexed": true,
          "internalType": "address",
          "name": "spender",
          "type": "address"
        },
        {
          "indexed": false,
          "internalType": "uint256",
          "name": "value",
          "type": "uint256"
        }
      ],
      "name": "Approval",
      "type": "event"
    },
    {
      "anonymous": false,
      "inputs": [
        {
          "indexed": true,
          "internalType": "address",
          "name": "from",
          "type": "address"
        },
        {
          "indexed": true,
          "internalType": "address",
          "name": "to",
          "type": "address"
        },
        {
          "indexed": false,
          "internalType": "uint256",
          "name": "value",
          "type": "uint256"
        }
      ],
      "name": "Transfer",
      "type": "event"
    },
    {
      "inputs": [
        {
          "internalType": "address",
          "name": "owner",
          "type": "address"
        },
        {
          "internalType": "address",
          "name": "spender",
          "type": "address"
        }
      ],
      "name": "allowance",
      "outputs": [
        {
          "internalType": "uint256",
          "name": "",
          "type": "uint256"
        }
      ],
      "stateMutability": "view",
      "type": "function"
    },
    {
      "inputs": [
        {
          "internalType": "address",
          "name": "spender",
          "type": "address"
        },
        {
          "internalType": "uint256",
          "name": "amount",
          "type": "uint256"
        }
      ],
      "name": "approve",
      "outputs": [
        {
          "internalType": "bool",
          "name": "",
          "type": "bool"
        }
      ],
      "stateMutability": "nonpayable",
      "type": "function"
    },
    {
      "inputs": [
        {
          "internalType": "address",
          "name": "account",
          "type": "address"
        }
      ],
      "name": "balanceOf",
      "outputs": [
        {
          "internalType": "uint256",
          "name": "",
          "type": "uint256"
        }
      ],
      "stateMutability": "view",
      "type": "function"
    },
    {
      "inputs": [],
      "name": "decimals",
      "outputs": [
        {
          "internalType": "uint8",
          "name": "",
          "type": "uint8"
        }
      ],
      "stateMutability": "view",
      "type": "function"
    },
    {
      "inputs": [
        {
          "internalType": "address",
          "name": "spender",
          "type": "address"
        },
        {
          "internalType": "uint256",
          "name": "subtractedValue",
          "type": "uint256"
        }
      ],
      "name": "decreaseAllowance",
      "outputs": [
        {
          "internalType": "bool",
          "name": "",
          "type": "bool"
        }
      ],
      "stateMutability": "nonpayable",
      "type": "function"
    },
    {
      "inputs": [],
      "name": "getHolderAddresses",
      "outputs": [
        {
          "internalType": "address[]",
          "name": "",
          "type": "address[]"
        }
      ],
      "stateMutability": "view",
      "type": "function"
    },
    {
      "inputs": [],
      "name": "getNumHolders",
      "outputs": [
        {
          "internalType": "uint256",
          "name": "",
          "type": "uint256"
        }
      ],
      "stateMutability": "view",
      "type": "function"
    },
    {
      "inputs": [
        {
          "internalType": "uint256",
          "name": "",
          "type": "uint256"
        }
      ],
      "name": "holderAddresses",
      "outputs": [
        {
          "internalType": "address",
          "name": "",
          "type": "address"
        }
      ],
      "stateMutability": "view",
      "type": "function"
    },
    {
      "inputs": [
        {
          "internalType": "address",
          "name": "",
          "type": "address"
        }
      ],
      "name": "holderBalances",
      "outputs": [
        {
          "internalType": "uint256",
          "name": "",
          "type": "uint256"
        }
      ],
      "stateMutability": "view",
      "type": "function"
    },
    {
      "inputs": [
        {
          "internalType": "address",
          "name": "spender",
          "type": "address"
        },
        {
          "internalType": "uint256",
          "name": "addedValue",
          "type": "uint256"
        }
      ],
      "name": "increaseAllowance",
      "outputs": [
        {
          "internalType": "bool",
          "name": "",
          "type": "bool"
        }
      ],
      "stateMutability": "nonpayable",
      "type": "function"
    },
    {
      "inputs": [],
      "name": "name",
      "outputs": [
        {
          "internalType": "string",
          "name": "",
          "type": "string"
        }
      ],
      "stateMutability": "view",
      "type": "function"
    },
    {
      "inputs": [],
      "name": "symbol",
      "outputs": [
        {
          "internalType": "string",
          "name": "",
          "type": "string"
        }
      ],
      "stateMutability": "view",
      "type": "function"
    },
    {
      "inputs": [],
      "name": "totalSupply",
      "outputs": [
        {
          "internalType": "uint256",
          "name": "",
          "type": "uint256"
        }
      ],
      "stateMutability": "view",
      "type": "function"
    },
    {
      "inputs": [
        {
          "internalType": "address",
          "name": "_from",
          "type": "address"
        },
        {
          "internalType": "address",
          "name": "_to",
          "type": "address"
        },
        {
          "internalType": "uint256",
          "name": "_amount",
          "type": "uint256"
        }
      ],
      "name": "trackTransfer",
      "outputs": [],
      "stateMutability": "nonpayable",
      "type": "function"
    },
    {
      "inputs": [
        {
          "internalType": "address",
          "name": "to",
          "type": "address"
        },
        {
          "internalType": "uint256",
          "name": "amount",
          "type": "uint256"
        }
      ],
      "name": "transfer",
      "outputs": [
        {
          "internalType": "bool",
          "name": "",
          "type": "bool"
        }
      ],
      "stateMutability": "nonpayable",
      "type": "function"
    },
    {
      "inputs": [
        {
          "internalType": "address",
          "name": "from",
          "type": "address"
        },
        {
          "internalType": "address",
          "name": "to",
          "type": "address"
        },
        {
          "internalType": "uint256",
          "name": "amount",
          "type": "uint256"
        }
      ],
      "name": "transferFrom",
      "outputs": [
        {
          "internalType": "bool",
          "name": "",
          "type": "bool"
        }
      ],
      "stateMutability": "nonpayable",
      "type": "function"
    }
  ],
  "bytecode": "0x60806040523480156200001157600080fd5b5060405162002292380380620022928339818101604052810190620000379190620004a6565b6040518060400160405280601581526020017f50726f70657274794672616374696f6e546f6b656e00000000000000000000008152506040518060400160405280600381526020017f50465400000000000000000000000000000000000000000000000000000000008152508160039080519060200190620000bb92919062000351565b508060049080519060200190620000d492919062000351565b5050506200011681620000ec620001c560201b60201c565b60ff16600a620000fd919062000670565b846200010a9190620006c1565b620001ce60201b60201c565b81600560008373ffffffffffffffffffffffffffffffffffffffff1673ffffffffffffffffffffffffffffffffffffffff168152602001908152602001600020819055506006819080600181540180825580915050600190039060005260206000200160009091909190916101000a81548173ffffffffffffffffffffffffffffffffffffffff021916908373ffffffffffffffffffffffffffffffffffffffff160217905550505062000895565b60006012905090565b600073ffffffffffffffffffffffffffffffffffffffff168273ffffffffffffffffffffffffffffffffffffffff16141562000241576040517f08c379a0000000000000000000000000000000000000000000000000000000008152600401620002389062000783565b60405180910390fd5b62000255600083836200034760201b60201c565b8060026000828254620002699190620007a5565b92505081905550806000808473ffffffffffffffffffffffffffffffffffffffff1673ffffffffffffffffffffffffffffffffffffffff1681526020019081526020016000206000828254620002c09190620007a5565b925050819055508173ffffffffffffffffffffffffffffffffffffffff16600073ffffffffffffffffffffffffffffffffffffffff167fddf252ad1be2c89b69c2b068fc378daa952ba7f163c4a11628f55a4df523b3ef8360405162000327919062000813565b60405180910390a362000343600083836200034c60201b60201c565b5050565b505050565b505050565b8280546200035f906200085f565b90600052602060002090601f016020900481019282620003835760008555620003cf565b82601f106200039e57805160ff1916838001178555620003cf565b82800160010185558215620003cf579182015b82811115620003ce578251825591602001919060010190620003b1565b5b509050620003de9190620003e2565b5090565b5b80821115620003fd576000816000905550600101620003e3565b5090565b600080fd5b6000819050919050565b6200041b8162000406565b81146200042757600080fd5b50565b6000815190506200043b8162000410565b92915050565b600073ffffffffffffffffffffffffffffffffffffffff82169050919050565b60006200046e8262000441565b9050919050565b620004808162000461565b81146200048c57600080fd5b50565b600081519050620004a08162000475565b92915050565b60008060408385031215620004c057620004bf62000401565b5b6000620004d0858286016200042a565b9250506020620004e3858286016200048f565b9150509250929050565b7f4e487b7100000000000000000000000000000000000000000000000000000000600052601160045260246000fd5b60008160011c9050919050565b6000808291508390505b60018511156200057b57808604811115620005535762000552620004ed565b5b6001851615620005635780820291505b808102905062000573856200051c565b945062000533565b94509492505050565b60008262000596576001905062000669565b81620005a6576000905062000669565b8160018114620005bf5760028114620005ca5762000600565b600191505062000669565b60ff841115620005df57620005de620004ed565b5b8360020a915084821115620005f957620005f8620004ed565b5b5062000669565b5060208310610133831016604e8410600b84101617156200063a5782820a905083811115620006345762000633620004ed565b5b62000669565b62000649848484600162000529565b92509050818404811115620006635762000662620004ed565b5b81810290505b9392505050565b60006200067d8262000406565b91506200068a8362000406565b9250620006b97fffffffffffffffffffffffffffffffffffffffffffffffffffffffffffffffff848462000584565b905092915050565b6000620006ce8262000406565b9150620006db8362000406565b9250817fffffffffffffffffffffffffffffffffffffffffffffffffffffffffffffffff0483118215151615620007175762000716620004ed565b5b828202905092915050565b600082825260208201905092915050565b7f45524332303a206d696e7420746f20746865207a65726f206164647265737300600082015250565b60006200076b601f8362000722565b9150620007788262000733565b602082019050919050565b600060208201905081810360008301526200079e816200075c565b9050919050565b6000620007b28262000406565b9150620007bf8362000406565b9250827fffffffffffffffffffffffffffffffffffffffffffffffffffffffffffffffff03821115620007f757620007f6620004ed565b5b828201905092915050565b6200080d8162000406565b82525050565b60006020820190506200082a600083018462000802565b92915050565b7f4e487b7100000000000000000000000000000000000000000000000000000000600052602260045260246000fd5b600060028204905060018216806200087857607f821691505b602082108114156200088f576200088e62000830565b5b50919050565b6119ed80620008a56000396000f3fe608060405234801561001057600080fd5b50600436106101005760003560e01c80638c2b1bd711610097578063a9059cbb11610066578063a9059cbb146102e9578063c451674114610319578063c734416514610337578063dd62ed3e1461035557610100565b80638c2b1bd71461024f57806395d89b411461026b5780639ee946a514610289578063a457c2d7146102b957610100565b806323b872dd116100d357806323b872dd146101a1578063313ce567146101d157806339509351146101ef57806370a082311461021f57610100565b806306fdde0314610105578063095ea7b3146101235780630f8c9e281461015357806318160ddd14610183575b600080fd5b61010d610385565b60405161011a9190610ef8565b60405180910390f35b61013d60048036038101906101389190610fb3565b610417565b60405161014a919061100e565b60405180910390f35b61016d60048036038101906101689190611029565b61043a565b60405161017a9190611065565b60405180910390f35b61018b610479565b604051610198919061108f565b60405180910390f35b6101bb60048036038101906101b691906110aa565b610483565b6040516101c8919061100e565b60405180910390f35b6101d96104b2565b6040516101e69190611119565b60405180910390f35b61020960048036038101906102049190610fb3565b6104bb565b604051610216919061100e565b60405180910390f35b61023960048036038101906102349190611134565b6104f2565b604051610246919061108f565b60405180910390f35b610269600480360381019061026491906110aa565b61053a565b005b61027361070f565b6040516102809190610ef8565b60405180910390f35b6102a3600480360381019061029e9190611134565b6107a1565b6040516102b0919061108f565b60405180910390f35b6102d360048036038101906102ce9190610fb3565b6107b9565b6040516102e0919061100e565b60405180910390f35b61030360048036038101906102fe9190610fb3565b610830565b604051610310919061100e565b60405180910390f35b610321610853565b60405161032e919061121f565b60405180910390f35b61033f6108e1565b60405161034c919061108f565b60405180910390f35b61036f600480360381019061036a9190611241565b6108ee565b60405161037c919061108f565b60405180910390f35b606060038054610394906112b0565b80601f01602080910402602001604051908101604052809291908181526020018280546103c0906112b0565b801561040d5780601f106103e25761010080835404028352916020019161040d565b820191906000526020600020905b8154815290600101906020018083116103f057829003601f168201915b5050505050905090565b600080610422610975565b905061042f81858561097d565b600191505092915050565b6006818154811061044a57600080fd5b906000526020600020016000915054906101000a900473ffffffffffffffffffffffffffffffffffffffff1681565b6000600254905090565b60008061048e610975565b905061049b858285610b48565b6104a6858585610bd4565b60019150509392505050565b60006012905090565b6000806104c6610975565b90506104e78185856104d885896108ee565b6104e29190611311565b61097d565b600191505092915050565b60008060008373ffffffffffffffffffffffffffffffffffffffff1673ffffffffffffffffffffffffffffffffffffffff168152602001908152602001600020549050919050565b6000610545846104f2565b1415610586576040517f08c379a000000000000000000000000000000000000000000000000000000000815260040161057d906113b3565b60405180910390fd5b6000600560008473ffffffffffffffffffffffffffffffffffffffff1673ffffffffffffffffffffffffffffffffffffffff168152602001908152602001600020541415610632576006829080600181540180825580915050600190039060005260206000200160009091909190916101000a81548173ffffffffffffffffffffffffffffffffffffffff021916908373ffffffffffffffffffffffffffffffffffffffff1602179055505b61065e838361063f6104b2565b60ff16600a61064e9190611506565b846106599190611551565b610bd4565b80600560008573ffffffffffffffffffffffffffffffffffffffff1673ffffffffffffffffffffffffffffffffffffffff16815260200190815260200160002060008282546106ad91906115ab565b9250508190555080600560008473ffffffffffffffffffffffffffffffffffffffff1673ffffffffffffffffffffffffffffffffffffffff16815260200190815260200160002060008282546107039190611311565b92505081905550505050565b60606004805461071e906112b0565b80601f016020809104026020016040519081016040528092919081815260200182805461074a906112b0565b80156107975780601f1061076c57610100808354040283529160200191610797565b820191906000526020600020905b81548152906001019060200180831161077a57829003601f168201915b5050505050905090565b60056020528060005260406000206000915090505481565b6000806107c4610975565b905060006107d282866108ee565b905083811015610817576040517f08c379a000000000000000000000000000000000000000000000000000000000815260040161080e90611651565b60405180910390fd5b610824828686840361097d565b60019250505092915050565b60008061083b610975565b9050610848818585610bd4565b600191505092915050565b606060068054806020026020016040519081016040528092919081815260200182805480156108d757602002820191906000526020600020905b8160009054906101000a900473ffffffffffffffffffffffffffffffffffffffff1673ffffffffffffffffffffffffffffffffffffffff168152602001906001019080831161088d575b5050505050905090565b6000600680549050905090565b6000600160008473ffffffffffffffffffffffffffffffffffffffff1673ffffffffffffffffffffffffffffffffffffffff16815260200190815260200160002060008373ffffffffffffffffffffffffffffffffffffffff1673ffffffffffffffffffffffffffffffffffffffff16815260200190815260200160002054905092915050565b600033905090565b600073ffffffffffffffffffffffffffffffffffffffff168373ffffffffffffffffffffffffffffffffffffffff1614156109ed576040517f08c379a00000000000000000000000000000000000000000000000000000000081526004016109e4906116e3565b60405180910390fd5b600073ffffffffffffffffffffffffffffffffffffffff168273ffffffffffffffffffffffffffffffffffffffff161415610a5d576040517f08c379a0000000000000000000000000000000000000000000000000000000008152600401610a5490611775565b60405180910390fd5b80600160008573ffffffffffffffffffffffffffffffffffffffff1673ffffffffffffffffffffffffffffffffffffffff16815260200190815260200160002060008473ffffffffffffffffffffffffffffffffffffffff1673ffffffffffffffffffffffffffffffffffffffff168152602001908152602001600020819055508173ffffffffffffffffffffffffffffffffffffffff168373ffffffffffffffffffffffffffffffffffffffff167f8c5be1e5ebec7d5bd14f71427d1e84f3dd0314c0f7b2291e5b200ac8c7c3b92583604051610b3b919061108f565b60405180910390a3505050565b6000610b5484846108ee565b90507fffffffffffffffffffffffffffffffffffffffffffffffffffffffffffffffff8114610bce5781811015610bc0576040517f08c379a0000000000000000000000000000000000000000000000000000000008152600401610bb7906117e1565b60405180910390fd5b610bcd848484840361097d565b5b50505050565b600073ffffffffffffffffffffffffffffffffffffffff168373ffffffffffffffffffffffffffffffffffffffff161415610c44576040517f08c379a0000000000000000000000000000000000000000000000000000000008152600401610c3b90611873565b60405180910390fd5b600073ffffffffffffffffffffffffffffffffffffffff168273ffffffffffffffffffffffffffffffffffffffff161415610cb4576040517f08c379a0000000000000000000000000000000000000000000000000000000008152600401610cab90611905565b60405180910390fd5b610cbf838383610e55565b60008060008573ffffffffffffffffffffffffffffffffffffffff1673ffffffffffffffffffffffffffffffffffffffff16815260200190815260200160002054905081811015610d45576040517f08c379a0000000000000000000000000000000000000000000000000000000008152600401610d3c90611997565b60405180910390fd5b8181036000808673ffffffffffffffffffffffffffffffffffffffff1673ffffffffffffffffffffffffffffffffffffffff16815260200190815260200160002081905550816000808573ffffffffffffffffffffffffffffffffffffffff1673ffffffffffffffffffffffffffffffffffffffff1681526020019081526020016000206000828254610dd89190611311565b925050819055508273ffffffffffffffffffffffffffffffffffffffff168473ffffffffffffffffffffffffffffffffffffffff167fddf252ad1be2c89b69c2b068fc378daa952ba7f163c4a11628f55a4df523b3ef84604051610e3c919061108f565b60405180910390a3610e4f848484610e5a565b50505050565b505050565b505050565b600081519050919050565b600082825260208201905092915050565b60005b83811015610e99578082015181840152602081019050610e7e565b83811115610ea8576000848401525b50505050565b6000601f19601f8301169050919050565b6000610eca82610e5f565b610ed48185610e6a565b9350610ee4818560208601610e7b565b610eed81610eae565b840191505092915050565b60006020820190508181036000830152610f128184610ebf565b905092915050565b600080fd5b600073ffffffffffffffffffffffffffffffffffffffff82169050919050565b6000610f4a82610f1f565b9050919050565b610f5a81610f3f565b8114610f6557600080fd5b50565b600081359050610f7781610f51565b92915050565b6000819050919050565b610f9081610f7d565b8114610f9b57600080fd5b50565b600081359050610fad81610f87565b92915050565b60008060408385031215610fca57610fc9610f1a565b5b6000610fd885828601610f68565b9250506020610fe985828601610f9e565b9150509250929050565b60008115159050919050565b61100881610ff3565b82525050565b60006020820190506110236000830184610fff565b92915050565b60006020828403121561103f5761103e610f1a565b5b600061104d84828501610f9e565b91505092915050565b61105f81610f3f565b82525050565b600060208201905061107a6000830184611056565b92915050565b61108981610f7d565b82525050565b60006020820190506110a46000830184611080565b92915050565b6000806000606084860312156110c3576110c2610f1a565b5b60006110d186828701610f68565b93505060206110e286828701610f68565b92505060406110f386828701610f9e565b9150509250925092565b600060ff82169050919050565b611113816110fd565b82525050565b600060208201905061112e600083018461110a565b92915050565b60006020828403121561114a57611149610f1a565b5b600061115884828501610f68565b91505092915050565b600081519050919050565b600082825260208201905092915050565b6000819050602082019050919050565b61119681610f3f565b82525050565b60006111a8838361118d565b60208301905092915050565b6000602082019050919050565b60006111cc82611161565b6111d6818561116c565b93506111e18361117d565b8060005b838110156112125781516111f9888261119c565b9750611204836111b4565b9250506001810190506111e5565b5085935050505092915050565b6000602082019050818103600083015261123981846111c1565b905092915050565b6000806040838503121561125857611257610f1a565b5b600061126685828601610f68565b925050602061127785828601610f68565b9150509250929050565b7f4e487b7100000000000000000000000000000000000000000000000000000000600052602260045260246000fd5b600060028204905060018216806112c857607f821691505b602082108114156112dc576112db611281565b5b50919050565b7f4e487b7100000000000000000000000000000000000000000000000000000000600052601160045260246000fd5b600061131c82610f7d565b915061132783610f7d565b9250827fffffffffffffffffffffffffffffffffffffffffffffffffffffffffffffffff0382111561135c5761135b6112e2565b5b828201905092915050565b7f496e73756666696369656e742062616c616e6365210000000000000000000000600082015250565b600061139d601583610e6a565b91506113a882611367565b602082019050919050565b600060208201905081810360008301526113cc81611390565b9050919050565b60008160011c9050919050565b6000808291508390505b600185111561142a57808604811115611406576114056112e2565b5b60018516156114155780820291505b8081029050611423856113d3565b94506113ea565b94509492505050565b60008261144357600190506114ff565b8161145157600090506114ff565b81600181146114675760028114611471576114a0565b60019150506114ff565b60ff841115611483576114826112e2565b5b8360020a91508482111561149a576114996112e2565b5b506114ff565b5060208310610133831016604e8410600b84101617156114d55782820a9050838111156114d0576114cf6112e2565b5b6114ff565b6114e284848460016113e0565b925090508184048111156114f9576114f86112e2565b5b81810290505b9392505050565b600061151182610f7d565b915061151c83610f7d565b92506115497fffffffffffffffffffffffffffffffffffffffffffffffffffffffffffffffff8484611433565b905092915050565b600061155c82610f7d565b915061156783610f7d565b9250817fffffffffffffffffffffffffffffffffffffffffffffffffffffffffffffffff04831182151516156115a05761159f6112e2565b5b828202905092915050565b60006115b682610f7d565b91506115c183610f7d565b9250828210156115d4576115d36112e2565b5b828203905092915050565b7f45524332303a2064656372656173656420616c6c6f77616e63652062656c6f7760008201527f207a65726f000000000000000000000000000000000000000000000000000000602082015250565b600061163b602583610e6a565b9150611646826115df565b604082019050919050565b6000602082019050818103600083015261166a8161162e565b9050919050565b7f45524332303a20617070726f76652066726f6d20746865207a65726f2061646460008201527f7265737300000000000000000000000000000000000000000000000000000000602082015250565b60006116cd602483610e6a565b91506116d882611671565b604082019050919050565b600060208201905081810360008301526116fc816116c0565b9050919050565b7f45524332303a20617070726f766520746f20746865207a65726f20616464726560008201527f7373000000000000000000000000000000000000000000000000000000000000602082015250565b600061175f602283610e6a565b915061176a82611703565b604082019050919050565b6000602082019050818103600083015261178e81611752565b9050919050565b7f45524332303a20696e73756666696369656e7420616c6c6f77616e6365000000600082015250565b60006117cb601d83610e6a565b91506117d682611795565b602082019050919050565b600060208201905081810360008301526117fa816117be565b9050919050565b7f45524332303a207472616e736665722066726f6d20746865207a65726f20616460008201527f6472657373000000000000000000000000000000000000000000000000000000602082015250565b600061185d602583610e6a565b915061186882611801565b604082019050919050565b6000602082019050818103600083015261188c81611850565b9050919050565b7f45524332303a207472616e7366657220746f20746865207a65726f206164647260008201527f6573730000000000000000000000000000000000000000000000000000000000602082015250565b60006118ef602383610e6a565b91506118fa82611893565b604082019050919050565b6000602082019050818103600083015261191e816118e2565b9050919050565b7f45524332303a207472616e7366657220616d6f756e742065786365656473206260008201527f616c616e63650000000000000000000000000000000000000000000000000000602082015250565b6000611981602683610e6a565b915061198c82611925565b604082019050919050565b600060208201905081810360008301526119b081611974565b905091905056fea26469706673582212201298e464a422b3a590ef5097bd16efe983c6acb91164d18df9b746be6b1643dc64736f6c63430008090033",
  "linkReferences": {},
  "deployedLinkReferences": {}
}