{
  "_format": "hh-sol-artifact-1",
  "contractName": "NFTMarket",
  "sourceName": "contracts/NFTMarket.sol",
  "abi": [
    {
      "inputs": [],
      "stateMutability": "nonpayable",
      "type": "constructor"
    },
    {
      "anonymous": false,
      "inputs": [
        {
          "indexed": true,
          "internalType": "uint256",
          "name": "itemId",
          "type": "uint256"
        },
        {
          "indexed": true,
          "internalType": "address",
          "name": "nftContract",
          "type": "address"
        },
        {
          "indexed": true,
          "internalType": "uint256",
          "name": "tokenId",
          "type": "uint256"
        },
        {
          "indexed": false,
          "internalType": "address",
          "name": "seller",
          "type": "address"
        },
        {
          "indexed": false,
          "internalType": "address",
          "name": "owner",
          "type": "address"
        },
        {
          "indexed": false,
          "internalType": "uint256",
          "name": "price",
          "type": "uint256"
        },
        {
          "indexed": false,
          "internalType": "bool",
          "name": "sold",
          "type": "bool"
        }
      ],
      "name": "MarketItemCreated",
      "type": "event"
    },
    {
      "inputs": [
        {
          "internalType": "address",
          "name": "nftContract",
          "type": "address"
        },
        {
          "internalType": "uint256",
          "name": "tokenId",
          "type": "uint256"
        },
        {
          "internalType": "uint256",
          "name": "price",
          "type": "uint256"
        }
      ],
      "name": "createMarketItem",
      "outputs": [],
      "stateMutability": "payable",
      "type": "function"
    },
    {
      "inputs": [
        {
          "internalType": "address",
          "name": "nftContract",
          "type": "address"
        },
        {
          "internalType": "uint256",
          "name": "itemId",
          "type": "uint256"
        }
      ],
      "name": "createMarketSale",
      "outputs": [],
      "stateMutability": "payable",
      "type": "function"
    },
    {
      "inputs": [],
      "name": "fetchItemsCreated",
      "outputs": [
        {
          "components": [
            {
              "internalType": "uint256",
              "name": "itemId",
              "type": "uint256"
            },
            {
              "internalType": "address",
              "name": "nftContract",
              "type": "address"
            },
            {
              "internalType": "uint256",
              "name": "tokenId",
              "type": "uint256"
            },
            {
              "internalType": "address payable",
              "name": "seller",
              "type": "address"
            },
            {
              "internalType": "address payable",
              "name": "owner",
              "type": "address"
            },
            {
              "internalType": "uint256",
              "name": "price",
              "type": "uint256"
            },
            {
              "internalType": "bool",
              "name": "sold",
              "type": "bool"
            }
          ],
          "internalType": "struct NFTMarket.MarketItem[]",
          "name": "",
          "type": "tuple[]"
        }
      ],
      "stateMutability": "view",
      "type": "function"
    },
    {
      "inputs": [],
      "name": "fetchMarketItems",
      "outputs": [
        {
          "components": [
            {
              "internalType": "uint256",
              "name": "itemId",
              "type": "uint256"
            },
            {
              "internalType": "address",
              "name": "nftContract",
              "type": "address"
            },
            {
              "internalType": "uint256",
              "name": "tokenId",
              "type": "uint256"
            },
            {
              "internalType": "address payable",
              "name": "seller",
              "type": "address"
            },
            {
              "internalType": "address payable",
              "name": "owner",
              "type": "address"
            },
            {
              "internalType": "uint256",
              "name": "price",
              "type": "uint256"
            },
            {
              "internalType": "bool",
              "name": "sold",
              "type": "bool"
            }
          ],
          "internalType": "struct NFTMarket.MarketItem[]",
          "name": "",
          "type": "tuple[]"
        }
      ],
      "stateMutability": "view",
      "type": "function"
    },
    {
      "inputs": [],
      "name": "fetchMyNFTs",
      "outputs": [
        {
          "components": [
            {
              "internalType": "uint256",
              "name": "itemId",
              "type": "uint256"
            },
            {
              "internalType": "address",
              "name": "nftContract",
              "type": "address"
            },
            {
              "internalType": "uint256",
              "name": "tokenId",
              "type": "uint256"
            },
            {
              "internalType": "address payable",
              "name": "seller",
              "type": "address"
            },
            {
              "internalType": "address payable",
              "name": "owner",
              "type": "address"
            },
            {
              "internalType": "uint256",
              "name": "price",
              "type": "uint256"
            },
            {
              "internalType": "bool",
              "name": "sold",
              "type": "bool"
            }
          ],
          "internalType": "struct NFTMarket.MarketItem[]",
          "name": "",
          "type": "tuple[]"
        }
      ],
      "stateMutability": "view",
      "type": "function"
    },
    {
      "inputs": [],
      "name": "getListingPrice",
      "outputs": [
        {
          "internalType": "uint256",
          "name": "",
          "type": "uint256"
        }
      ],
      "stateMutability": "view",
      "type": "function"
    }
  ],
  "bytecode": "0x60806040526658d15e1762800060045534801561001b57600080fd5b50600160008190555033600360006101000a81548173ffffffffffffffffffffffffffffffffffffffff021916908373ffffffffffffffffffffffffffffffffffffffff1602179055506118f7806100746000396000f3fe6080604052600436106100555760003560e01c80630f08efe01461005a57806312e8558514610085578063202e3740146100b057806358eb2df5146100db578063c23b139e146100f7578063f064c32e14610113575b600080fd5b34801561006657600080fd5b5061006f61013e565b60405161007c919061137f565b60405180910390f35b34801561009157600080fd5b5061009a61041d565b6040516100a791906113b0565b60405180910390f35b3480156100bc57600080fd5b506100c5610427565b6040516100d2919061137f565b60405180910390f35b6100f560048036038101906100f09190611428565b610789565b005b610111600480360381019061010c919061147b565b610aed565b005b34801561011f57600080fd5b50610128610da5565b604051610135919061137f565b60405180910390f35b6060600061014c6001611107565b9050600061015a6002611107565b6101646001611107565b61016e91906114ea565b90506000808267ffffffffffffffff81111561018d5761018c61151e565b5b6040519080825280602002602001820160405280156101c657816020015b6101b361112b565b8152602001906001900390816101ab5790505b50905060005b8481101561041257600073ffffffffffffffffffffffffffffffffffffffff16600560006001846101fd919061154d565b815260200190815260200160002060040160009054906101000a900473ffffffffffffffffffffffffffffffffffffffff1673ffffffffffffffffffffffffffffffffffffffff16036103ff5760006005600060018461025d919061154d565b81526020019081526020016000206000015490506000600560008381526020019081526020016000209050806040518060e0016040529081600082015481526020016001820160009054906101000a900473ffffffffffffffffffffffffffffffffffffffff1673ffffffffffffffffffffffffffffffffffffffff1673ffffffffffffffffffffffffffffffffffffffff168152602001600282015481526020016003820160009054906101000a900473ffffffffffffffffffffffffffffffffffffffff1673ffffffffffffffffffffffffffffffffffffffff1673ffffffffffffffffffffffffffffffffffffffff1681526020016004820160009054906101000a900473ffffffffffffffffffffffffffffffffffffffff1673ffffffffffffffffffffffffffffffffffffffff1673ffffffffffffffffffffffffffffffffffffffff168152602001600582015481526020016006820160009054906101000a900460ff1615151515815250508486815181106103e2576103e16115a3565b5b60200260200101819052506001856103fa919061154d565b945050505b808061040a906115d2565b9150506101cc565b508094505050505090565b6000600454905090565b606060006104356001611107565b905060008060005b828110156104dd573373ffffffffffffffffffffffffffffffffffffffff166005600060018461046d919061154d565b815260200190815260200160002060040160009054906101000a900473ffffffffffffffffffffffffffffffffffffffff1673ffffffffffffffffffffffffffffffffffffffff16036104ca576001836104c7919061154d565b92505b80806104d5906115d2565b91505061043d565b5060008267ffffffffffffffff8111156104fa576104f961151e565b5b60405190808252806020026020018201604052801561053357816020015b61052061112b565b8152602001906001900390816105185790505b50905060005b8381101561077e573373ffffffffffffffffffffffffffffffffffffffff1660056000600184610569919061154d565b815260200190815260200160002060040160009054906101000a900473ffffffffffffffffffffffffffffffffffffffff1673ffffffffffffffffffffffffffffffffffffffff160361076b576000600560006001846105c9919061154d565b81526020019081526020016000206000015490506000600560008381526020019081526020016000209050806040518060e0016040529081600082015481526020016001820160009054906101000a900473ffffffffffffffffffffffffffffffffffffffff1673ffffffffffffffffffffffffffffffffffffffff1673ffffffffffffffffffffffffffffffffffffffff168152602001600282015481526020016003820160009054906101000a900473ffffffffffffffffffffffffffffffffffffffff1673ffffffffffffffffffffffffffffffffffffffff1673ffffffffffffffffffffffffffffffffffffffff1681526020016004820160009054906101000a900473ffffffffffffffffffffffffffffffffffffffff1673ffffffffffffffffffffffffffffffffffffffff1673ffffffffffffffffffffffffffffffffffffffff168152602001600582015481526020016006820160009054906101000a900460ff16151515158152505084868151811061074e5761074d6115a3565b5b6020026020010181905250600185610766919061154d565b945050505b8080610776906115d2565b915050610539565b508094505050505090565b6002600054036107ce576040517f08c379a00000000000000000000000000000000000000000000000000000000081526004016107c590611677565b60405180910390fd5b600260008190555060008111610819576040517f08c379a0000000000000000000000000000000000000000000000000000000008152600401610810906116e3565b60405180910390fd5b60045434101561085e576040517f08c379a000000000000000000000000000000000000000000000000000000000815260040161085590611775565b60405180910390fd5b6108686001611115565b60006108746001611107565b90506040518060e001604052808281526020018573ffffffffffffffffffffffffffffffffffffffff1681526020018481526020013373ffffffffffffffffffffffffffffffffffffffff168152602001600073ffffffffffffffffffffffffffffffffffffffff16815260200183815260200160001515815250600560008381526020019081526020016000206000820151816000015560208201518160010160006101000a81548173ffffffffffffffffffffffffffffffffffffffff021916908373ffffffffffffffffffffffffffffffffffffffff1602179055506040820151816002015560608201518160030160006101000a81548173ffffffffffffffffffffffffffffffffffffffff021916908373ffffffffffffffffffffffffffffffffffffffff16021790555060808201518160040160006101000a81548173ffffffffffffffffffffffffffffffffffffffff021916908373ffffffffffffffffffffffffffffffffffffffff16021790555060a0820151816005015560c08201518160060160006101000a81548160ff0219169083151502179055509050508373ffffffffffffffffffffffffffffffffffffffff166323b872dd3330866040518463ffffffff1660e01b8152600401610a55939291906117a4565b600060405180830381600087803b158015610a6f57600080fd5b505af1158015610a83573d6000803e3d6000fd5b50505050828473ffffffffffffffffffffffffffffffffffffffff16827f045dfa01dcba2b36aba1d3dc4a874f4b0c5d2fbeb8d2c4b34a7d88c8d8f929d1336000876000604051610ad794939291906117ea565b60405180910390a4506001600081905550505050565b600260005403610b32576040517f08c379a0000000000000000000000000000000000000000000000000000000008152600401610b2990611677565b60405180910390fd5b6002600081905550600060056000838152602001908152602001600020600501549050600060056000848152602001908152602001600020600201549050813414610bb2576040517f08c379a0000000000000000000000000000000000000000000000000000000008152600401610ba9906118a1565b60405180910390fd5b6005600084815260200190815260200160002060030160009054906101000a900473ffffffffffffffffffffffffffffffffffffffff1673ffffffffffffffffffffffffffffffffffffffff166108fc349081150290604051600060405180830381858888f19350505050158015610c2e573d6000803e3d6000fd5b508373ffffffffffffffffffffffffffffffffffffffff166323b872dd3033846040518463ffffffff1660e01b8152600401610c6c939291906117a4565b600060405180830381600087803b158015610c8657600080fd5b505af1158015610c9a573d6000803e3d6000fd5b50505050336005600085815260200190815260200160002060040160006101000a81548173ffffffffffffffffffffffffffffffffffffffff021916908373ffffffffffffffffffffffffffffffffffffffff16021790555060016005600085815260200190815260200160002060060160006101000a81548160ff021916908315150217905550610d2c6002611115565b600360009054906101000a900473ffffffffffffffffffffffffffffffffffffffff1673ffffffffffffffffffffffffffffffffffffffff166108fc6004549081150290604051600060405180830381858888f19350505050158015610d96573d6000803e3d6000fd5b50505060016000819055505050565b60606000610db36001611107565b905060008060005b82811015610e5b573373ffffffffffffffffffffffffffffffffffffffff1660056000600184610deb919061154d565b815260200190815260200160002060030160009054906101000a900473ffffffffffffffffffffffffffffffffffffffff1673ffffffffffffffffffffffffffffffffffffffff1603610e4857600183610e45919061154d565b92505b8080610e53906115d2565b915050610dbb565b5060008267ffffffffffffffff811115610e7857610e7761151e565b5b604051908082528060200260200182016040528015610eb157816020015b610e9e61112b565b815260200190600190039081610e965790505b50905060005b838110156110fc573373ffffffffffffffffffffffffffffffffffffffff1660056000600184610ee7919061154d565b815260200190815260200160002060030160009054906101000a900473ffffffffffffffffffffffffffffffffffffffff1673ffffffffffffffffffffffffffffffffffffffff16036110e957600060056000600184610f47919061154d565b81526020019081526020016000206000015490506000600560008381526020019081526020016000209050806040518060e0016040529081600082015481526020016001820160009054906101000a900473ffffffffffffffffffffffffffffffffffffffff1673ffffffffffffffffffffffffffffffffffffffff1673ffffffffffffffffffffffffffffffffffffffff168152602001600282015481526020016003820160009054906101000a900473ffffffffffffffffffffffffffffffffffffffff1673ffffffffffffffffffffffffffffffffffffffff1673ffffffffffffffffffffffffffffffffffffffff1681526020016004820160009054906101000a900473ffffffffffffffffffffffffffffffffffffffff1673ffffffffffffffffffffffffffffffffffffffff1673ffffffffffffffffffffffffffffffffffffffff168152602001600582015481526020016006820160009054906101000a900460ff1615151515815250508486815181106110cc576110cb6115a3565b5b60200260200101819052506001856110e4919061154d565b945050505b80806110f4906115d2565b915050610eb7565b508094505050505090565b600081600001549050919050565b6001816000016000828254019250508190555050565b6040518060e0016040528060008152602001600073ffffffffffffffffffffffffffffffffffffffff16815260200160008152602001600073ffffffffffffffffffffffffffffffffffffffff168152602001600073ffffffffffffffffffffffffffffffffffffffff168152602001600081526020016000151581525090565b600081519050919050565b600082825260208201905092915050565b6000819050602082019050919050565b6000819050919050565b6111eb816111d8565b82525050565b600073ffffffffffffffffffffffffffffffffffffffff82169050919050565b600061121c826111f1565b9050919050565b61122c81611211565b82525050565b600061123d826111f1565b9050919050565b61124d81611232565b82525050565b60008115159050919050565b61126881611253565b82525050565b60e08201600082015161128460008501826111e2565b5060208201516112976020850182611223565b5060408201516112aa60408501826111e2565b5060608201516112bd6060850182611244565b5060808201516112d06080850182611244565b5060a08201516112e360a08501826111e2565b5060c08201516112f660c085018261125f565b50505050565b6000611308838361126e565b60e08301905092915050565b6000602082019050919050565b600061132c826111ac565b61133681856111b7565b9350611341836111c8565b8060005b8381101561137257815161135988826112fc565b975061136483611314565b925050600181019050611345565b5085935050505092915050565b600060208201905081810360008301526113998184611321565b905092915050565b6113aa816111d8565b82525050565b60006020820190506113c560008301846113a1565b92915050565b600080fd5b6113d981611211565b81146113e457600080fd5b50565b6000813590506113f6816113d0565b92915050565b611405816111d8565b811461141057600080fd5b50565b600081359050611422816113fc565b92915050565b600080600060608486031215611441576114406113cb565b5b600061144f868287016113e7565b935050602061146086828701611413565b925050604061147186828701611413565b9150509250925092565b60008060408385031215611492576114916113cb565b5b60006114a0858286016113e7565b92505060206114b185828601611413565b9150509250929050565b7f4e487b7100000000000000000000000000000000000000000000000000000000600052601160045260246000fd5b60006114f5826111d8565b9150611500836111d8565b925082821015611513576115126114bb565b5b828203905092915050565b7f4e487b7100000000000000000000000000000000000000000000000000000000600052604160045260246000fd5b6000611558826111d8565b9150611563836111d8565b9250827fffffffffffffffffffffffffffffffffffffffffffffffffffffffffffffffff03821115611598576115976114bb565b5b828201905092915050565b7f4e487b7100000000000000000000000000000000000000000000000000000000600052603260045260246000fd5b60006115dd826111d8565b91507fffffffffffffffffffffffffffffffffffffffffffffffffffffffffffffffff820361160f5761160e6114bb565b5b600182019050919050565b600082825260208201905092915050565b7f5265656e7472616e637947756172643a207265656e7472616e742063616c6c00600082015250565b6000611661601f8361161a565b915061166c8261162b565b602082019050919050565b6000602082019050818103600083015261169081611654565b9050919050565b7f5072696365206d757374206265206174206c6561737420312077656921000000600082015250565b60006116cd601d8361161a565b91506116d882611697565b602082019050919050565b600060208201905081810360008301526116fc816116c0565b9050919050565b7f5072696365206d757374206265206174206c6561737420657175616c20746f2060008201527f6c697374696e6720707269636521000000000000000000000000000000000000602082015250565b600061175f602e8361161a565b915061176a82611703565b604082019050919050565b6000602082019050818103600083015261178e81611752565b9050919050565b61179e81611211565b82525050565b60006060820190506117b96000830186611795565b6117c66020830185611795565b6117d360408301846113a1565b949350505050565b6117e481611253565b82525050565b60006080820190506117ff6000830187611795565b61180c6020830186611795565b61181960408301856113a1565b61182660608301846117db565b95945050505050565b7f506c65617365207375626d69742061207375697461626c652061736b696e672060008201527f7072696365000000000000000000000000000000000000000000000000000000602082015250565b600061188b60258361161a565b91506118968261182f565b604082019050919050565b600060208201905081810360008301526118ba8161187e565b905091905056fea2646970667358221220f14b3d87b456cd6b4488e5334a75d83baa2c19076ca44c4bc6d5e0e6d6675d6c64736f6c634300080f0033",
  "linkReferences": {},
  "deployedLinkReferences": {}
}