{
  "_format": "hh-sol-artifact-1",
  "contractName": "NFTMarket",
  "sourceName": "contracts/NFTMarket.sol",
  "abi": [
    {
      "inputs": [],
      "stateMutability": "nonpayable",
      "type": "constructor"
    },
    {
      "anonymous": false,
      "inputs": [
        {
          "indexed": true,
          "internalType": "uint256",
          "name": "itemId",
          "type": "uint256"
        },
        {
          "indexed": true,
          "internalType": "address",
          "name": "nftContract",
          "type": "address"
        },
        {
          "indexed": true,
          "internalType": "uint256",
          "name": "tokenId",
          "type": "uint256"
        },
        {
          "indexed": false,
          "internalType": "address",
          "name": "seller",
          "type": "address"
        },
        {
          "indexed": false,
          "internalType": "address",
          "name": "owner",
          "type": "address"
        },
        {
          "indexed": false,
          "internalType": "uint256",
          "name": "price",
          "type": "uint256"
        },
        {
          "indexed": false,
          "internalType": "bool",
          "name": "sold",
          "type": "bool"
        }
      ],
      "name": "MarketItemCreated",
      "type": "event"
    },
    {
      "inputs": [
        {
          "internalType": "address",
          "name": "nftContract",
          "type": "address"
        },
        {
          "internalType": "uint256",
          "name": "tokenId",
          "type": "uint256"
        },
        {
          "internalType": "uint256",
          "name": "price",
          "type": "uint256"
        }
      ],
      "name": "createMarketItem",
      "outputs": [],
      "stateMutability": "payable",
      "type": "function"
    },
    {
      "inputs": [
        {
          "internalType": "address",
          "name": "nftContract",
          "type": "address"
        },
        {
          "internalType": "uint256",
          "name": "itemId",
          "type": "uint256"
        }
      ],
      "name": "createMarketSale",
      "outputs": [],
      "stateMutability": "payable",
      "type": "function"
    },
    {
      "inputs": [],
      "name": "fetchItemsCreated",
      "outputs": [
        {
          "components": [
            {
              "internalType": "uint256",
              "name": "itemId",
              "type": "uint256"
            },
            {
              "internalType": "address",
              "name": "nftContract",
              "type": "address"
            },
            {
              "internalType": "uint256",
              "name": "tokenId",
              "type": "uint256"
            },
            {
              "internalType": "address payable",
              "name": "seller",
              "type": "address"
            },
            {
              "internalType": "address payable",
              "name": "owner",
              "type": "address"
            },
            {
              "internalType": "uint256",
              "name": "price",
              "type": "uint256"
            },
            {
              "internalType": "bool",
              "name": "sold",
              "type": "bool"
            }
          ],
          "internalType": "struct NFTMarket.MarketItem[]",
          "name": "",
          "type": "tuple[]"
        }
      ],
      "stateMutability": "view",
      "type": "function"
    },
    {
      "inputs": [],
      "name": "fetchMarketItems",
      "outputs": [
        {
          "components": [
            {
              "internalType": "uint256",
              "name": "itemId",
              "type": "uint256"
            },
            {
              "internalType": "address",
              "name": "nftContract",
              "type": "address"
            },
            {
              "internalType": "uint256",
              "name": "tokenId",
              "type": "uint256"
            },
            {
              "internalType": "address payable",
              "name": "seller",
              "type": "address"
            },
            {
              "internalType": "address payable",
              "name": "owner",
              "type": "address"
            },
            {
              "internalType": "uint256",
              "name": "price",
              "type": "uint256"
            },
            {
              "internalType": "bool",
              "name": "sold",
              "type": "bool"
            }
          ],
          "internalType": "struct NFTMarket.MarketItem[]",
          "name": "",
          "type": "tuple[]"
        }
      ],
      "stateMutability": "view",
      "type": "function"
    },
    {
      "inputs": [],
      "name": "fetchMyNFTs",
      "outputs": [
        {
          "components": [
            {
              "internalType": "uint256",
              "name": "itemId",
              "type": "uint256"
            },
            {
              "internalType": "address",
              "name": "nftContract",
              "type": "address"
            },
            {
              "internalType": "uint256",
              "name": "tokenId",
              "type": "uint256"
            },
            {
              "internalType": "address payable",
              "name": "seller",
              "type": "address"
            },
            {
              "internalType": "address payable",
              "name": "owner",
              "type": "address"
            },
            {
              "internalType": "uint256",
              "name": "price",
              "type": "uint256"
            },
            {
              "internalType": "bool",
              "name": "sold",
              "type": "bool"
            }
          ],
          "internalType": "struct NFTMarket.MarketItem[]",
          "name": "",
          "type": "tuple[]"
        }
      ],
      "stateMutability": "view",
      "type": "function"
    },
    {
      "inputs": [],
      "name": "getListingPrice",
      "outputs": [
        {
          "internalType": "uint256",
          "name": "",
          "type": "uint256"
        }
      ],
      "stateMutability": "view",
      "type": "function"
    }
  ],
  "bytecode": "0x60806040526658d15e1762800060045534801561001b57600080fd5b50600160008190555033600360006101000a81548173ffffffffffffffffffffffffffffffffffffffff021916908373ffffffffffffffffffffffffffffffffffffffff1602179055506118ff806100746000396000f3fe6080604052600436106100555760003560e01c80630f08efe01461005a57806312e8558514610085578063202e3740146100b057806358eb2df5146100db578063c23b139e146100f7578063f064c32e14610113575b600080fd5b34801561006657600080fd5b5061006f61013e565b60405161007c9190611386565b60405180910390f35b34801561009157600080fd5b5061009a61041e565b6040516100a791906113b7565b60405180910390f35b3480156100bc57600080fd5b506100c5610428565b6040516100d29190611386565b60405180910390f35b6100f560048036038101906100f0919061142f565b61078c565b005b610111600480360381019061010c9190611482565b610af1565b005b34801561011f57600080fd5b50610128610daa565b6040516101359190611386565b60405180910390f35b6060600061014c600161110e565b9050600061015a600261110e565b610164600161110e565b61016e91906114f1565b90506000808267ffffffffffffffff81111561018d5761018c611525565b5b6040519080825280602002602001820160405280156101c657816020015b6101b3611132565b8152602001906001900390816101ab5790505b50905060005b8481101561041357600073ffffffffffffffffffffffffffffffffffffffff16600560006001846101fd9190611554565b815260200190815260200160002060040160009054906101000a900473ffffffffffffffffffffffffffffffffffffffff1673ffffffffffffffffffffffffffffffffffffffff1614156104005760006005600060018461025e9190611554565b81526020019081526020016000206000015490506000600560008381526020019081526020016000209050806040518060e0016040529081600082015481526020016001820160009054906101000a900473ffffffffffffffffffffffffffffffffffffffff1673ffffffffffffffffffffffffffffffffffffffff1673ffffffffffffffffffffffffffffffffffffffff168152602001600282015481526020016003820160009054906101000a900473ffffffffffffffffffffffffffffffffffffffff1673ffffffffffffffffffffffffffffffffffffffff1673ffffffffffffffffffffffffffffffffffffffff1681526020016004820160009054906101000a900473ffffffffffffffffffffffffffffffffffffffff1673ffffffffffffffffffffffffffffffffffffffff1673ffffffffffffffffffffffffffffffffffffffff168152602001600582015481526020016006820160009054906101000a900460ff1615151515815250508486815181106103e3576103e26115aa565b5b60200260200101819052506001856103fb9190611554565b945050505b808061040b906115d9565b9150506101cc565b508094505050505090565b6000600454905090565b60606000610436600161110e565b905060008060005b828110156104df573373ffffffffffffffffffffffffffffffffffffffff166005600060018461046e9190611554565b815260200190815260200160002060040160009054906101000a900473ffffffffffffffffffffffffffffffffffffffff1673ffffffffffffffffffffffffffffffffffffffff1614156104cc576001836104c99190611554565b92505b80806104d7906115d9565b91505061043e565b5060008267ffffffffffffffff8111156104fc576104fb611525565b5b60405190808252806020026020018201604052801561053557816020015b610522611132565b81526020019060019003908161051a5790505b50905060005b83811015610781573373ffffffffffffffffffffffffffffffffffffffff166005600060018461056b9190611554565b815260200190815260200160002060040160009054906101000a900473ffffffffffffffffffffffffffffffffffffffff1673ffffffffffffffffffffffffffffffffffffffff16141561076e576000600560006001846105cc9190611554565b81526020019081526020016000206000015490506000600560008381526020019081526020016000209050806040518060e0016040529081600082015481526020016001820160009054906101000a900473ffffffffffffffffffffffffffffffffffffffff1673ffffffffffffffffffffffffffffffffffffffff1673ffffffffffffffffffffffffffffffffffffffff168152602001600282015481526020016003820160009054906101000a900473ffffffffffffffffffffffffffffffffffffffff1673ffffffffffffffffffffffffffffffffffffffff1673ffffffffffffffffffffffffffffffffffffffff1681526020016004820160009054906101000a900473ffffffffffffffffffffffffffffffffffffffff1673ffffffffffffffffffffffffffffffffffffffff1673ffffffffffffffffffffffffffffffffffffffff168152602001600582015481526020016006820160009054906101000a900460ff161515151581525050848681518110610751576107506115aa565b5b60200260200101819052506001856107699190611554565b945050505b8080610779906115d9565b91505061053b565b508094505050505090565b600260005414156107d2576040517f08c379a00000000000000000000000000000000000000000000000000000000081526004016107c99061167f565b60405180910390fd5b60026000819055506000811161081d576040517f08c379a0000000000000000000000000000000000000000000000000000000008152600401610814906116eb565b60405180910390fd5b600454341015610862576040517f08c379a00000000000000000000000000000000000000000000000000000000081526004016108599061177d565b60405180910390fd5b61086c600161111c565b6000610878600161110e565b90506040518060e001604052808281526020018573ffffffffffffffffffffffffffffffffffffffff1681526020018481526020013373ffffffffffffffffffffffffffffffffffffffff168152602001600073ffffffffffffffffffffffffffffffffffffffff16815260200183815260200160001515815250600560008381526020019081526020016000206000820151816000015560208201518160010160006101000a81548173ffffffffffffffffffffffffffffffffffffffff021916908373ffffffffffffffffffffffffffffffffffffffff1602179055506040820151816002015560608201518160030160006101000a81548173ffffffffffffffffffffffffffffffffffffffff021916908373ffffffffffffffffffffffffffffffffffffffff16021790555060808201518160040160006101000a81548173ffffffffffffffffffffffffffffffffffffffff021916908373ffffffffffffffffffffffffffffffffffffffff16021790555060a0820151816005015560c08201518160060160006101000a81548160ff0219169083151502179055509050508373ffffffffffffffffffffffffffffffffffffffff166323b872dd3330866040518463ffffffff1660e01b8152600401610a59939291906117ac565b600060405180830381600087803b158015610a7357600080fd5b505af1158015610a87573d6000803e3d6000fd5b50505050828473ffffffffffffffffffffffffffffffffffffffff16827f045dfa01dcba2b36aba1d3dc4a874f4b0c5d2fbeb8d2c4b34a7d88c8d8f929d1336000876000604051610adb94939291906117f2565b60405180910390a4506001600081905550505050565b60026000541415610b37576040517f08c379a0000000000000000000000000000000000000000000000000000000008152600401610b2e9061167f565b60405180910390fd5b6002600081905550600060056000838152602001908152602001600020600501549050600060056000848152602001908152602001600020600201549050813414610bb7576040517f08c379a0000000000000000000000000000000000000000000000000000000008152600401610bae906118a9565b60405180910390fd5b6005600084815260200190815260200160002060030160009054906101000a900473ffffffffffffffffffffffffffffffffffffffff1673ffffffffffffffffffffffffffffffffffffffff166108fc349081150290604051600060405180830381858888f19350505050158015610c33573d6000803e3d6000fd5b508373ffffffffffffffffffffffffffffffffffffffff166323b872dd3033846040518463ffffffff1660e01b8152600401610c71939291906117ac565b600060405180830381600087803b158015610c8b57600080fd5b505af1158015610c9f573d6000803e3d6000fd5b50505050336005600085815260200190815260200160002060040160006101000a81548173ffffffffffffffffffffffffffffffffffffffff021916908373ffffffffffffffffffffffffffffffffffffffff16021790555060016005600085815260200190815260200160002060060160006101000a81548160ff021916908315150217905550610d31600261111c565b600360009054906101000a900473ffffffffffffffffffffffffffffffffffffffff1673ffffffffffffffffffffffffffffffffffffffff166108fc6004549081150290604051600060405180830381858888f19350505050158015610d9b573d6000803e3d6000fd5b50505060016000819055505050565b60606000610db8600161110e565b905060008060005b82811015610e61573373ffffffffffffffffffffffffffffffffffffffff1660056000600184610df09190611554565b815260200190815260200160002060030160009054906101000a900473ffffffffffffffffffffffffffffffffffffffff1673ffffffffffffffffffffffffffffffffffffffff161415610e4e57600183610e4b9190611554565b92505b8080610e59906115d9565b915050610dc0565b5060008267ffffffffffffffff811115610e7e57610e7d611525565b5b604051908082528060200260200182016040528015610eb757816020015b610ea4611132565b815260200190600190039081610e9c5790505b50905060005b83811015611103573373ffffffffffffffffffffffffffffffffffffffff1660056000600184610eed9190611554565b815260200190815260200160002060030160009054906101000a900473ffffffffffffffffffffffffffffffffffffffff1673ffffffffffffffffffffffffffffffffffffffff1614156110f057600060056000600184610f4e9190611554565b81526020019081526020016000206000015490506000600560008381526020019081526020016000209050806040518060e0016040529081600082015481526020016001820160009054906101000a900473ffffffffffffffffffffffffffffffffffffffff1673ffffffffffffffffffffffffffffffffffffffff1673ffffffffffffffffffffffffffffffffffffffff168152602001600282015481526020016003820160009054906101000a900473ffffffffffffffffffffffffffffffffffffffff1673ffffffffffffffffffffffffffffffffffffffff1673ffffffffffffffffffffffffffffffffffffffff1681526020016004820160009054906101000a900473ffffffffffffffffffffffffffffffffffffffff1673ffffffffffffffffffffffffffffffffffffffff1673ffffffffffffffffffffffffffffffffffffffff168152602001600582015481526020016006820160009054906101000a900460ff1615151515815250508486815181106110d3576110d26115aa565b5b60200260200101819052506001856110eb9190611554565b945050505b80806110fb906115d9565b915050610ebd565b508094505050505090565b600081600001549050919050565b6001816000016000828254019250508190555050565b6040518060e0016040528060008152602001600073ffffffffffffffffffffffffffffffffffffffff16815260200160008152602001600073ffffffffffffffffffffffffffffffffffffffff168152602001600073ffffffffffffffffffffffffffffffffffffffff168152602001600081526020016000151581525090565b600081519050919050565b600082825260208201905092915050565b6000819050602082019050919050565b6000819050919050565b6111f2816111df565b82525050565b600073ffffffffffffffffffffffffffffffffffffffff82169050919050565b6000611223826111f8565b9050919050565b61123381611218565b82525050565b6000611244826111f8565b9050919050565b61125481611239565b82525050565b60008115159050919050565b61126f8161125a565b82525050565b60e08201600082015161128b60008501826111e9565b50602082015161129e602085018261122a565b5060408201516112b160408501826111e9565b5060608201516112c4606085018261124b565b5060808201516112d7608085018261124b565b5060a08201516112ea60a08501826111e9565b5060c08201516112fd60c0850182611266565b50505050565b600061130f8383611275565b60e08301905092915050565b6000602082019050919050565b6000611333826111b3565b61133d81856111be565b9350611348836111cf565b8060005b838110156113795781516113608882611303565b975061136b8361131b565b92505060018101905061134c565b5085935050505092915050565b600060208201905081810360008301526113a08184611328565b905092915050565b6113b1816111df565b82525050565b60006020820190506113cc60008301846113a8565b92915050565b600080fd5b6113e081611218565b81146113eb57600080fd5b50565b6000813590506113fd816113d7565b92915050565b61140c816111df565b811461141757600080fd5b50565b60008135905061142981611403565b92915050565b600080600060608486031215611448576114476113d2565b5b6000611456868287016113ee565b93505060206114678682870161141a565b92505060406114788682870161141a565b9150509250925092565b60008060408385031215611499576114986113d2565b5b60006114a7858286016113ee565b92505060206114b88582860161141a565b9150509250929050565b7f4e487b7100000000000000000000000000000000000000000000000000000000600052601160045260246000fd5b60006114fc826111df565b9150611507836111df565b92508282101561151a576115196114c2565b5b828203905092915050565b7f4e487b7100000000000000000000000000000000000000000000000000000000600052604160045260246000fd5b600061155f826111df565b915061156a836111df565b9250827fffffffffffffffffffffffffffffffffffffffffffffffffffffffffffffffff0382111561159f5761159e6114c2565b5b828201905092915050565b7f4e487b7100000000000000000000000000000000000000000000000000000000600052603260045260246000fd5b60006115e4826111df565b91507fffffffffffffffffffffffffffffffffffffffffffffffffffffffffffffffff821415611617576116166114c2565b5b600182019050919050565b600082825260208201905092915050565b7f5265656e7472616e637947756172643a207265656e7472616e742063616c6c00600082015250565b6000611669601f83611622565b915061167482611633565b602082019050919050565b600060208201905081810360008301526116988161165c565b9050919050565b7f5072696365206d757374206265206174206c6561737420312077656921000000600082015250565b60006116d5601d83611622565b91506116e08261169f565b602082019050919050565b60006020820190508181036000830152611704816116c8565b9050919050565b7f5072696365206d757374206265206174206c6561737420657175616c20746f2060008201527f6c697374696e6720707269636521000000000000000000000000000000000000602082015250565b6000611767602e83611622565b91506117728261170b565b604082019050919050565b600060208201905081810360008301526117968161175a565b9050919050565b6117a681611218565b82525050565b60006060820190506117c1600083018661179d565b6117ce602083018561179d565b6117db60408301846113a8565b949350505050565b6117ec8161125a565b82525050565b6000608082019050611807600083018761179d565b611814602083018661179d565b61182160408301856113a8565b61182e60608301846117e3565b95945050505050565b7f506c65617365207375626d69742061207375697461626c652061736b696e672060008201527f7072696365000000000000000000000000000000000000000000000000000000602082015250565b6000611893602583611622565b915061189e82611837565b604082019050919050565b600060208201905081810360008301526118c281611886565b905091905056fea2646970667358221220f4f3ff74e5aa291b7271598d255135e06f2a907075ca9c14d072b1ada85ed38e64736f6c63430008090033",
  "linkReferences": {},
  "deployedLinkReferences": {}
}