{
  "_format": "hh-sol-artifact-1",
  "contractName": "BuyBack",
  "sourceName": "contracts/BuyBack.sol",
  "abi": [
    {
      "inputs": [
        {
          "internalType": "address",
          "name": "_propertyContractNFTAddress",
          "type": "address"
        },
        {
          "internalType": "address",
          "name": "_propertyFractionTokenAddress",
          "type": "address"
        }
      ],
      "stateMutability": "nonpayable",
      "type": "constructor"
    },
    {
      "inputs": [
        {
          "internalType": "address",
          "name": "_buyer",
          "type": "address"
        }
      ],
      "name": "acceptRequest",
      "outputs": [],
      "stateMutability": "nonpayable",
      "type": "function"
    },
    {
      "inputs": [
        {
          "internalType": "address",
          "name": "_fractionalOwner",
          "type": "address"
        }
      ],
      "name": "buyBackPurchase",
      "outputs": [],
      "stateMutability": "payable",
      "type": "function"
    },
    {
      "inputs": [],
      "name": "propertyContractNFTAddress",
      "outputs": [
        {
          "internalType": "address",
          "name": "",
          "type": "address"
        }
      ],
      "stateMutability": "view",
      "type": "function"
    },
    {
      "inputs": [],
      "name": "propertyFractionTokenAddress",
      "outputs": [
        {
          "internalType": "address",
          "name": "",
          "type": "address"
        }
      ],
      "stateMutability": "view",
      "type": "function"
    },
    {
      "inputs": [
        {
          "internalType": "address",
          "name": "",
          "type": "address"
        },
        {
          "internalType": "address",
          "name": "",
          "type": "address"
        }
      ],
      "name": "requestAcceptStatusMap",
      "outputs": [
        {
          "internalType": "bool",
          "name": "",
          "type": "bool"
        }
      ],
      "stateMutability": "view",
      "type": "function"
    },
    {
      "inputs": [
        {
          "internalType": "address",
          "name": "",
          "type": "address"
        }
      ],
      "name": "requestAmountMap",
      "outputs": [
        {
          "internalType": "uint256",
          "name": "tokenBuyBack",
          "type": "uint256"
        },
        {
          "internalType": "uint256",
          "name": "weiValuePerToken",
          "type": "uint256"
        }
      ],
      "stateMutability": "view",
      "type": "function"
    },
    {
      "inputs": [],
      "name": "state",
      "outputs": [
        {
          "internalType": "enum BuyBack.BuyBackState",
          "name": "",
          "type": "uint8"
        }
      ],
      "stateMutability": "view",
      "type": "function"
    },
    {
      "inputs": [
        {
          "internalType": "address",
          "name": "_fractionalOwner",
          "type": "address"
        },
        {
          "internalType": "uint256",
          "name": "_tokenBuyBack",
          "type": "uint256"
        },
        {
          "internalType": "uint256",
          "name": "_weiValuePerToken",
          "type": "uint256"
        }
      ],
      "name": "submitRequest",
      "outputs": [],
      "stateMutability": "nonpayable",
      "type": "function"
    }
  ],
  "bytecode": "0x60806040523480156200001157600080fd5b5060405162000ff838038062000ff8833981810160405281019062000037919062000158565b816000806101000a81548173ffffffffffffffffffffffffffffffffffffffff021916908373ffffffffffffffffffffffffffffffffffffffff1602179055506000600460006101000a81548160ff02191690836002811115620000a0576200009f6200019f565b5b021790555080600160006101000a81548173ffffffffffffffffffffffffffffffffffffffff021916908373ffffffffffffffffffffffffffffffffffffffff1602179055505050620001ce565b600080fd5b600073ffffffffffffffffffffffffffffffffffffffff82169050919050565b60006200012082620000f3565b9050919050565b620001328162000113565b81146200013e57600080fd5b50565b600081519050620001528162000127565b92915050565b60008060408385031215620001725762000171620000ee565b5b6000620001828582860162000141565b9250506020620001958582860162000141565b9150509250929050565b7f4e487b7100000000000000000000000000000000000000000000000000000000600052602160045260246000fd5b610e1a80620001de6000396000f3fe60806040526004361061007b5760003560e01c806374f5a0701161004e57806374f5a0701461013b57806382432e5c14610157578063b32ab97b14610182578063c19d93fb146101bf5761007b565b80630e1fa4e71461008057806315580282146100ab5780632b8cc346146100d4578063331c5768146100fd575b600080fd5b34801561008c57600080fd5b506100956101ea565b6040516100a291906108b9565b60405180910390f35b3480156100b757600080fd5b506100d260048036038101906100cd919061093b565b610210565b005b3480156100e057600080fd5b506100fb60048036038101906100f6919061098e565b610439565b005b34801561010957600080fd5b50610124600480360381019061011f919061098e565b6105cc565b6040516101329291906109ca565b60405180910390f35b6101556004803603810190610150919061098e565b6105f0565b005b34801561016357600080fd5b5061016c610812565b60405161017991906108b9565b60405180910390f35b34801561018e57600080fd5b506101a960048036038101906101a491906109f3565b610836565b6040516101b69190610a4e565b60405180910390f35b3480156101cb57600080fd5b506101d4610865565b6040516101e19190610ae0565b60405180910390f35b600160009054906101000a900473ffffffffffffffffffffffffffffffffffffffff1681565b6000600160009054906101000a900473ffffffffffffffffffffffffffffffffffffffff169050828173ffffffffffffffffffffffffffffffffffffffff166370a08231866040518263ffffffff1660e01b815260040161027191906108b9565b60206040518083038186803b15801561028957600080fd5b505afa15801561029d573d6000803e3d6000fd5b505050506040513d601f19601f820116820180604052508101906102c19190610b10565b1015610302576040517f08c379a00000000000000000000000000000000000000000000000000000000081526004016102f990610bc0565b60405180910390fd5b6000604051806040016040528085815260200184815250905080600260003373ffffffffffffffffffffffffffffffffffffffff1673ffffffffffffffffffffffffffffffffffffffff16815260200190815260200160002060008201518160000155602082015181600101559050506000600360003373ffffffffffffffffffffffffffffffffffffffff1673ffffffffffffffffffffffffffffffffffffffff16815260200190815260200160002060008773ffffffffffffffffffffffffffffffffffffffff1673ffffffffffffffffffffffffffffffffffffffff16815260200190815260200160002060006101000a81548160ff0219169083151502179055506001600460006101000a81548160ff0219169083600281111561042d5761042c610a69565b5b02179055505050505050565b60001515600360008373ffffffffffffffffffffffffffffffffffffffff1673ffffffffffffffffffffffffffffffffffffffff16815260200190815260200160002060003373ffffffffffffffffffffffffffffffffffffffff1673ffffffffffffffffffffffffffffffffffffffff16815260200190815260200160002060009054906101000a900460ff16151514610509576040517f08c379a000000000000000000000000000000000000000000000000000000000815260040161050090610c2c565b60405180910390fd5b6001600360008373ffffffffffffffffffffffffffffffffffffffff1673ffffffffffffffffffffffffffffffffffffffff16815260200190815260200160002060003373ffffffffffffffffffffffffffffffffffffffff1673ffffffffffffffffffffffffffffffffffffffff16815260200190815260200160002060006101000a81548160ff0219169083151502179055506002600460006101000a81548160ff021916908360028111156105c4576105c3610a69565b5b021790555050565b60026020528060005260406000206000915090508060000154908060010154905082565b600260003373ffffffffffffffffffffffffffffffffffffffff1673ffffffffffffffffffffffffffffffffffffffff16815260200190815260200160002060010154600260003373ffffffffffffffffffffffffffffffffffffffff1673ffffffffffffffffffffffffffffffffffffffff168152602001908152602001600020600001546106809190610c7b565b3410156106c2576040517f08c379a00000000000000000000000000000000000000000000000000000000081526004016106b990610d21565b60405180910390fd5b60008173ffffffffffffffffffffffffffffffffffffffff166108fc349081150290604051600060405180830381858888f1935050505090508061073b576040517f08c379a000000000000000000000000000000000000000000000000000000000815260040161073290610d8d565b60405180910390fd5b600160009054906101000a900473ffffffffffffffffffffffffffffffffffffffff1673ffffffffffffffffffffffffffffffffffffffff16638c2b1bd78333600260003373ffffffffffffffffffffffffffffffffffffffff1673ffffffffffffffffffffffffffffffffffffffff168152602001908152602001600020600001546040518463ffffffff1660e01b81526004016107dc93929190610dad565b600060405180830381600087803b1580156107f657600080fd5b505af115801561080a573d6000803e3d6000fd5b505050505050565b60008054906101000a900473ffffffffffffffffffffffffffffffffffffffff1681565b60036020528160005260406000206020528060005260406000206000915091509054906101000a900460ff1681565b600460009054906101000a900460ff1681565b600073ffffffffffffffffffffffffffffffffffffffff82169050919050565b60006108a382610878565b9050919050565b6108b381610898565b82525050565b60006020820190506108ce60008301846108aa565b92915050565b600080fd5b6108e281610898565b81146108ed57600080fd5b50565b6000813590506108ff816108d9565b92915050565b6000819050919050565b61091881610905565b811461092357600080fd5b50565b6000813590506109358161090f565b92915050565b600080600060608486031215610954576109536108d4565b5b6000610962868287016108f0565b935050602061097386828701610926565b925050604061098486828701610926565b9150509250925092565b6000602082840312156109a4576109a36108d4565b5b60006109b2848285016108f0565b91505092915050565b6109c481610905565b82525050565b60006040820190506109df60008301856109bb565b6109ec60208301846109bb565b9392505050565b60008060408385031215610a0a57610a096108d4565b5b6000610a18858286016108f0565b9250506020610a29858286016108f0565b9150509250929050565b60008115159050919050565b610a4881610a33565b82525050565b6000602082019050610a636000830184610a3f565b92915050565b7f4e487b7100000000000000000000000000000000000000000000000000000000600052602160045260246000fd5b60038110610aa957610aa8610a69565b5b50565b6000819050610aba82610a98565b919050565b6000610aca82610aac565b9050919050565b610ada81610abf565b82525050565b6000602082019050610af56000830184610ad1565b92915050565b600081519050610b0a8161090f565b92915050565b600060208284031215610b2657610b256108d4565b5b6000610b3484828501610afb565b91505092915050565b600082825260208201905092915050565b7f4672616374696f6e616c206f776e657220646f6573206e6f742068617665207360008201527f75636820616d6f756e7421000000000000000000000000000000000000000000602082015250565b6000610baa602b83610b3d565b9150610bb582610b4e565b604082019050919050565b60006020820190508181036000830152610bd981610b9d565b9050919050565b7f5265717565737420636f6d706c65746564210000000000000000000000000000600082015250565b6000610c16601283610b3d565b9150610c2182610be0565b602082019050919050565b60006020820190508181036000830152610c4581610c09565b9050919050565b7f4e487b7100000000000000000000000000000000000000000000000000000000600052601160045260246000fd5b6000610c8682610905565b9150610c9183610905565b9250817fffffffffffffffffffffffffffffffffffffffffffffffffffffffffffffffff0483118215151615610cca57610cc9610c4c565b5b828202905092915050565b7f496e73756666696369656e74206d6f6e65792073656e74210000000000000000600082015250565b6000610d0b601883610b3d565b9150610d1682610cd5565b602082019050919050565b60006020820190508181036000830152610d3a81610cfe565b9050919050565b7f4661696c656420746f2073656e64206d6f6e6579210000000000000000000000600082015250565b6000610d77601583610b3d565b9150610d8282610d41565b602082019050919050565b60006020820190508181036000830152610da681610d6a565b9050919050565b6000606082019050610dc260008301866108aa565b610dcf60208301856108aa565b610ddc60408301846109bb565b94935050505056fea2646970667358221220ebc2ff10dea3ac3192039cada844ad7a3df2f9a713dace13217e71db193abbe864736f6c63430008090033",
  "linkReferences": {},
  "deployedLinkReferences": {}
}