{
  "_format": "hh-sol-artifact-1",
  "contractName": "BuyBack",
  "sourceName": "contracts/BuyBack.sol",
  "abi": [
    {
      "inputs": [
        {
          "internalType": "address",
          "name": "_propertyContractNFTAddress",
          "type": "address"
        },
        {
          "internalType": "address",
          "name": "_propertyFractionTokenAddress",
          "type": "address"
        }
      ],
      "stateMutability": "nonpayable",
      "type": "constructor"
    },
    {
      "inputs": [
        {
          "internalType": "address",
          "name": "_buyer",
          "type": "address"
        }
      ],
      "name": "acceptRequest",
      "outputs": [],
      "stateMutability": "nonpayable",
      "type": "function"
    },
    {
      "inputs": [
        {
          "internalType": "address",
          "name": "_fractionalOwner",
          "type": "address"
        }
      ],
      "name": "buyBackPurchase",
      "outputs": [],
      "stateMutability": "payable",
      "type": "function"
    },
    {
      "inputs": [],
      "name": "propertyContractNFTAddress",
      "outputs": [
        {
          "internalType": "address",
          "name": "",
          "type": "address"
        }
      ],
      "stateMutability": "view",
      "type": "function"
    },
    {
      "inputs": [],
      "name": "propertyFractionTokenAddress",
      "outputs": [
        {
          "internalType": "address",
          "name": "",
          "type": "address"
        }
      ],
      "stateMutability": "view",
      "type": "function"
    },
    {
      "inputs": [
        {
          "internalType": "address",
          "name": "",
          "type": "address"
        },
        {
          "internalType": "address",
          "name": "",
          "type": "address"
        }
      ],
      "name": "requestAcceptStatusMap",
      "outputs": [
        {
          "internalType": "bool",
          "name": "",
          "type": "bool"
        }
      ],
      "stateMutability": "view",
      "type": "function"
    },
    {
      "inputs": [
        {
          "internalType": "address",
          "name": "",
          "type": "address"
        }
      ],
      "name": "requestAmountMap",
      "outputs": [
        {
          "internalType": "uint256",
          "name": "tokenBuyBack",
          "type": "uint256"
        },
        {
          "internalType": "uint256",
          "name": "weiValuePerToken",
          "type": "uint256"
        }
      ],
      "stateMutability": "view",
      "type": "function"
    },
    {
      "inputs": [],
      "name": "state",
      "outputs": [
        {
          "internalType": "enum BuyBack.BuyBackState",
          "name": "",
          "type": "uint8"
        }
      ],
      "stateMutability": "view",
      "type": "function"
    },
    {
      "inputs": [
        {
          "internalType": "address",
          "name": "_fractionalOwner",
          "type": "address"
        },
        {
          "internalType": "uint256",
          "name": "_tokenBuyBack",
          "type": "uint256"
        },
        {
          "internalType": "uint256",
          "name": "_weiValuePerToken",
          "type": "uint256"
        }
      ],
      "name": "submitRequest",
      "outputs": [],
      "stateMutability": "nonpayable",
      "type": "function"
    }
  ],
  "bytecode": "0x60806040523480156200001157600080fd5b5060405162000fe938038062000fe9833981810160405281019062000037919062000158565b816000806101000a81548173ffffffffffffffffffffffffffffffffffffffff021916908373ffffffffffffffffffffffffffffffffffffffff1602179055506000600460006101000a81548160ff02191690836002811115620000a0576200009f6200019f565b5b021790555080600160006101000a81548173ffffffffffffffffffffffffffffffffffffffff021916908373ffffffffffffffffffffffffffffffffffffffff1602179055505050620001ce565b600080fd5b600073ffffffffffffffffffffffffffffffffffffffff82169050919050565b60006200012082620000f3565b9050919050565b620001328162000113565b81146200013e57600080fd5b50565b600081519050620001528162000127565b92915050565b60008060408385031215620001725762000171620000ee565b5b6000620001828582860162000141565b9250506020620001958582860162000141565b9150509250929050565b7f4e487b7100000000000000000000000000000000000000000000000000000000600052602160045260246000fd5b610e0b80620001de6000396000f3fe60806040526004361061007b5760003560e01c806374f5a0701161004e57806374f5a0701461013b57806382432e5c14610157578063b32ab97b14610182578063c19d93fb146101bf5761007b565b80630e1fa4e71461008057806315580282146100ab5780632b8cc346146100d4578063331c5768146100fd575b600080fd5b34801561008c57600080fd5b506100956101ea565b6040516100a291906108aa565b60405180910390f35b3480156100b757600080fd5b506100d260048036038101906100cd919061092c565b610210565b005b3480156100e057600080fd5b506100fb60048036038101906100f6919061097f565b61042a565b005b34801561010957600080fd5b50610124600480360381019061011f919061097f565b6105bd565b6040516101329291906109bb565b60405180910390f35b6101556004803603810190610150919061097f565b6105e1565b005b34801561016357600080fd5b5061016c610803565b60405161017991906108aa565b60405180910390f35b34801561018e57600080fd5b506101a960048036038101906101a491906109e4565b610827565b6040516101b69190610a3f565b60405180910390f35b3480156101cb57600080fd5b506101d4610856565b6040516101e19190610ad1565b60405180910390f35b600160009054906101000a900473ffffffffffffffffffffffffffffffffffffffff1681565b6000600160009054906101000a900473ffffffffffffffffffffffffffffffffffffffff169050828173ffffffffffffffffffffffffffffffffffffffff166370a08231866040518263ffffffff1660e01b815260040161027191906108aa565b602060405180830381865afa15801561028e573d6000803e3d6000fd5b505050506040513d601f19601f820116820180604052508101906102b29190610b01565b10156102f3576040517f08c379a00000000000000000000000000000000000000000000000000000000081526004016102ea90610bb1565b60405180910390fd5b6000604051806040016040528085815260200184815250905080600260003373ffffffffffffffffffffffffffffffffffffffff1673ffffffffffffffffffffffffffffffffffffffff16815260200190815260200160002060008201518160000155602082015181600101559050506000600360003373ffffffffffffffffffffffffffffffffffffffff1673ffffffffffffffffffffffffffffffffffffffff16815260200190815260200160002060008773ffffffffffffffffffffffffffffffffffffffff1673ffffffffffffffffffffffffffffffffffffffff16815260200190815260200160002060006101000a81548160ff0219169083151502179055506001600460006101000a81548160ff0219169083600281111561041e5761041d610a5a565b5b02179055505050505050565b60001515600360008373ffffffffffffffffffffffffffffffffffffffff1673ffffffffffffffffffffffffffffffffffffffff16815260200190815260200160002060003373ffffffffffffffffffffffffffffffffffffffff1673ffffffffffffffffffffffffffffffffffffffff16815260200190815260200160002060009054906101000a900460ff161515146104fa576040517f08c379a00000000000000000000000000000000000000000000000000000000081526004016104f190610c1d565b60405180910390fd5b6001600360008373ffffffffffffffffffffffffffffffffffffffff1673ffffffffffffffffffffffffffffffffffffffff16815260200190815260200160002060003373ffffffffffffffffffffffffffffffffffffffff1673ffffffffffffffffffffffffffffffffffffffff16815260200190815260200160002060006101000a81548160ff0219169083151502179055506002600460006101000a81548160ff021916908360028111156105b5576105b4610a5a565b5b021790555050565b60026020528060005260406000206000915090508060000154908060010154905082565b600260003373ffffffffffffffffffffffffffffffffffffffff1673ffffffffffffffffffffffffffffffffffffffff16815260200190815260200160002060010154600260003373ffffffffffffffffffffffffffffffffffffffff1673ffffffffffffffffffffffffffffffffffffffff168152602001908152602001600020600001546106719190610c6c565b3410156106b3576040517f08c379a00000000000000000000000000000000000000000000000000000000081526004016106aa90610d12565b60405180910390fd5b60008173ffffffffffffffffffffffffffffffffffffffff166108fc349081150290604051600060405180830381858888f1935050505090508061072c576040517f08c379a000000000000000000000000000000000000000000000000000000000815260040161072390610d7e565b60405180910390fd5b600160009054906101000a900473ffffffffffffffffffffffffffffffffffffffff1673ffffffffffffffffffffffffffffffffffffffff16638c2b1bd78333600260003373ffffffffffffffffffffffffffffffffffffffff1673ffffffffffffffffffffffffffffffffffffffff168152602001908152602001600020600001546040518463ffffffff1660e01b81526004016107cd93929190610d9e565b600060405180830381600087803b1580156107e757600080fd5b505af11580156107fb573d6000803e3d6000fd5b505050505050565b60008054906101000a900473ffffffffffffffffffffffffffffffffffffffff1681565b60036020528160005260406000206020528060005260406000206000915091509054906101000a900460ff1681565b600460009054906101000a900460ff1681565b600073ffffffffffffffffffffffffffffffffffffffff82169050919050565b600061089482610869565b9050919050565b6108a481610889565b82525050565b60006020820190506108bf600083018461089b565b92915050565b600080fd5b6108d381610889565b81146108de57600080fd5b50565b6000813590506108f0816108ca565b92915050565b6000819050919050565b610909816108f6565b811461091457600080fd5b50565b60008135905061092681610900565b92915050565b600080600060608486031215610945576109446108c5565b5b6000610953868287016108e1565b935050602061096486828701610917565b925050604061097586828701610917565b9150509250925092565b600060208284031215610995576109946108c5565b5b60006109a3848285016108e1565b91505092915050565b6109b5816108f6565b82525050565b60006040820190506109d060008301856109ac565b6109dd60208301846109ac565b9392505050565b600080604083850312156109fb576109fa6108c5565b5b6000610a09858286016108e1565b9250506020610a1a858286016108e1565b9150509250929050565b60008115159050919050565b610a3981610a24565b82525050565b6000602082019050610a546000830184610a30565b92915050565b7f4e487b7100000000000000000000000000000000000000000000000000000000600052602160045260246000fd5b60038110610a9a57610a99610a5a565b5b50565b6000819050610aab82610a89565b919050565b6000610abb82610a9d565b9050919050565b610acb81610ab0565b82525050565b6000602082019050610ae66000830184610ac2565b92915050565b600081519050610afb81610900565b92915050565b600060208284031215610b1757610b166108c5565b5b6000610b2584828501610aec565b91505092915050565b600082825260208201905092915050565b7f4672616374696f6e616c206f776e657220646f6573206e6f742068617665207360008201527f75636820616d6f756e7421000000000000000000000000000000000000000000602082015250565b6000610b9b602b83610b2e565b9150610ba682610b3f565b604082019050919050565b60006020820190508181036000830152610bca81610b8e565b9050919050565b7f5265717565737420636f6d706c65746564210000000000000000000000000000600082015250565b6000610c07601283610b2e565b9150610c1282610bd1565b602082019050919050565b60006020820190508181036000830152610c3681610bfa565b9050919050565b7f4e487b7100000000000000000000000000000000000000000000000000000000600052601160045260246000fd5b6000610c77826108f6565b9150610c82836108f6565b9250817fffffffffffffffffffffffffffffffffffffffffffffffffffffffffffffffff0483118215151615610cbb57610cba610c3d565b5b828202905092915050565b7f496e73756666696369656e74206d6f6e65792073656e74210000000000000000600082015250565b6000610cfc601883610b2e565b9150610d0782610cc6565b602082019050919050565b60006020820190508181036000830152610d2b81610cef565b9050919050565b7f4661696c656420746f2073656e64206d6f6e6579210000000000000000000000600082015250565b6000610d68601583610b2e565b9150610d7382610d32565b602082019050919050565b60006020820190508181036000830152610d9781610d5b565b9050919050565b6000606082019050610db3600083018661089b565b610dc0602083018561089b565b610dcd60408301846109ac565b94935050505056fea2646970667358221220bb54c15c93461f4bb029923dc7039ab373f7243ec7f2ba2493b066ac89088c4264736f6c634300080f0033",
  "linkReferences": {},
  "deployedLinkReferences": {}
}