{
  "_format": "hh-sol-artifact-1",
  "contractName": "PropertyContractNFT",
  "sourceName": "contracts/PropertyContractNFT.sol",
  "abi": [
    {
      "inputs": [],
      "stateMutability": "nonpayable",
      "type": "constructor"
    },
    {
      "anonymous": false,
      "inputs": [
        {
          "indexed": true,
          "internalType": "address",
          "name": "owner",
          "type": "address"
        },
        {
          "indexed": true,
          "internalType": "address",
          "name": "approved",
          "type": "address"
        },
        {
          "indexed": true,
          "internalType": "uint256",
          "name": "tokenId",
          "type": "uint256"
        }
      ],
      "name": "Approval",
      "type": "event"
    },
    {
      "anonymous": false,
      "inputs": [
        {
          "indexed": true,
          "internalType": "address",
          "name": "owner",
          "type": "address"
        },
        {
          "indexed": true,
          "internalType": "address",
          "name": "operator",
          "type": "address"
        },
        {
          "indexed": false,
          "internalType": "bool",
          "name": "approved",
          "type": "bool"
        }
      ],
      "name": "ApprovalForAll",
      "type": "event"
    },
    {
      "anonymous": false,
      "inputs": [
        {
          "indexed": true,
          "internalType": "address",
          "name": "previousOwner",
          "type": "address"
        },
        {
          "indexed": true,
          "internalType": "address",
          "name": "newOwner",
          "type": "address"
        }
      ],
      "name": "OwnershipTransferred",
      "type": "event"
    },
    {
      "anonymous": false,
      "inputs": [
        {
          "indexed": false,
          "internalType": "address",
          "name": "account",
          "type": "address"
        }
      ],
      "name": "Paused",
      "type": "event"
    },
    {
      "anonymous": false,
      "inputs": [
        {
          "indexed": true,
          "internalType": "address",
          "name": "from",
          "type": "address"
        },
        {
          "indexed": true,
          "internalType": "address",
          "name": "to",
          "type": "address"
        },
        {
          "indexed": true,
          "internalType": "uint256",
          "name": "tokenId",
          "type": "uint256"
        }
      ],
      "name": "Transfer",
      "type": "event"
    },
    {
      "anonymous": false,
      "inputs": [
        {
          "indexed": false,
          "internalType": "address",
          "name": "account",
          "type": "address"
        }
      ],
      "name": "Unpaused",
      "type": "event"
    },
    {
      "inputs": [
        {
          "internalType": "uint256",
          "name": "",
          "type": "uint256"
        }
      ],
      "name": "PCNFTMap",
      "outputs": [
        {
          "internalType": "uint256",
          "name": "tokenId",
          "type": "uint256"
        },
        {
          "internalType": "address",
          "name": "fractionalERC20TokenAddress",
          "type": "address"
        }
      ],
      "stateMutability": "view",
      "type": "function"
    },
    {
      "inputs": [
        {
          "internalType": "address",
          "name": "to",
          "type": "address"
        },
        {
          "internalType": "uint256",
          "name": "tokenId",
          "type": "uint256"
        }
      ],
      "name": "approve",
      "outputs": [],
      "stateMutability": "nonpayable",
      "type": "function"
    },
    {
      "inputs": [
        {
          "internalType": "address",
          "name": "owner",
          "type": "address"
        }
      ],
      "name": "balanceOf",
      "outputs": [
        {
          "internalType": "uint256",
          "name": "",
          "type": "uint256"
        }
      ],
      "stateMutability": "view",
      "type": "function"
    },
    {
      "inputs": [
        {
          "internalType": "uint256",
          "name": "tokenId",
          "type": "uint256"
        }
      ],
      "name": "getApproved",
      "outputs": [
        {
          "internalType": "address",
          "name": "",
          "type": "address"
        }
      ],
      "stateMutability": "view",
      "type": "function"
    },
    {
      "inputs": [],
      "name": "getNumberOfNFTs",
      "outputs": [
        {
          "internalType": "uint256",
          "name": "",
          "type": "uint256"
        }
      ],
      "stateMutability": "view",
      "type": "function"
    },
    {
      "inputs": [
        {
          "internalType": "address",
          "name": "owner",
          "type": "address"
        },
        {
          "internalType": "address",
          "name": "operator",
          "type": "address"
        }
      ],
      "name": "isApprovedForAll",
      "outputs": [
        {
          "internalType": "bool",
          "name": "",
          "type": "bool"
        }
      ],
      "stateMutability": "view",
      "type": "function"
    },
    {
      "inputs": [
        {
          "internalType": "address",
          "name": "_to",
          "type": "address"
        },
        {
          "internalType": "string",
          "name": "_tokenURI",
          "type": "string"
        },
        {
          "internalType": "uint256",
          "name": "_totalPropertyFractionTokens",
          "type": "uint256"
        }
      ],
      "name": "mint",
      "outputs": [],
      "stateMutability": "nonpayable",
      "type": "function"
    },
    {
      "inputs": [],
      "name": "name",
      "outputs": [
        {
          "internalType": "string",
          "name": "",
          "type": "string"
        }
      ],
      "stateMutability": "view",
      "type": "function"
    },
    {
      "inputs": [],
      "name": "owner",
      "outputs": [
        {
          "internalType": "address",
          "name": "",
          "type": "address"
        }
      ],
      "stateMutability": "view",
      "type": "function"
    },
    {
      "inputs": [
        {
          "internalType": "uint256",
          "name": "tokenId",
          "type": "uint256"
        }
      ],
      "name": "ownerOf",
      "outputs": [
        {
          "internalType": "address",
          "name": "",
          "type": "address"
        }
      ],
      "stateMutability": "view",
      "type": "function"
    },
    {
      "inputs": [],
      "name": "pause",
      "outputs": [],
      "stateMutability": "nonpayable",
      "type": "function"
    },
    {
      "inputs": [],
      "name": "paused",
      "outputs": [
        {
          "internalType": "bool",
          "name": "",
          "type": "bool"
        }
      ],
      "stateMutability": "view",
      "type": "function"
    },
    {
      "inputs": [],
      "name": "renounceOwnership",
      "outputs": [],
      "stateMutability": "nonpayable",
      "type": "function"
    },
    {
      "inputs": [
        {
          "internalType": "address",
          "name": "from",
          "type": "address"
        },
        {
          "internalType": "address",
          "name": "to",
          "type": "address"
        },
        {
          "internalType": "uint256",
          "name": "tokenId",
          "type": "uint256"
        }
      ],
      "name": "safeTransferFrom",
      "outputs": [],
      "stateMutability": "nonpayable",
      "type": "function"
    },
    {
      "inputs": [
        {
          "internalType": "address",
          "name": "from",
          "type": "address"
        },
        {
          "internalType": "address",
          "name": "to",
          "type": "address"
        },
        {
          "internalType": "uint256",
          "name": "tokenId",
          "type": "uint256"
        },
        {
          "internalType": "bytes",
          "name": "data",
          "type": "bytes"
        }
      ],
      "name": "safeTransferFrom",
      "outputs": [],
      "stateMutability": "nonpayable",
      "type": "function"
    },
    {
      "inputs": [
        {
          "internalType": "address",
          "name": "operator",
          "type": "address"
        },
        {
          "internalType": "bool",
          "name": "approved",
          "type": "bool"
        }
      ],
      "name": "setApprovalForAll",
      "outputs": [],
      "stateMutability": "nonpayable",
      "type": "function"
    },
    {
      "inputs": [
        {
          "internalType": "bytes4",
          "name": "interfaceId",
          "type": "bytes4"
        }
      ],
      "name": "supportsInterface",
      "outputs": [
        {
          "internalType": "bool",
          "name": "",
          "type": "bool"
        }
      ],
      "stateMutability": "view",
      "type": "function"
    },
    {
      "inputs": [],
      "name": "symbol",
      "outputs": [
        {
          "internalType": "string",
          "name": "",
          "type": "string"
        }
      ],
      "stateMutability": "view",
      "type": "function"
    },
    {
      "inputs": [
        {
          "internalType": "uint256",
          "name": "tokenId",
          "type": "uint256"
        }
      ],
      "name": "tokenURI",
      "outputs": [
        {
          "internalType": "string",
          "name": "",
          "type": "string"
        }
      ],
      "stateMutability": "view",
      "type": "function"
    },
    {
      "inputs": [
        {
          "internalType": "address",
          "name": "_to",
          "type": "address"
        },
        {
          "internalType": "uint256",
          "name": "_tokenId",
          "type": "uint256"
        },
        {
          "internalType": "uint256",
          "name": "_amount",
          "type": "uint256"
        }
      ],
      "name": "transferERC20",
      "outputs": [],
      "stateMutability": "nonpayable",
      "type": "function"
    },
    {
      "inputs": [
        {
          "internalType": "address",
          "name": "from",
          "type": "address"
        },
        {
          "internalType": "address",
          "name": "to",
          "type": "address"
        },
        {
          "internalType": "uint256",
          "name": "tokenId",
          "type": "uint256"
        }
      ],
      "name": "transferFrom",
      "outputs": [],
      "stateMutability": "nonpayable",
      "type": "function"
    },
    {
      "inputs": [
        {
          "internalType": "address",
          "name": "newOwner",
          "type": "address"
        }
      ],
      "name": "transferOwnership",
      "outputs": [],
      "stateMutability": "nonpayable",
      "type": "function"
    },
    {
      "inputs": [],
      "name": "unpause",
      "outputs": [],
      "stateMutability": "nonpayable",
      "type": "function"
    }
  ],
  "bytecode": "0x60806040523480156200001157600080fd5b506040518060400160405280601381526020017f50726f7065727479436f6e74726163744e4654000000000000000000000000008152506040518060400160405280600581526020017f50434e465400000000000000000000000000000000000000000000000000000081525081600090816200008f91906200042d565b508060019081620000a191906200042d565b5050506000600760006101000a81548160ff021916908315150217905550620000df620000d3620000e560201b60201c565b620000ed60201b60201c565b62000514565b600033905090565b6000600760019054906101000a900473ffffffffffffffffffffffffffffffffffffffff16905081600760016101000a81548173ffffffffffffffffffffffffffffffffffffffff021916908373ffffffffffffffffffffffffffffffffffffffff1602179055508173ffffffffffffffffffffffffffffffffffffffff168173ffffffffffffffffffffffffffffffffffffffff167f8be0079c531659141344cd1fd0a4f28419497f9722a3daafe3b4186f6b6457e060405160405180910390a35050565b600081519050919050565b7f4e487b7100000000000000000000000000000000000000000000000000000000600052604160045260246000fd5b7f4e487b7100000000000000000000000000000000000000000000000000000000600052602260045260246000fd5b600060028204905060018216806200023557607f821691505b6020821081036200024b576200024a620001ed565b5b50919050565b60008190508160005260206000209050919050565b60006020601f8301049050919050565b600082821b905092915050565b600060088302620002b57fffffffffffffffffffffffffffffffffffffffffffffffffffffffffffffffff8262000276565b620002c1868362000276565b95508019841693508086168417925050509392505050565b6000819050919050565b6000819050919050565b60006200030e620003086200030284620002d9565b620002e3565b620002d9565b9050919050565b6000819050919050565b6200032a83620002ed565b62000342620003398262000315565b84845462000283565b825550505050565b600090565b620003596200034a565b620003668184846200031f565b505050565b5b818110156200038e57620003826000826200034f565b6001810190506200036c565b5050565b601f821115620003dd57620003a78162000251565b620003b28462000266565b81016020851015620003c2578190505b620003da620003d18562000266565b8301826200036b565b50505b505050565b600082821c905092915050565b60006200040260001984600802620003e2565b1980831691505092915050565b60006200041d8383620003ef565b9150826002028217905092915050565b6200043882620001b3565b67ffffffffffffffff811115620004545762000453620001be565b5b6200046082546200021c565b6200046d82828562000392565b600060209050601f831160018114620004a5576000841562000490578287015190505b6200049c85826200040f565b8655506200050c565b601f198416620004b58662000251565b60005b82811015620004df57848901518255600182019150602085019450602081019050620004b8565b86831015620004ff5784890151620004fb601f891682620003ef565b8355505b6001600288020188555050505b505050505050565b615c8480620005246000396000f3fe60806040523480156200001157600080fd5b50600436106200016c5760003560e01c806380060ad211620000d5578063b756fb691162000087578063b756fb6914620003ce578063b88d4fde14620003ee578063ba7aef43146200040e578063c87b56dd146200042e578063e985e9c51462000464578063f2fde38b146200049a576200016c565b806380060ad214620003055780638456cb5914620003275780638da5cb5b146200033357806395d89b411462000355578063a224bd0f1462000377578063a22cb46514620003ae576200016c565b80633f4ba83a116200012f5780633f4ba83a146200023f57806342842e0e146200024b5780635c975abb146200026b5780636352211e146200028d57806370a0823114620002c3578063715018a614620002f9576200016c565b806301ffc9a7146200017157806306fdde0314620001a7578063081812fc14620001c9578063095ea7b314620001ff57806323b872dd146200021f575b600080fd5b6200018f6004803603810190620001899190620020ea565b620004ba565b6040516200019e919062002139565b60405180910390f35b620001b1620004ce565b604051620001c09190620021fa565b60405180910390f35b620001e76004803603810190620001e1919062002259565b62000568565b604051620001f69190620022d0565b60405180910390f35b6200021d60048036038101906200021791906200231e565b620005b0565b005b6200023d600480360381019062000237919062002365565b620006d8565b005b6200024962000741565b005b62000269600480360381019062000263919062002365565b62000757565b005b6200027562000779565b60405162000284919062002139565b60405180910390f35b620002ab6004803603810190620002a5919062002259565b62000790565b604051620002ba9190620022d0565b60405180910390f35b620002e16004803603810190620002db9190620023c1565b62000844565b604051620002f0919062002404565b60405180910390f35b62000303620008fe565b005b6200030f62000916565b6040516200031e919062002404565b60405180910390f35b6200033162000929565b005b6200033d6200093f565b6040516200034c9190620022d0565b60405180910390f35b6200035f62000969565b6040516200036e9190620021fa565b60405180910390f35b6200039560048036038101906200038f919062002259565b62000a03565b604051620003a592919062002421565b60405180910390f35b620003cc6004803603810190620003c691906200247f565b62000a47565b005b620003ec6004803603810190620003e69190620024c6565b62000a61565b005b6200040c600480360381019062000406919062002673565b62000b1b565b005b6200042c6004803603810190620004269190620027b8565b62000b86565b005b6200044c600480360381019062000446919062002259565b62000cbd565b6040516200045b9190620021fa565b60405180910390f35b6200048260048036038101906200047c919062002833565b62000cd1565b60405162000491919062002139565b60405180910390f35b620004b86004803603810190620004b29190620023c1565b62000d65565b005b6000620004c78262000def565b9050919050565b606060008054620004df90620028a9565b80601f01602080910402602001604051908101604052809291908181526020018280546200050d90620028a9565b80156200055e5780601f1062000532576101008083540402835291602001916200055e565b820191906000526020600020905b8154815290600101906020018083116200054057829003601f168201915b5050505050905090565b6000620005758262000ed5565b6004600083815260200190815260200160002060009054906101000a900473ffffffffffffffffffffffffffffffffffffffff169050919050565b6000620005bd8262000790565b90508073ffffffffffffffffffffffffffffffffffffffff168373ffffffffffffffffffffffffffffffffffffffff160362000630576040517f08c379a0000000000000000000000000000000000000000000000000000000008152600401620006279062002954565b60405180910390fd5b8073ffffffffffffffffffffffffffffffffffffffff166200065162000f25565b73ffffffffffffffffffffffffffffffffffffffff16148062000685575062000684816200067e62000f25565b62000cd1565b5b620006c7576040517f08c379a0000000000000000000000000000000000000000000000000000000008152600401620006be90620029ec565b60405180910390fd5b620006d3838362000f2d565b505050565b620006ed620006e662000f25565b8262000fe8565b6200072f576040517f08c379a0000000000000000000000000000000000000000000000000000000008152600401620007269062002a84565b60405180910390fd5b6200073c83838362001085565b505050565b6200074b620012fd565b6200075562001382565b565b620007748383836040518060200160405280600081525062000b1b565b505050565b6000600760009054906101000a900460ff16905090565b6000806002600084815260200190815260200160002060009054906101000a900473ffffffffffffffffffffffffffffffffffffffff169050600073ffffffffffffffffffffffffffffffffffffffff168173ffffffffffffffffffffffffffffffffffffffff16036200083b576040517f08c379a0000000000000000000000000000000000000000000000000000000008152600401620008329062002af6565b60405180910390fd5b80915050919050565b60008073ffffffffffffffffffffffffffffffffffffffff168273ffffffffffffffffffffffffffffffffffffffff1603620008b7576040517f08c379a0000000000000000000000000000000000000000000000000000000008152600401620008ae9062002b8e565b60405180910390fd5b600360008373ffffffffffffffffffffffffffffffffffffffff1673ffffffffffffffffffffffffffffffffffffffff168152602001908152602001600020549050919050565b62000908620012fd565b620009146000620013eb565b565b6000620009246008620014b1565b905090565b62000933620012fd565b6200093d620014bf565b565b6000600760019054906101000a900473ffffffffffffffffffffffffffffffffffffffff16905090565b6060600180546200097a90620028a9565b80601f0160208091040260200160405190810160405280929190818152602001828054620009a890620028a9565b8015620009f95780601f10620009cd57610100808354040283529160200191620009f9565b820191906000526020600020905b815481529060010190602001808311620009db57829003601f168201915b5050505050905090565b60096020528060005260406000206000915090508060000154908060010160009054906101000a900473ffffffffffffffffffffffffffffffffffffffff16905082565b62000a5d62000a5562000f25565b838362001528565b5050565b60006009600084815260200190815260200160002060010160009054906101000a900473ffffffffffffffffffffffffffffffffffffffff16905060008190508073ffffffffffffffffffffffffffffffffffffffff16638c2b1bd73387866040518463ffffffff1660e01b815260040162000ae09392919062002bb0565b600060405180830381600087803b15801562000afb57600080fd5b505af115801562000b10573d6000803e3d6000fd5b505050505050505050565b62000b3062000b2962000f25565b8362000fe8565b62000b72576040517f08c379a000000000000000000000000000000000000000000000000000000000815260040162000b699062002a84565b60405180910390fd5b62000b808484848462001699565b50505050565b62000b90620012fd565b62000ba78362000ba16008620014b1565b620016fc565b62000bbe62000bb76008620014b1565b836200171c565b6000813360405162000bd0906200206b565b62000bdd92919062002421565b604051809103906000f08015801562000bfa573d6000803e3d6000fd5b5090506000604051806040016040528062000c166008620014b1565b81526020018373ffffffffffffffffffffffffffffffffffffffff168152509050806009600062000c486008620014b1565b81526020019081526020016000206000820151816000015560208201518160010160006101000a81548173ffffffffffffffffffffffffffffffffffffffff021916908373ffffffffffffffffffffffffffffffffffffffff16021790555090505062000cb6600862001790565b5050505050565b606062000cca82620017a6565b9050919050565b6000600560008473ffffffffffffffffffffffffffffffffffffffff1673ffffffffffffffffffffffffffffffffffffffff16815260200190815260200160002060008373ffffffffffffffffffffffffffffffffffffffff1673ffffffffffffffffffffffffffffffffffffffff16815260200190815260200160002060009054906101000a900460ff16905092915050565b62000d6f620012fd565b600073ffffffffffffffffffffffffffffffffffffffff168173ffffffffffffffffffffffffffffffffffffffff160362000de1576040517f08c379a000000000000000000000000000000000000000000000000000000000815260040162000dd89062002c63565b60405180910390fd5b62000dec81620013eb565b50565b60007f80ac58cd000000000000000000000000000000000000000000000000000000007bffffffffffffffffffffffffffffffffffffffffffffffffffffffff1916827bffffffffffffffffffffffffffffffffffffffffffffffffffffffff1916148062000ebb57507f5b5e139f000000000000000000000000000000000000000000000000000000007bffffffffffffffffffffffffffffffffffffffffffffffffffffffff1916827bffffffffffffffffffffffffffffffffffffffffffffffffffffffff1916145b8062000ece575062000ecd82620018cc565b5b9050919050565b62000ee08162001936565b62000f22576040517f08c379a000000000000000000000000000000000000000000000000000000000815260040162000f199062002af6565b60405180910390fd5b50565b600033905090565b816004600083815260200190815260200160002060006101000a81548173ffffffffffffffffffffffffffffffffffffffff021916908373ffffffffffffffffffffffffffffffffffffffff160217905550808273ffffffffffffffffffffffffffffffffffffffff1662000fa28362000790565b73ffffffffffffffffffffffffffffffffffffffff167f8c5be1e5ebec7d5bd14f71427d1e84f3dd0314c0f7b2291e5b200ac8c7c3b92560405160405180910390a45050565b60008062000ff68362000790565b90508073ffffffffffffffffffffffffffffffffffffffff168473ffffffffffffffffffffffffffffffffffffffff1614806200103b57506200103a818562000cd1565b5b806200107c57508373ffffffffffffffffffffffffffffffffffffffff16620010648462000568565b73ffffffffffffffffffffffffffffffffffffffff16145b91505092915050565b8273ffffffffffffffffffffffffffffffffffffffff16620010a78262000790565b73ffffffffffffffffffffffffffffffffffffffff161462001100576040517f08c379a0000000000000000000000000000000000000000000000000000000008152600401620010f79062002cfb565b60405180910390fd5b600073ffffffffffffffffffffffffffffffffffffffff168273ffffffffffffffffffffffffffffffffffffffff160362001172576040517f08c379a0000000000000000000000000000000000000000000000000000000008152600401620011699062002d93565b60405180910390fd5b6200117f838383620019a2565b6200118c60008262000f2d565b6001600360008573ffffffffffffffffffffffffffffffffffffffff1673ffffffffffffffffffffffffffffffffffffffff1681526020019081526020016000206000828254620011de919062002de4565b925050819055506001600360008473ffffffffffffffffffffffffffffffffffffffff1673ffffffffffffffffffffffffffffffffffffffff168152602001908152602001600020600082825462001237919062002e1f565b92505081905550816002600083815260200190815260200160002060006101000a81548173ffffffffffffffffffffffffffffffffffffffff021916908373ffffffffffffffffffffffffffffffffffffffff160217905550808273ffffffffffffffffffffffffffffffffffffffff168473ffffffffffffffffffffffffffffffffffffffff167fddf252ad1be2c89b69c2b068fc378daa952ba7f163c4a11628f55a4df523b3ef60405160405180910390a4620012f8838383620019be565b505050565b6200130762000f25565b73ffffffffffffffffffffffffffffffffffffffff16620013276200093f565b73ffffffffffffffffffffffffffffffffffffffff161462001380576040517f08c379a0000000000000000000000000000000000000000000000000000000008152600401620013779062002ecc565b60405180910390fd5b565b6200138c620019c3565b6000600760006101000a81548160ff0219169083151502179055507f5db9ee0a495bf2e6ff9c91a7834c1ba4fdd244a5e8aa4e537bd38aeae4b073aa620013d262000f25565b604051620013e19190620022d0565b60405180910390a1565b6000600760019054906101000a900473ffffffffffffffffffffffffffffffffffffffff16905081600760016101000a81548173ffffffffffffffffffffffffffffffffffffffff021916908373ffffffffffffffffffffffffffffffffffffffff1602179055508173ffffffffffffffffffffffffffffffffffffffff168173ffffffffffffffffffffffffffffffffffffffff167f8be0079c531659141344cd1fd0a4f28419497f9722a3daafe3b4186f6b6457e060405160405180910390a35050565b600081600001549050919050565b620014c962001a11565b6001600760006101000a81548160ff0219169083151502179055507f62e78cea01bee320cd4e420270b5ea74000d11b0c9f74754ebdbfc544b05a2586200150f62000f25565b6040516200151e9190620022d0565b60405180910390a1565b8173ffffffffffffffffffffffffffffffffffffffff168373ffffffffffffffffffffffffffffffffffffffff160362001599576040517f08c379a0000000000000000000000000000000000000000000000000000000008152600401620015909062002f3e565b60405180910390fd5b80600560008573ffffffffffffffffffffffffffffffffffffffff1673ffffffffffffffffffffffffffffffffffffffff16815260200190815260200160002060008473ffffffffffffffffffffffffffffffffffffffff1673ffffffffffffffffffffffffffffffffffffffff16815260200190815260200160002060006101000a81548160ff0219169083151502179055508173ffffffffffffffffffffffffffffffffffffffff168373ffffffffffffffffffffffffffffffffffffffff167f17307eab39ab6107e8899845ad3d59bd9653f200f220920489ca2b5937696c31836040516200168c919062002139565b60405180910390a3505050565b620016a684848462001085565b620016b48484848462001a60565b620016f6576040517f08c379a0000000000000000000000000000000000000000000000000000000008152600401620016ed9062002fd6565b60405180910390fd5b50505050565b6200171882826040518060200160405280600081525062001bf8565b5050565b620017278262001936565b62001769576040517f08c379a000000000000000000000000000000000000000000000000000000000815260040162001760906200306e565b60405180910390fd5b806006600084815260200190815260200160002090816200178b919062003262565b505050565b6001816000016000828254019250508190555050565b6060620017b38262000ed5565b6000600660008481526020019081526020016000208054620017d590620028a9565b80601f01602080910402602001604051908101604052809291908181526020018280546200180390620028a9565b8015620018545780601f10620018285761010080835404028352916020019162001854565b820191906000526020600020905b8154815290600101906020018083116200183657829003601f168201915b5050505050905060006200186762001c5a565b905060008151036200187e578192505050620018c7565b600082511115620018b75780826040516020016200189e9291906200338b565b60405160208183030381529060405292505050620018c7565b620018c28462001c71565b925050505b919050565b60007f01ffc9a7000000000000000000000000000000000000000000000000000000007bffffffffffffffffffffffffffffffffffffffffffffffffffffffff1916827bffffffffffffffffffffffffffffffffffffffffffffffffffffffff1916149050919050565b60008073ffffffffffffffffffffffffffffffffffffffff166002600084815260200190815260200160002060009054906101000a900473ffffffffffffffffffffffffffffffffffffffff1673ffffffffffffffffffffffffffffffffffffffff1614159050919050565b620019ac62001a11565b620019b983838362001ce3565b505050565b505050565b620019cd62000779565b62001a0f576040517f08c379a000000000000000000000000000000000000000000000000000000000815260040162001a069062003403565b60405180910390fd5b565b62001a1b62000779565b1562001a5e576040517f08c379a000000000000000000000000000000000000000000000000000000000815260040162001a559062003475565b60405180910390fd5b565b600062001a838473ffffffffffffffffffffffffffffffffffffffff1662001ce8565b1562001beb578373ffffffffffffffffffffffffffffffffffffffff1663150b7a0262001aaf62000f25565b8786866040518563ffffffff1660e01b815260040162001ad39493929190620034f4565b6020604051808303816000875af192505050801562001b1257506040513d601f19601f8201168201806040525081019062001b0f91906200355f565b60015b62001b9a573d806000811462001b45576040519150601f19603f3d011682016040523d82523d6000602084013e62001b4a565b606091505b50600081510362001b92576040517f08c379a000000000000000000000000000000000000000000000000000000000815260040162001b899062002fd6565b60405180910390fd5b805181602001fd5b63150b7a0260e01b7bffffffffffffffffffffffffffffffffffffffffffffffffffffffff1916817bffffffffffffffffffffffffffffffffffffffffffffffffffffffff19161491505062001bf0565b600190505b949350505050565b62001c04838362001d0b565b62001c13600084848462001a60565b62001c55576040517f08c379a000000000000000000000000000000000000000000000000000000000815260040162001c4c9062002fd6565b60405180910390fd5b505050565b606060405180602001604052806000815250905090565b606062001c7e8262000ed5565b600062001c8a62001c5a565b9050600081511162001cac576040518060200160405280600081525062001cdb565b8062001cb88462001ef2565b60405160200162001ccb9291906200338b565b6040516020818303038152906040525b915050919050565b505050565b6000808273ffffffffffffffffffffffffffffffffffffffff163b119050919050565b600073ffffffffffffffffffffffffffffffffffffffff168273ffffffffffffffffffffffffffffffffffffffff160362001d7d576040517f08c379a000000000000000000000000000000000000000000000000000000000815260040162001d7490620035e1565b60405180910390fd5b62001d888162001936565b1562001dcb576040517f08c379a000000000000000000000000000000000000000000000000000000000815260040162001dc29062003653565b60405180910390fd5b62001dd960008383620019a2565b6001600360008473ffffffffffffffffffffffffffffffffffffffff1673ffffffffffffffffffffffffffffffffffffffff168152602001908152602001600020600082825462001e2b919062002e1f565b92505081905550816002600083815260200190815260200160002060006101000a81548173ffffffffffffffffffffffffffffffffffffffff021916908373ffffffffffffffffffffffffffffffffffffffff160217905550808273ffffffffffffffffffffffffffffffffffffffff16600073ffffffffffffffffffffffffffffffffffffffff167fddf252ad1be2c89b69c2b068fc378daa952ba7f163c4a11628f55a4df523b3ef60405160405180910390a462001eee60008383620019be565b5050565b60606000820362001f3b576040518060400160405280600181526020017f3000000000000000000000000000000000000000000000000000000000000000815250905062002066565b600082905060005b6000821462001f7357808062001f599062003675565b915050600a8262001f6b9190620036f1565b915062001f43565b60008167ffffffffffffffff81111562001f925762001f916200252c565b5b6040519080825280601f01601f19166020018201604052801562001fc55781602001600182028036833780820191505090505b5090505b600085146200205f5760018262001fe1919062002de4565b9150600a8562001ff2919062003729565b603062002000919062002e1f565b60f81b81838151811062002019576200201862003761565b5b60200101907effffffffffffffffffffffffffffffffffffffffffffffffffffffffffffff1916908160001a905350600a85620020579190620036f1565b945062001fc9565b8093505050505b919050565b6124be806200379183390190565b6000604051905090565b600080fd5b600080fd5b60007fffffffff0000000000000000000000000000000000000000000000000000000082169050919050565b620020c4816200208d565b8114620020d057600080fd5b50565b600081359050620020e481620020b9565b92915050565b60006020828403121562002103576200210262002083565b5b60006200211384828501620020d3565b91505092915050565b60008115159050919050565b62002133816200211c565b82525050565b600060208201905062002150600083018462002128565b92915050565b600081519050919050565b600082825260208201905092915050565b60005b838110156200219257808201518184015260208101905062002175565b83811115620021a2576000848401525b50505050565b6000601f19601f8301169050919050565b6000620021c68262002156565b620021d2818562002161565b9350620021e481856020860162002172565b620021ef81620021a8565b840191505092915050565b60006020820190508181036000830152620022168184620021b9565b905092915050565b6000819050919050565b62002233816200221e565b81146200223f57600080fd5b50565b600081359050620022538162002228565b92915050565b60006020828403121562002272576200227162002083565b5b6000620022828482850162002242565b91505092915050565b600073ffffffffffffffffffffffffffffffffffffffff82169050919050565b6000620022b8826200228b565b9050919050565b620022ca81620022ab565b82525050565b6000602082019050620022e76000830184620022bf565b92915050565b620022f881620022ab565b81146200230457600080fd5b50565b6000813590506200231881620022ed565b92915050565b6000806040838503121562002338576200233762002083565b5b6000620023488582860162002307565b92505060206200235b8582860162002242565b9150509250929050565b60008060006060848603121562002381576200238062002083565b5b6000620023918682870162002307565b9350506020620023a48682870162002307565b9250506040620023b78682870162002242565b9150509250925092565b600060208284031215620023da57620023d962002083565b5b6000620023ea8482850162002307565b91505092915050565b620023fe816200221e565b82525050565b60006020820190506200241b6000830184620023f3565b92915050565b6000604082019050620024386000830185620023f3565b620024476020830184620022bf565b9392505050565b62002459816200211c565b81146200246557600080fd5b50565b60008135905062002479816200244e565b92915050565b6000806040838503121562002499576200249862002083565b5b6000620024a98582860162002307565b9250506020620024bc8582860162002468565b9150509250929050565b600080600060608486031215620024e257620024e162002083565b5b6000620024f28682870162002307565b9350506020620025058682870162002242565b9250506040620025188682870162002242565b9150509250925092565b600080fd5b600080fd5b7f4e487b7100000000000000000000000000000000000000000000000000000000600052604160045260246000fd5b6200256682620021a8565b810181811067ffffffffffffffff821117156200258857620025876200252c565b5b80604052505050565b60006200259d62002079565b9050620025ab82826200255b565b919050565b600067ffffffffffffffff821115620025ce57620025cd6200252c565b5b620025d982620021a8565b9050602081019050919050565b82818337600083830152505050565b60006200260c6200260684620025b0565b62002591565b9050828152602081018484840111156200262b576200262a62002527565b5b62002638848285620025e6565b509392505050565b600082601f83011262002658576200265762002522565b5b81356200266a848260208601620025f5565b91505092915050565b6000806000806080858703121562002690576200268f62002083565b5b6000620026a08782880162002307565b9450506020620026b38782880162002307565b9350506040620026c68782880162002242565b925050606085013567ffffffffffffffff811115620026ea57620026e962002088565b5b620026f88782880162002640565b91505092959194509250565b600067ffffffffffffffff8211156200272257620027216200252c565b5b6200272d82620021a8565b9050602081019050919050565b6000620027516200274b8462002704565b62002591565b90508281526020810184848401111562002770576200276f62002527565b5b6200277d848285620025e6565b509392505050565b600082601f8301126200279d576200279c62002522565b5b8135620027af8482602086016200273a565b91505092915050565b600080600060608486031215620027d457620027d362002083565b5b6000620027e48682870162002307565b935050602084013567ffffffffffffffff81111562002808576200280762002088565b5b620028168682870162002785565b9250506040620028298682870162002242565b9150509250925092565b600080604083850312156200284d576200284c62002083565b5b60006200285d8582860162002307565b9250506020620028708582860162002307565b9150509250929050565b7f4e487b7100000000000000000000000000000000000000000000000000000000600052602260045260246000fd5b60006002820490506001821680620028c257607f821691505b602082108103620028d857620028d76200287a565b5b50919050565b7f4552433732313a20617070726f76616c20746f2063757272656e74206f776e6560008201527f7200000000000000000000000000000000000000000000000000000000000000602082015250565b60006200293c60218362002161565b91506200294982620028de565b604082019050919050565b600060208201905081810360008301526200296f816200292d565b9050919050565b7f4552433732313a20617070726f76652063616c6c6572206973206e6f7420746f60008201527f6b656e206f776e6572206e6f7220617070726f76656420666f7220616c6c0000602082015250565b6000620029d4603e8362002161565b9150620029e18262002976565b604082019050919050565b6000602082019050818103600083015262002a0781620029c5565b9050919050565b7f4552433732313a2063616c6c6572206973206e6f7420746f6b656e206f776e6560008201527f72206e6f7220617070726f766564000000000000000000000000000000000000602082015250565b600062002a6c602e8362002161565b915062002a798262002a0e565b604082019050919050565b6000602082019050818103600083015262002a9f8162002a5d565b9050919050565b7f4552433732313a20696e76616c696420746f6b656e2049440000000000000000600082015250565b600062002ade60188362002161565b915062002aeb8262002aa6565b602082019050919050565b6000602082019050818103600083015262002b118162002acf565b9050919050565b7f4552433732313a2061646472657373207a65726f206973206e6f74206120766160008201527f6c6964206f776e65720000000000000000000000000000000000000000000000602082015250565b600062002b7660298362002161565b915062002b838262002b18565b604082019050919050565b6000602082019050818103600083015262002ba98162002b67565b9050919050565b600060608201905062002bc76000830186620022bf565b62002bd66020830185620022bf565b62002be56040830184620023f3565b949350505050565b7f4f776e61626c653a206e6577206f776e657220697320746865207a65726f206160008201527f6464726573730000000000000000000000000000000000000000000000000000602082015250565b600062002c4b60268362002161565b915062002c588262002bed565b604082019050919050565b6000602082019050818103600083015262002c7e8162002c3c565b9050919050565b7f4552433732313a207472616e736665722066726f6d20696e636f72726563742060008201527f6f776e6572000000000000000000000000000000000000000000000000000000602082015250565b600062002ce360258362002161565b915062002cf08262002c85565b604082019050919050565b6000602082019050818103600083015262002d168162002cd4565b9050919050565b7f4552433732313a207472616e7366657220746f20746865207a65726f2061646460008201527f7265737300000000000000000000000000000000000000000000000000000000602082015250565b600062002d7b60248362002161565b915062002d888262002d1d565b604082019050919050565b6000602082019050818103600083015262002dae8162002d6c565b9050919050565b7f4e487b7100000000000000000000000000000000000000000000000000000000600052601160045260246000fd5b600062002df1826200221e565b915062002dfe836200221e565b92508282101562002e145762002e1362002db5565b5b828203905092915050565b600062002e2c826200221e565b915062002e39836200221e565b9250827fffffffffffffffffffffffffffffffffffffffffffffffffffffffffffffffff0382111562002e715762002e7062002db5565b5b828201905092915050565b7f4f776e61626c653a2063616c6c6572206973206e6f7420746865206f776e6572600082015250565b600062002eb460208362002161565b915062002ec18262002e7c565b602082019050919050565b6000602082019050818103600083015262002ee78162002ea5565b9050919050565b7f4552433732313a20617070726f766520746f2063616c6c657200000000000000600082015250565b600062002f2660198362002161565b915062002f338262002eee565b602082019050919050565b6000602082019050818103600083015262002f598162002f17565b9050919050565b7f4552433732313a207472616e7366657220746f206e6f6e20455243373231526560008201527f63656976657220696d706c656d656e7465720000000000000000000000000000602082015250565b600062002fbe60328362002161565b915062002fcb8262002f60565b604082019050919050565b6000602082019050818103600083015262002ff18162002faf565b9050919050565b7f45524337323155524953746f726167653a2055524920736574206f66206e6f6e60008201527f6578697374656e7420746f6b656e000000000000000000000000000000000000602082015250565b600062003056602e8362002161565b9150620030638262002ff8565b604082019050919050565b60006020820190508181036000830152620030898162003047565b9050919050565b60008190508160005260206000209050919050565b60006020601f8301049050919050565b600082821b905092915050565b600060088302620030f47fffffffffffffffffffffffffffffffffffffffffffffffffffffffffffffffff82620030b5565b620031008683620030b5565b95508019841693508086168417925050509392505050565b6000819050919050565b6000620031436200313d62003137846200221e565b62003118565b6200221e565b9050919050565b6000819050919050565b6200315f8362003122565b620031776200316e826200314a565b848454620030c2565b825550505050565b600090565b6200318e6200317f565b6200319b81848462003154565b505050565b5b81811015620031c357620031b760008262003184565b600181019050620031a1565b5050565b601f8211156200321257620031dc8162003090565b620031e784620030a5565b81016020851015620031f7578190505b6200320f6200320685620030a5565b830182620031a0565b50505b505050565b600082821c905092915050565b6000620032376000198460080262003217565b1980831691505092915050565b600062003252838362003224565b9150826002028217905092915050565b6200326d8262002156565b67ffffffffffffffff8111156200328957620032886200252c565b5b620032958254620028a9565b620032a2828285620031c7565b600060209050601f831160018114620032da5760008415620032c5578287015190505b620032d1858262003244565b86555062003341565b601f198416620032ea8662003090565b60005b828110156200331457848901518255600182019150602085019450602081019050620032ed565b8683101562003334578489015162003330601f89168262003224565b8355505b6001600288020188555050505b505050505050565b600081905092915050565b6000620033618262002156565b6200336d818562003349565b93506200337f81856020860162002172565b80840191505092915050565b600062003399828562003354565b9150620033a7828462003354565b91508190509392505050565b7f5061757361626c653a206e6f7420706175736564000000000000000000000000600082015250565b6000620033eb60148362002161565b9150620033f882620033b3565b602082019050919050565b600060208201905081810360008301526200341e81620033dc565b9050919050565b7f5061757361626c653a2070617573656400000000000000000000000000000000600082015250565b60006200345d60108362002161565b91506200346a8262003425565b602082019050919050565b6000602082019050818103600083015262003490816200344e565b9050919050565b600081519050919050565b600082825260208201905092915050565b6000620034c08262003497565b620034cc8185620034a2565b9350620034de81856020860162002172565b620034e981620021a8565b840191505092915050565b60006080820190506200350b6000830187620022bf565b6200351a6020830186620022bf565b620035296040830185620023f3565b81810360608301526200353d8184620034b3565b905095945050505050565b6000815190506200355981620020b9565b92915050565b60006020828403121562003578576200357762002083565b5b6000620035888482850162003548565b91505092915050565b7f4552433732313a206d696e7420746f20746865207a65726f2061646472657373600082015250565b6000620035c960208362002161565b9150620035d68262003591565b602082019050919050565b60006020820190508181036000830152620035fc81620035ba565b9050919050565b7f4552433732313a20746f6b656e20616c7265616479206d696e74656400000000600082015250565b60006200363b601c8362002161565b9150620036488262003603565b602082019050919050565b600060208201905081810360008301526200366e816200362c565b9050919050565b600062003682826200221e565b91507fffffffffffffffffffffffffffffffffffffffffffffffffffffffffffffffff8203620036b757620036b662002db5565b5b600182019050919050565b7f4e487b7100000000000000000000000000000000000000000000000000000000600052601260045260246000fd5b6000620036fe826200221e565b91506200370b836200221e565b9250826200371e576200371d620036c2565b5b828204905092915050565b600062003736826200221e565b915062003743836200221e565b925082620037565762003755620036c2565b5b828206905092915050565b7f4e487b7100000000000000000000000000000000000000000000000000000000600052603260045260246000fdfe60806040523480156200001157600080fd5b50604051620024be380380620024be8339818101604052810190620000379190620003e7565b6040518060400160405280601581526020017f50726f70657274794672616374696f6e546f6b656e00000000000000000000008152506040518060400160405280600381526020017f50465400000000000000000000000000000000000000000000000000000000008152508160039081620000b491906200069e565b508060049081620000c691906200069e565b5050506200010881620000de620001b760201b60201c565b60ff16600a620000ef919062000908565b84620000fc919062000959565b620001c060201b60201c565b81600560008373ffffffffffffffffffffffffffffffffffffffff1673ffffffffffffffffffffffffffffffffffffffff168152602001908152602001600020819055506006819080600181540180825580915050600190039060005260206000200160009091909190916101000a81548173ffffffffffffffffffffffffffffffffffffffff021916908373ffffffffffffffffffffffffffffffffffffffff160217905550505062000ac8565b60006012905090565b600073ffffffffffffffffffffffffffffffffffffffff168273ffffffffffffffffffffffffffffffffffffffff160362000232576040517f08c379a0000000000000000000000000000000000000000000000000000000008152600401620002299062000a1b565b60405180910390fd5b62000246600083836200033860201b60201c565b80600260008282546200025a919062000a3d565b92505081905550806000808473ffffffffffffffffffffffffffffffffffffffff1673ffffffffffffffffffffffffffffffffffffffff1681526020019081526020016000206000828254620002b1919062000a3d565b925050819055508173ffffffffffffffffffffffffffffffffffffffff16600073ffffffffffffffffffffffffffffffffffffffff167fddf252ad1be2c89b69c2b068fc378daa952ba7f163c4a11628f55a4df523b3ef8360405162000318919062000aab565b60405180910390a362000334600083836200033d60201b60201c565b5050565b505050565b505050565b600080fd5b6000819050919050565b6200035c8162000347565b81146200036857600080fd5b50565b6000815190506200037c8162000351565b92915050565b600073ffffffffffffffffffffffffffffffffffffffff82169050919050565b6000620003af8262000382565b9050919050565b620003c181620003a2565b8114620003cd57600080fd5b50565b600081519050620003e181620003b6565b92915050565b6000806040838503121562000401576200040062000342565b5b600062000411858286016200036b565b92505060206200042485828601620003d0565b9150509250929050565b600081519050919050565b7f4e487b7100000000000000000000000000000000000000000000000000000000600052604160045260246000fd5b7f4e487b7100000000000000000000000000000000000000000000000000000000600052602260045260246000fd5b60006002820490506001821680620004b057607f821691505b602082108103620004c657620004c562000468565b5b50919050565b60008190508160005260206000209050919050565b60006020601f8301049050919050565b600082821b905092915050565b600060088302620005307fffffffffffffffffffffffffffffffffffffffffffffffffffffffffffffffff82620004f1565b6200053c8683620004f1565b95508019841693508086168417925050509392505050565b6000819050919050565b60006200057f62000579620005738462000347565b62000554565b62000347565b9050919050565b6000819050919050565b6200059b836200055e565b620005b3620005aa8262000586565b848454620004fe565b825550505050565b600090565b620005ca620005bb565b620005d781848462000590565b505050565b5b81811015620005ff57620005f3600082620005c0565b600181019050620005dd565b5050565b601f8211156200064e576200061881620004cc565b6200062384620004e1565b8101602085101562000633578190505b6200064b6200064285620004e1565b830182620005dc565b50505b505050565b600082821c905092915050565b6000620006736000198460080262000653565b1980831691505092915050565b60006200068e838362000660565b9150826002028217905092915050565b620006a9826200042e565b67ffffffffffffffff811115620006c557620006c462000439565b5b620006d1825462000497565b620006de82828562000603565b600060209050601f83116001811462000716576000841562000701578287015190505b6200070d858262000680565b8655506200077d565b601f1984166200072686620004cc565b60005b82811015620007505784890151825560018201915060208501945060208101905062000729565b868310156200077057848901516200076c601f89168262000660565b8355505b6001600288020188555050505b505050505050565b7f4e487b7100000000000000000000000000000000000000000000000000000000600052601160045260246000fd5b60008160011c9050919050565b6000808291508390505b60018511156200081357808604811115620007eb57620007ea62000785565b5b6001851615620007fb5780820291505b80810290506200080b85620007b4565b9450620007cb565b94509492505050565b6000826200082e576001905062000901565b816200083e576000905062000901565b8160018114620008575760028114620008625762000898565b600191505062000901565b60ff84111562000877576200087662000785565b5b8360020a91508482111562000891576200089062000785565b5b5062000901565b5060208310610133831016604e8410600b8410161715620008d25782820a905083811115620008cc57620008cb62000785565b5b62000901565b620008e18484846001620007c1565b92509050818404811115620008fb57620008fa62000785565b5b81810290505b9392505050565b6000620009158262000347565b9150620009228362000347565b9250620009517fffffffffffffffffffffffffffffffffffffffffffffffffffffffffffffffff84846200081c565b905092915050565b6000620009668262000347565b9150620009738362000347565b9250817fffffffffffffffffffffffffffffffffffffffffffffffffffffffffffffffff0483118215151615620009af57620009ae62000785565b5b828202905092915050565b600082825260208201905092915050565b7f45524332303a206d696e7420746f20746865207a65726f206164647265737300600082015250565b600062000a03601f83620009ba565b915062000a1082620009cb565b602082019050919050565b6000602082019050818103600083015262000a3681620009f4565b9050919050565b600062000a4a8262000347565b915062000a578362000347565b9250827fffffffffffffffffffffffffffffffffffffffffffffffffffffffffffffffff0382111562000a8f5762000a8e62000785565b5b828201905092915050565b62000aa58162000347565b82525050565b600060208201905062000ac2600083018462000a9a565b92915050565b6119e68062000ad86000396000f3fe608060405234801561001057600080fd5b50600436106101005760003560e01c80638c2b1bd711610097578063a9059cbb11610066578063a9059cbb146102e9578063c451674114610319578063c734416514610337578063dd62ed3e1461035557610100565b80638c2b1bd71461024f57806395d89b411461026b5780639ee946a514610289578063a457c2d7146102b957610100565b806323b872dd116100d357806323b872dd146101a1578063313ce567146101d157806339509351146101ef57806370a082311461021f57610100565b806306fdde0314610105578063095ea7b3146101235780630f8c9e281461015357806318160ddd14610183575b600080fd5b61010d610385565b60405161011a9190610ef2565b60405180910390f35b61013d60048036038101906101389190610fad565b610417565b60405161014a9190611008565b60405180910390f35b61016d60048036038101906101689190611023565b61043a565b60405161017a919061105f565b60405180910390f35b61018b610479565b6040516101989190611089565b60405180910390f35b6101bb60048036038101906101b691906110a4565b610483565b6040516101c89190611008565b60405180910390f35b6101d96104b2565b6040516101e69190611113565b60405180910390f35b61020960048036038101906102049190610fad565b6104bb565b6040516102169190611008565b60405180910390f35b6102396004803603810190610234919061112e565b6104f2565b6040516102469190611089565b60405180910390f35b610269600480360381019061026491906110a4565b61053a565b005b61027361070d565b6040516102809190610ef2565b60405180910390f35b6102a3600480360381019061029e919061112e565b61079f565b6040516102b09190611089565b60405180910390f35b6102d360048036038101906102ce9190610fad565b6107b7565b6040516102e09190611008565b60405180910390f35b61030360048036038101906102fe9190610fad565b61082e565b6040516103109190611008565b60405180910390f35b610321610851565b60405161032e9190611219565b60405180910390f35b61033f6108df565b60405161034c9190611089565b60405180910390f35b61036f600480360381019061036a919061123b565b6108ec565b60405161037c9190611089565b60405180910390f35b606060038054610394906112aa565b80601f01602080910402602001604051908101604052809291908181526020018280546103c0906112aa565b801561040d5780601f106103e25761010080835404028352916020019161040d565b820191906000526020600020905b8154815290600101906020018083116103f057829003601f168201915b5050505050905090565b600080610422610973565b905061042f81858561097b565b600191505092915050565b6006818154811061044a57600080fd5b906000526020600020016000915054906101000a900473ffffffffffffffffffffffffffffffffffffffff1681565b6000600254905090565b60008061048e610973565b905061049b858285610b44565b6104a6858585610bd0565b60019150509392505050565b60006012905090565b6000806104c6610973565b90506104e78185856104d885896108ec565b6104e2919061130a565b61097b565b600191505092915050565b60008060008373ffffffffffffffffffffffffffffffffffffffff1673ffffffffffffffffffffffffffffffffffffffff168152602001908152602001600020549050919050565b6000610545846104f2565b03610585576040517f08c379a000000000000000000000000000000000000000000000000000000000815260040161057c906113ac565b60405180910390fd5b6000600560008473ffffffffffffffffffffffffffffffffffffffff1673ffffffffffffffffffffffffffffffffffffffff1681526020019081526020016000205403610630576006829080600181540180825580915050600190039060005260206000200160009091909190916101000a81548173ffffffffffffffffffffffffffffffffffffffff021916908373ffffffffffffffffffffffffffffffffffffffff1602179055505b61065c838361063d6104b2565b60ff16600a61064c91906114ff565b84610657919061154a565b610bd0565b80600560008573ffffffffffffffffffffffffffffffffffffffff1673ffffffffffffffffffffffffffffffffffffffff16815260200190815260200160002060008282546106ab91906115a4565b9250508190555080600560008473ffffffffffffffffffffffffffffffffffffffff1673ffffffffffffffffffffffffffffffffffffffff1681526020019081526020016000206000828254610701919061130a565b92505081905550505050565b60606004805461071c906112aa565b80601f0160208091040260200160405190810160405280929190818152602001828054610748906112aa565b80156107955780601f1061076a57610100808354040283529160200191610795565b820191906000526020600020905b81548152906001019060200180831161077857829003601f168201915b5050505050905090565b60056020528060005260406000206000915090505481565b6000806107c2610973565b905060006107d082866108ec565b905083811015610815576040517f08c379a000000000000000000000000000000000000000000000000000000000815260040161080c9061164a565b60405180910390fd5b610822828686840361097b565b60019250505092915050565b600080610839610973565b9050610846818585610bd0565b600191505092915050565b606060068054806020026020016040519081016040528092919081815260200182805480156108d557602002820191906000526020600020905b8160009054906101000a900473ffffffffffffffffffffffffffffffffffffffff1673ffffffffffffffffffffffffffffffffffffffff168152602001906001019080831161088b575b5050505050905090565b6000600680549050905090565b6000600160008473ffffffffffffffffffffffffffffffffffffffff1673ffffffffffffffffffffffffffffffffffffffff16815260200190815260200160002060008373ffffffffffffffffffffffffffffffffffffffff1673ffffffffffffffffffffffffffffffffffffffff16815260200190815260200160002054905092915050565b600033905090565b600073ffffffffffffffffffffffffffffffffffffffff168373ffffffffffffffffffffffffffffffffffffffff16036109ea576040517f08c379a00000000000000000000000000000000000000000000000000000000081526004016109e1906116dc565b60405180910390fd5b600073ffffffffffffffffffffffffffffffffffffffff168273ffffffffffffffffffffffffffffffffffffffff1603610a59576040517f08c379a0000000000000000000000000000000000000000000000000000000008152600401610a509061176e565b60405180910390fd5b80600160008573ffffffffffffffffffffffffffffffffffffffff1673ffffffffffffffffffffffffffffffffffffffff16815260200190815260200160002060008473ffffffffffffffffffffffffffffffffffffffff1673ffffffffffffffffffffffffffffffffffffffff168152602001908152602001600020819055508173ffffffffffffffffffffffffffffffffffffffff168373ffffffffffffffffffffffffffffffffffffffff167f8c5be1e5ebec7d5bd14f71427d1e84f3dd0314c0f7b2291e5b200ac8c7c3b92583604051610b379190611089565b60405180910390a3505050565b6000610b5084846108ec565b90507fffffffffffffffffffffffffffffffffffffffffffffffffffffffffffffffff8114610bca5781811015610bbc576040517f08c379a0000000000000000000000000000000000000000000000000000000008152600401610bb3906117da565b60405180910390fd5b610bc9848484840361097b565b5b50505050565b600073ffffffffffffffffffffffffffffffffffffffff168373ffffffffffffffffffffffffffffffffffffffff1603610c3f576040517f08c379a0000000000000000000000000000000000000000000000000000000008152600401610c369061186c565b60405180910390fd5b600073ffffffffffffffffffffffffffffffffffffffff168273ffffffffffffffffffffffffffffffffffffffff1603610cae576040517f08c379a0000000000000000000000000000000000000000000000000000000008152600401610ca5906118fe565b60405180910390fd5b610cb9838383610e4f565b60008060008573ffffffffffffffffffffffffffffffffffffffff1673ffffffffffffffffffffffffffffffffffffffff16815260200190815260200160002054905081811015610d3f576040517f08c379a0000000000000000000000000000000000000000000000000000000008152600401610d3690611990565b60405180910390fd5b8181036000808673ffffffffffffffffffffffffffffffffffffffff1673ffffffffffffffffffffffffffffffffffffffff16815260200190815260200160002081905550816000808573ffffffffffffffffffffffffffffffffffffffff1673ffffffffffffffffffffffffffffffffffffffff1681526020019081526020016000206000828254610dd2919061130a565b925050819055508273ffffffffffffffffffffffffffffffffffffffff168473ffffffffffffffffffffffffffffffffffffffff167fddf252ad1be2c89b69c2b068fc378daa952ba7f163c4a11628f55a4df523b3ef84604051610e369190611089565b60405180910390a3610e49848484610e54565b50505050565b505050565b505050565b600081519050919050565b600082825260208201905092915050565b60005b83811015610e93578082015181840152602081019050610e78565b83811115610ea2576000848401525b50505050565b6000601f19601f8301169050919050565b6000610ec482610e59565b610ece8185610e64565b9350610ede818560208601610e75565b610ee781610ea8565b840191505092915050565b60006020820190508181036000830152610f0c8184610eb9565b905092915050565b600080fd5b600073ffffffffffffffffffffffffffffffffffffffff82169050919050565b6000610f4482610f19565b9050919050565b610f5481610f39565b8114610f5f57600080fd5b50565b600081359050610f7181610f4b565b92915050565b6000819050919050565b610f8a81610f77565b8114610f9557600080fd5b50565b600081359050610fa781610f81565b92915050565b60008060408385031215610fc457610fc3610f14565b5b6000610fd285828601610f62565b9250506020610fe385828601610f98565b9150509250929050565b60008115159050919050565b61100281610fed565b82525050565b600060208201905061101d6000830184610ff9565b92915050565b60006020828403121561103957611038610f14565b5b600061104784828501610f98565b91505092915050565b61105981610f39565b82525050565b60006020820190506110746000830184611050565b92915050565b61108381610f77565b82525050565b600060208201905061109e600083018461107a565b92915050565b6000806000606084860312156110bd576110bc610f14565b5b60006110cb86828701610f62565b93505060206110dc86828701610f62565b92505060406110ed86828701610f98565b9150509250925092565b600060ff82169050919050565b61110d816110f7565b82525050565b60006020820190506111286000830184611104565b92915050565b60006020828403121561114457611143610f14565b5b600061115284828501610f62565b91505092915050565b600081519050919050565b600082825260208201905092915050565b6000819050602082019050919050565b61119081610f39565b82525050565b60006111a28383611187565b60208301905092915050565b6000602082019050919050565b60006111c68261115b565b6111d08185611166565b93506111db83611177565b8060005b8381101561120c5781516111f38882611196565b97506111fe836111ae565b9250506001810190506111df565b5085935050505092915050565b6000602082019050818103600083015261123381846111bb565b905092915050565b6000806040838503121561125257611251610f14565b5b600061126085828601610f62565b925050602061127185828601610f62565b9150509250929050565b7f4e487b7100000000000000000000000000000000000000000000000000000000600052602260045260246000fd5b600060028204905060018216806112c257607f821691505b6020821081036112d5576112d461127b565b5b50919050565b7f4e487b7100000000000000000000000000000000000000000000000000000000600052601160045260246000fd5b600061131582610f77565b915061132083610f77565b9250827fffffffffffffffffffffffffffffffffffffffffffffffffffffffffffffffff03821115611355576113546112db565b5b828201905092915050565b7f496e73756666696369656e742062616c616e6365210000000000000000000000600082015250565b6000611396601583610e64565b91506113a182611360565b602082019050919050565b600060208201905081810360008301526113c581611389565b9050919050565b60008160011c9050919050565b6000808291508390505b6001851115611423578086048111156113ff576113fe6112db565b5b600185161561140e5780820291505b808102905061141c856113cc565b94506113e3565b94509492505050565b60008261143c57600190506114f8565b8161144a57600090506114f8565b8160018114611460576002811461146a57611499565b60019150506114f8565b60ff84111561147c5761147b6112db565b5b8360020a915084821115611493576114926112db565b5b506114f8565b5060208310610133831016604e8410600b84101617156114ce5782820a9050838111156114c9576114c86112db565b5b6114f8565b6114db84848460016113d9565b925090508184048111156114f2576114f16112db565b5b81810290505b9392505050565b600061150a82610f77565b915061151583610f77565b92506115427fffffffffffffffffffffffffffffffffffffffffffffffffffffffffffffffff848461142c565b905092915050565b600061155582610f77565b915061156083610f77565b9250817fffffffffffffffffffffffffffffffffffffffffffffffffffffffffffffffff0483118215151615611599576115986112db565b5b828202905092915050565b60006115af82610f77565b91506115ba83610f77565b9250828210156115cd576115cc6112db565b5b828203905092915050565b7f45524332303a2064656372656173656420616c6c6f77616e63652062656c6f7760008201527f207a65726f000000000000000000000000000000000000000000000000000000602082015250565b6000611634602583610e64565b915061163f826115d8565b604082019050919050565b6000602082019050818103600083015261166381611627565b9050919050565b7f45524332303a20617070726f76652066726f6d20746865207a65726f2061646460008201527f7265737300000000000000000000000000000000000000000000000000000000602082015250565b60006116c6602483610e64565b91506116d18261166a565b604082019050919050565b600060208201905081810360008301526116f5816116b9565b9050919050565b7f45524332303a20617070726f766520746f20746865207a65726f20616464726560008201527f7373000000000000000000000000000000000000000000000000000000000000602082015250565b6000611758602283610e64565b9150611763826116fc565b604082019050919050565b600060208201905081810360008301526117878161174b565b9050919050565b7f45524332303a20696e73756666696369656e7420616c6c6f77616e6365000000600082015250565b60006117c4601d83610e64565b91506117cf8261178e565b602082019050919050565b600060208201905081810360008301526117f3816117b7565b9050919050565b7f45524332303a207472616e736665722066726f6d20746865207a65726f20616460008201527f6472657373000000000000000000000000000000000000000000000000000000602082015250565b6000611856602583610e64565b9150611861826117fa565b604082019050919050565b6000602082019050818103600083015261188581611849565b9050919050565b7f45524332303a207472616e7366657220746f20746865207a65726f206164647260008201527f6573730000000000000000000000000000000000000000000000000000000000602082015250565b60006118e8602383610e64565b91506118f38261188c565b604082019050919050565b60006020820190508181036000830152611917816118db565b9050919050565b7f45524332303a207472616e7366657220616d6f756e742065786365656473206260008201527f616c616e63650000000000000000000000000000000000000000000000000000602082015250565b600061197a602683610e64565b91506119858261191e565b604082019050919050565b600060208201905081810360008301526119a98161196d565b905091905056fea2646970667358221220ae82135a51d507dcd636c1f4d5015659cd0c146e6220fdb90922d01bdec457cd64736f6c634300080f0033a26469706673582212208fcb892165ab43cb4729d1f5df657838df5080f6532a563f8d4f0de4e68e30a764736f6c634300080f0033",
  "linkReferences": {},
  "deployedLinkReferences": {}
}