{
  "_format": "hh-sol-artifact-1",
  "contractName": "PropertyContractNFT",
  "sourceName": "contracts/PropertyContractNFT.sol",
  "abi": [
    {
      "inputs": [],
      "stateMutability": "nonpayable",
      "type": "constructor"
    },
    {
      "anonymous": false,
      "inputs": [
        {
          "indexed": true,
          "internalType": "address",
          "name": "owner",
          "type": "address"
        },
        {
          "indexed": true,
          "internalType": "address",
          "name": "approved",
          "type": "address"
        },
        {
          "indexed": true,
          "internalType": "uint256",
          "name": "tokenId",
          "type": "uint256"
        }
      ],
      "name": "Approval",
      "type": "event"
    },
    {
      "anonymous": false,
      "inputs": [
        {
          "indexed": true,
          "internalType": "address",
          "name": "owner",
          "type": "address"
        },
        {
          "indexed": true,
          "internalType": "address",
          "name": "operator",
          "type": "address"
        },
        {
          "indexed": false,
          "internalType": "bool",
          "name": "approved",
          "type": "bool"
        }
      ],
      "name": "ApprovalForAll",
      "type": "event"
    },
    {
      "anonymous": false,
      "inputs": [
        {
          "indexed": true,
          "internalType": "address",
          "name": "previousOwner",
          "type": "address"
        },
        {
          "indexed": true,
          "internalType": "address",
          "name": "newOwner",
          "type": "address"
        }
      ],
      "name": "OwnershipTransferred",
      "type": "event"
    },
    {
      "anonymous": false,
      "inputs": [
        {
          "indexed": false,
          "internalType": "address",
          "name": "account",
          "type": "address"
        }
      ],
      "name": "Paused",
      "type": "event"
    },
    {
      "anonymous": false,
      "inputs": [
        {
          "indexed": true,
          "internalType": "address",
          "name": "from",
          "type": "address"
        },
        {
          "indexed": true,
          "internalType": "address",
          "name": "to",
          "type": "address"
        },
        {
          "indexed": true,
          "internalType": "uint256",
          "name": "tokenId",
          "type": "uint256"
        }
      ],
      "name": "Transfer",
      "type": "event"
    },
    {
      "anonymous": false,
      "inputs": [
        {
          "indexed": false,
          "internalType": "address",
          "name": "account",
          "type": "address"
        }
      ],
      "name": "Unpaused",
      "type": "event"
    },
    {
      "inputs": [
        {
          "internalType": "uint256",
          "name": "",
          "type": "uint256"
        }
      ],
      "name": "PCNFTMap",
      "outputs": [
        {
          "internalType": "uint256",
          "name": "tokenId",
          "type": "uint256"
        },
        {
          "internalType": "address",
          "name": "fractionalERC20TokenAddress",
          "type": "address"
        }
      ],
      "stateMutability": "view",
      "type": "function"
    },
    {
      "inputs": [
        {
          "internalType": "address",
          "name": "to",
          "type": "address"
        },
        {
          "internalType": "uint256",
          "name": "tokenId",
          "type": "uint256"
        }
      ],
      "name": "approve",
      "outputs": [],
      "stateMutability": "nonpayable",
      "type": "function"
    },
    {
      "inputs": [
        {
          "internalType": "address",
          "name": "owner",
          "type": "address"
        }
      ],
      "name": "balanceOf",
      "outputs": [
        {
          "internalType": "uint256",
          "name": "",
          "type": "uint256"
        }
      ],
      "stateMutability": "view",
      "type": "function"
    },
    {
      "inputs": [
        {
          "internalType": "uint256",
          "name": "tokenId",
          "type": "uint256"
        }
      ],
      "name": "getApproved",
      "outputs": [
        {
          "internalType": "address",
          "name": "",
          "type": "address"
        }
      ],
      "stateMutability": "view",
      "type": "function"
    },
    {
      "inputs": [],
      "name": "getNumberOfNFTs",
      "outputs": [
        {
          "internalType": "uint256",
          "name": "",
          "type": "uint256"
        }
      ],
      "stateMutability": "view",
      "type": "function"
    },
    {
      "inputs": [
        {
          "internalType": "address",
          "name": "owner",
          "type": "address"
        },
        {
          "internalType": "address",
          "name": "operator",
          "type": "address"
        }
      ],
      "name": "isApprovedForAll",
      "outputs": [
        {
          "internalType": "bool",
          "name": "",
          "type": "bool"
        }
      ],
      "stateMutability": "view",
      "type": "function"
    },
    {
      "inputs": [
        {
          "internalType": "address",
          "name": "_to",
          "type": "address"
        },
        {
          "internalType": "string",
          "name": "_tokenURI",
          "type": "string"
        },
        {
          "internalType": "uint256",
          "name": "_totalPropertyFractionTokens",
          "type": "uint256"
        }
      ],
      "name": "mint",
      "outputs": [],
      "stateMutability": "nonpayable",
      "type": "function"
    },
    {
      "inputs": [],
      "name": "name",
      "outputs": [
        {
          "internalType": "string",
          "name": "",
          "type": "string"
        }
      ],
      "stateMutability": "view",
      "type": "function"
    },
    {
      "inputs": [],
      "name": "owner",
      "outputs": [
        {
          "internalType": "address",
          "name": "",
          "type": "address"
        }
      ],
      "stateMutability": "view",
      "type": "function"
    },
    {
      "inputs": [
        {
          "internalType": "uint256",
          "name": "tokenId",
          "type": "uint256"
        }
      ],
      "name": "ownerOf",
      "outputs": [
        {
          "internalType": "address",
          "name": "",
          "type": "address"
        }
      ],
      "stateMutability": "view",
      "type": "function"
    },
    {
      "inputs": [],
      "name": "pause",
      "outputs": [],
      "stateMutability": "nonpayable",
      "type": "function"
    },
    {
      "inputs": [],
      "name": "paused",
      "outputs": [
        {
          "internalType": "bool",
          "name": "",
          "type": "bool"
        }
      ],
      "stateMutability": "view",
      "type": "function"
    },
    {
      "inputs": [],
      "name": "renounceOwnership",
      "outputs": [],
      "stateMutability": "nonpayable",
      "type": "function"
    },
    {
      "inputs": [
        {
          "internalType": "address",
          "name": "from",
          "type": "address"
        },
        {
          "internalType": "address",
          "name": "to",
          "type": "address"
        },
        {
          "internalType": "uint256",
          "name": "tokenId",
          "type": "uint256"
        }
      ],
      "name": "safeTransferFrom",
      "outputs": [],
      "stateMutability": "nonpayable",
      "type": "function"
    },
    {
      "inputs": [
        {
          "internalType": "address",
          "name": "from",
          "type": "address"
        },
        {
          "internalType": "address",
          "name": "to",
          "type": "address"
        },
        {
          "internalType": "uint256",
          "name": "tokenId",
          "type": "uint256"
        },
        {
          "internalType": "bytes",
          "name": "data",
          "type": "bytes"
        }
      ],
      "name": "safeTransferFrom",
      "outputs": [],
      "stateMutability": "nonpayable",
      "type": "function"
    },
    {
      "inputs": [
        {
          "internalType": "address",
          "name": "operator",
          "type": "address"
        },
        {
          "internalType": "bool",
          "name": "approved",
          "type": "bool"
        }
      ],
      "name": "setApprovalForAll",
      "outputs": [],
      "stateMutability": "nonpayable",
      "type": "function"
    },
    {
      "inputs": [
        {
          "internalType": "bytes4",
          "name": "interfaceId",
          "type": "bytes4"
        }
      ],
      "name": "supportsInterface",
      "outputs": [
        {
          "internalType": "bool",
          "name": "",
          "type": "bool"
        }
      ],
      "stateMutability": "view",
      "type": "function"
    },
    {
      "inputs": [],
      "name": "symbol",
      "outputs": [
        {
          "internalType": "string",
          "name": "",
          "type": "string"
        }
      ],
      "stateMutability": "view",
      "type": "function"
    },
    {
      "inputs": [
        {
          "internalType": "uint256",
          "name": "tokenId",
          "type": "uint256"
        }
      ],
      "name": "tokenURI",
      "outputs": [
        {
          "internalType": "string",
          "name": "",
          "type": "string"
        }
      ],
      "stateMutability": "view",
      "type": "function"
    },
    {
      "inputs": [
        {
          "internalType": "address",
          "name": "_to",
          "type": "address"
        },
        {
          "internalType": "uint256",
          "name": "_tokenId",
          "type": "uint256"
        },
        {
          "internalType": "uint256",
          "name": "_amount",
          "type": "uint256"
        }
      ],
      "name": "transferERC20",
      "outputs": [],
      "stateMutability": "nonpayable",
      "type": "function"
    },
    {
      "inputs": [
        {
          "internalType": "address",
          "name": "from",
          "type": "address"
        },
        {
          "internalType": "address",
          "name": "to",
          "type": "address"
        },
        {
          "internalType": "uint256",
          "name": "tokenId",
          "type": "uint256"
        }
      ],
      "name": "transferFrom",
      "outputs": [],
      "stateMutability": "nonpayable",
      "type": "function"
    },
    {
      "inputs": [
        {
          "internalType": "address",
          "name": "newOwner",
          "type": "address"
        }
      ],
      "name": "transferOwnership",
      "outputs": [],
      "stateMutability": "nonpayable",
      "type": "function"
    },
    {
      "inputs": [],
      "name": "unpause",
      "outputs": [],
      "stateMutability": "nonpayable",
      "type": "function"
    }
  ],
  "bytecode": "0x60806040523480156200001157600080fd5b506040518060400160405280601381526020017f50726f7065727479436f6e74726163744e4654000000000000000000000000008152506040518060400160405280600581526020017f50434e4654000000000000000000000000000000000000000000000000000000815250816000908051906020019062000096929190620001c1565b508060019080519060200190620000af929190620001c1565b5050506000600760006101000a81548160ff021916908315150217905550620000ed620000e1620000f360201b60201c565b620000fb60201b60201c565b620002d6565b600033905090565b6000600760019054906101000a900473ffffffffffffffffffffffffffffffffffffffff16905081600760016101000a81548173ffffffffffffffffffffffffffffffffffffffff021916908373ffffffffffffffffffffffffffffffffffffffff1602179055508173ffffffffffffffffffffffffffffffffffffffff168173ffffffffffffffffffffffffffffffffffffffff167f8be0079c531659141344cd1fd0a4f28419497f9722a3daafe3b4186f6b6457e060405160405180910390a35050565b828054620001cf90620002a0565b90600052602060002090601f016020900481019282620001f357600085556200023f565b82601f106200020e57805160ff19168380011785556200023f565b828001600101855582156200023f579182015b828111156200023e57825182559160200191906001019062000221565b5b5090506200024e919062000252565b5090565b5b808211156200026d57600081600090555060010162000253565b5090565b7f4e487b7100000000000000000000000000000000000000000000000000000000600052602260045260246000fd5b60006002820490506001821680620002b957607f821691505b60208210811415620002d057620002cf62000271565b5b50919050565b61587280620002e66000396000f3fe60806040523480156200001157600080fd5b50600436106200016c5760003560e01c806380060ad211620000d5578063b756fb691162000087578063b756fb6914620003ce578063b88d4fde14620003ee578063ba7aef43146200040e578063c87b56dd146200042e578063e985e9c51462000464578063f2fde38b146200049a576200016c565b806380060ad214620003055780638456cb5914620003275780638da5cb5b146200033357806395d89b411462000355578063a224bd0f1462000377578063a22cb46514620003ae576200016c565b80633f4ba83a116200012f5780633f4ba83a146200023f57806342842e0e146200024b5780635c975abb146200026b5780636352211e146200028d57806370a0823114620002c3578063715018a614620002f9576200016c565b806301ffc9a7146200017157806306fdde0314620001a7578063081812fc14620001c9578063095ea7b314620001ff57806323b872dd146200021f575b600080fd5b6200018f6004803603810190620001899190620021bb565b620004ba565b6040516200019e91906200220a565b60405180910390f35b620001b1620004ce565b604051620001c09190620022cb565b60405180910390f35b620001e76004803603810190620001e191906200232a565b62000568565b604051620001f69190620023a1565b60405180910390f35b6200021d6004803603810190620002179190620023ef565b620005b0565b005b6200023d600480360381019062000237919062002436565b620006d9565b005b6200024962000742565b005b62000269600480360381019062000263919062002436565b62000758565b005b620002756200077a565b6040516200028491906200220a565b60405180910390f35b620002ab6004803603810190620002a591906200232a565b62000791565b604051620002ba9190620023a1565b60405180910390f35b620002e16004803603810190620002db919062002492565b62000846565b604051620002f09190620024d5565b60405180910390f35b6200030362000901565b005b6200030f62000919565b6040516200031e9190620024d5565b60405180910390f35b620003316200092c565b005b6200033d62000942565b6040516200034c9190620023a1565b60405180910390f35b6200035f6200096c565b6040516200036e9190620022cb565b60405180910390f35b6200039560048036038101906200038f91906200232a565b62000a06565b604051620003a5929190620024f2565b60405180910390f35b620003cc6004803603810190620003c6919062002550565b62000a4a565b005b620003ec6004803603810190620003e6919062002597565b62000a64565b005b6200040c600480360381019062000406919062002744565b62000b1e565b005b6200042c600480360381019062000426919062002889565b62000b89565b005b6200044c60048036038101906200044691906200232a565b62000cc0565b6040516200045b9190620022cb565b60405180910390f35b6200048260048036038101906200047c919062002904565b62000cd4565b6040516200049191906200220a565b60405180910390f35b620004b86004803603810190620004b2919062002492565b62000d68565b005b6000620004c78262000df3565b9050919050565b606060008054620004df906200297a565b80601f01602080910402602001604051908101604052809291908181526020018280546200050d906200297a565b80156200055e5780601f1062000532576101008083540402835291602001916200055e565b820191906000526020600020905b8154815290600101906020018083116200054057829003601f168201915b5050505050905090565b6000620005758262000ed9565b6004600083815260200190815260200160002060009054906101000a900473ffffffffffffffffffffffffffffffffffffffff169050919050565b6000620005bd8262000791565b90508073ffffffffffffffffffffffffffffffffffffffff168373ffffffffffffffffffffffffffffffffffffffff16141562000631576040517f08c379a0000000000000000000000000000000000000000000000000000000008152600401620006289062002a26565b60405180910390fd5b8073ffffffffffffffffffffffffffffffffffffffff166200065262000f29565b73ffffffffffffffffffffffffffffffffffffffff16148062000686575062000685816200067f62000f29565b62000cd4565b5b620006c8576040517f08c379a0000000000000000000000000000000000000000000000000000000008152600401620006bf9062002abe565b60405180910390fd5b620006d4838362000f31565b505050565b620006ee620006e762000f29565b8262000fec565b62000730576040517f08c379a0000000000000000000000000000000000000000000000000000000008152600401620007279062002b56565b60405180910390fd5b6200073d83838362001089565b505050565b6200074c62001302565b6200075662001387565b565b620007758383836040518060200160405280600081525062000b1e565b505050565b6000600760009054906101000a900460ff16905090565b6000806002600084815260200190815260200160002060009054906101000a900473ffffffffffffffffffffffffffffffffffffffff169050600073ffffffffffffffffffffffffffffffffffffffff168173ffffffffffffffffffffffffffffffffffffffff1614156200083d576040517f08c379a0000000000000000000000000000000000000000000000000000000008152600401620008349062002bc8565b60405180910390fd5b80915050919050565b60008073ffffffffffffffffffffffffffffffffffffffff168273ffffffffffffffffffffffffffffffffffffffff161415620008ba576040517f08c379a0000000000000000000000000000000000000000000000000000000008152600401620008b19062002c60565b60405180910390fd5b600360008373ffffffffffffffffffffffffffffffffffffffff1673ffffffffffffffffffffffffffffffffffffffff168152602001908152602001600020549050919050565b6200090b62001302565b620009176000620013f0565b565b6000620009276008620014b6565b905090565b6200093662001302565b62000940620014c4565b565b6000600760019054906101000a900473ffffffffffffffffffffffffffffffffffffffff16905090565b6060600180546200097d906200297a565b80601f0160208091040260200160405190810160405280929190818152602001828054620009ab906200297a565b8015620009fc5780601f10620009d057610100808354040283529160200191620009fc565b820191906000526020600020905b815481529060010190602001808311620009de57829003601f168201915b5050505050905090565b60096020528060005260406000206000915090508060000154908060010160009054906101000a900473ffffffffffffffffffffffffffffffffffffffff16905082565b62000a6062000a5862000f29565b83836200152d565b5050565b60006009600084815260200190815260200160002060010160009054906101000a900473ffffffffffffffffffffffffffffffffffffffff16905060008190508073ffffffffffffffffffffffffffffffffffffffff16638c2b1bd73387866040518463ffffffff1660e01b815260040162000ae39392919062002c82565b600060405180830381600087803b15801562000afe57600080fd5b505af115801562000b13573d6000803e3d6000fd5b505050505050505050565b62000b3362000b2c62000f29565b8362000fec565b62000b75576040517f08c379a000000000000000000000000000000000000000000000000000000000815260040162000b6c9062002b56565b60405180910390fd5b62000b83848484846200169f565b50505050565b62000b9362001302565b62000baa8362000ba46008620014b6565b62001702565b62000bc162000bba6008620014b6565b8362001722565b6000813360405162000bd3906200208c565b62000be0929190620024f2565b604051809103906000f08015801562000bfd573d6000803e3d6000fd5b5090506000604051806040016040528062000c196008620014b6565b81526020018373ffffffffffffffffffffffffffffffffffffffff168152509050806009600062000c4b6008620014b6565b81526020019081526020016000206000820151816000015560208201518160010160006101000a81548173ffffffffffffffffffffffffffffffffffffffff021916908373ffffffffffffffffffffffffffffffffffffffff16021790555090505062000cb960086200179d565b5050505050565b606062000ccd82620017b3565b9050919050565b6000600560008473ffffffffffffffffffffffffffffffffffffffff1673ffffffffffffffffffffffffffffffffffffffff16815260200190815260200160002060008373ffffffffffffffffffffffffffffffffffffffff1673ffffffffffffffffffffffffffffffffffffffff16815260200190815260200160002060009054906101000a900460ff16905092915050565b62000d7262001302565b600073ffffffffffffffffffffffffffffffffffffffff168173ffffffffffffffffffffffffffffffffffffffff16141562000de5576040517f08c379a000000000000000000000000000000000000000000000000000000000815260040162000ddc9062002d35565b60405180910390fd5b62000df081620013f0565b50565b60007f80ac58cd000000000000000000000000000000000000000000000000000000007bffffffffffffffffffffffffffffffffffffffffffffffffffffffff1916827bffffffffffffffffffffffffffffffffffffffffffffffffffffffff1916148062000ebf57507f5b5e139f000000000000000000000000000000000000000000000000000000007bffffffffffffffffffffffffffffffffffffffffffffffffffffffff1916827bffffffffffffffffffffffffffffffffffffffffffffffffffffffff1916145b8062000ed2575062000ed182620018da565b5b9050919050565b62000ee48162001944565b62000f26576040517f08c379a000000000000000000000000000000000000000000000000000000000815260040162000f1d9062002bc8565b60405180910390fd5b50565b600033905090565b816004600083815260200190815260200160002060006101000a81548173ffffffffffffffffffffffffffffffffffffffff021916908373ffffffffffffffffffffffffffffffffffffffff160217905550808273ffffffffffffffffffffffffffffffffffffffff1662000fa68362000791565b73ffffffffffffffffffffffffffffffffffffffff167f8c5be1e5ebec7d5bd14f71427d1e84f3dd0314c0f7b2291e5b200ac8c7c3b92560405160405180910390a45050565b60008062000ffa8362000791565b90508073ffffffffffffffffffffffffffffffffffffffff168473ffffffffffffffffffffffffffffffffffffffff1614806200103f57506200103e818562000cd4565b5b806200108057508373ffffffffffffffffffffffffffffffffffffffff16620010688462000568565b73ffffffffffffffffffffffffffffffffffffffff16145b91505092915050565b8273ffffffffffffffffffffffffffffffffffffffff16620010ab8262000791565b73ffffffffffffffffffffffffffffffffffffffff161462001104576040517f08c379a0000000000000000000000000000000000000000000000000000000008152600401620010fb9062002dcd565b60405180910390fd5b600073ffffffffffffffffffffffffffffffffffffffff168273ffffffffffffffffffffffffffffffffffffffff16141562001177576040517f08c379a00000000000000000000000000000000000000000000000000000000081526004016200116e9062002e65565b60405180910390fd5b62001184838383620019b0565b6200119160008262000f31565b6001600360008573ffffffffffffffffffffffffffffffffffffffff1673ffffffffffffffffffffffffffffffffffffffff1681526020019081526020016000206000828254620011e3919062002eb6565b925050819055506001600360008473ffffffffffffffffffffffffffffffffffffffff1673ffffffffffffffffffffffffffffffffffffffff16815260200190815260200160002060008282546200123c919062002ef1565b92505081905550816002600083815260200190815260200160002060006101000a81548173ffffffffffffffffffffffffffffffffffffffff021916908373ffffffffffffffffffffffffffffffffffffffff160217905550808273ffffffffffffffffffffffffffffffffffffffff168473ffffffffffffffffffffffffffffffffffffffff167fddf252ad1be2c89b69c2b068fc378daa952ba7f163c4a11628f55a4df523b3ef60405160405180910390a4620012fd838383620019cc565b505050565b6200130c62000f29565b73ffffffffffffffffffffffffffffffffffffffff166200132c62000942565b73ffffffffffffffffffffffffffffffffffffffff161462001385576040517f08c379a00000000000000000000000000000000000000000000000000000000081526004016200137c9062002f9e565b60405180910390fd5b565b62001391620019d1565b6000600760006101000a81548160ff0219169083151502179055507f5db9ee0a495bf2e6ff9c91a7834c1ba4fdd244a5e8aa4e537bd38aeae4b073aa620013d762000f29565b604051620013e69190620023a1565b60405180910390a1565b6000600760019054906101000a900473ffffffffffffffffffffffffffffffffffffffff16905081600760016101000a81548173ffffffffffffffffffffffffffffffffffffffff021916908373ffffffffffffffffffffffffffffffffffffffff1602179055508173ffffffffffffffffffffffffffffffffffffffff168173ffffffffffffffffffffffffffffffffffffffff167f8be0079c531659141344cd1fd0a4f28419497f9722a3daafe3b4186f6b6457e060405160405180910390a35050565b600081600001549050919050565b620014ce62001a1f565b6001600760006101000a81548160ff0219169083151502179055507f62e78cea01bee320cd4e420270b5ea74000d11b0c9f74754ebdbfc544b05a2586200151462000f29565b604051620015239190620023a1565b60405180910390a1565b8173ffffffffffffffffffffffffffffffffffffffff168373ffffffffffffffffffffffffffffffffffffffff1614156200159f576040517f08c379a0000000000000000000000000000000000000000000000000000000008152600401620015969062003010565b60405180910390fd5b80600560008573ffffffffffffffffffffffffffffffffffffffff1673ffffffffffffffffffffffffffffffffffffffff16815260200190815260200160002060008473ffffffffffffffffffffffffffffffffffffffff1673ffffffffffffffffffffffffffffffffffffffff16815260200190815260200160002060006101000a81548160ff0219169083151502179055508173ffffffffffffffffffffffffffffffffffffffff168373ffffffffffffffffffffffffffffffffffffffff167f17307eab39ab6107e8899845ad3d59bd9653f200f220920489ca2b5937696c31836040516200169291906200220a565b60405180910390a3505050565b620016ac84848462001089565b620016ba8484848462001a6e565b620016fc576040517f08c379a0000000000000000000000000000000000000000000000000000000008152600401620016f390620030a8565b60405180910390fd5b50505050565b6200171e82826040518060200160405280600081525062001c17565b5050565b6200172d8262001944565b6200176f576040517f08c379a0000000000000000000000000000000000000000000000000000000008152600401620017669062003140565b60405180910390fd5b80600660008481526020019081526020016000209080519060200190620017989291906200209a565b505050565b6001816000016000828254019250508190555050565b6060620017c08262000ed9565b6000600660008481526020019081526020016000208054620017e2906200297a565b80601f016020809104026020016040519081016040528092919081815260200182805462001810906200297a565b8015620018615780601f10620018355761010080835404028352916020019162001861565b820191906000526020600020905b8154815290600101906020018083116200184357829003601f168201915b5050505050905060006200187462001c79565b90506000815114156200188c578192505050620018d5565b600082511115620018c5578082604051602001620018ac929190620031a4565b60405160208183030381529060405292505050620018d5565b620018d08462001c90565b925050505b919050565b60007f01ffc9a7000000000000000000000000000000000000000000000000000000007bffffffffffffffffffffffffffffffffffffffffffffffffffffffff1916827bffffffffffffffffffffffffffffffffffffffffffffffffffffffff1916149050919050565b60008073ffffffffffffffffffffffffffffffffffffffff166002600084815260200190815260200160002060009054906101000a900473ffffffffffffffffffffffffffffffffffffffff1673ffffffffffffffffffffffffffffffffffffffff1614159050919050565b620019ba62001a1f565b620019c783838362001d02565b505050565b505050565b620019db6200077a565b62001a1d576040517f08c379a000000000000000000000000000000000000000000000000000000000815260040162001a14906200321c565b60405180910390fd5b565b62001a296200077a565b1562001a6c576040517f08c379a000000000000000000000000000000000000000000000000000000000815260040162001a63906200328e565b60405180910390fd5b565b600062001a918473ffffffffffffffffffffffffffffffffffffffff1662001d07565b1562001c0a578373ffffffffffffffffffffffffffffffffffffffff1663150b7a0262001abd62000f29565b8786866040518563ffffffff1660e01b815260040162001ae194939291906200330d565b602060405180830381600087803b15801562001afc57600080fd5b505af192505050801562001b3057506040513d601f19601f8201168201806040525081019062001b2d919062003378565b60015b62001bb9573d806000811462001b63576040519150601f19603f3d011682016040523d82523d6000602084013e62001b68565b606091505b5060008151141562001bb1576040517f08c379a000000000000000000000000000000000000000000000000000000000815260040162001ba890620030a8565b60405180910390fd5b805181602001fd5b63150b7a0260e01b7bffffffffffffffffffffffffffffffffffffffffffffffffffffffff1916817bffffffffffffffffffffffffffffffffffffffffffffffffffffffff19161491505062001c0f565b600190505b949350505050565b62001c23838362001d2a565b62001c32600084848462001a6e565b62001c74576040517f08c379a000000000000000000000000000000000000000000000000000000000815260040162001c6b90620030a8565b60405180910390fd5b505050565b606060405180602001604052806000815250905090565b606062001c9d8262000ed9565b600062001ca962001c79565b9050600081511162001ccb576040518060200160405280600081525062001cfa565b8062001cd78462001f12565b60405160200162001cea929190620031a4565b6040516020818303038152906040525b915050919050565b505050565b6000808273ffffffffffffffffffffffffffffffffffffffff163b119050919050565b600073ffffffffffffffffffffffffffffffffffffffff168273ffffffffffffffffffffffffffffffffffffffff16141562001d9d576040517f08c379a000000000000000000000000000000000000000000000000000000000815260040162001d9490620033fa565b60405180910390fd5b62001da88162001944565b1562001deb576040517f08c379a000000000000000000000000000000000000000000000000000000000815260040162001de2906200346c565b60405180910390fd5b62001df960008383620019b0565b6001600360008473ffffffffffffffffffffffffffffffffffffffff1673ffffffffffffffffffffffffffffffffffffffff168152602001908152602001600020600082825462001e4b919062002ef1565b92505081905550816002600083815260200190815260200160002060006101000a81548173ffffffffffffffffffffffffffffffffffffffff021916908373ffffffffffffffffffffffffffffffffffffffff160217905550808273ffffffffffffffffffffffffffffffffffffffff16600073ffffffffffffffffffffffffffffffffffffffff167fddf252ad1be2c89b69c2b068fc378daa952ba7f163c4a11628f55a4df523b3ef60405160405180910390a462001f0e60008383620019cc565b5050565b6060600082141562001f5c576040518060400160405280600181526020017f3000000000000000000000000000000000000000000000000000000000000000815250905062002087565b600082905060005b6000821462001f9457808062001f7a906200348e565b915050600a8262001f8c91906200350b565b915062001f64565b60008167ffffffffffffffff81111562001fb35762001fb2620025fd565b5b6040519080825280601f01601f19166020018201604052801562001fe65781602001600182028036833780820191505090505b5090505b60008514620020805760018262002002919062002eb6565b9150600a8562002013919062003543565b603062002021919062002ef1565b60f81b8183815181106200203a57620020396200357b565b5b60200101907effffffffffffffffffffffffffffffffffffffffffffffffffffffffffffff1916908160001a905350600a856200207891906200350b565b945062001fea565b8093505050505b919050565b61229280620035ab83390190565b828054620020a8906200297a565b90600052602060002090601f016020900481019282620020cc576000855562002118565b82601f10620020e757805160ff191683800117855562002118565b8280016001018555821562002118579182015b8281111562002117578251825591602001919060010190620020fa565b5b5090506200212791906200212b565b5090565b5b80821115620021465760008160009055506001016200212c565b5090565b6000604051905090565b600080fd5b600080fd5b60007fffffffff0000000000000000000000000000000000000000000000000000000082169050919050565b62002195816200215e565b8114620021a157600080fd5b50565b600081359050620021b5816200218a565b92915050565b600060208284031215620021d457620021d362002154565b5b6000620021e484828501620021a4565b91505092915050565b60008115159050919050565b6200220481620021ed565b82525050565b6000602082019050620022216000830184620021f9565b92915050565b600081519050919050565b600082825260208201905092915050565b60005b838110156200226357808201518184015260208101905062002246565b8381111562002273576000848401525b50505050565b6000601f19601f8301169050919050565b6000620022978262002227565b620022a3818562002232565b9350620022b581856020860162002243565b620022c08162002279565b840191505092915050565b60006020820190508181036000830152620022e781846200228a565b905092915050565b6000819050919050565b6200230481620022ef565b81146200231057600080fd5b50565b6000813590506200232481620022f9565b92915050565b60006020828403121562002343576200234262002154565b5b6000620023538482850162002313565b91505092915050565b600073ffffffffffffffffffffffffffffffffffffffff82169050919050565b600062002389826200235c565b9050919050565b6200239b816200237c565b82525050565b6000602082019050620023b8600083018462002390565b92915050565b620023c9816200237c565b8114620023d557600080fd5b50565b600081359050620023e981620023be565b92915050565b6000806040838503121562002409576200240862002154565b5b60006200241985828601620023d8565b92505060206200242c8582860162002313565b9150509250929050565b60008060006060848603121562002452576200245162002154565b5b60006200246286828701620023d8565b93505060206200247586828701620023d8565b9250506040620024888682870162002313565b9150509250925092565b600060208284031215620024ab57620024aa62002154565b5b6000620024bb84828501620023d8565b91505092915050565b620024cf81620022ef565b82525050565b6000602082019050620024ec6000830184620024c4565b92915050565b6000604082019050620025096000830185620024c4565b62002518602083018462002390565b9392505050565b6200252a81620021ed565b81146200253657600080fd5b50565b6000813590506200254a816200251f565b92915050565b600080604083850312156200256a576200256962002154565b5b60006200257a85828601620023d8565b92505060206200258d8582860162002539565b9150509250929050565b600080600060608486031215620025b357620025b262002154565b5b6000620025c386828701620023d8565b9350506020620025d68682870162002313565b9250506040620025e98682870162002313565b9150509250925092565b600080fd5b600080fd5b7f4e487b7100000000000000000000000000000000000000000000000000000000600052604160045260246000fd5b620026378262002279565b810181811067ffffffffffffffff82111715620026595762002658620025fd565b5b80604052505050565b60006200266e6200214a565b90506200267c82826200262c565b919050565b600067ffffffffffffffff8211156200269f576200269e620025fd565b5b620026aa8262002279565b9050602081019050919050565b82818337600083830152505050565b6000620026dd620026d78462002681565b62002662565b905082815260208101848484011115620026fc57620026fb620025f8565b5b62002709848285620026b7565b509392505050565b600082601f830112620027295762002728620025f3565b5b81356200273b848260208601620026c6565b91505092915050565b6000806000806080858703121562002761576200276062002154565b5b60006200277187828801620023d8565b94505060206200278487828801620023d8565b9350506040620027978782880162002313565b925050606085013567ffffffffffffffff811115620027bb57620027ba62002159565b5b620027c98782880162002711565b91505092959194509250565b600067ffffffffffffffff821115620027f357620027f2620025fd565b5b620027fe8262002279565b9050602081019050919050565b6000620028226200281c84620027d5565b62002662565b905082815260208101848484011115620028415762002840620025f8565b5b6200284e848285620026b7565b509392505050565b600082601f8301126200286e576200286d620025f3565b5b8135620028808482602086016200280b565b91505092915050565b600080600060608486031215620028a557620028a462002154565b5b6000620028b586828701620023d8565b935050602084013567ffffffffffffffff811115620028d957620028d862002159565b5b620028e78682870162002856565b9250506040620028fa8682870162002313565b9150509250925092565b600080604083850312156200291e576200291d62002154565b5b60006200292e85828601620023d8565b92505060206200294185828601620023d8565b9150509250929050565b7f4e487b7100000000000000000000000000000000000000000000000000000000600052602260045260246000fd5b600060028204905060018216806200299357607f821691505b60208210811415620029aa57620029a96200294b565b5b50919050565b7f4552433732313a20617070726f76616c20746f2063757272656e74206f776e6560008201527f7200000000000000000000000000000000000000000000000000000000000000602082015250565b600062002a0e60218362002232565b915062002a1b82620029b0565b604082019050919050565b6000602082019050818103600083015262002a4181620029ff565b9050919050565b7f4552433732313a20617070726f76652063616c6c6572206973206e6f7420746f60008201527f6b656e206f776e6572206e6f7220617070726f76656420666f7220616c6c0000602082015250565b600062002aa6603e8362002232565b915062002ab38262002a48565b604082019050919050565b6000602082019050818103600083015262002ad98162002a97565b9050919050565b7f4552433732313a2063616c6c6572206973206e6f7420746f6b656e206f776e6560008201527f72206e6f7220617070726f766564000000000000000000000000000000000000602082015250565b600062002b3e602e8362002232565b915062002b4b8262002ae0565b604082019050919050565b6000602082019050818103600083015262002b718162002b2f565b9050919050565b7f4552433732313a20696e76616c696420746f6b656e2049440000000000000000600082015250565b600062002bb060188362002232565b915062002bbd8262002b78565b602082019050919050565b6000602082019050818103600083015262002be38162002ba1565b9050919050565b7f4552433732313a2061646472657373207a65726f206973206e6f74206120766160008201527f6c6964206f776e65720000000000000000000000000000000000000000000000602082015250565b600062002c4860298362002232565b915062002c558262002bea565b604082019050919050565b6000602082019050818103600083015262002c7b8162002c39565b9050919050565b600060608201905062002c99600083018662002390565b62002ca8602083018562002390565b62002cb76040830184620024c4565b949350505050565b7f4f776e61626c653a206e6577206f776e657220697320746865207a65726f206160008201527f6464726573730000000000000000000000000000000000000000000000000000602082015250565b600062002d1d60268362002232565b915062002d2a8262002cbf565b604082019050919050565b6000602082019050818103600083015262002d508162002d0e565b9050919050565b7f4552433732313a207472616e736665722066726f6d20696e636f72726563742060008201527f6f776e6572000000000000000000000000000000000000000000000000000000602082015250565b600062002db560258362002232565b915062002dc28262002d57565b604082019050919050565b6000602082019050818103600083015262002de88162002da6565b9050919050565b7f4552433732313a207472616e7366657220746f20746865207a65726f2061646460008201527f7265737300000000000000000000000000000000000000000000000000000000602082015250565b600062002e4d60248362002232565b915062002e5a8262002def565b604082019050919050565b6000602082019050818103600083015262002e808162002e3e565b9050919050565b7f4e487b7100000000000000000000000000000000000000000000000000000000600052601160045260246000fd5b600062002ec382620022ef565b915062002ed083620022ef565b92508282101562002ee65762002ee562002e87565b5b828203905092915050565b600062002efe82620022ef565b915062002f0b83620022ef565b9250827fffffffffffffffffffffffffffffffffffffffffffffffffffffffffffffffff0382111562002f435762002f4262002e87565b5b828201905092915050565b7f4f776e61626c653a2063616c6c6572206973206e6f7420746865206f776e6572600082015250565b600062002f8660208362002232565b915062002f938262002f4e565b602082019050919050565b6000602082019050818103600083015262002fb98162002f77565b9050919050565b7f4552433732313a20617070726f766520746f2063616c6c657200000000000000600082015250565b600062002ff860198362002232565b9150620030058262002fc0565b602082019050919050565b600060208201905081810360008301526200302b8162002fe9565b9050919050565b7f4552433732313a207472616e7366657220746f206e6f6e20455243373231526560008201527f63656976657220696d706c656d656e7465720000000000000000000000000000602082015250565b60006200309060328362002232565b91506200309d8262003032565b604082019050919050565b60006020820190508181036000830152620030c38162003081565b9050919050565b7f45524337323155524953746f726167653a2055524920736574206f66206e6f6e60008201527f6578697374656e7420746f6b656e000000000000000000000000000000000000602082015250565b600062003128602e8362002232565b91506200313582620030ca565b604082019050919050565b600060208201905081810360008301526200315b8162003119565b9050919050565b600081905092915050565b60006200317a8262002227565b62003186818562003162565b93506200319881856020860162002243565b80840191505092915050565b6000620031b282856200316d565b9150620031c082846200316d565b91508190509392505050565b7f5061757361626c653a206e6f7420706175736564000000000000000000000000600082015250565b60006200320460148362002232565b91506200321182620031cc565b602082019050919050565b600060208201905081810360008301526200323781620031f5565b9050919050565b7f5061757361626c653a2070617573656400000000000000000000000000000000600082015250565b60006200327660108362002232565b915062003283826200323e565b602082019050919050565b60006020820190508181036000830152620032a98162003267565b9050919050565b600081519050919050565b600082825260208201905092915050565b6000620032d982620032b0565b620032e58185620032bb565b9350620032f781856020860162002243565b620033028162002279565b840191505092915050565b600060808201905062003324600083018762002390565b62003333602083018662002390565b620033426040830185620024c4565b8181036060830152620033568184620032cc565b905095945050505050565b60008151905062003372816200218a565b92915050565b60006020828403121562003391576200339062002154565b5b6000620033a18482850162003361565b91505092915050565b7f4552433732313a206d696e7420746f20746865207a65726f2061646472657373600082015250565b6000620033e260208362002232565b9150620033ef82620033aa565b602082019050919050565b600060208201905081810360008301526200341581620033d3565b9050919050565b7f4552433732313a20746f6b656e20616c7265616479206d696e74656400000000600082015250565b600062003454601c8362002232565b915062003461826200341c565b602082019050919050565b60006020820190508181036000830152620034878162003445565b9050919050565b60006200349b82620022ef565b91507fffffffffffffffffffffffffffffffffffffffffffffffffffffffffffffffff821415620034d157620034d062002e87565b5b600182019050919050565b7f4e487b7100000000000000000000000000000000000000000000000000000000600052601260045260246000fd5b60006200351882620022ef565b91506200352583620022ef565b925082620035385762003537620034dc565b5b828204905092915050565b60006200355082620022ef565b91506200355d83620022ef565b92508262003570576200356f620034dc565b5b828206905092915050565b7f4e487b7100000000000000000000000000000000000000000000000000000000600052603260045260246000fdfe60806040523480156200001157600080fd5b5060405162002292380380620022928339818101604052810190620000379190620004a6565b6040518060400160405280601581526020017f50726f70657274794672616374696f6e546f6b656e00000000000000000000008152506040518060400160405280600381526020017f50465400000000000000000000000000000000000000000000000000000000008152508160039080519060200190620000bb92919062000351565b508060049080519060200190620000d492919062000351565b5050506200011681620000ec620001c560201b60201c565b60ff16600a620000fd919062000670565b846200010a9190620006c1565b620001ce60201b60201c565b81600560008373ffffffffffffffffffffffffffffffffffffffff1673ffffffffffffffffffffffffffffffffffffffff168152602001908152602001600020819055506006819080600181540180825580915050600190039060005260206000200160009091909190916101000a81548173ffffffffffffffffffffffffffffffffffffffff021916908373ffffffffffffffffffffffffffffffffffffffff160217905550505062000895565b60006012905090565b600073ffffffffffffffffffffffffffffffffffffffff168273ffffffffffffffffffffffffffffffffffffffff16141562000241576040517f08c379a0000000000000000000000000000000000000000000000000000000008152600401620002389062000783565b60405180910390fd5b62000255600083836200034760201b60201c565b8060026000828254620002699190620007a5565b92505081905550806000808473ffffffffffffffffffffffffffffffffffffffff1673ffffffffffffffffffffffffffffffffffffffff1681526020019081526020016000206000828254620002c09190620007a5565b925050819055508173ffffffffffffffffffffffffffffffffffffffff16600073ffffffffffffffffffffffffffffffffffffffff167fddf252ad1be2c89b69c2b068fc378daa952ba7f163c4a11628f55a4df523b3ef8360405162000327919062000813565b60405180910390a362000343600083836200034c60201b60201c565b5050565b505050565b505050565b8280546200035f906200085f565b90600052602060002090601f016020900481019282620003835760008555620003cf565b82601f106200039e57805160ff1916838001178555620003cf565b82800160010185558215620003cf579182015b82811115620003ce578251825591602001919060010190620003b1565b5b509050620003de9190620003e2565b5090565b5b80821115620003fd576000816000905550600101620003e3565b5090565b600080fd5b6000819050919050565b6200041b8162000406565b81146200042757600080fd5b50565b6000815190506200043b8162000410565b92915050565b600073ffffffffffffffffffffffffffffffffffffffff82169050919050565b60006200046e8262000441565b9050919050565b620004808162000461565b81146200048c57600080fd5b50565b600081519050620004a08162000475565b92915050565b60008060408385031215620004c057620004bf62000401565b5b6000620004d0858286016200042a565b9250506020620004e3858286016200048f565b9150509250929050565b7f4e487b7100000000000000000000000000000000000000000000000000000000600052601160045260246000fd5b60008160011c9050919050565b6000808291508390505b60018511156200057b57808604811115620005535762000552620004ed565b5b6001851615620005635780820291505b808102905062000573856200051c565b945062000533565b94509492505050565b60008262000596576001905062000669565b81620005a6576000905062000669565b8160018114620005bf5760028114620005ca5762000600565b600191505062000669565b60ff841115620005df57620005de620004ed565b5b8360020a915084821115620005f957620005f8620004ed565b5b5062000669565b5060208310610133831016604e8410600b84101617156200063a5782820a905083811115620006345762000633620004ed565b5b62000669565b62000649848484600162000529565b92509050818404811115620006635762000662620004ed565b5b81810290505b9392505050565b60006200067d8262000406565b91506200068a8362000406565b9250620006b97fffffffffffffffffffffffffffffffffffffffffffffffffffffffffffffffff848462000584565b905092915050565b6000620006ce8262000406565b9150620006db8362000406565b9250817fffffffffffffffffffffffffffffffffffffffffffffffffffffffffffffffff0483118215151615620007175762000716620004ed565b5b828202905092915050565b600082825260208201905092915050565b7f45524332303a206d696e7420746f20746865207a65726f206164647265737300600082015250565b60006200076b601f8362000722565b9150620007788262000733565b602082019050919050565b600060208201905081810360008301526200079e816200075c565b9050919050565b6000620007b28262000406565b9150620007bf8362000406565b9250827fffffffffffffffffffffffffffffffffffffffffffffffffffffffffffffffff03821115620007f757620007f6620004ed565b5b828201905092915050565b6200080d8162000406565b82525050565b60006020820190506200082a600083018462000802565b92915050565b7f4e487b7100000000000000000000000000000000000000000000000000000000600052602260045260246000fd5b600060028204905060018216806200087857607f821691505b602082108114156200088f576200088e62000830565b5b50919050565b6119ed80620008a56000396000f3fe608060405234801561001057600080fd5b50600436106101005760003560e01c80638c2b1bd711610097578063a9059cbb11610066578063a9059cbb146102e9578063c451674114610319578063c734416514610337578063dd62ed3e1461035557610100565b80638c2b1bd71461024f57806395d89b411461026b5780639ee946a514610289578063a457c2d7146102b957610100565b806323b872dd116100d357806323b872dd146101a1578063313ce567146101d157806339509351146101ef57806370a082311461021f57610100565b806306fdde0314610105578063095ea7b3146101235780630f8c9e281461015357806318160ddd14610183575b600080fd5b61010d610385565b60405161011a9190610ef8565b60405180910390f35b61013d60048036038101906101389190610fb3565b610417565b60405161014a919061100e565b60405180910390f35b61016d60048036038101906101689190611029565b61043a565b60405161017a9190611065565b60405180910390f35b61018b610479565b604051610198919061108f565b60405180910390f35b6101bb60048036038101906101b691906110aa565b610483565b6040516101c8919061100e565b60405180910390f35b6101d96104b2565b6040516101e69190611119565b60405180910390f35b61020960048036038101906102049190610fb3565b6104bb565b604051610216919061100e565b60405180910390f35b61023960048036038101906102349190611134565b6104f2565b604051610246919061108f565b60405180910390f35b610269600480360381019061026491906110aa565b61053a565b005b61027361070f565b6040516102809190610ef8565b60405180910390f35b6102a3600480360381019061029e9190611134565b6107a1565b6040516102b0919061108f565b60405180910390f35b6102d360048036038101906102ce9190610fb3565b6107b9565b6040516102e0919061100e565b60405180910390f35b61030360048036038101906102fe9190610fb3565b610830565b604051610310919061100e565b60405180910390f35b610321610853565b60405161032e919061121f565b60405180910390f35b61033f6108e1565b60405161034c919061108f565b60405180910390f35b61036f600480360381019061036a9190611241565b6108ee565b60405161037c919061108f565b60405180910390f35b606060038054610394906112b0565b80601f01602080910402602001604051908101604052809291908181526020018280546103c0906112b0565b801561040d5780601f106103e25761010080835404028352916020019161040d565b820191906000526020600020905b8154815290600101906020018083116103f057829003601f168201915b5050505050905090565b600080610422610975565b905061042f81858561097d565b600191505092915050565b6006818154811061044a57600080fd5b906000526020600020016000915054906101000a900473ffffffffffffffffffffffffffffffffffffffff1681565b6000600254905090565b60008061048e610975565b905061049b858285610b48565b6104a6858585610bd4565b60019150509392505050565b60006012905090565b6000806104c6610975565b90506104e78185856104d885896108ee565b6104e29190611311565b61097d565b600191505092915050565b60008060008373ffffffffffffffffffffffffffffffffffffffff1673ffffffffffffffffffffffffffffffffffffffff168152602001908152602001600020549050919050565b6000610545846104f2565b1415610586576040517f08c379a000000000000000000000000000000000000000000000000000000000815260040161057d906113b3565b60405180910390fd5b6000600560008473ffffffffffffffffffffffffffffffffffffffff1673ffffffffffffffffffffffffffffffffffffffff168152602001908152602001600020541415610632576006829080600181540180825580915050600190039060005260206000200160009091909190916101000a81548173ffffffffffffffffffffffffffffffffffffffff021916908373ffffffffffffffffffffffffffffffffffffffff1602179055505b61065e838361063f6104b2565b60ff16600a61064e9190611506565b846106599190611551565b610bd4565b80600560008573ffffffffffffffffffffffffffffffffffffffff1673ffffffffffffffffffffffffffffffffffffffff16815260200190815260200160002060008282546106ad91906115ab565b9250508190555080600560008473ffffffffffffffffffffffffffffffffffffffff1673ffffffffffffffffffffffffffffffffffffffff16815260200190815260200160002060008282546107039190611311565b92505081905550505050565b60606004805461071e906112b0565b80601f016020809104026020016040519081016040528092919081815260200182805461074a906112b0565b80156107975780601f1061076c57610100808354040283529160200191610797565b820191906000526020600020905b81548152906001019060200180831161077a57829003601f168201915b5050505050905090565b60056020528060005260406000206000915090505481565b6000806107c4610975565b905060006107d282866108ee565b905083811015610817576040517f08c379a000000000000000000000000000000000000000000000000000000000815260040161080e90611651565b60405180910390fd5b610824828686840361097d565b60019250505092915050565b60008061083b610975565b9050610848818585610bd4565b600191505092915050565b606060068054806020026020016040519081016040528092919081815260200182805480156108d757602002820191906000526020600020905b8160009054906101000a900473ffffffffffffffffffffffffffffffffffffffff1673ffffffffffffffffffffffffffffffffffffffff168152602001906001019080831161088d575b5050505050905090565b6000600680549050905090565b6000600160008473ffffffffffffffffffffffffffffffffffffffff1673ffffffffffffffffffffffffffffffffffffffff16815260200190815260200160002060008373ffffffffffffffffffffffffffffffffffffffff1673ffffffffffffffffffffffffffffffffffffffff16815260200190815260200160002054905092915050565b600033905090565b600073ffffffffffffffffffffffffffffffffffffffff168373ffffffffffffffffffffffffffffffffffffffff1614156109ed576040517f08c379a00000000000000000000000000000000000000000000000000000000081526004016109e4906116e3565b60405180910390fd5b600073ffffffffffffffffffffffffffffffffffffffff168273ffffffffffffffffffffffffffffffffffffffff161415610a5d576040517f08c379a0000000000000000000000000000000000000000000000000000000008152600401610a5490611775565b60405180910390fd5b80600160008573ffffffffffffffffffffffffffffffffffffffff1673ffffffffffffffffffffffffffffffffffffffff16815260200190815260200160002060008473ffffffffffffffffffffffffffffffffffffffff1673ffffffffffffffffffffffffffffffffffffffff168152602001908152602001600020819055508173ffffffffffffffffffffffffffffffffffffffff168373ffffffffffffffffffffffffffffffffffffffff167f8c5be1e5ebec7d5bd14f71427d1e84f3dd0314c0f7b2291e5b200ac8c7c3b92583604051610b3b919061108f565b60405180910390a3505050565b6000610b5484846108ee565b90507fffffffffffffffffffffffffffffffffffffffffffffffffffffffffffffffff8114610bce5781811015610bc0576040517f08c379a0000000000000000000000000000000000000000000000000000000008152600401610bb7906117e1565b60405180910390fd5b610bcd848484840361097d565b5b50505050565b600073ffffffffffffffffffffffffffffffffffffffff168373ffffffffffffffffffffffffffffffffffffffff161415610c44576040517f08c379a0000000000000000000000000000000000000000000000000000000008152600401610c3b90611873565b60405180910390fd5b600073ffffffffffffffffffffffffffffffffffffffff168273ffffffffffffffffffffffffffffffffffffffff161415610cb4576040517f08c379a0000000000000000000000000000000000000000000000000000000008152600401610cab90611905565b60405180910390fd5b610cbf838383610e55565b60008060008573ffffffffffffffffffffffffffffffffffffffff1673ffffffffffffffffffffffffffffffffffffffff16815260200190815260200160002054905081811015610d45576040517f08c379a0000000000000000000000000000000000000000000000000000000008152600401610d3c90611997565b60405180910390fd5b8181036000808673ffffffffffffffffffffffffffffffffffffffff1673ffffffffffffffffffffffffffffffffffffffff16815260200190815260200160002081905550816000808573ffffffffffffffffffffffffffffffffffffffff1673ffffffffffffffffffffffffffffffffffffffff1681526020019081526020016000206000828254610dd89190611311565b925050819055508273ffffffffffffffffffffffffffffffffffffffff168473ffffffffffffffffffffffffffffffffffffffff167fddf252ad1be2c89b69c2b068fc378daa952ba7f163c4a11628f55a4df523b3ef84604051610e3c919061108f565b60405180910390a3610e4f848484610e5a565b50505050565b505050565b505050565b600081519050919050565b600082825260208201905092915050565b60005b83811015610e99578082015181840152602081019050610e7e565b83811115610ea8576000848401525b50505050565b6000601f19601f8301169050919050565b6000610eca82610e5f565b610ed48185610e6a565b9350610ee4818560208601610e7b565b610eed81610eae565b840191505092915050565b60006020820190508181036000830152610f128184610ebf565b905092915050565b600080fd5b600073ffffffffffffffffffffffffffffffffffffffff82169050919050565b6000610f4a82610f1f565b9050919050565b610f5a81610f3f565b8114610f6557600080fd5b50565b600081359050610f7781610f51565b92915050565b6000819050919050565b610f9081610f7d565b8114610f9b57600080fd5b50565b600081359050610fad81610f87565b92915050565b60008060408385031215610fca57610fc9610f1a565b5b6000610fd885828601610f68565b9250506020610fe985828601610f9e565b9150509250929050565b60008115159050919050565b61100881610ff3565b82525050565b60006020820190506110236000830184610fff565b92915050565b60006020828403121561103f5761103e610f1a565b5b600061104d84828501610f9e565b91505092915050565b61105f81610f3f565b82525050565b600060208201905061107a6000830184611056565b92915050565b61108981610f7d565b82525050565b60006020820190506110a46000830184611080565b92915050565b6000806000606084860312156110c3576110c2610f1a565b5b60006110d186828701610f68565b93505060206110e286828701610f68565b92505060406110f386828701610f9e565b9150509250925092565b600060ff82169050919050565b611113816110fd565b82525050565b600060208201905061112e600083018461110a565b92915050565b60006020828403121561114a57611149610f1a565b5b600061115884828501610f68565b91505092915050565b600081519050919050565b600082825260208201905092915050565b6000819050602082019050919050565b61119681610f3f565b82525050565b60006111a8838361118d565b60208301905092915050565b6000602082019050919050565b60006111cc82611161565b6111d6818561116c565b93506111e18361117d565b8060005b838110156112125781516111f9888261119c565b9750611204836111b4565b9250506001810190506111e5565b5085935050505092915050565b6000602082019050818103600083015261123981846111c1565b905092915050565b6000806040838503121561125857611257610f1a565b5b600061126685828601610f68565b925050602061127785828601610f68565b9150509250929050565b7f4e487b7100000000000000000000000000000000000000000000000000000000600052602260045260246000fd5b600060028204905060018216806112c857607f821691505b602082108114156112dc576112db611281565b5b50919050565b7f4e487b7100000000000000000000000000000000000000000000000000000000600052601160045260246000fd5b600061131c82610f7d565b915061132783610f7d565b9250827fffffffffffffffffffffffffffffffffffffffffffffffffffffffffffffffff0382111561135c5761135b6112e2565b5b828201905092915050565b7f496e73756666696369656e742062616c616e6365210000000000000000000000600082015250565b600061139d601583610e6a565b91506113a882611367565b602082019050919050565b600060208201905081810360008301526113cc81611390565b9050919050565b60008160011c9050919050565b6000808291508390505b600185111561142a57808604811115611406576114056112e2565b5b60018516156114155780820291505b8081029050611423856113d3565b94506113ea565b94509492505050565b60008261144357600190506114ff565b8161145157600090506114ff565b81600181146114675760028114611471576114a0565b60019150506114ff565b60ff841115611483576114826112e2565b5b8360020a91508482111561149a576114996112e2565b5b506114ff565b5060208310610133831016604e8410600b84101617156114d55782820a9050838111156114d0576114cf6112e2565b5b6114ff565b6114e284848460016113e0565b925090508184048111156114f9576114f86112e2565b5b81810290505b9392505050565b600061151182610f7d565b915061151c83610f7d565b92506115497fffffffffffffffffffffffffffffffffffffffffffffffffffffffffffffffff8484611433565b905092915050565b600061155c82610f7d565b915061156783610f7d565b9250817fffffffffffffffffffffffffffffffffffffffffffffffffffffffffffffffff04831182151516156115a05761159f6112e2565b5b828202905092915050565b60006115b682610f7d565b91506115c183610f7d565b9250828210156115d4576115d36112e2565b5b828203905092915050565b7f45524332303a2064656372656173656420616c6c6f77616e63652062656c6f7760008201527f207a65726f000000000000000000000000000000000000000000000000000000602082015250565b600061163b602583610e6a565b9150611646826115df565b604082019050919050565b6000602082019050818103600083015261166a8161162e565b9050919050565b7f45524332303a20617070726f76652066726f6d20746865207a65726f2061646460008201527f7265737300000000000000000000000000000000000000000000000000000000602082015250565b60006116cd602483610e6a565b91506116d882611671565b604082019050919050565b600060208201905081810360008301526116fc816116c0565b9050919050565b7f45524332303a20617070726f766520746f20746865207a65726f20616464726560008201527f7373000000000000000000000000000000000000000000000000000000000000602082015250565b600061175f602283610e6a565b915061176a82611703565b604082019050919050565b6000602082019050818103600083015261178e81611752565b9050919050565b7f45524332303a20696e73756666696369656e7420616c6c6f77616e6365000000600082015250565b60006117cb601d83610e6a565b91506117d682611795565b602082019050919050565b600060208201905081810360008301526117fa816117be565b9050919050565b7f45524332303a207472616e736665722066726f6d20746865207a65726f20616460008201527f6472657373000000000000000000000000000000000000000000000000000000602082015250565b600061185d602583610e6a565b915061186882611801565b604082019050919050565b6000602082019050818103600083015261188c81611850565b9050919050565b7f45524332303a207472616e7366657220746f20746865207a65726f206164647260008201527f6573730000000000000000000000000000000000000000000000000000000000602082015250565b60006118ef602383610e6a565b91506118fa82611893565b604082019050919050565b6000602082019050818103600083015261191e816118e2565b9050919050565b7f45524332303a207472616e7366657220616d6f756e742065786365656473206260008201527f616c616e63650000000000000000000000000000000000000000000000000000602082015250565b6000611981602683610e6a565b915061198c82611925565b604082019050919050565b600060208201905081810360008301526119b081611974565b905091905056fea26469706673582212201298e464a422b3a590ef5097bd16efe983c6acb91164d18df9b746be6b1643dc64736f6c63430008090033a264697066735822122031d1a5214a099020e480ae37d0d0703f87c04e794536a72870830d543d4143d764736f6c63430008090033",
  "linkReferences": {},
  "deployedLinkReferences": {}
}