{
  "_format": "hh-sol-artifact-1",
  "contractName": "Escrow",
  "sourceName": "contracts/Escrow.sol",
  "abi": [
    {
      "inputs": [],
      "stateMutability": "nonpayable",
      "type": "constructor"
    },
    {
      "inputs": [],
      "name": "buyerAddress",
      "outputs": [
        {
          "internalType": "address payable",
          "name": "",
          "type": "address"
        }
      ],
      "stateMutability": "view",
      "type": "function"
    },
    {
      "inputs": [],
      "name": "cancelNFT",
      "outputs": [],
      "stateMutability": "nonpayable",
      "type": "function"
    },
    {
      "inputs": [],
      "name": "confirmDelivery",
      "outputs": [],
      "stateMutability": "payable",
      "type": "function"
    },
    {
      "inputs": [],
      "name": "depositETH",
      "outputs": [],
      "stateMutability": "payable",
      "type": "function"
    },
    {
      "inputs": [
        {
          "internalType": "address",
          "name": "_NFTAddress",
          "type": "address"
        },
        {
          "internalType": "uint256",
          "name": "_TokenID",
          "type": "uint256"
        }
      ],
      "name": "depositNFT",
      "outputs": [],
      "stateMutability": "nonpayable",
      "type": "function"
    },
    {
      "inputs": [],
      "name": "nftAddress",
      "outputs": [
        {
          "internalType": "address",
          "name": "",
          "type": "address"
        }
      ],
      "stateMutability": "view",
      "type": "function"
    },
    {
      "inputs": [
        {
          "internalType": "address",
          "name": "operator",
          "type": "address"
        },
        {
          "internalType": "address",
          "name": "from",
          "type": "address"
        },
        {
          "internalType": "uint256",
          "name": "tokenId",
          "type": "uint256"
        },
        {
          "internalType": "bytes",
          "name": "data",
          "type": "bytes"
        }
      ],
      "name": "onERC721Received",
      "outputs": [
        {
          "internalType": "bytes4",
          "name": "",
          "type": "bytes4"
        }
      ],
      "stateMutability": "pure",
      "type": "function"
    },
    {
      "inputs": [],
      "name": "sellerAddress",
      "outputs": [
        {
          "internalType": "address payable",
          "name": "",
          "type": "address"
        }
      ],
      "stateMutability": "view",
      "type": "function"
    },
    {
      "inputs": [],
      "name": "state",
      "outputs": [
        {
          "internalType": "enum Escrow.EscrowState",
          "name": "",
          "type": "uint8"
        }
      ],
      "stateMutability": "view",
      "type": "function"
    },
    {
      "inputs": [],
      "name": "tokenId",
      "outputs": [
        {
          "internalType": "uint256",
          "name": "",
          "type": "uint256"
        }
      ],
      "stateMutability": "view",
      "type": "function"
    },
    {
      "inputs": [],
      "name": "withdrawPayment",
      "outputs": [],
      "stateMutability": "nonpayable",
      "type": "function"
    }
  ],
  "bytecode": "0x608060405234801561001057600080fd5b5033600160006101000a81548173ffffffffffffffffffffffffffffffffffffffff021916908373ffffffffffffffffffffffffffffffffffffffff1602179055506000600460006101000a81548160ff0219169083600581111561007857610077610082565b5b02179055506100b1565b7f4e487b7100000000000000000000000000000000000000000000000000000000600052602160045260246000fd5b610f14806100c06000396000f3fe60806040526004361061009c5760003560e01c80635e10177b116100645780635e10177b1461018a5780639b5b9b1814610194578063a118babd146101bd578063aa00810b146101d4578063c19d93fb146101eb578063f6326fb3146102165761009c565b8063150b7a02146100a157806317d70f7c146100de5780633d9b2ae61461010957806344834aca146101345780635bf8633a1461015f575b600080fd5b3480156100ad57600080fd5b506100c860048036038101906100c39190610a2a565b610220565b6040516100d59190610aed565b60405180910390f35b3480156100ea57600080fd5b506100f3610235565b6040516101009190610b17565b60405180910390f35b34801561011557600080fd5b5061011e61023b565b60405161012b9190610b53565b60405180910390f35b34801561014057600080fd5b50610149610261565b6040516101569190610b53565b60405180910390f35b34801561016b57600080fd5b50610174610287565b6040516101819190610b7d565b60405180910390f35b6101926102ab565b005b3480156101a057600080fd5b506101bb60048036038101906101b69190610b98565b610427565b005b3480156101c957600080fd5b506101d26105bd565b005b3480156101e057600080fd5b506101e9610686565b005b3480156101f757600080fd5b506102006108a7565b60405161020d9190610c4f565b60405180910390f35b61021e6108ba565b005b600063150b7a0260e01b905095945050505050565b60035481565b600160009054906101000a900473ffffffffffffffffffffffffffffffffffffffff1681565b600260009054906101000a900473ffffffffffffffffffffffffffffffffffffffff1681565b60008054906101000a900473ffffffffffffffffffffffffffffffffffffffff1681565b60008054906101000a900473ffffffffffffffffffffffffffffffffffffffff1673ffffffffffffffffffffffffffffffffffffffff166342842e0e30600260009054906101000a900473ffffffffffffffffffffffffffffffffffffffff166003546040518463ffffffff1660e01b815260040161032c93929190610cc9565b600060405180830381600087803b15801561034657600080fd5b505af115801561035a573d6000803e3d6000fd5b505050506000600160009054906101000a900473ffffffffffffffffffffffffffffffffffffffff1673ffffffffffffffffffffffffffffffffffffffff166108fc479081150290604051600060405180830381858888f193505050509050806103f9576040517f08c379a00000000000000000000000000000000000000000000000000000000081526004016103f090610d5d565b60405180910390fd5b6005600460006101000a81548160ff0219169083600581111561041f5761041e610bd8565b5b021790555050565b816000806101000a81548173ffffffffffffffffffffffffffffffffffffffff021916908373ffffffffffffffffffffffffffffffffffffffff1602179055508060038190555060008054906101000a900473ffffffffffffffffffffffffffffffffffffffff1673ffffffffffffffffffffffffffffffffffffffff1663095ea7b3306003546040518363ffffffff1660e01b81526004016104cb929190610d7d565b600060405180830381600087803b1580156104e557600080fd5b505af11580156104f9573d6000803e3d6000fd5b5050505060008054906101000a900473ffffffffffffffffffffffffffffffffffffffff1673ffffffffffffffffffffffffffffffffffffffff166323b872dd33306003546040518463ffffffff1660e01b815260040161055c93929190610da6565b600060405180830381600087803b15801561057657600080fd5b505af115801561058a573d6000803e3d6000fd5b505050506001600460006101000a81548160ff021916908360058111156105b4576105b3610bd8565b5b02179055505050565b6000600260009054906101000a900473ffffffffffffffffffffffffffffffffffffffff1673ffffffffffffffffffffffffffffffffffffffff166108fc479081150290604051600060405180830381858888f19350505050905080610658576040517f08c379a000000000000000000000000000000000000000000000000000000000815260040161064f90610e29565b60405180910390fd5b6003600460006101000a81548160ff0219169083600581111561067e5761067d610bd8565b5b021790555050565b600160009054906101000a900473ffffffffffffffffffffffffffffffffffffffff1673ffffffffffffffffffffffffffffffffffffffff163373ffffffffffffffffffffffffffffffffffffffff1614610716576040517f08c379a000000000000000000000000000000000000000000000000000000000815260040161070d90610e95565b60405180910390fd5b60008054906101000a900473ffffffffffffffffffffffffffffffffffffffff1673ffffffffffffffffffffffffffffffffffffffff1663095ea7b3600160009054906101000a900473ffffffffffffffffffffffffffffffffffffffff166003546040518363ffffffff1660e01b8152600401610795929190610eb5565b600060405180830381600087803b1580156107af57600080fd5b505af11580156107c3573d6000803e3d6000fd5b5050505060008054906101000a900473ffffffffffffffffffffffffffffffffffffffff1673ffffffffffffffffffffffffffffffffffffffff166323b872dd30600160009054906101000a900473ffffffffffffffffffffffffffffffffffffffff166003546040518463ffffffff1660e01b815260040161084893929190610cc9565b600060405180830381600087803b15801561086257600080fd5b505af1158015610876573d6000803e3d6000fd5b505050506002600460006101000a81548160ff021916908360058111156108a05761089f610bd8565b5b0217905550565b600460009054906101000a900460ff1681565b33600260006101000a81548173ffffffffffffffffffffffffffffffffffffffff021916908373ffffffffffffffffffffffffffffffffffffffff16021790555060048060006101000a81548160ff021916908360058111156109205761091f610bd8565b5b0217905550565b600080fd5b600080fd5b600073ffffffffffffffffffffffffffffffffffffffff82169050919050565b600061095c82610931565b9050919050565b61096c81610951565b811461097757600080fd5b50565b60008135905061098981610963565b92915050565b6000819050919050565b6109a28161098f565b81146109ad57600080fd5b50565b6000813590506109bf81610999565b92915050565b600080fd5b600080fd5b600080fd5b60008083601f8401126109ea576109e96109c5565b5b8235905067ffffffffffffffff811115610a0757610a066109ca565b5b602083019150836001820283011115610a2357610a226109cf565b5b9250929050565b600080600080600060808688031215610a4657610a45610927565b5b6000610a548882890161097a565b9550506020610a658882890161097a565b9450506040610a76888289016109b0565b935050606086013567ffffffffffffffff811115610a9757610a9661092c565b5b610aa3888289016109d4565b92509250509295509295909350565b60007fffffffff0000000000000000000000000000000000000000000000000000000082169050919050565b610ae781610ab2565b82525050565b6000602082019050610b026000830184610ade565b92915050565b610b118161098f565b82525050565b6000602082019050610b2c6000830184610b08565b92915050565b6000610b3d82610931565b9050919050565b610b4d81610b32565b82525050565b6000602082019050610b686000830184610b44565b92915050565b610b7781610951565b82525050565b6000602082019050610b926000830184610b6e565b92915050565b60008060408385031215610baf57610bae610927565b5b6000610bbd8582860161097a565b9250506020610bce858286016109b0565b9150509250929050565b7f4e487b7100000000000000000000000000000000000000000000000000000000600052602160045260246000fd5b60068110610c1857610c17610bd8565b5b50565b6000819050610c2982610c07565b919050565b6000610c3982610c1b565b9050919050565b610c4981610c2e565b82525050565b6000602082019050610c646000830184610c40565b92915050565b6000819050919050565b6000610c8f610c8a610c8584610931565b610c6a565b610931565b9050919050565b6000610ca182610c74565b9050919050565b6000610cb382610c96565b9050919050565b610cc381610ca8565b82525050565b6000606082019050610cde6000830186610b6e565b610ceb6020830185610cba565b610cf86040830184610b08565b949350505050565b600082825260208201905092915050565b7f4661696c656420746f2073656e64206d6f6e6579210000000000000000000000600082015250565b6000610d47601583610d00565b9150610d5282610d11565b602082019050919050565b60006020820190508181036000830152610d7681610d3a565b9050919050565b6000604082019050610d926000830185610b6e565b610d9f6020830184610b08565b9392505050565b6000606082019050610dbb6000830186610b6e565b610dc86020830185610b6e565b610dd56040830184610b08565b949350505050565b7f4661696c656420746f20726566756e64206d6f6e657921000000000000000000600082015250565b6000610e13601783610d00565b9150610e1e82610ddd565b602082019050919050565b60006020820190508181036000830152610e4281610e06565b9050919050565b7f4f6e6c792073656c6c65722063616e2063616e63656c204e4654210000000000600082015250565b6000610e7f601b83610d00565b9150610e8a82610e49565b602082019050919050565b60006020820190508181036000830152610eae81610e72565b9050919050565b6000604082019050610eca6000830185610cba565b610ed76020830184610b08565b939250505056fea2646970667358221220cda494658c37a9db479853f8104125275c1f3a0c9fce6d79c4c3e7a3f9b47a3064736f6c63430008090033",
  "linkReferences": {},
  "deployedLinkReferences": {}
}